{
	"contracts/Voting.sol": {
		"Voting": {
			"abi": [
				{
					"inputs": [
						{
							"internalType": "address",
							"name": "_contractOwner",
							"type": "address"
						}
					],
					"stateMutability": "nonpayable",
					"type": "constructor"
				},
				{
					"inputs": [
						{
							"internalType": "address",
							"name": "owner",
							"type": "address"
						}
					],
					"name": "OwnableInvalidOwner",
					"type": "error"
				},
				{
					"inputs": [
						{
							"internalType": "address",
							"name": "account",
							"type": "address"
						}
					],
					"name": "OwnableUnauthorizedAccount",
					"type": "error"
				},
				{
					"inputs": [
						{
							"internalType": "uint256",
							"name": "value",
							"type": "uint256"
						},
						{
							"internalType": "uint256",
							"name": "length",
							"type": "uint256"
						}
					],
					"name": "StringsInsufficientHexLength",
					"type": "error"
				},
				{
					"anonymous": false,
					"inputs": [
						{
							"indexed": true,
							"internalType": "address",
							"name": "previousOwner",
							"type": "address"
						},
						{
							"indexed": true,
							"internalType": "address",
							"name": "newOwner",
							"type": "address"
						}
					],
					"name": "OwnershipTransferred",
					"type": "event"
				},
				{
					"anonymous": false,
					"inputs": [
						{
							"indexed": false,
							"internalType": "uint256",
							"name": "proposalId",
							"type": "uint256"
						}
					],
					"name": "ProposalRegistered",
					"type": "event"
				},
				{
					"anonymous": false,
					"inputs": [
						{
							"indexed": false,
							"internalType": "address",
							"name": "voter",
							"type": "address"
						},
						{
							"indexed": false,
							"internalType": "uint256",
							"name": "proposalId",
							"type": "uint256"
						}
					],
					"name": "Voted",
					"type": "event"
				},
				{
					"anonymous": false,
					"inputs": [
						{
							"indexed": false,
							"internalType": "address",
							"name": "voterAddress",
							"type": "address"
						}
					],
					"name": "VoterRegistered",
					"type": "event"
				},
				{
					"anonymous": false,
					"inputs": [
						{
							"indexed": false,
							"internalType": "enum Voting.WorkflowStatus",
							"name": "previousStatus",
							"type": "uint8"
						},
						{
							"indexed": false,
							"internalType": "enum Voting.WorkflowStatus",
							"name": "newStatus",
							"type": "uint8"
						}
					],
					"name": "WorkflowStatusChange",
					"type": "event"
				},
				{
					"inputs": [],
					"name": "closeProposalRegistration",
					"outputs": [
						{
							"internalType": "string",
							"name": "confirmation",
							"type": "string"
						}
					],
					"stateMutability": "nonpayable",
					"type": "function"
				},
				{
					"inputs": [],
					"name": "closeVotingSession",
					"outputs": [
						{
							"internalType": "string",
							"name": "confirmation",
							"type": "string"
						}
					],
					"stateMutability": "nonpayable",
					"type": "function"
				},
				{
					"inputs": [
						{
							"internalType": "address",
							"name": "voterToConsult",
							"type": "address"
						}
					],
					"name": "consultVote",
					"outputs": [
						{
							"internalType": "string",
							"name": "result",
							"type": "string"
						}
					],
					"stateMutability": "view",
					"type": "function"
				},
				{
					"inputs": [],
					"name": "currentSessionStatus",
					"outputs": [
						{
							"internalType": "enum Voting.WorkflowStatus",
							"name": "",
							"type": "uint8"
						}
					],
					"stateMutability": "view",
					"type": "function"
				},
				{
					"inputs": [],
					"name": "displayProposals",
					"outputs": [
						{
							"internalType": "string",
							"name": "proposalsToString",
							"type": "string"
						}
					],
					"stateMutability": "view",
					"type": "function"
				},
				{
					"inputs": [],
					"name": "getWinner",
					"outputs": [
						{
							"internalType": "address",
							"name": "winnerID",
							"type": "address"
						}
					],
					"stateMutability": "nonpayable",
					"type": "function"
				},
				{
					"inputs": [],
					"name": "openProposalRegistration",
					"outputs": [
						{
							"internalType": "string",
							"name": "confirmation",
							"type": "string"
						}
					],
					"stateMutability": "nonpayable",
					"type": "function"
				},
				{
					"inputs": [],
					"name": "openVotingSession",
					"outputs": [
						{
							"internalType": "string",
							"name": "confirmation",
							"type": "string"
						}
					],
					"stateMutability": "nonpayable",
					"type": "function"
				},
				{
					"inputs": [],
					"name": "owner",
					"outputs": [
						{
							"internalType": "address",
							"name": "",
							"type": "address"
						}
					],
					"stateMutability": "view",
					"type": "function"
				},
				{
					"inputs": [],
					"name": "previousSessionStatus",
					"outputs": [
						{
							"internalType": "enum Voting.WorkflowStatus",
							"name": "",
							"type": "uint8"
						}
					],
					"stateMutability": "view",
					"type": "function"
				},
				{
					"inputs": [],
					"name": "proposalRegistrationSessionIsOpened",
					"outputs": [
						{
							"internalType": "bool",
							"name": "",
							"type": "bool"
						}
					],
					"stateMutability": "view",
					"type": "function"
				},
				{
					"inputs": [
						{
							"internalType": "uint256",
							"name": "",
							"type": "uint256"
						}
					],
					"name": "proposals",
					"outputs": [
						{
							"internalType": "address",
							"name": "hasBeenSubmittedBy",
							"type": "address"
						},
						{
							"internalType": "string",
							"name": "description",
							"type": "string"
						},
						{
							"internalType": "uint256",
							"name": "voteCount",
							"type": "uint256"
						}
					],
					"stateMutability": "view",
					"type": "function"
				},
				{
					"inputs": [
						{
							"internalType": "address",
							"name": "voterToAdd",
							"type": "address"
						}
					],
					"name": "registerVoter",
					"outputs": [
						{
							"internalType": "string",
							"name": "confirmation",
							"type": "string"
						}
					],
					"stateMutability": "nonpayable",
					"type": "function"
				},
				{
					"inputs": [
						{
							"internalType": "address[]",
							"name": "votersToAdd",
							"type": "address[]"
						}
					],
					"name": "registerVoters",
					"outputs": [
						{
							"internalType": "string",
							"name": "confirmation",
							"type": "string"
						}
					],
					"stateMutability": "nonpayable",
					"type": "function"
				},
				{
					"inputs": [],
					"name": "renounceOwnership",
					"outputs": [],
					"stateMutability": "nonpayable",
					"type": "function"
				},
				{
					"inputs": [
						{
							"internalType": "string",
							"name": "descritpion",
							"type": "string"
						}
					],
					"name": "submitProposal",
					"outputs": [
						{
							"internalType": "string",
							"name": "confirmation",
							"type": "string"
						}
					],
					"stateMutability": "nonpayable",
					"type": "function"
				},
				{
					"inputs": [],
					"name": "tallyVotes",
					"outputs": [],
					"stateMutability": "nonpayable",
					"type": "function"
				},
				{
					"inputs": [
						{
							"internalType": "address",
							"name": "newOwner",
							"type": "address"
						}
					],
					"name": "transferOwnership",
					"outputs": [],
					"stateMutability": "nonpayable",
					"type": "function"
				},
				{
					"inputs": [
						{
							"internalType": "uint256",
							"name": "proposalId",
							"type": "uint256"
						}
					],
					"name": "vote",
					"outputs": [
						{
							"internalType": "string",
							"name": "confirmation",
							"type": "string"
						}
					],
					"stateMutability": "nonpayable",
					"type": "function"
				},
				{
					"inputs": [],
					"name": "voterRegistrationIsOpened",
					"outputs": [
						{
							"internalType": "bool",
							"name": "",
							"type": "bool"
						}
					],
					"stateMutability": "view",
					"type": "function"
				},
				{
					"inputs": [
						{
							"internalType": "address",
							"name": "",
							"type": "address"
						}
					],
					"name": "voters",
					"outputs": [
						{
							"internalType": "bool",
							"name": "isRegistered",
							"type": "bool"
						},
						{
							"internalType": "bool",
							"name": "hasVoted",
							"type": "bool"
						},
						{
							"internalType": "uint256",
							"name": "votedProposalId",
							"type": "uint256"
						}
					],
					"stateMutability": "view",
					"type": "function"
				},
				{
					"inputs": [],
					"name": "votingSessionIsOpened",
					"outputs": [
						{
							"internalType": "bool",
							"name": "",
							"type": "bool"
						}
					],
					"stateMutability": "view",
					"type": "function"
				},
				{
					"inputs": [],
					"name": "winningProposal",
					"outputs": [
						{
							"internalType": "uint256",
							"name": "winningProposal_",
							"type": "uint256"
						}
					],
					"stateMutability": "view",
					"type": "function"
				}
			],
			"devdoc": {
				"errors": {
					"OwnableInvalidOwner(address)": [
						{
							"details": "The owner is not a valid owner account. (eg. `address(0)`)"
						}
					],
					"OwnableUnauthorizedAccount(address)": [
						{
							"details": "The caller account is not authorized to perform an operation."
						}
					],
					"StringsInsufficientHexLength(uint256,uint256)": [
						{
							"details": "The `value` string doesn't fit in the specified `length`."
						}
					]
				},
				"kind": "dev",
				"methods": {
					"owner()": {
						"details": "Returns the address of the current owner."
					},
					"renounceOwnership()": {
						"details": "Leaves the contract without owner. It will not be possible to call `onlyOwner` functions. Can only be called by the current owner. NOTE: Renouncing ownership will leave the contract without an owner, thereby disabling any functionality that is only available to the owner."
					},
					"transferOwnership(address)": {
						"details": "Transfers ownership of the contract to a new account (`newOwner`). Can only be called by the current owner."
					}
				},
				"version": 1
			},
			"evm": {
				"assembly": "    /* \"contracts/Voting.sol\":163:7317  contract Voting is Ownable {... */\n  mstore(0x40, 0x80)\n    /* \"contracts/Voting.sol\":983:1090  constructor(address _contractOwner) Ownable(_contractOwner) {... */\n  callvalue\n  dup1\n  iszero\n  tag_1\n  jumpi\n  0x00\n  dup1\n  revert\ntag_1:\n  pop\n  mload(0x40)\n  sub(codesize, bytecodeSize)\n  dup1\n  bytecodeSize\n  dup4\n  codecopy\n  dup2\n  dup2\n  add\n  0x40\n  mstore\n  dup2\n  add\n  swap1\n  tag_2\n  swap2\n  swap1\n  tag_3\n  jump\t// in\ntag_2:\n    /* \"contracts/Voting.sol\":1027:1041  _contractOwner */\n  dup1\n    /* \"@openzeppelin/contracts/access/Ownable.sol\":1297:1298  0 */\n  0x00\n    /* \"@openzeppelin/contracts/access/Ownable.sol\":1273:1299  initialOwner == address(0) */\n  0xffffffffffffffffffffffffffffffffffffffff\n  and\n    /* \"@openzeppelin/contracts/access/Ownable.sol\":1273:1285  initialOwner */\n  dup2\n    /* \"@openzeppelin/contracts/access/Ownable.sol\":1273:1299  initialOwner == address(0) */\n  0xffffffffffffffffffffffffffffffffffffffff\n  and\n  sub\n    /* \"@openzeppelin/contracts/access/Ownable.sol\":1269:1364  if (initialOwner == address(0)) {... */\n  tag_7\n  jumpi\n    /* \"@openzeppelin/contracts/access/Ownable.sol\":1350:1351  0 */\n  0x00\n    /* \"@openzeppelin/contracts/access/Ownable.sol\":1322:1353  OwnableInvalidOwner(address(0)) */\n  mload(0x40)\n  0x1e4fbdf700000000000000000000000000000000000000000000000000000000\n  dup2\n  mstore\n  0x04\n  add\n  tag_8\n  swap2\n  swap1\n  tag_9\n  jump\t// in\ntag_8:\n  mload(0x40)\n  dup1\n  swap2\n  sub\n  swap1\n  revert\n    /* \"@openzeppelin/contracts/access/Ownable.sol\":1269:1364  if (initialOwner == address(0)) {... */\ntag_7:\n    /* \"@openzeppelin/contracts/access/Ownable.sol\":1373:1405  _transferOwnership(initialOwner) */\n  tag_10\n    /* \"@openzeppelin/contracts/access/Ownable.sol\":1392:1404  initialOwner */\n  dup2\n    /* \"@openzeppelin/contracts/access/Ownable.sol\":1373:1391  _transferOwnership */\n  shl(0x20, tag_11)\n    /* \"@openzeppelin/contracts/access/Ownable.sol\":1373:1405  _transferOwnership(initialOwner) */\n  0x20\n  shr\n  jump\t// in\ntag_10:\n    /* \"@openzeppelin/contracts/access/Ownable.sol\":1225:1412  constructor(address initialOwner) {... */\n  pop\n    /* \"contracts/Voting.sol\":1069:1083  _contractOwner */\n  dup1\n    /* \"contracts/Voting.sol\":1053:1066  contractOwner */\n  0x01\n  0x00\n    /* \"contracts/Voting.sol\":1053:1083  contractOwner = _contractOwner */\n  0x0100\n  exp\n  dup2\n  sload\n  dup2\n  0xffffffffffffffffffffffffffffffffffffffff\n  mul\n  not\n  and\n  swap1\n  dup4\n  0xffffffffffffffffffffffffffffffffffffffff\n  and\n  mul\n  or\n  swap1\n  sstore\n  pop\n    /* \"contracts/Voting.sol\":983:1090  constructor(address _contractOwner) Ownable(_contractOwner) {... */\n  pop\n    /* \"contracts/Voting.sol\":163:7317  contract Voting is Ownable {... */\n  jump(tag_13)\n    /* \"@openzeppelin/contracts/access/Ownable.sol\":2912:3099  function _transferOwnership(address newOwner) internal virtual {... */\ntag_11:\n    /* \"@openzeppelin/contracts/access/Ownable.sol\":2985:3001  address oldOwner */\n  0x00\n    /* \"@openzeppelin/contracts/access/Ownable.sol\":3004:3010  _owner */\n  dup1\n  0x00\n  swap1\n  sload\n  swap1\n  0x0100\n  exp\n  swap1\n  div\n  0xffffffffffffffffffffffffffffffffffffffff\n  and\n    /* \"@openzeppelin/contracts/access/Ownable.sol\":2985:3010  address oldOwner = _owner */\n  swap1\n  pop\n    /* \"@openzeppelin/contracts/access/Ownable.sol\":3029:3037  newOwner */\n  dup2\n    /* \"@openzeppelin/contracts/access/Ownable.sol\":3020:3026  _owner */\n  0x00\n  dup1\n    /* \"@openzeppelin/contracts/access/Ownable.sol\":3020:3037  _owner = newOwner */\n  0x0100\n  exp\n  dup2\n  sload\n  dup2\n  0xffffffffffffffffffffffffffffffffffffffff\n  mul\n  not\n  and\n  swap1\n  dup4\n  0xffffffffffffffffffffffffffffffffffffffff\n  and\n  mul\n  or\n  swap1\n  sstore\n  pop\n    /* \"@openzeppelin/contracts/access/Ownable.sol\":3083:3091  newOwner */\n  dup2\n    /* \"@openzeppelin/contracts/access/Ownable.sol\":3052:3092  OwnershipTransferred(oldOwner, newOwner) */\n  0xffffffffffffffffffffffffffffffffffffffff\n  and\n    /* \"@openzeppelin/contracts/access/Ownable.sol\":3073:3081  oldOwner */\n  dup2\n    /* \"@openzeppelin/contracts/access/Ownable.sol\":3052:3092  OwnershipTransferred(oldOwner, newOwner) */\n  0xffffffffffffffffffffffffffffffffffffffff\n  and\n  0x8be0079c531659141344cd1fd0a4f28419497f9722a3daafe3b4186f6b6457e0\n  mload(0x40)\n  mload(0x40)\n  dup1\n  swap2\n  sub\n  swap1\n  log3\n    /* \"@openzeppelin/contracts/access/Ownable.sol\":2975:3099  {... */\n  pop\n    /* \"@openzeppelin/contracts/access/Ownable.sol\":2912:3099  function _transferOwnership(address newOwner) internal virtual {... */\n  pop\n  jump\t// out\n    /* \"#utility.yul\":88:205   */\ntag_16:\n    /* \"#utility.yul\":197:198   */\n  0x00\n    /* \"#utility.yul\":194:195   */\n  dup1\n    /* \"#utility.yul\":187:199   */\n  revert\n    /* \"#utility.yul\":334:460   */\ntag_18:\n    /* \"#utility.yul\":371:378   */\n  0x00\n    /* \"#utility.yul\":411:453   */\n  0xffffffffffffffffffffffffffffffffffffffff\n    /* \"#utility.yul\":404:409   */\n  dup3\n    /* \"#utility.yul\":400:454   */\n  and\n    /* \"#utility.yul\":389:454   */\n  swap1\n  pop\n    /* \"#utility.yul\":334:460   */\n  swap2\n  swap1\n  pop\n  jump\t// out\n    /* \"#utility.yul\":466:562   */\ntag_19:\n    /* \"#utility.yul\":503:510   */\n  0x00\n    /* \"#utility.yul\":532:556   */\n  tag_29\n    /* \"#utility.yul\":550:555   */\n  dup3\n    /* \"#utility.yul\":532:556   */\n  tag_18\n  jump\t// in\ntag_29:\n    /* \"#utility.yul\":521:556   */\n  swap1\n  pop\n    /* \"#utility.yul\":466:562   */\n  swap2\n  swap1\n  pop\n  jump\t// out\n    /* \"#utility.yul\":568:690   */\ntag_20:\n    /* \"#utility.yul\":641:665   */\n  tag_31\n    /* \"#utility.yul\":659:664   */\n  dup2\n    /* \"#utility.yul\":641:665   */\n  tag_19\n  jump\t// in\ntag_31:\n    /* \"#utility.yul\":634:639   */\n  dup2\n    /* \"#utility.yul\":631:666   */\n  eq\n    /* \"#utility.yul\":621:684   */\n  tag_32\n  jumpi\n    /* \"#utility.yul\":680:681   */\n  0x00\n    /* \"#utility.yul\":677:678   */\n  dup1\n    /* \"#utility.yul\":670:682   */\n  revert\n    /* \"#utility.yul\":621:684   */\ntag_32:\n    /* \"#utility.yul\":568:690   */\n  pop\n  jump\t// out\n    /* \"#utility.yul\":696:839   */\ntag_21:\n    /* \"#utility.yul\":753:758   */\n  0x00\n    /* \"#utility.yul\":784:790   */\n  dup2\n    /* \"#utility.yul\":778:791   */\n  mload\n    /* \"#utility.yul\":769:791   */\n  swap1\n  pop\n    /* \"#utility.yul\":800:833   */\n  tag_34\n    /* \"#utility.yul\":827:832   */\n  dup2\n    /* \"#utility.yul\":800:833   */\n  tag_20\n  jump\t// in\ntag_34:\n    /* \"#utility.yul\":696:839   */\n  swap3\n  swap2\n  pop\n  pop\n  jump\t// out\n    /* \"#utility.yul\":845:1196   */\ntag_3:\n    /* \"#utility.yul\":915:921   */\n  0x00\n    /* \"#utility.yul\":964:966   */\n  0x20\n    /* \"#utility.yul\":952:961   */\n  dup3\n    /* \"#utility.yul\":943:950   */\n  dup5\n    /* \"#utility.yul\":939:962   */\n  sub\n    /* \"#utility.yul\":935:967   */\n  slt\n    /* \"#utility.yul\":932:1051   */\n  iszero\n  tag_36\n  jumpi\n    /* \"#utility.yul\":970:1049   */\n  tag_37\n  tag_16\n  jump\t// in\ntag_37:\n    /* \"#utility.yul\":932:1051   */\ntag_36:\n    /* \"#utility.yul\":1090:1091   */\n  0x00\n    /* \"#utility.yul\":1115:1179   */\n  tag_38\n    /* \"#utility.yul\":1171:1178   */\n  dup5\n    /* \"#utility.yul\":1162:1168   */\n  dup3\n    /* \"#utility.yul\":1151:1160   */\n  dup6\n    /* \"#utility.yul\":1147:1169   */\n  add\n    /* \"#utility.yul\":1115:1179   */\n  tag_21\n  jump\t// in\ntag_38:\n    /* \"#utility.yul\":1105:1179   */\n  swap2\n  pop\n    /* \"#utility.yul\":1061:1189   */\n  pop\n    /* \"#utility.yul\":845:1196   */\n  swap3\n  swap2\n  pop\n  pop\n  jump\t// out\n    /* \"#utility.yul\":1202:1320   */\ntag_22:\n    /* \"#utility.yul\":1289:1313   */\n  tag_40\n    /* \"#utility.yul\":1307:1312   */\n  dup2\n    /* \"#utility.yul\":1289:1313   */\n  tag_19\n  jump\t// in\ntag_40:\n    /* \"#utility.yul\":1284:1287   */\n  dup3\n    /* \"#utility.yul\":1277:1314   */\n  mstore\n    /* \"#utility.yul\":1202:1320   */\n  pop\n  pop\n  jump\t// out\n    /* \"#utility.yul\":1326:1548   */\ntag_9:\n    /* \"#utility.yul\":1419:1423   */\n  0x00\n    /* \"#utility.yul\":1457:1459   */\n  0x20\n    /* \"#utility.yul\":1446:1455   */\n  dup3\n    /* \"#utility.yul\":1442:1460   */\n  add\n    /* \"#utility.yul\":1434:1460   */\n  swap1\n  pop\n    /* \"#utility.yul\":1470:1541   */\n  tag_42\n    /* \"#utility.yul\":1538:1539   */\n  0x00\n    /* \"#utility.yul\":1527:1536   */\n  dup4\n    /* \"#utility.yul\":1523:1540   */\n  add\n    /* \"#utility.yul\":1514:1520   */\n  dup5\n    /* \"#utility.yul\":1470:1541   */\n  tag_22\n  jump\t// in\ntag_42:\n    /* \"#utility.yul\":1326:1548   */\n  swap3\n  swap2\n  pop\n  pop\n  jump\t// out\n    /* \"contracts/Voting.sol\":163:7317  contract Voting is Ownable {... */\ntag_13:\n  dataSize(sub_0)\n  dup1\n  dataOffset(sub_0)\n  0x00\n  codecopy\n  0x00\n  return\nstop\n\nsub_0: assembly {\n        /* \"contracts/Voting.sol\":163:7317  contract Voting is Ownable {... */\n      mstore(0x40, 0x80)\n      callvalue\n      dup1\n      iszero\n      tag_1\n      jumpi\n      0x00\n      dup1\n      revert\n    tag_1:\n      pop\n      jumpi(tag_2, lt(calldatasize, 0x04))\n      shr(0xe0, calldataload(0x00))\n      dup1\n      0x67469356\n      gt\n      tag_26\n      jumpi\n      dup1\n      0xa3ec138d\n      gt\n      tag_27\n      jumpi\n      dup1\n      0xa3ec138d\n      eq\n      tag_20\n      jumpi\n      dup1\n      0xb2c63487\n      eq\n      tag_21\n      jumpi\n      dup1\n      0xd55ec9c1\n      eq\n      tag_22\n      jumpi\n      dup1\n      0xeaa37999\n      eq\n      tag_23\n      jumpi\n      dup1\n      0xf06d1090\n      eq\n      tag_24\n      jumpi\n      dup1\n      0xf2fde38b\n      eq\n      tag_25\n      jumpi\n      jump(tag_2)\n    tag_27:\n      dup1\n      0x67469356\n      eq\n      tag_14\n      jumpi\n      dup1\n      0x686caf9e\n      eq\n      tag_15\n      jumpi\n      dup1\n      0x715018a6\n      eq\n      tag_16\n      jumpi\n      dup1\n      0x7c70458f\n      eq\n      tag_17\n      jumpi\n      dup1\n      0x8da5cb5b\n      eq\n      tag_18\n      jumpi\n      dup1\n      0x8e7ea5b2\n      eq\n      tag_19\n      jumpi\n      jump(tag_2)\n    tag_26:\n      dup1\n      0x378a2178\n      gt\n      tag_28\n      jumpi\n      dup1\n      0x378a2178\n      eq\n      tag_8\n      jumpi\n      dup1\n      0x38db6dd3\n      eq\n      tag_9\n      jumpi\n      dup1\n      0x3fb2d578\n      eq\n      tag_10\n      jumpi\n      dup1\n      0x4de17bca\n      eq\n      tag_11\n      jumpi\n      dup1\n      0x55880949\n      eq\n      tag_12\n      jumpi\n      dup1\n      0x609ff1bd\n      eq\n      tag_13\n      jumpi\n      jump(tag_2)\n    tag_28:\n      dup1\n      0x0121b93f\n      eq\n      tag_3\n      jumpi\n      dup1\n      0x013cf08b\n      eq\n      tag_4\n      jumpi\n      dup1\n      0x07fa315f\n      eq\n      tag_5\n      jumpi\n      dup1\n      0x1181a490\n      eq\n      tag_6\n      jumpi\n      dup1\n      0x373d6d5e\n      eq\n      tag_7\n      jumpi\n    tag_2:\n      0x00\n      dup1\n      revert\n        /* \"contracts/Voting.sol\":4956:5487  function vote(uint proposalId) public returns (string memory confirmation) {... */\n    tag_3:\n      tag_29\n      0x04\n      dup1\n      calldatasize\n      sub\n      dup2\n      add\n      swap1\n      tag_30\n      swap2\n      swap1\n      tag_31\n      jump\t// in\n    tag_30:\n      tag_32\n      jump\t// in\n    tag_29:\n      mload(0x40)\n      tag_33\n      swap2\n      swap1\n      tag_34\n      jump\t// in\n    tag_33:\n      mload(0x40)\n      dup1\n      swap2\n      sub\n      swap1\n      return\n        /* \"contracts/Voting.sol\":715:742  Proposal[] public proposals */\n    tag_4:\n      tag_35\n      0x04\n      dup1\n      calldatasize\n      sub\n      dup2\n      add\n      swap1\n      tag_36\n      swap2\n      swap1\n      tag_31\n      jump\t// in\n    tag_36:\n      tag_37\n      jump\t// in\n    tag_35:\n      mload(0x40)\n      tag_38\n      swap4\n      swap3\n      swap2\n      swap1\n      tag_39\n      jump\t// in\n    tag_38:\n      mload(0x40)\n      dup1\n      swap2\n      sub\n      swap1\n      return\n        /* \"contracts/Voting.sol\":2053:2642  function closeProposalRegistration() public returns (string memory confirmation ) {... */\n    tag_5:\n      tag_40\n      tag_41\n      jump\t// in\n    tag_40:\n      mload(0x40)\n      tag_42\n      swap2\n      swap1\n      tag_34\n      jump\t// in\n    tag_42:\n      mload(0x40)\n      dup1\n      swap2\n      sub\n      swap1\n      return\n        /* \"contracts/Voting.sol\":885:927  WorkflowStatus public currentSessionStatus */\n    tag_6:\n      tag_43\n      tag_44\n      jump\t// in\n    tag_43:\n      mload(0x40)\n      tag_45\n      swap2\n      swap1\n      tag_46\n      jump\t// in\n    tag_45:\n      mload(0x40)\n      dup1\n      swap2\n      sub\n      swap1\n      return\n        /* \"contracts/Voting.sol\":5493:5961  function submitProposal(string calldata descritpion) public returns (string memory confirmation) {... */\n    tag_7:\n      tag_47\n      0x04\n      dup1\n      calldatasize\n      sub\n      dup2\n      add\n      swap1\n      tag_48\n      swap2\n      swap1\n      tag_49\n      jump\t// in\n    tag_48:\n      tag_50\n      jump\t// in\n    tag_47:\n      mload(0x40)\n      tag_51\n      swap2\n      swap1\n      tag_34\n      jump\t// in\n    tag_51:\n      mload(0x40)\n      dup1\n      swap2\n      sub\n      swap1\n      return\n        /* \"contracts/Voting.sol\":3745:3975  function tallyVotes() public {... */\n    tag_8:\n      tag_52\n      tag_53\n      jump\t// in\n    tag_52:\n      stop\n        /* \"contracts/Voting.sol\":3982:4400  function registerVoter(address voterToAdd) public check returns (string memory confirmation) {... */\n    tag_9:\n      tag_54\n      0x04\n      dup1\n      calldatasize\n      sub\n      dup2\n      add\n      swap1\n      tag_55\n      swap2\n      swap1\n      tag_56\n      jump\t// in\n    tag_55:\n      tag_57\n      jump\t// in\n    tag_54:\n      mload(0x40)\n      tag_58\n      swap2\n      swap1\n      tag_34\n      jump\t// in\n    tag_58:\n      mload(0x40)\n      dup1\n      swap2\n      sub\n      swap1\n      return\n        /* \"contracts/Voting.sol\":792:839  bool public proposalRegistrationSessionIsOpened */\n    tag_10:\n      tag_59\n      tag_60\n      jump\t// in\n    tag_59:\n      mload(0x40)\n      tag_61\n      swap2\n      swap1\n      tag_62\n      jump\t// in\n    tag_61:\n      mload(0x40)\n      dup1\n      swap2\n      sub\n      swap1\n      return\n        /* \"contracts/Voting.sol\":3196:3739  function closeVotingSession() public returns (string memory confirmation) {... */\n    tag_11:\n      tag_63\n      tag_64\n      jump\t// in\n    tag_63:\n      mload(0x40)\n      tag_65\n      swap2\n      swap1\n      tag_34\n      jump\t// in\n    tag_65:\n      mload(0x40)\n      dup1\n      swap2\n      sub\n      swap1\n      return\n        /* \"contracts/Voting.sol\":5966:6376  function consultVote(address voterToConsult) public view returns (string memory result) {... */\n    tag_12:\n      tag_66\n      0x04\n      dup1\n      calldatasize\n      sub\n      dup2\n      add\n      swap1\n      tag_67\n      swap2\n      swap1\n      tag_56\n      jump\t// in\n    tag_67:\n      tag_68\n      jump\t// in\n    tag_66:\n      mload(0x40)\n      tag_69\n      swap2\n      swap1\n      tag_34\n      jump\t// in\n    tag_69:\n      mload(0x40)\n      dup1\n      swap2\n      sub\n      swap1\n      return\n        /* \"contracts/Voting.sol\":6807:7156  function winningProposal() public view returns (uint winningProposal_) {... */\n    tag_13:\n      tag_70\n      tag_71\n      jump\t// in\n    tag_70:\n      mload(0x40)\n      tag_72\n      swap2\n      swap1\n      tag_73\n      jump\t// in\n    tag_72:\n      mload(0x40)\n      dup1\n      swap2\n      sub\n      swap1\n      return\n        /* \"contracts/Voting.sol\":6382:6801  function displayProposals() public view returns (string memory proposalsToString) {... */\n    tag_14:\n      tag_74\n      tag_75\n      jump\t// in\n    tag_74:\n      mload(0x40)\n      tag_76\n      swap2\n      swap1\n      tag_34\n      jump\t// in\n    tag_76:\n      mload(0x40)\n      dup1\n      swap2\n      sub\n      swap1\n      return\n        /* \"contracts/Voting.sol\":845:878  bool public votingSessionIsOpened */\n    tag_15:\n      tag_77\n      tag_78\n      jump\t// in\n    tag_77:\n      mload(0x40)\n      tag_79\n      swap2\n      swap1\n      tag_62\n      jump\t// in\n    tag_79:\n      mload(0x40)\n      dup1\n      swap2\n      sub\n      swap1\n      return\n        /* \"@openzeppelin/contracts/access/Ownable.sol\":2293:2394  function renounceOwnership() public virtual onlyOwner {... */\n    tag_16:\n      tag_80\n      tag_81\n      jump\t// in\n    tag_80:\n      stop\n        /* \"contracts/Voting.sol\":749:786  bool public voterRegistrationIsOpened */\n    tag_17:\n      tag_82\n      tag_83\n      jump\t// in\n    tag_82:\n      mload(0x40)\n      tag_84\n      swap2\n      swap1\n      tag_62\n      jump\t// in\n    tag_84:\n      mload(0x40)\n      dup1\n      swap2\n      sub\n      swap1\n      return\n        /* \"@openzeppelin/contracts/access/Ownable.sol\":1638:1723  function owner() public view virtual returns (address) {... */\n    tag_18:\n      tag_85\n      tag_86\n      jump\t// in\n    tag_85:\n      mload(0x40)\n      tag_87\n      swap2\n      swap1\n      tag_88\n      jump\t// in\n    tag_87:\n      mload(0x40)\n      dup1\n      swap2\n      sub\n      swap1\n      return\n        /* \"contracts/Voting.sol\":7162:7314  function getWinner() public returns (address winnerID) {... */\n    tag_19:\n      tag_89\n      tag_90\n      jump\t// in\n    tag_89:\n      mload(0x40)\n      tag_91\n      swap2\n      swap1\n      tag_88\n      jump\t// in\n    tag_91:\n      mload(0x40)\n      dup1\n      swap2\n      sub\n      swap1\n      return\n        /* \"contracts/Voting.sol\":669:708  mapping(address => Voter) public voters */\n    tag_20:\n      tag_92\n      0x04\n      dup1\n      calldatasize\n      sub\n      dup2\n      add\n      swap1\n      tag_93\n      swap2\n      swap1\n      tag_56\n      jump\t// in\n    tag_93:\n      tag_94\n      jump\t// in\n    tag_92:\n      mload(0x40)\n      tag_95\n      swap4\n      swap3\n      swap2\n      swap1\n      tag_96\n      jump\t// in\n    tag_95:\n      mload(0x40)\n      dup1\n      swap2\n      sub\n      swap1\n      return\n        /* \"contracts/Voting.sol\":1447:2047  function openProposalRegistration() public returns (string memory confirmation) {... */\n    tag_21:\n      tag_97\n      tag_98\n      jump\t// in\n    tag_97:\n      mload(0x40)\n      tag_99\n      swap2\n      swap1\n      tag_34\n      jump\t// in\n    tag_99:\n      mload(0x40)\n      dup1\n      swap2\n      sub\n      swap1\n      return\n        /* \"contracts/Voting.sol\":4407:4949  function registerVoters(address[] calldata votersToAdd) public check returns (string memory confirmation) {... */\n    tag_22:\n      tag_100\n      0x04\n      dup1\n      calldatasize\n      sub\n      dup2\n      add\n      swap1\n      tag_101\n      swap2\n      swap1\n      tag_102\n      jump\t// in\n    tag_101:\n      tag_103\n      jump\t// in\n    tag_100:\n      mload(0x40)\n      tag_104\n      swap2\n      swap1\n      tag_34\n      jump\t// in\n    tag_104:\n      mload(0x40)\n      dup1\n      swap2\n      sub\n      swap1\n      return\n        /* \"contracts/Voting.sol\":2648:3190  function openVotingSession() public returns (string memory confirmation) {... */\n    tag_23:\n      tag_105\n      tag_106\n      jump\t// in\n    tag_105:\n      mload(0x40)\n      tag_107\n      swap2\n      swap1\n      tag_34\n      jump\t// in\n    tag_107:\n      mload(0x40)\n      dup1\n      swap2\n      sub\n      swap1\n      return\n        /* \"contracts/Voting.sol\":933:976  WorkflowStatus public previousSessionStatus */\n    tag_24:\n      tag_108\n      tag_109\n      jump\t// in\n    tag_108:\n      mload(0x40)\n      tag_110\n      swap2\n      swap1\n      tag_46\n      jump\t// in\n    tag_110:\n      mload(0x40)\n      dup1\n      swap2\n      sub\n      swap1\n      return\n        /* \"@openzeppelin/contracts/access/Ownable.sol\":2543:2758  function transferOwnership(address newOwner) public virtual onlyOwner {... */\n    tag_25:\n      tag_111\n      0x04\n      dup1\n      calldatasize\n      sub\n      dup2\n      add\n      swap1\n      tag_112\n      swap2\n      swap1\n      tag_56\n      jump\t// in\n    tag_112:\n      tag_113\n      jump\t// in\n    tag_111:\n      stop\n        /* \"contracts/Voting.sol\":4956:5487  function vote(uint proposalId) public returns (string memory confirmation) {... */\n    tag_32:\n        /* \"contracts/Voting.sol\":5003:5029  string memory confirmation */\n      0x60\n        /* \"contracts/Voting.sol\":5045:5066  votingSessionIsOpened */\n      0x04\n      0x02\n      swap1\n      sload\n      swap1\n      0x0100\n      exp\n      swap1\n      div\n      0xff\n      and\n        /* \"contracts/Voting.sol\":5041:5481  if (votingSessionIsOpened) {... */\n      iszero\n      tag_115\n      jumpi\n        /* \"contracts/Voting.sol\":5082:5101  Voter storage voter */\n      0x00\n        /* \"contracts/Voting.sol\":5104:5110  voters */\n      0x02\n        /* \"contracts/Voting.sol\":5104:5122  voters[msg.sender] */\n      0x00\n        /* \"contracts/Voting.sol\":5111:5121  msg.sender */\n      caller\n        /* \"contracts/Voting.sol\":5104:5122  voters[msg.sender] */\n      0xffffffffffffffffffffffffffffffffffffffff\n      and\n      0xffffffffffffffffffffffffffffffffffffffff\n      and\n      dup2\n      mstore\n      0x20\n      add\n      swap1\n      dup2\n      mstore\n      0x20\n      add\n      0x00\n      keccak256\n        /* \"contracts/Voting.sol\":5082:5122  Voter storage voter = voters[msg.sender] */\n      swap1\n      pop\n        /* \"contracts/Voting.sol\":5145:5150  voter */\n      dup1\n        /* \"contracts/Voting.sol\":5145:5159  voter.hasVoted */\n      0x00\n      add\n      0x01\n      swap1\n      sload\n      swap1\n      0x0100\n      exp\n      swap1\n      div\n      0xff\n      and\n        /* \"contracts/Voting.sol\":5144:5159  !voter.hasVoted */\n      iszero\n        /* \"contracts/Voting.sol\":5136:5178  require(!voter.hasVoted, \"Already voted.\") */\n      tag_116\n      jumpi\n      mload(0x40)\n      0x08c379a000000000000000000000000000000000000000000000000000000000\n      dup2\n      mstore\n      0x04\n      add\n      tag_117\n      swap1\n      tag_118\n      jump\t// in\n    tag_117:\n      mload(0x40)\n      dup1\n      swap2\n      sub\n      swap1\n      revert\n    tag_116:\n        /* \"contracts/Voting.sol\":5209:5213  true */\n      0x01\n        /* \"contracts/Voting.sol\":5192:5197  voter */\n      dup2\n        /* \"contracts/Voting.sol\":5192:5206  voter.hasVoted */\n      0x00\n      add\n      0x01\n        /* \"contracts/Voting.sol\":5192:5213  voter.hasVoted = true */\n      0x0100\n      exp\n      dup2\n      sload\n      dup2\n      0xff\n      mul\n      not\n      and\n      swap1\n      dup4\n      iszero\n      iszero\n      mul\n      or\n      swap1\n      sstore\n      pop\n        /* \"contracts/Voting.sol\":5251:5261  proposalId */\n      dup3\n        /* \"contracts/Voting.sol\":5227:5232  voter */\n      dup2\n        /* \"contracts/Voting.sol\":5227:5248  voter.votedProposalId */\n      0x01\n      add\n        /* \"contracts/Voting.sol\":5227:5261  voter.votedProposalId = proposalId */\n      dup2\n      swap1\n      sstore\n      pop\n        /* \"contracts/Voting.sol\":5276:5285  proposals */\n      0x03\n        /* \"contracts/Voting.sol\":5286:5296  proposalId */\n      dup4\n        /* \"contracts/Voting.sol\":5276:5297  proposals[proposalId] */\n      dup2\n      sload\n      dup2\n      lt\n      tag_119\n      jumpi\n      tag_120\n      tag_121\n      jump\t// in\n    tag_120:\n    tag_119:\n      swap1\n      0x00\n      mstore\n      keccak256(0x00, 0x20)\n      swap1\n      0x03\n      mul\n      add\n        /* \"contracts/Voting.sol\":5276:5307  proposals[proposalId].voteCount */\n      0x02\n      add\n      0x00\n        /* \"contracts/Voting.sol\":5276:5309  proposals[proposalId].voteCount++ */\n      dup2\n      sload\n      dup1\n      swap3\n      swap2\n      swap1\n      tag_123\n      swap1\n      tag_124\n      jump\t// in\n    tag_123:\n      swap2\n      swap1\n      pop\n      sstore\n      pop\n        /* \"contracts/Voting.sol\":5328:5368  Voted(msg.sender, voter.votedProposalId) */\n      0x4d99b957a2bc29a30ebd96a7be8e68fe50a3c701db28a91436490b7d53870ca4\n        /* \"contracts/Voting.sol\":5334:5344  msg.sender */\n      caller\n        /* \"contracts/Voting.sol\":5346:5351  voter */\n      dup3\n        /* \"contracts/Voting.sol\":5346:5367  voter.votedProposalId */\n      0x01\n      add\n      sload\n        /* \"contracts/Voting.sol\":5328:5368  Voted(msg.sender, voter.votedProposalId) */\n      mload(0x40)\n      tag_125\n      swap3\n      swap2\n      swap1\n      tag_126\n      jump\t// in\n    tag_125:\n      mload(0x40)\n      dup1\n      swap2\n      sub\n      swap1\n      log1\n        /* \"contracts/Voting.sol\":5382:5404  confirmation = \"Voted\" */\n      mload(0x40)\n      dup1\n      0x40\n      add\n      0x40\n      mstore\n      dup1\n      0x05\n      dup2\n      mstore\n      0x20\n      add\n      0x566f746564000000000000000000000000000000000000000000000000000000\n      dup2\n      mstore\n      pop\n      swap2\n      pop\n        /* \"contracts/Voting.sol\":5068:5415  {... */\n      pop\n        /* \"contracts/Voting.sol\":5041:5481  if (votingSessionIsOpened) {... */\n      jump(tag_127)\n    tag_115:\n        /* \"contracts/Voting.sol\":5435:5470  confirmation = \"Vote not available\" */\n      mload(0x40)\n      dup1\n      0x40\n      add\n      0x40\n      mstore\n      dup1\n      0x12\n      dup2\n      mstore\n      0x20\n      add\n      0x566f7465206e6f7420617661696c61626c650000000000000000000000000000\n      dup2\n      mstore\n      pop\n      swap1\n      pop\n        /* \"contracts/Voting.sol\":5041:5481  if (votingSessionIsOpened) {... */\n    tag_127:\n        /* \"contracts/Voting.sol\":4956:5487  function vote(uint proposalId) public returns (string memory confirmation) {... */\n      swap2\n      swap1\n      pop\n      jump\t// out\n        /* \"contracts/Voting.sol\":715:742  Proposal[] public proposals */\n    tag_37:\n      0x03\n      dup2\n      dup2\n      sload\n      dup2\n      lt\n      tag_128\n      jumpi\n      0x00\n      dup1\n      revert\n    tag_128:\n      swap1\n      0x00\n      mstore\n      keccak256(0x00, 0x20)\n      swap1\n      0x03\n      mul\n      add\n      0x00\n      swap2\n      pop\n      swap1\n      pop\n      dup1\n      0x00\n      add\n      0x00\n      swap1\n      sload\n      swap1\n      0x0100\n      exp\n      swap1\n      div\n      0xffffffffffffffffffffffffffffffffffffffff\n      and\n      swap1\n      dup1\n      0x01\n      add\n      dup1\n      sload\n      tag_130\n      swap1\n      tag_131\n      jump\t// in\n    tag_130:\n      dup1\n      0x1f\n      add\n      0x20\n      dup1\n      swap2\n      div\n      mul\n      0x20\n      add\n      mload(0x40)\n      swap1\n      dup2\n      add\n      0x40\n      mstore\n      dup1\n      swap3\n      swap2\n      swap1\n      dup2\n      dup2\n      mstore\n      0x20\n      add\n      dup3\n      dup1\n      sload\n      tag_132\n      swap1\n      tag_131\n      jump\t// in\n    tag_132:\n      dup1\n      iszero\n      tag_133\n      jumpi\n      dup1\n      0x1f\n      lt\n      tag_134\n      jumpi\n      0x0100\n      dup1\n      dup4\n      sload\n      div\n      mul\n      dup4\n      mstore\n      swap2\n      0x20\n      add\n      swap2\n      jump(tag_133)\n    tag_134:\n      dup3\n      add\n      swap2\n      swap1\n      0x00\n      mstore\n      keccak256(0x00, 0x20)\n      swap1\n    tag_135:\n      dup2\n      sload\n      dup2\n      mstore\n      swap1\n      0x01\n      add\n      swap1\n      0x20\n      add\n      dup1\n      dup4\n      gt\n      tag_135\n      jumpi\n      dup3\n      swap1\n      sub\n      0x1f\n      and\n      dup3\n      add\n      swap2\n    tag_133:\n      pop\n      pop\n      pop\n      pop\n      pop\n      swap1\n      dup1\n      0x02\n      add\n      sload\n      swap1\n      pop\n      dup4\n      jump\t// out\n        /* \"contracts/Voting.sol\":2053:2642  function closeProposalRegistration() public returns (string memory confirmation ) {... */\n    tag_41:\n        /* \"contracts/Voting.sol\":2106:2132  string memory confirmation */\n      0x60\n        /* \"contracts/Voting.sol\":2163:2176  contractOwner */\n      0x01\n      0x00\n      swap1\n      sload\n      swap1\n      0x0100\n      exp\n      swap1\n      div\n      0xffffffffffffffffffffffffffffffffffffffff\n      and\n        /* \"contracts/Voting.sol\":2149:2176  msg.sender == contractOwner */\n      0xffffffffffffffffffffffffffffffffffffffff\n      and\n        /* \"contracts/Voting.sol\":2149:2159  msg.sender */\n      caller\n        /* \"contracts/Voting.sol\":2149:2176  msg.sender == contractOwner */\n      0xffffffffffffffffffffffffffffffffffffffff\n      and\n      sub\n        /* \"contracts/Voting.sol\":2145:2636  if (msg.sender == contractOwner) {... */\n      tag_137\n      jumpi\n        /* \"contracts/Voting.sol\":2230:2235  false */\n      0x00\n        /* \"contracts/Voting.sol\":2192:2227  proposalRegistrationSessionIsOpened */\n      0x04\n      0x01\n        /* \"contracts/Voting.sol\":2192:2235  proposalRegistrationSessionIsOpened = false */\n      0x0100\n      exp\n      dup2\n      sload\n      dup2\n      0xff\n      mul\n      not\n      and\n      swap1\n      dup4\n      iszero\n      iszero\n      mul\n      or\n      swap1\n      sstore\n      pop\n        /* \"contracts/Voting.sol\":2273:2293  currentSessionStatus */\n      0x04\n      0x03\n      swap1\n      sload\n      swap1\n      0x0100\n      exp\n      swap1\n      div\n      0xff\n      and\n        /* \"contracts/Voting.sol\":2249:2270  previousSessionStatus */\n      0x04\n      dup1\n        /* \"contracts/Voting.sol\":2249:2293  previousSessionStatus = currentSessionStatus */\n      0x0100\n      exp\n      dup2\n      sload\n      dup2\n      0xff\n      mul\n      not\n      and\n      swap1\n      dup4\n      0x05\n      dup2\n      gt\n      iszero\n      tag_138\n      jumpi\n      tag_139\n      tag_140\n      jump\t// in\n    tag_139:\n    tag_138:\n      mul\n      or\n      swap1\n      sstore\n      pop\n        /* \"contracts/Voting.sol\":2330:2371  WorkflowStatus.ProposalsRegistrationEnded */\n      0x02\n        /* \"contracts/Voting.sol\":2307:2327  currentSessionStatus */\n      0x04\n      0x03\n        /* \"contracts/Voting.sol\":2307:2371  currentSessionStatus = WorkflowStatus.ProposalsRegistrationEnded */\n      0x0100\n      exp\n      dup2\n      sload\n      dup2\n      0xff\n      mul\n      not\n      and\n      swap1\n      dup4\n      0x05\n      dup2\n      gt\n      iszero\n      tag_141\n      jumpi\n      tag_142\n      tag_140\n      jump\t// in\n    tag_142:\n    tag_141:\n      mul\n      or\n      swap1\n      sstore\n      pop\n        /* \"contracts/Voting.sol\":2390:2455  WorkflowStatusChange(previousSessionStatus, currentSessionStatus) */\n      0x0a97a4ee45751e2abf3e4fc8946939630b11b371ea8ae39ccdc3056e98f5cc3f\n        /* \"contracts/Voting.sol\":2411:2432  previousSessionStatus */\n      0x04\n      dup1\n      sload\n      swap1\n      0x0100\n      exp\n      swap1\n      div\n      0xff\n      and\n        /* \"contracts/Voting.sol\":2434:2454  currentSessionStatus */\n      0x04\n      0x03\n      swap1\n      sload\n      swap1\n      0x0100\n      exp\n      swap1\n      div\n      0xff\n      and\n        /* \"contracts/Voting.sol\":2390:2455  WorkflowStatusChange(previousSessionStatus, currentSessionStatus) */\n      mload(0x40)\n      tag_143\n      swap3\n      swap2\n      swap1\n      tag_144\n      jump\t// in\n    tag_143:\n      mload(0x40)\n      dup1\n      swap2\n      sub\n      swap1\n      log1\n        /* \"contracts/Voting.sol\":2469:2526  confirmation = \"The proposals registration is now closed\" */\n      mload(0x40)\n      dup1\n      0x60\n      add\n      0x40\n      mstore\n      dup1\n      0x28\n      dup2\n      mstore\n      0x20\n      add\n      data_2f0ffc18843a02f24c9deca7bacfe051a4aeb4f47d6f35a4007bcbc0e5d2b7c4\n      0x28\n      swap2\n      codecopy\n      swap1\n      pop\n        /* \"contracts/Voting.sol\":2145:2636  if (msg.sender == contractOwner) {... */\n      jump(tag_145)\n    tag_137:\n        /* \"contracts/Voting.sol\":2557:2625  confirmation = \"Only the owner can close the proposals registration\" */\n      mload(0x40)\n      dup1\n      0x60\n      add\n      0x40\n      mstore\n      dup1\n      0x33\n      dup2\n      mstore\n      0x20\n      add\n      data_76f3d43de8cdad96b0b56def1184b01fcba5eb8d2e1f2382a50af536cc460d32\n      0x33\n      swap2\n      codecopy\n      swap1\n      pop\n        /* \"contracts/Voting.sol\":2145:2636  if (msg.sender == contractOwner) {... */\n    tag_145:\n        /* \"contracts/Voting.sol\":2053:2642  function closeProposalRegistration() public returns (string memory confirmation ) {... */\n      swap1\n      jump\t// out\n        /* \"contracts/Voting.sol\":885:927  WorkflowStatus public currentSessionStatus */\n    tag_44:\n      0x04\n      0x03\n      swap1\n      sload\n      swap1\n      0x0100\n      exp\n      swap1\n      div\n      0xff\n      and\n      dup2\n      jump\t// out\n        /* \"contracts/Voting.sol\":5493:5961  function submitProposal(string calldata descritpion) public returns (string memory confirmation) {... */\n    tag_50:\n        /* \"contracts/Voting.sol\":5562:5588  string memory confirmation */\n      0x60\n        /* \"contracts/Voting.sol\":5604:5639  proposalRegistrationSessionIsOpened */\n      0x04\n      0x01\n      swap1\n      sload\n      swap1\n      0x0100\n      exp\n      swap1\n      div\n      0xff\n      and\n        /* \"contracts/Voting.sol\":5600:5955  if (proposalRegistrationSessionIsOpened) {... */\n      iszero\n      tag_147\n      jumpi\n        /* \"contracts/Voting.sol\":5656:5680  Proposal memory proposal */\n      0x00\n        /* \"contracts/Voting.sol\":5683:5719  Proposal(msg.sender, descritpion, 0) */\n      mload(0x40)\n      dup1\n      0x60\n      add\n      0x40\n      mstore\n      dup1\n        /* \"contracts/Voting.sol\":5692:5702  msg.sender */\n      caller\n        /* \"contracts/Voting.sol\":5683:5719  Proposal(msg.sender, descritpion, 0) */\n      0xffffffffffffffffffffffffffffffffffffffff\n      and\n      dup2\n      mstore\n      0x20\n      add\n        /* \"contracts/Voting.sol\":5704:5715  descritpion */\n      dup6\n      dup6\n        /* \"contracts/Voting.sol\":5683:5719  Proposal(msg.sender, descritpion, 0) */\n      dup1\n      dup1\n      0x1f\n      add\n      0x20\n      dup1\n      swap2\n      div\n      mul\n      0x20\n      add\n      mload(0x40)\n      swap1\n      dup2\n      add\n      0x40\n      mstore\n      dup1\n      swap4\n      swap3\n      swap2\n      swap1\n      dup2\n      dup2\n      mstore\n      0x20\n      add\n      dup4\n      dup4\n      dup1\n      dup3\n      dup5\n      calldatacopy\n      0x00\n      dup2\n      dup5\n      add\n      mstore\n      not(0x1f)\n      0x1f\n      dup3\n      add\n      and\n      swap1\n      pop\n      dup1\n      dup4\n      add\n      swap3\n      pop\n      pop\n      pop\n      pop\n      pop\n      pop\n      pop\n      dup2\n      mstore\n      0x20\n      add\n        /* \"contracts/Voting.sol\":5717:5718  0 */\n      0x00\n        /* \"contracts/Voting.sol\":5683:5719  Proposal(msg.sender, descritpion, 0) */\n      dup2\n      mstore\n      pop\n        /* \"contracts/Voting.sol\":5656:5719  Proposal memory proposal = Proposal(msg.sender, descritpion, 0) */\n      swap1\n      pop\n        /* \"contracts/Voting.sol\":5733:5742  proposals */\n      0x03\n        /* \"contracts/Voting.sol\":5748:5756  proposal */\n      dup2\n        /* \"contracts/Voting.sol\":5733:5757  proposals.push(proposal) */\n      swap1\n      dup1\n      0x01\n      dup2\n      sload\n      add\n      dup1\n      dup3\n      sstore\n      dup1\n      swap2\n      pop\n      pop\n      0x01\n      swap1\n      sub\n      swap1\n      0x00\n      mstore\n      keccak256(0x00, 0x20)\n      swap1\n      0x03\n      mul\n      add\n      0x00\n      swap1\n      swap2\n      swap1\n      swap2\n      swap1\n      swap2\n      pop\n      0x00\n      dup3\n      add\n      mload\n      dup2\n      0x00\n      add\n      exp(0x0100, 0x00)\n      dup2\n      sload\n      dup2\n      0xffffffffffffffffffffffffffffffffffffffff\n      mul\n      not\n      and\n      swap1\n      dup4\n      0xffffffffffffffffffffffffffffffffffffffff\n      and\n      mul\n      or\n      swap1\n      sstore\n      pop\n      0x20\n      dup3\n      add\n      mload\n      dup2\n      0x01\n      add\n      swap1\n      dup2\n      tag_149\n      swap2\n      swap1\n      tag_150\n      jump\t// in\n    tag_149:\n      pop\n      0x40\n      dup3\n      add\n      mload\n      dup2\n      0x02\n      add\n      sstore\n      pop\n      pop\n        /* \"contracts/Voting.sol\":5776:5814  ProposalRegistered(proposals.length-1) */\n      0x92e393e9b54e2f801d3ea4beb0c5e71a21cc34a5d34b77d0fb8a3aa1650dc18f\n        /* \"contracts/Voting.sol\":5812:5813  1 */\n      0x01\n        /* \"contracts/Voting.sol\":5795:5804  proposals */\n      0x03\n        /* \"contracts/Voting.sol\":5795:5811  proposals.length */\n      dup1\n      sload\n      swap1\n      pop\n        /* \"contracts/Voting.sol\":5795:5813  proposals.length-1 */\n      tag_151\n      swap2\n      swap1\n      tag_152\n      jump\t// in\n    tag_151:\n        /* \"contracts/Voting.sol\":5776:5814  ProposalRegistered(proposals.length-1) */\n      mload(0x40)\n      tag_153\n      swap2\n      swap1\n      tag_73\n      jump\t// in\n    tag_153:\n      mload(0x40)\n      dup1\n      swap2\n      sub\n      swap1\n      log1\n        /* \"contracts/Voting.sol\":5828:5863  confirmation = \"Proposal submitted\" */\n      mload(0x40)\n      dup1\n      0x40\n      add\n      0x40\n      mstore\n      dup1\n      0x12\n      dup2\n      mstore\n      0x20\n      add\n      0x50726f706f73616c207375626d69747465640000000000000000000000000000\n      dup2\n      mstore\n      pop\n      swap2\n      pop\n        /* \"contracts/Voting.sol\":5641:5874  {... */\n      pop\n        /* \"contracts/Voting.sol\":5600:5955  if (proposalRegistrationSessionIsOpened) {... */\n      jump(tag_154)\n    tag_147:\n        /* \"contracts/Voting.sol\":5894:5944  confirmation = \"Impossible to submit the proposal\" */\n      mload(0x40)\n      dup1\n      0x60\n      add\n      0x40\n      mstore\n      dup1\n      0x21\n      dup2\n      mstore\n      0x20\n      add\n      data_45ba25bcd275f0d4a19e5bb98899419bcb1b28f7c401176b754a4739a198375b\n      0x21\n      swap2\n      codecopy\n      swap1\n      pop\n        /* \"contracts/Voting.sol\":5600:5955  if (proposalRegistrationSessionIsOpened) {... */\n    tag_154:\n        /* \"contracts/Voting.sol\":5493:5961  function submitProposal(string calldata descritpion) public returns (string memory confirmation) {... */\n      swap3\n      swap2\n      pop\n      pop\n      jump\t// out\n        /* \"contracts/Voting.sol\":3745:3975  function tallyVotes() public {... */\n    tag_53:\n        /* \"contracts/Voting.sol\":3808:3828  currentSessionStatus */\n      0x04\n      0x03\n      swap1\n      sload\n      swap1\n      0x0100\n      exp\n      swap1\n      div\n      0xff\n      and\n        /* \"contracts/Voting.sol\":3784:3805  previousSessionStatus */\n      0x04\n      dup1\n        /* \"contracts/Voting.sol\":3784:3828  previousSessionStatus = currentSessionStatus */\n      0x0100\n      exp\n      dup2\n      sload\n      dup2\n      0xff\n      mul\n      not\n      and\n      swap1\n      dup4\n      0x05\n      dup2\n      gt\n      iszero\n      tag_156\n      jumpi\n      tag_157\n      tag_140\n      jump\t// in\n    tag_157:\n    tag_156:\n      mul\n      or\n      swap1\n      sstore\n      pop\n        /* \"contracts/Voting.sol\":3861:3888  WorkflowStatus.VotesTallied */\n      0x05\n        /* \"contracts/Voting.sol\":3838:3858  currentSessionStatus */\n      0x04\n      0x03\n        /* \"contracts/Voting.sol\":3838:3888  currentSessionStatus = WorkflowStatus.VotesTallied */\n      0x0100\n      exp\n      dup2\n      sload\n      dup2\n      0xff\n      mul\n      not\n      and\n      swap1\n      dup4\n      0x05\n      dup2\n      gt\n      iszero\n      tag_158\n      jumpi\n      tag_159\n      tag_140\n      jump\t// in\n    tag_159:\n    tag_158:\n      mul\n      or\n      swap1\n      sstore\n      pop\n        /* \"contracts/Voting.sol\":3903:3968  WorkflowStatusChange(previousSessionStatus, currentSessionStatus) */\n      0x0a97a4ee45751e2abf3e4fc8946939630b11b371ea8ae39ccdc3056e98f5cc3f\n        /* \"contracts/Voting.sol\":3924:3945  previousSessionStatus */\n      0x04\n      dup1\n      sload\n      swap1\n      0x0100\n      exp\n      swap1\n      div\n      0xff\n      and\n        /* \"contracts/Voting.sol\":3947:3967  currentSessionStatus */\n      0x04\n      0x03\n      swap1\n      sload\n      swap1\n      0x0100\n      exp\n      swap1\n      div\n      0xff\n      and\n        /* \"contracts/Voting.sol\":3903:3968  WorkflowStatusChange(previousSessionStatus, currentSessionStatus) */\n      mload(0x40)\n      tag_160\n      swap3\n      swap2\n      swap1\n      tag_144\n      jump\t// in\n    tag_160:\n      mload(0x40)\n      dup1\n      swap2\n      sub\n      swap1\n      log1\n        /* \"contracts/Voting.sol\":3745:3975  function tallyVotes() public {... */\n      jump\t// out\n        /* \"contracts/Voting.sol\":3982:4400  function registerVoter(address voterToAdd) public check returns (string memory confirmation) {... */\n    tag_57:\n        /* \"contracts/Voting.sol\":4047:4073  string memory confirmation */\n      0x60\n        /* \"contracts/Voting.sol\":1402:1406  true */\n      0x01\n        /* \"contracts/Voting.sol\":1367:1406  voters[msg.sender].isRegistered != true */\n      iszero\n      iszero\n        /* \"contracts/Voting.sol\":1367:1373  voters */\n      0x02\n        /* \"contracts/Voting.sol\":1367:1385  voters[msg.sender] */\n      0x00\n        /* \"contracts/Voting.sol\":1374:1384  msg.sender */\n      caller\n        /* \"contracts/Voting.sol\":1367:1385  voters[msg.sender] */\n      0xffffffffffffffffffffffffffffffffffffffff\n      and\n      0xffffffffffffffffffffffffffffffffffffffff\n      and\n      dup2\n      mstore\n      0x20\n      add\n      swap1\n      dup2\n      mstore\n      0x20\n      add\n      0x00\n      keccak256\n        /* \"contracts/Voting.sol\":1367:1398  voters[msg.sender].isRegistered */\n      0x00\n      add\n      0x00\n      swap1\n      sload\n      swap1\n      0x0100\n      exp\n      swap1\n      div\n      0xff\n      and\n        /* \"contracts/Voting.sol\":1367:1406  voters[msg.sender].isRegistered != true */\n      iszero\n      iszero\n      sub\n        /* \"contracts/Voting.sol\":1359:1423  require(voters[msg.sender].isRegistered != true, \"Unauthorized\") */\n      tag_162\n      jumpi\n      mload(0x40)\n      0x08c379a000000000000000000000000000000000000000000000000000000000\n      dup2\n      mstore\n      0x04\n      add\n      tag_163\n      swap1\n      tag_164\n      jump\t// in\n    tag_163:\n      mload(0x40)\n      dup1\n      swap2\n      sub\n      swap1\n      revert\n    tag_162:\n        /* \"contracts/Voting.sol\":4103:4116  contractOwner */\n      0x01\n      0x00\n      swap1\n      sload\n      swap1\n      0x0100\n      exp\n      swap1\n      div\n      0xffffffffffffffffffffffffffffffffffffffff\n      and\n        /* \"contracts/Voting.sol\":4089:4116  msg.sender == contractOwner */\n      0xffffffffffffffffffffffffffffffffffffffff\n      and\n        /* \"contracts/Voting.sol\":4089:4099  msg.sender */\n      caller\n        /* \"contracts/Voting.sol\":4089:4116  msg.sender == contractOwner */\n      0xffffffffffffffffffffffffffffffffffffffff\n      and\n      sub\n        /* \"contracts/Voting.sol\":4085:4393  if (msg.sender == contractOwner) {... */\n      tag_166\n      jumpi\n        /* \"contracts/Voting.sol\":4166:4170  true */\n      0x01\n        /* \"contracts/Voting.sol\":4132:4138  voters */\n      0x02\n        /* \"contracts/Voting.sol\":4132:4150  voters[voterToAdd] */\n      0x00\n        /* \"contracts/Voting.sol\":4139:4149  voterToAdd */\n      dup5\n        /* \"contracts/Voting.sol\":4132:4150  voters[voterToAdd] */\n      0xffffffffffffffffffffffffffffffffffffffff\n      and\n      0xffffffffffffffffffffffffffffffffffffffff\n      and\n      dup2\n      mstore\n      0x20\n      add\n      swap1\n      dup2\n      mstore\n      0x20\n      add\n      0x00\n      keccak256\n        /* \"contracts/Voting.sol\":4132:4163  voters[voterToAdd].isRegistered */\n      0x00\n      add\n      0x00\n        /* \"contracts/Voting.sol\":4132:4170  voters[voterToAdd].isRegistered = true */\n      0x0100\n      exp\n      dup2\n      sload\n      dup2\n      0xff\n      mul\n      not\n      and\n      swap1\n      dup4\n      iszero\n      iszero\n      mul\n      or\n      swap1\n      sstore\n      pop\n        /* \"contracts/Voting.sol\":4214:4219  false */\n      0x00\n        /* \"contracts/Voting.sol\":4184:4190  voters */\n      0x02\n        /* \"contracts/Voting.sol\":4184:4202  voters[voterToAdd] */\n      0x00\n        /* \"contracts/Voting.sol\":4191:4201  voterToAdd */\n      dup5\n        /* \"contracts/Voting.sol\":4184:4202  voters[voterToAdd] */\n      0xffffffffffffffffffffffffffffffffffffffff\n      and\n      0xffffffffffffffffffffffffffffffffffffffff\n      and\n      dup2\n      mstore\n      0x20\n      add\n      swap1\n      dup2\n      mstore\n      0x20\n      add\n      0x00\n      keccak256\n        /* \"contracts/Voting.sol\":4184:4211  voters[voterToAdd].hasVoted */\n      0x00\n      add\n      0x01\n        /* \"contracts/Voting.sol\":4184:4219  voters[voterToAdd].hasVoted = false */\n      0x0100\n      exp\n      dup2\n      sload\n      dup2\n      0xff\n      mul\n      not\n      and\n      swap1\n      dup4\n      iszero\n      iszero\n      mul\n      or\n      swap1\n      sstore\n      pop\n        /* \"contracts/Voting.sol\":4238:4265  VoterRegistered(voterToAdd) */\n      0xb6be2187d059cc2a55fe29e0e503b566e1e0f8c8780096e185429350acffd3dd\n        /* \"contracts/Voting.sol\":4254:4264  voterToAdd */\n      dup3\n        /* \"contracts/Voting.sol\":4238:4265  VoterRegistered(voterToAdd) */\n      mload(0x40)\n      tag_167\n      swap2\n      swap1\n      tag_88\n      jump\t// in\n    tag_167:\n      mload(0x40)\n      dup1\n      swap2\n      sub\n      swap1\n      log1\n        /* \"contracts/Voting.sol\":4279:4307  confirmation = \"Voter added\" */\n      mload(0x40)\n      dup1\n      0x40\n      add\n      0x40\n      mstore\n      dup1\n      0x0b\n      dup2\n      mstore\n      0x20\n      add\n      0x566f746572206164646564000000000000000000000000000000000000000000\n      dup2\n      mstore\n      pop\n      swap1\n      pop\n        /* \"contracts/Voting.sol\":4085:4393  if (msg.sender == contractOwner) {... */\n      jump(tag_168)\n    tag_166:\n        /* \"contracts/Voting.sol\":4338:4382  confirmation = \"Impossible to add the voter\" */\n      mload(0x40)\n      dup1\n      0x40\n      add\n      0x40\n      mstore\n      dup1\n      0x1b\n      dup2\n      mstore\n      0x20\n      add\n      0x496d706f737369626c6520746f206164642074686520766f7465720000000000\n      dup2\n      mstore\n      pop\n      swap1\n      pop\n        /* \"contracts/Voting.sol\":4085:4393  if (msg.sender == contractOwner) {... */\n    tag_168:\n        /* \"contracts/Voting.sol\":3982:4400  function registerVoter(address voterToAdd) public check returns (string memory confirmation) {... */\n      swap2\n      swap1\n      pop\n      jump\t// out\n        /* \"contracts/Voting.sol\":792:839  bool public proposalRegistrationSessionIsOpened */\n    tag_60:\n      0x04\n      0x01\n      swap1\n      sload\n      swap1\n      0x0100\n      exp\n      swap1\n      div\n      0xff\n      and\n      dup2\n      jump\t// out\n        /* \"contracts/Voting.sol\":3196:3739  function closeVotingSession() public returns (string memory confirmation) {... */\n    tag_64:\n        /* \"contracts/Voting.sol\":3242:3268  string memory confirmation */\n      0x60\n        /* \"contracts/Voting.sol\":3298:3311  contractOwner */\n      0x01\n      0x00\n      swap1\n      sload\n      swap1\n      0x0100\n      exp\n      swap1\n      div\n      0xffffffffffffffffffffffffffffffffffffffff\n      and\n        /* \"contracts/Voting.sol\":3284:3311  msg.sender == contractOwner */\n      0xffffffffffffffffffffffffffffffffffffffff\n      and\n        /* \"contracts/Voting.sol\":3284:3294  msg.sender */\n      caller\n        /* \"contracts/Voting.sol\":3284:3311  msg.sender == contractOwner */\n      0xffffffffffffffffffffffffffffffffffffffff\n      and\n      sub\n        /* \"contracts/Voting.sol\":3280:3733  if (msg.sender == contractOwner) {... */\n      tag_170\n      jumpi\n        /* \"contracts/Voting.sol\":3351:3356  false */\n      0x00\n        /* \"contracts/Voting.sol\":3327:3348  votingSessionIsOpened */\n      0x04\n      0x02\n        /* \"contracts/Voting.sol\":3327:3356  votingSessionIsOpened = false */\n      0x0100\n      exp\n      dup2\n      sload\n      dup2\n      0xff\n      mul\n      not\n      and\n      swap1\n      dup4\n      iszero\n      iszero\n      mul\n      or\n      swap1\n      sstore\n      pop\n        /* \"contracts/Voting.sol\":3394:3414  currentSessionStatus */\n      0x04\n      0x03\n      swap1\n      sload\n      swap1\n      0x0100\n      exp\n      swap1\n      div\n      0xff\n      and\n        /* \"contracts/Voting.sol\":3370:3391  previousSessionStatus */\n      0x04\n      dup1\n        /* \"contracts/Voting.sol\":3370:3414  previousSessionStatus = currentSessionStatus */\n      0x0100\n      exp\n      dup2\n      sload\n      dup2\n      0xff\n      mul\n      not\n      and\n      swap1\n      dup4\n      0x05\n      dup2\n      gt\n      iszero\n      tag_171\n      jumpi\n      tag_172\n      tag_140\n      jump\t// in\n    tag_172:\n    tag_171:\n      mul\n      or\n      swap1\n      sstore\n      pop\n        /* \"contracts/Voting.sol\":3451:3484  WorkflowStatus.VotingSessionEnded */\n      0x04\n        /* \"contracts/Voting.sol\":3428:3448  currentSessionStatus */\n      dup1\n      0x03\n        /* \"contracts/Voting.sol\":3428:3484  currentSessionStatus = WorkflowStatus.VotingSessionEnded */\n      0x0100\n      exp\n      dup2\n      sload\n      dup2\n      0xff\n      mul\n      not\n      and\n      swap1\n      dup4\n      0x05\n      dup2\n      gt\n      iszero\n      tag_173\n      jumpi\n      tag_174\n      tag_140\n      jump\t// in\n    tag_174:\n    tag_173:\n      mul\n      or\n      swap1\n      sstore\n      pop\n        /* \"contracts/Voting.sol\":3503:3568  WorkflowStatusChange(previousSessionStatus, currentSessionStatus) */\n      0x0a97a4ee45751e2abf3e4fc8946939630b11b371ea8ae39ccdc3056e98f5cc3f\n        /* \"contracts/Voting.sol\":3524:3545  previousSessionStatus */\n      0x04\n      dup1\n      sload\n      swap1\n      0x0100\n      exp\n      swap1\n      div\n      0xff\n      and\n        /* \"contracts/Voting.sol\":3547:3567  currentSessionStatus */\n      0x04\n      0x03\n      swap1\n      sload\n      swap1\n      0x0100\n      exp\n      swap1\n      div\n      0xff\n      and\n        /* \"contracts/Voting.sol\":3503:3568  WorkflowStatusChange(previousSessionStatus, currentSessionStatus) */\n      mload(0x40)\n      tag_175\n      swap3\n      swap2\n      swap1\n      tag_144\n      jump\t// in\n    tag_175:\n      mload(0x40)\n      dup1\n      swap2\n      sub\n      swap1\n      log1\n        /* \"contracts/Voting.sol\":3582:3631  confirmation = \"The voting session is now opened\" */\n      mload(0x40)\n      dup1\n      0x40\n      add\n      0x40\n      mstore\n      dup1\n      0x20\n      dup2\n      mstore\n      0x20\n      add\n      0x54686520766f74696e672073657373696f6e206973206e6f77206f70656e6564\n      dup2\n      mstore\n      pop\n      swap1\n      pop\n        /* \"contracts/Voting.sol\":3280:3733  if (msg.sender == contractOwner) {... */\n      jump(tag_176)\n    tag_170:\n        /* \"contracts/Voting.sol\":3662:3722  confirmation = \"Only the owner can close the voting session\" */\n      mload(0x40)\n      dup1\n      0x60\n      add\n      0x40\n      mstore\n      dup1\n      0x2b\n      dup2\n      mstore\n      0x20\n      add\n      data_f7540479865b09ae568e9b6ed54864db588b36e32eb75ea997eb6a43dfba6168\n      0x2b\n      swap2\n      codecopy\n      swap1\n      pop\n        /* \"contracts/Voting.sol\":3280:3733  if (msg.sender == contractOwner) {... */\n    tag_176:\n        /* \"contracts/Voting.sol\":3196:3739  function closeVotingSession() public returns (string memory confirmation) {... */\n      swap1\n      jump\t// out\n        /* \"contracts/Voting.sol\":5966:6376  function consultVote(address voterToConsult) public view returns (string memory result) {... */\n    tag_68:\n        /* \"contracts/Voting.sol\":6032:6052  string memory result */\n      0x60\n        /* \"contracts/Voting.sol\":6064:6082  uint256 proposalId */\n      0x00\n        /* \"contracts/Voting.sol\":6085:6091  voters */\n      0x02\n        /* \"contracts/Voting.sol\":6085:6107  voters[voterToConsult] */\n      0x00\n        /* \"contracts/Voting.sol\":6092:6106  voterToConsult */\n      dup5\n        /* \"contracts/Voting.sol\":6085:6107  voters[voterToConsult] */\n      0xffffffffffffffffffffffffffffffffffffffff\n      and\n      0xffffffffffffffffffffffffffffffffffffffff\n      and\n      dup2\n      mstore\n      0x20\n      add\n      swap1\n      dup2\n      mstore\n      0x20\n      add\n      0x00\n      keccak256\n        /* \"contracts/Voting.sol\":6085:6123  voters[voterToConsult].votedProposalId */\n      0x01\n      add\n      sload\n        /* \"contracts/Voting.sol\":6064:6123  uint256 proposalId = voters[voterToConsult].votedProposalId */\n      swap1\n      pop\n        /* \"contracts/Voting.sol\":6133:6167  string storage proposalDescription */\n      0x00\n        /* \"contracts/Voting.sol\":6170:6179  proposals */\n      0x03\n        /* \"contracts/Voting.sol\":6180:6190  proposalId */\n      dup3\n        /* \"contracts/Voting.sol\":6170:6191  proposals[proposalId] */\n      dup2\n      sload\n      dup2\n      lt\n      tag_178\n      jumpi\n      tag_179\n      tag_121\n      jump\t// in\n    tag_179:\n    tag_178:\n      swap1\n      0x00\n      mstore\n      keccak256(0x00, 0x20)\n      swap1\n      0x03\n      mul\n      add\n        /* \"contracts/Voting.sol\":6170:6203  proposals[proposalId].description */\n      0x01\n      add\n        /* \"contracts/Voting.sol\":6133:6203  string storage proposalDescription = proposals[proposalId].description */\n      swap1\n      pop\n        /* \"contracts/Voting.sol\":6246:6281  Strings.toHexString(voterToConsult) */\n      tag_181\n        /* \"contracts/Voting.sol\":6266:6280  voterToConsult */\n      dup5\n        /* \"contracts/Voting.sol\":6246:6265  Strings.toHexString */\n      tag_182\n        /* \"contracts/Voting.sol\":6246:6281  Strings.toHexString(voterToConsult) */\n      jump\t// in\n    tag_181:\n        /* \"contracts/Voting.sol\":6312:6340  Strings.toString(proposalId) */\n      tag_183\n        /* \"contracts/Voting.sol\":6329:6339  proposalId */\n      dup4\n        /* \"contracts/Voting.sol\":6312:6328  Strings.toString */\n      tag_184\n        /* \"contracts/Voting.sol\":6312:6340  Strings.toString(proposalId) */\n      jump\t// in\n    tag_183:\n        /* \"contracts/Voting.sol\":6349:6368  proposalDescription */\n      dup3\n        /* \"contracts/Voting.sol\":6222:6369  string.concat(\"Voter \", Strings.toHexString(voterToConsult), \" has voted for proposal #\", Strings.toString(proposalId), \" : \", proposalDescription) */\n      add(0x20, mload(0x40))\n      tag_185\n      swap4\n      swap3\n      swap2\n      swap1\n      tag_186\n      jump\t// in\n    tag_185:\n      mload(0x40)\n      0x20\n      dup2\n      dup4\n      sub\n      sub\n      dup2\n      mstore\n      swap1\n      0x40\n      mstore\n        /* \"contracts/Voting.sol\":6213:6369  result = string.concat(\"Voter \", Strings.toHexString(voterToConsult), \" has voted for proposal #\", Strings.toString(proposalId), \" : \", proposalDescription) */\n      swap3\n      pop\n        /* \"contracts/Voting.sol\":6054:6376  {... */\n      pop\n      pop\n        /* \"contracts/Voting.sol\":5966:6376  function consultVote(address voterToConsult) public view returns (string memory result) {... */\n      swap2\n      swap1\n      pop\n      jump\t// out\n        /* \"contracts/Voting.sol\":6807:7156  function winningProposal() public view returns (uint winningProposal_) {... */\n    tag_71:\n        /* \"contracts/Voting.sol\":6855:6876  uint winningProposal_ */\n      0x00\n        /* \"contracts/Voting.sol\":6888:6909  uint winningVoteCount */\n      dup1\n        /* \"contracts/Voting.sol\":6912:6913  0 */\n      0x00\n        /* \"contracts/Voting.sol\":6888:6913  uint winningVoteCount = 0 */\n      swap1\n      pop\n        /* \"contracts/Voting.sol\":6928:6934  uint p */\n      0x00\n        /* \"contracts/Voting.sol\":6923:7150  for (uint p = 0; p < proposals.length; p++) {... */\n    tag_188:\n        /* \"contracts/Voting.sol\":6944:6953  proposals */\n      0x03\n        /* \"contracts/Voting.sol\":6944:6960  proposals.length */\n      dup1\n      sload\n      swap1\n      pop\n        /* \"contracts/Voting.sol\":6940:6941  p */\n      dup2\n        /* \"contracts/Voting.sol\":6940:6960  p < proposals.length */\n      lt\n        /* \"contracts/Voting.sol\":6923:7150  for (uint p = 0; p < proposals.length; p++) {... */\n      iszero\n      tag_189\n      jumpi\n        /* \"contracts/Voting.sol\":7010:7026  winningVoteCount */\n      dup2\n        /* \"contracts/Voting.sol\":6985:6994  proposals */\n      0x03\n        /* \"contracts/Voting.sol\":6995:6996  p */\n      dup3\n        /* \"contracts/Voting.sol\":6985:6997  proposals[p] */\n      dup2\n      sload\n      dup2\n      lt\n      tag_191\n      jumpi\n      tag_192\n      tag_121\n      jump\t// in\n    tag_192:\n    tag_191:\n      swap1\n      0x00\n      mstore\n      keccak256(0x00, 0x20)\n      swap1\n      0x03\n      mul\n      add\n        /* \"contracts/Voting.sol\":6985:7007  proposals[p].voteCount */\n      0x02\n      add\n      sload\n        /* \"contracts/Voting.sol\":6985:7026  proposals[p].voteCount > winningVoteCount */\n      gt\n        /* \"contracts/Voting.sol\":6981:7140  if (proposals[p].voteCount > winningVoteCount) {... */\n      iszero\n      tag_194\n      jumpi\n        /* \"contracts/Voting.sol\":7065:7074  proposals */\n      0x03\n        /* \"contracts/Voting.sol\":7075:7076  p */\n      dup2\n        /* \"contracts/Voting.sol\":7065:7077  proposals[p] */\n      dup2\n      sload\n      dup2\n      lt\n      tag_195\n      jumpi\n      tag_196\n      tag_121\n      jump\t// in\n    tag_196:\n    tag_195:\n      swap1\n      0x00\n      mstore\n      keccak256(0x00, 0x20)\n      swap1\n      0x03\n      mul\n      add\n        /* \"contracts/Voting.sol\":7065:7087  proposals[p].voteCount */\n      0x02\n      add\n      sload\n        /* \"contracts/Voting.sol\":7046:7087  winningVoteCount = proposals[p].voteCount */\n      swap2\n      pop\n        /* \"contracts/Voting.sol\":7124:7125  p */\n      dup1\n        /* \"contracts/Voting.sol\":7105:7125  winningProposal_ = p */\n      swap3\n      pop\n        /* \"contracts/Voting.sol\":6981:7140  if (proposals[p].voteCount > winningVoteCount) {... */\n    tag_194:\n        /* \"contracts/Voting.sol\":6962:6965  p++ */\n      dup1\n      dup1\n      tag_198\n      swap1\n      tag_124\n      jump\t// in\n    tag_198:\n      swap2\n      pop\n      pop\n        /* \"contracts/Voting.sol\":6923:7150  for (uint p = 0; p < proposals.length; p++) {... */\n      jump(tag_188)\n    tag_189:\n      pop\n        /* \"contracts/Voting.sol\":6878:7156  {... */\n      pop\n        /* \"contracts/Voting.sol\":6807:7156  function winningProposal() public view returns (uint winningProposal_) {... */\n      swap1\n      jump\t// out\n        /* \"contracts/Voting.sol\":6382:6801  function displayProposals() public view returns (string memory proposalsToString) {... */\n    tag_75:\n        /* \"contracts/Voting.sol\":6431:6462  string memory proposalsToString */\n      0x60\n        /* \"contracts/Voting.sol\":6478:6499  votingSessionIsOpened */\n      0x04\n      0x02\n      swap1\n      sload\n      swap1\n      0x0100\n      exp\n      swap1\n      div\n      0xff\n      and\n        /* \"contracts/Voting.sol\":6478:6523  votingSessionIsOpened && proposals.length > 0 */\n      dup1\n      iszero\n      tag_200\n      jumpi\n      pop\n        /* \"contracts/Voting.sol\":6522:6523  0 */\n      0x00\n        /* \"contracts/Voting.sol\":6503:6512  proposals */\n      0x03\n        /* \"contracts/Voting.sol\":6503:6519  proposals.length */\n      dup1\n      sload\n      swap1\n      pop\n        /* \"contracts/Voting.sol\":6503:6523  proposals.length > 0 */\n      gt\n        /* \"contracts/Voting.sol\":6478:6523  votingSessionIsOpened && proposals.length > 0 */\n    tag_200:\n        /* \"contracts/Voting.sol\":6474:6741  if (votingSessionIsOpened && proposals.length > 0) {... */\n      iszero\n      tag_201\n      jumpi\n        /* \"contracts/Voting.sol\":6544:6550  uint i */\n      0x00\n        /* \"contracts/Voting.sol\":6539:6731  for (uint i = 0; i < proposals.length; i++) {... */\n    tag_202:\n        /* \"contracts/Voting.sol\":6560:6569  proposals */\n      0x03\n        /* \"contracts/Voting.sol\":6560:6576  proposals.length */\n      dup1\n      sload\n      swap1\n      pop\n        /* \"contracts/Voting.sol\":6556:6557  i */\n      dup2\n        /* \"contracts/Voting.sol\":6556:6576  i < proposals.length */\n      lt\n        /* \"contracts/Voting.sol\":6539:6731  for (uint i = 0; i < proposals.length; i++) {... */\n      iszero\n      tag_203\n      jumpi\n        /* \"contracts/Voting.sol\":6631:6648  proposalsToString */\n      dup2\n        /* \"contracts/Voting.sol\":6657:6676  Strings.toString(i) */\n      tag_205\n        /* \"contracts/Voting.sol\":6674:6675  i */\n      dup3\n        /* \"contracts/Voting.sol\":6657:6673  Strings.toString */\n      tag_184\n        /* \"contracts/Voting.sol\":6657:6676  Strings.toString(i) */\n      jump\t// in\n    tag_205:\n        /* \"contracts/Voting.sol\":6685:6694  proposals */\n      0x03\n        /* \"contracts/Voting.sol\":6695:6696  i */\n      dup4\n        /* \"contracts/Voting.sol\":6685:6697  proposals[i] */\n      dup2\n      sload\n      dup2\n      lt\n      tag_206\n      jumpi\n      tag_207\n      tag_121\n      jump\t// in\n    tag_207:\n    tag_206:\n      swap1\n      0x00\n      mstore\n      keccak256(0x00, 0x20)\n      swap1\n      0x03\n      mul\n      add\n        /* \"contracts/Voting.sol\":6685:6709  proposals[i].description */\n      0x01\n      add\n        /* \"contracts/Voting.sol\":6617:6716  string.concat(proposalsToString, \"- #\", Strings.toString(i), \" - \", proposals[i].description, \"\\n\") */\n      add(0x20, mload(0x40))\n      tag_209\n      swap4\n      swap3\n      swap2\n      swap1\n      tag_210\n      jump\t// in\n    tag_209:\n      mload(0x40)\n      0x20\n      dup2\n      dup4\n      sub\n      sub\n      dup2\n      mstore\n      swap1\n      0x40\n      mstore\n        /* \"contracts/Voting.sol\":6597:6716  proposalsToString = string.concat(proposalsToString, \"- #\", Strings.toString(i), \" - \", proposals[i].description, \"\\n\") */\n      swap2\n      pop\n        /* \"contracts/Voting.sol\":6578:6581  i++ */\n      dup1\n      dup1\n      tag_211\n      swap1\n      tag_124\n      jump\t// in\n    tag_211:\n      swap2\n      pop\n      pop\n        /* \"contracts/Voting.sol\":6539:6731  for (uint i = 0; i < proposals.length; i++) {... */\n      jump(tag_202)\n    tag_203:\n      pop\n        /* \"contracts/Voting.sol\":6474:6741  if (votingSessionIsOpened && proposals.length > 0) {... */\n    tag_201:\n        /* \"contracts/Voting.sol\":6750:6794  proposalsToString = \"No proposal submitted.\" */\n      mload(0x40)\n      dup1\n      0x40\n      add\n      0x40\n      mstore\n      dup1\n      0x16\n      dup2\n      mstore\n      0x20\n      add\n      0x4e6f2070726f706f73616c207375626d69747465642e00000000000000000000\n      dup2\n      mstore\n      pop\n      swap1\n      pop\n        /* \"contracts/Voting.sol\":6382:6801  function displayProposals() public view returns (string memory proposalsToString) {... */\n      swap1\n      jump\t// out\n        /* \"contracts/Voting.sol\":845:878  bool public votingSessionIsOpened */\n    tag_78:\n      0x04\n      0x02\n      swap1\n      sload\n      swap1\n      0x0100\n      exp\n      swap1\n      div\n      0xff\n      and\n      dup2\n      jump\t// out\n        /* \"@openzeppelin/contracts/access/Ownable.sol\":2293:2394  function renounceOwnership() public virtual onlyOwner {... */\n    tag_81:\n        /* \"@openzeppelin/contracts/access/Ownable.sol\":1531:1544  _checkOwner() */\n      tag_213\n        /* \"@openzeppelin/contracts/access/Ownable.sol\":1531:1542  _checkOwner */\n      tag_214\n        /* \"@openzeppelin/contracts/access/Ownable.sol\":1531:1544  _checkOwner() */\n      jump\t// in\n    tag_213:\n        /* \"@openzeppelin/contracts/access/Ownable.sol\":2357:2387  _transferOwnership(address(0)) */\n      tag_216\n        /* \"@openzeppelin/contracts/access/Ownable.sol\":2384:2385  0 */\n      0x00\n        /* \"@openzeppelin/contracts/access/Ownable.sol\":2357:2375  _transferOwnership */\n      tag_217\n        /* \"@openzeppelin/contracts/access/Ownable.sol\":2357:2387  _transferOwnership(address(0)) */\n      jump\t// in\n    tag_216:\n        /* \"@openzeppelin/contracts/access/Ownable.sol\":2293:2394  function renounceOwnership() public virtual onlyOwner {... */\n      jump\t// out\n        /* \"contracts/Voting.sol\":749:786  bool public voterRegistrationIsOpened */\n    tag_83:\n      0x04\n      0x00\n      swap1\n      sload\n      swap1\n      0x0100\n      exp\n      swap1\n      div\n      0xff\n      and\n      dup2\n      jump\t// out\n        /* \"@openzeppelin/contracts/access/Ownable.sol\":1638:1723  function owner() public view virtual returns (address) {... */\n    tag_86:\n        /* \"@openzeppelin/contracts/access/Ownable.sol\":1684:1691  address */\n      0x00\n        /* \"@openzeppelin/contracts/access/Ownable.sol\":1710:1716  _owner */\n      dup1\n      0x00\n      swap1\n      sload\n      swap1\n      0x0100\n      exp\n      swap1\n      div\n      0xffffffffffffffffffffffffffffffffffffffff\n      and\n        /* \"@openzeppelin/contracts/access/Ownable.sol\":1703:1716  return _owner */\n      swap1\n      pop\n        /* \"@openzeppelin/contracts/access/Ownable.sol\":1638:1723  function owner() public view virtual returns (address) {... */\n      swap1\n      jump\t// out\n        /* \"contracts/Voting.sol\":7162:7314  function getWinner() public returns (address winnerID) {... */\n    tag_90:\n        /* \"contracts/Voting.sol\":7199:7215  address winnerID */\n      0x00\n        /* \"contracts/Voting.sol\":7238:7247  proposals */\n      0x03\n        /* \"contracts/Voting.sol\":7248:7265  winningProposal() */\n      tag_220\n        /* \"contracts/Voting.sol\":7248:7263  winningProposal */\n      tag_71\n        /* \"contracts/Voting.sol\":7248:7265  winningProposal() */\n      jump\t// in\n    tag_220:\n        /* \"contracts/Voting.sol\":7238:7266  proposals[winningProposal()] */\n      dup2\n      sload\n      dup2\n      lt\n      tag_221\n      jumpi\n      tag_222\n      tag_121\n      jump\t// in\n    tag_222:\n    tag_221:\n      swap1\n      0x00\n      mstore\n      keccak256(0x00, 0x20)\n      swap1\n      0x03\n      mul\n      add\n        /* \"contracts/Voting.sol\":7238:7285  proposals[winningProposal()].hasBeenSubmittedBy */\n      0x00\n      add\n      0x00\n      swap1\n      sload\n      swap1\n      0x0100\n      exp\n      swap1\n      div\n      0xffffffffffffffffffffffffffffffffffffffff\n      and\n        /* \"contracts/Voting.sol\":7227:7285  winnerID = proposals[winningProposal()].hasBeenSubmittedBy */\n      swap1\n      pop\n        /* \"contracts/Voting.sol\":7295:7307  tallyVotes() */\n      tag_224\n        /* \"contracts/Voting.sol\":7295:7305  tallyVotes */\n      tag_53\n        /* \"contracts/Voting.sol\":7295:7307  tallyVotes() */\n      jump\t// in\n    tag_224:\n        /* \"contracts/Voting.sol\":7162:7314  function getWinner() public returns (address winnerID) {... */\n      swap1\n      jump\t// out\n        /* \"contracts/Voting.sol\":669:708  mapping(address => Voter) public voters */\n    tag_94:\n      mstore(0x20, 0x02)\n      dup1\n      0x00\n      mstore\n      keccak256(0x00, 0x40)\n      0x00\n      swap2\n      pop\n      swap1\n      pop\n      dup1\n      0x00\n      add\n      0x00\n      swap1\n      sload\n      swap1\n      0x0100\n      exp\n      swap1\n      div\n      0xff\n      and\n      swap1\n      dup1\n      0x00\n      add\n      0x01\n      swap1\n      sload\n      swap1\n      0x0100\n      exp\n      swap1\n      div\n      0xff\n      and\n      swap1\n      dup1\n      0x01\n      add\n      sload\n      swap1\n      pop\n      dup4\n      jump\t// out\n        /* \"contracts/Voting.sol\":1447:2047  function openProposalRegistration() public returns (string memory confirmation) {... */\n    tag_98:\n        /* \"contracts/Voting.sol\":1499:1525  string memory confirmation */\n      0x60\n        /* \"contracts/Voting.sol\":1555:1568  contractOwner */\n      0x01\n      0x00\n      swap1\n      sload\n      swap1\n      0x0100\n      exp\n      swap1\n      div\n      0xffffffffffffffffffffffffffffffffffffffff\n      and\n        /* \"contracts/Voting.sol\":1541:1568  msg.sender == contractOwner */\n      0xffffffffffffffffffffffffffffffffffffffff\n      and\n        /* \"contracts/Voting.sol\":1541:1551  msg.sender */\n      caller\n        /* \"contracts/Voting.sol\":1541:1568  msg.sender == contractOwner */\n      0xffffffffffffffffffffffffffffffffffffffff\n      and\n      sub\n        /* \"contracts/Voting.sol\":1537:2040  if (msg.sender == contractOwner) {... */\n      tag_226\n      jumpi\n        /* \"contracts/Voting.sol\":1622:1626  true */\n      0x01\n        /* \"contracts/Voting.sol\":1584:1619  proposalRegistrationSessionIsOpened */\n      0x04\n      0x01\n        /* \"contracts/Voting.sol\":1584:1626  proposalRegistrationSessionIsOpened = true */\n      0x0100\n      exp\n      dup2\n      sload\n      dup2\n      0xff\n      mul\n      not\n      and\n      swap1\n      dup4\n      iszero\n      iszero\n      mul\n      or\n      swap1\n      sstore\n      pop\n        /* \"contracts/Voting.sol\":1664:1696  WorkflowStatus.RegisteringVoters */\n      0x00\n        /* \"contracts/Voting.sol\":1640:1661  previousSessionStatus */\n      0x04\n      dup1\n        /* \"contracts/Voting.sol\":1640:1696  previousSessionStatus = WorkflowStatus.RegisteringVoters */\n      0x0100\n      exp\n      dup2\n      sload\n      dup2\n      0xff\n      mul\n      not\n      and\n      swap1\n      dup4\n      0x05\n      dup2\n      gt\n      iszero\n      tag_227\n      jumpi\n      tag_228\n      tag_140\n      jump\t// in\n    tag_228:\n    tag_227:\n      mul\n      or\n      swap1\n      sstore\n      pop\n        /* \"contracts/Voting.sol\":1733:1776  WorkflowStatus.ProposalsRegistrationStarted */\n      0x01\n        /* \"contracts/Voting.sol\":1710:1730  currentSessionStatus */\n      0x04\n      0x03\n        /* \"contracts/Voting.sol\":1710:1776  currentSessionStatus = WorkflowStatus.ProposalsRegistrationStarted */\n      0x0100\n      exp\n      dup2\n      sload\n      dup2\n      0xff\n      mul\n      not\n      and\n      swap1\n      dup4\n      0x05\n      dup2\n      gt\n      iszero\n      tag_229\n      jumpi\n      tag_230\n      tag_140\n      jump\t// in\n    tag_230:\n    tag_229:\n      mul\n      or\n      swap1\n      sstore\n      pop\n        /* \"contracts/Voting.sol\":1795:1860  WorkflowStatusChange(previousSessionStatus, currentSessionStatus) */\n      0x0a97a4ee45751e2abf3e4fc8946939630b11b371ea8ae39ccdc3056e98f5cc3f\n        /* \"contracts/Voting.sol\":1816:1837  previousSessionStatus */\n      0x04\n      dup1\n      sload\n      swap1\n      0x0100\n      exp\n      swap1\n      div\n      0xff\n      and\n        /* \"contracts/Voting.sol\":1839:1859  currentSessionStatus */\n      0x04\n      0x03\n      swap1\n      sload\n      swap1\n      0x0100\n      exp\n      swap1\n      div\n      0xff\n      and\n        /* \"contracts/Voting.sol\":1795:1860  WorkflowStatusChange(previousSessionStatus, currentSessionStatus) */\n      mload(0x40)\n      tag_231\n      swap3\n      swap2\n      swap1\n      tag_144\n      jump\t// in\n    tag_231:\n      mload(0x40)\n      dup1\n      swap2\n      sub\n      swap1\n      log1\n        /* \"contracts/Voting.sol\":1874:1931  confirmation = \"The proposals registration is now opened\" */\n      mload(0x40)\n      dup1\n      0x60\n      add\n      0x40\n      mstore\n      dup1\n      0x28\n      dup2\n      mstore\n      0x20\n      add\n      data_440091fa9eba46a29e9c02481171c9fd56211f745e04143ee58df1023504e963\n      0x28\n      swap2\n      codecopy\n      swap1\n      pop\n        /* \"contracts/Voting.sol\":1537:2040  if (msg.sender == contractOwner) {... */\n      jump(tag_232)\n    tag_226:\n        /* \"contracts/Voting.sol\":1962:2029  confirmation = \"Only the owner can open the proposals registration\" */\n      mload(0x40)\n      dup1\n      0x60\n      add\n      0x40\n      mstore\n      dup1\n      0x32\n      dup2\n      mstore\n      0x20\n      add\n      data_88a406b1d665316b3b2047424e9f0e9c9b428e67803f433038201efdc3d96325\n      0x32\n      swap2\n      codecopy\n      swap1\n      pop\n        /* \"contracts/Voting.sol\":1537:2040  if (msg.sender == contractOwner) {... */\n    tag_232:\n        /* \"contracts/Voting.sol\":1447:2047  function openProposalRegistration() public returns (string memory confirmation) {... */\n      swap1\n      jump\t// out\n        /* \"contracts/Voting.sol\":4407:4949  function registerVoters(address[] calldata votersToAdd) public check returns (string memory confirmation) {... */\n    tag_103:\n        /* \"contracts/Voting.sol\":4485:4511  string memory confirmation */\n      0x60\n        /* \"contracts/Voting.sol\":1402:1406  true */\n      0x01\n        /* \"contracts/Voting.sol\":1367:1406  voters[msg.sender].isRegistered != true */\n      iszero\n      iszero\n        /* \"contracts/Voting.sol\":1367:1373  voters */\n      0x02\n        /* \"contracts/Voting.sol\":1367:1385  voters[msg.sender] */\n      0x00\n        /* \"contracts/Voting.sol\":1374:1384  msg.sender */\n      caller\n        /* \"contracts/Voting.sol\":1367:1385  voters[msg.sender] */\n      0xffffffffffffffffffffffffffffffffffffffff\n      and\n      0xffffffffffffffffffffffffffffffffffffffff\n      and\n      dup2\n      mstore\n      0x20\n      add\n      swap1\n      dup2\n      mstore\n      0x20\n      add\n      0x00\n      keccak256\n        /* \"contracts/Voting.sol\":1367:1398  voters[msg.sender].isRegistered */\n      0x00\n      add\n      0x00\n      swap1\n      sload\n      swap1\n      0x0100\n      exp\n      swap1\n      div\n      0xff\n      and\n        /* \"contracts/Voting.sol\":1367:1406  voters[msg.sender].isRegistered != true */\n      iszero\n      iszero\n      sub\n        /* \"contracts/Voting.sol\":1359:1423  require(voters[msg.sender].isRegistered != true, \"Unauthorized\") */\n      tag_234\n      jumpi\n      mload(0x40)\n      0x08c379a000000000000000000000000000000000000000000000000000000000\n      dup2\n      mstore\n      0x04\n      add\n      tag_235\n      swap1\n      tag_164\n      jump\t// in\n    tag_235:\n      mload(0x40)\n      dup1\n      swap2\n      sub\n      swap1\n      revert\n    tag_234:\n        /* \"contracts/Voting.sol\":4543:4556  contractOwner */\n      0x01\n      0x00\n      swap1\n      sload\n      swap1\n      0x0100\n      exp\n      swap1\n      div\n      0xffffffffffffffffffffffffffffffffffffffff\n      and\n        /* \"contracts/Voting.sol\":4529:4556  msg.sender == contractOwner */\n      0xffffffffffffffffffffffffffffffffffffffff\n      and\n        /* \"contracts/Voting.sol\":4529:4539  msg.sender */\n      caller\n        /* \"contracts/Voting.sol\":4529:4556  msg.sender == contractOwner */\n      0xffffffffffffffffffffffffffffffffffffffff\n      and\n      sub\n        /* \"contracts/Voting.sol\":4525:4943  if (msg.sender == contractOwner) {... */\n      tag_237\n      jumpi\n        /* \"contracts/Voting.sol\":4577:4583  uint i */\n      0x00\n        /* \"contracts/Voting.sol\":4572:4804  for (uint i = 0; i < votersToAdd.length; i++) {... */\n    tag_238:\n        /* \"contracts/Voting.sol\":4593:4604  votersToAdd */\n      dup4\n      dup4\n        /* \"contracts/Voting.sol\":4593:4611  votersToAdd.length */\n      swap1\n      pop\n        /* \"contracts/Voting.sol\":4589:4590  i */\n      dup2\n        /* \"contracts/Voting.sol\":4589:4611  i < votersToAdd.length */\n      lt\n        /* \"contracts/Voting.sol\":4572:4804  for (uint i = 0; i < votersToAdd.length; i++) {... */\n      iszero\n      tag_239\n      jumpi\n        /* \"contracts/Voting.sol\":4674:4678  true */\n      0x01\n        /* \"contracts/Voting.sol\":4636:4642  voters */\n      0x02\n        /* \"contracts/Voting.sol\":4636:4658  voters[votersToAdd[i]] */\n      0x00\n        /* \"contracts/Voting.sol\":4643:4654  votersToAdd */\n      dup7\n      dup7\n        /* \"contracts/Voting.sol\":4655:4656  i */\n      dup6\n        /* \"contracts/Voting.sol\":4643:4657  votersToAdd[i] */\n      dup2\n      dup2\n      lt\n      tag_241\n      jumpi\n      tag_242\n      tag_121\n      jump\t// in\n    tag_242:\n    tag_241:\n      swap1\n      pop\n      0x20\n      mul\n      add\n      0x20\n      dup2\n      add\n      swap1\n      tag_243\n      swap2\n      swap1\n      tag_56\n      jump\t// in\n    tag_243:\n        /* \"contracts/Voting.sol\":4636:4658  voters[votersToAdd[i]] */\n      0xffffffffffffffffffffffffffffffffffffffff\n      and\n      0xffffffffffffffffffffffffffffffffffffffff\n      and\n      dup2\n      mstore\n      0x20\n      add\n      swap1\n      dup2\n      mstore\n      0x20\n      add\n      0x00\n      keccak256\n        /* \"contracts/Voting.sol\":4636:4671  voters[votersToAdd[i]].isRegistered */\n      0x00\n      add\n      0x00\n        /* \"contracts/Voting.sol\":4636:4678  voters[votersToAdd[i]].isRegistered = true */\n      0x0100\n      exp\n      dup2\n      sload\n      dup2\n      0xff\n      mul\n      not\n      and\n      swap1\n      dup4\n      iszero\n      iszero\n      mul\n      or\n      swap1\n      sstore\n      pop\n        /* \"contracts/Voting.sol\":4730:4735  false */\n      0x00\n        /* \"contracts/Voting.sol\":4696:4702  voters */\n      0x02\n        /* \"contracts/Voting.sol\":4696:4718  voters[votersToAdd[i]] */\n      0x00\n        /* \"contracts/Voting.sol\":4703:4714  votersToAdd */\n      dup7\n      dup7\n        /* \"contracts/Voting.sol\":4715:4716  i */\n      dup6\n        /* \"contracts/Voting.sol\":4703:4717  votersToAdd[i] */\n      dup2\n      dup2\n      lt\n      tag_244\n      jumpi\n      tag_245\n      tag_121\n      jump\t// in\n    tag_245:\n    tag_244:\n      swap1\n      pop\n      0x20\n      mul\n      add\n      0x20\n      dup2\n      add\n      swap1\n      tag_246\n      swap2\n      swap1\n      tag_56\n      jump\t// in\n    tag_246:\n        /* \"contracts/Voting.sol\":4696:4718  voters[votersToAdd[i]] */\n      0xffffffffffffffffffffffffffffffffffffffff\n      and\n      0xffffffffffffffffffffffffffffffffffffffff\n      and\n      dup2\n      mstore\n      0x20\n      add\n      swap1\n      dup2\n      mstore\n      0x20\n      add\n      0x00\n      keccak256\n        /* \"contracts/Voting.sol\":4696:4727  voters[votersToAdd[i]].hasVoted */\n      0x00\n      add\n      0x01\n        /* \"contracts/Voting.sol\":4696:4735  voters[votersToAdd[i]].hasVoted = false */\n      0x0100\n      exp\n      dup2\n      sload\n      dup2\n      0xff\n      mul\n      not\n      and\n      swap1\n      dup4\n      iszero\n      iszero\n      mul\n      or\n      swap1\n      sstore\n      pop\n        /* \"contracts/Voting.sol\":4758:4789  VoterRegistered(votersToAdd[i]) */\n      0xb6be2187d059cc2a55fe29e0e503b566e1e0f8c8780096e185429350acffd3dd\n        /* \"contracts/Voting.sol\":4774:4785  votersToAdd */\n      dup5\n      dup5\n        /* \"contracts/Voting.sol\":4786:4787  i */\n      dup4\n        /* \"contracts/Voting.sol\":4774:4788  votersToAdd[i] */\n      dup2\n      dup2\n      lt\n      tag_247\n      jumpi\n      tag_248\n      tag_121\n      jump\t// in\n    tag_248:\n    tag_247:\n      swap1\n      pop\n      0x20\n      mul\n      add\n      0x20\n      dup2\n      add\n      swap1\n      tag_249\n      swap2\n      swap1\n      tag_56\n      jump\t// in\n    tag_249:\n        /* \"contracts/Voting.sol\":4758:4789  VoterRegistered(votersToAdd[i]) */\n      mload(0x40)\n      tag_250\n      swap2\n      swap1\n      tag_88\n      jump\t// in\n    tag_250:\n      mload(0x40)\n      dup1\n      swap2\n      sub\n      swap1\n      log1\n        /* \"contracts/Voting.sol\":4613:4616  i++ */\n      dup1\n      dup1\n      tag_251\n      swap1\n      tag_124\n      jump\t// in\n    tag_251:\n      swap2\n      pop\n      pop\n        /* \"contracts/Voting.sol\":4572:4804  for (uint i = 0; i < votersToAdd.length; i++) {... */\n      jump(tag_238)\n    tag_239:\n      pop\n        /* \"contracts/Voting.sol\":4817:4851  confirmation = \"Voters registered\" */\n      mload(0x40)\n      dup1\n      0x40\n      add\n      0x40\n      mstore\n      dup1\n      0x11\n      dup2\n      mstore\n      0x20\n      add\n      0x566f746572732072656769737465726564000000000000000000000000000000\n      dup2\n      mstore\n      pop\n      swap1\n      pop\n        /* \"contracts/Voting.sol\":4525:4943  if (msg.sender == contractOwner) {... */\n      jump(tag_252)\n    tag_237:\n        /* \"contracts/Voting.sol\":4884:4930  confirmation = \"Only the owner can add voters\" */\n      mload(0x40)\n      dup1\n      0x40\n      add\n      0x40\n      mstore\n      dup1\n      0x1d\n      dup2\n      mstore\n      0x20\n      add\n      0x4f6e6c7920746865206f776e65722063616e2061646420766f74657273000000\n      dup2\n      mstore\n      pop\n      swap1\n      pop\n        /* \"contracts/Voting.sol\":4525:4943  if (msg.sender == contractOwner) {... */\n    tag_252:\n        /* \"contracts/Voting.sol\":4407:4949  function registerVoters(address[] calldata votersToAdd) public check returns (string memory confirmation) {... */\n      swap3\n      swap2\n      pop\n      pop\n      jump\t// out\n        /* \"contracts/Voting.sol\":2648:3190  function openVotingSession() public returns (string memory confirmation) {... */\n    tag_106:\n        /* \"contracts/Voting.sol\":2693:2719  string memory confirmation */\n      0x60\n        /* \"contracts/Voting.sol\":2749:2762  contractOwner */\n      0x01\n      0x00\n      swap1\n      sload\n      swap1\n      0x0100\n      exp\n      swap1\n      div\n      0xffffffffffffffffffffffffffffffffffffffff\n      and\n        /* \"contracts/Voting.sol\":2735:2762  msg.sender == contractOwner */\n      0xffffffffffffffffffffffffffffffffffffffff\n      and\n        /* \"contracts/Voting.sol\":2735:2745  msg.sender */\n      caller\n        /* \"contracts/Voting.sol\":2735:2762  msg.sender == contractOwner */\n      0xffffffffffffffffffffffffffffffffffffffff\n      and\n      sub\n        /* \"contracts/Voting.sol\":2731:3184  if (msg.sender == contractOwner) {... */\n      tag_254\n      jumpi\n        /* \"contracts/Voting.sol\":2802:2806  true */\n      0x01\n        /* \"contracts/Voting.sol\":2778:2799  votingSessionIsOpened */\n      0x04\n      0x02\n        /* \"contracts/Voting.sol\":2778:2806  votingSessionIsOpened = true */\n      0x0100\n      exp\n      dup2\n      sload\n      dup2\n      0xff\n      mul\n      not\n      and\n      swap1\n      dup4\n      iszero\n      iszero\n      mul\n      or\n      swap1\n      sstore\n      pop\n        /* \"contracts/Voting.sol\":2844:2864  currentSessionStatus */\n      0x04\n      0x03\n      swap1\n      sload\n      swap1\n      0x0100\n      exp\n      swap1\n      div\n      0xff\n      and\n        /* \"contracts/Voting.sol\":2820:2841  previousSessionStatus */\n      0x04\n      dup1\n        /* \"contracts/Voting.sol\":2820:2864  previousSessionStatus = currentSessionStatus */\n      0x0100\n      exp\n      dup2\n      sload\n      dup2\n      0xff\n      mul\n      not\n      and\n      swap1\n      dup4\n      0x05\n      dup2\n      gt\n      iszero\n      tag_255\n      jumpi\n      tag_256\n      tag_140\n      jump\t// in\n    tag_256:\n    tag_255:\n      mul\n      or\n      swap1\n      sstore\n      pop\n        /* \"contracts/Voting.sol\":2901:2936  WorkflowStatus.VotingSessionStarted */\n      0x03\n        /* \"contracts/Voting.sol\":2878:2898  currentSessionStatus */\n      0x04\n      0x03\n        /* \"contracts/Voting.sol\":2878:2936  currentSessionStatus = WorkflowStatus.VotingSessionStarted */\n      0x0100\n      exp\n      dup2\n      sload\n      dup2\n      0xff\n      mul\n      not\n      and\n      swap1\n      dup4\n      0x05\n      dup2\n      gt\n      iszero\n      tag_257\n      jumpi\n      tag_258\n      tag_140\n      jump\t// in\n    tag_258:\n    tag_257:\n      mul\n      or\n      swap1\n      sstore\n      pop\n        /* \"contracts/Voting.sol\":2955:3020  WorkflowStatusChange(previousSessionStatus, currentSessionStatus) */\n      0x0a97a4ee45751e2abf3e4fc8946939630b11b371ea8ae39ccdc3056e98f5cc3f\n        /* \"contracts/Voting.sol\":2976:2997  previousSessionStatus */\n      0x04\n      dup1\n      sload\n      swap1\n      0x0100\n      exp\n      swap1\n      div\n      0xff\n      and\n        /* \"contracts/Voting.sol\":2999:3019  currentSessionStatus */\n      0x04\n      0x03\n      swap1\n      sload\n      swap1\n      0x0100\n      exp\n      swap1\n      div\n      0xff\n      and\n        /* \"contracts/Voting.sol\":2955:3020  WorkflowStatusChange(previousSessionStatus, currentSessionStatus) */\n      mload(0x40)\n      tag_259\n      swap3\n      swap2\n      swap1\n      tag_144\n      jump\t// in\n    tag_259:\n      mload(0x40)\n      dup1\n      swap2\n      sub\n      swap1\n      log1\n        /* \"contracts/Voting.sol\":3034:3083  confirmation = \"The voting session is now opened\" */\n      mload(0x40)\n      dup1\n      0x40\n      add\n      0x40\n      mstore\n      dup1\n      0x20\n      dup2\n      mstore\n      0x20\n      add\n      0x54686520766f74696e672073657373696f6e206973206e6f77206f70656e6564\n      dup2\n      mstore\n      pop\n      swap1\n      pop\n        /* \"contracts/Voting.sol\":2731:3184  if (msg.sender == contractOwner) {... */\n      jump(tag_260)\n    tag_254:\n        /* \"contracts/Voting.sol\":3114:3173  confirmation = \"Only the owner can open the voting session\" */\n      mload(0x40)\n      dup1\n      0x60\n      add\n      0x40\n      mstore\n      dup1\n      0x2a\n      dup2\n      mstore\n      0x20\n      add\n      data_e789111c5cb92820c15b35d96ef8b2b2eaf113efb853281e8e02f130ce996914\n      0x2a\n      swap2\n      codecopy\n      swap1\n      pop\n        /* \"contracts/Voting.sol\":2731:3184  if (msg.sender == contractOwner) {... */\n    tag_260:\n        /* \"contracts/Voting.sol\":2648:3190  function openVotingSession() public returns (string memory confirmation) {... */\n      swap1\n      jump\t// out\n        /* \"contracts/Voting.sol\":933:976  WorkflowStatus public previousSessionStatus */\n    tag_109:\n      0x04\n      dup1\n      sload\n      swap1\n      0x0100\n      exp\n      swap1\n      div\n      0xff\n      and\n      dup2\n      jump\t// out\n        /* \"@openzeppelin/contracts/access/Ownable.sol\":2543:2758  function transferOwnership(address newOwner) public virtual onlyOwner {... */\n    tag_113:\n        /* \"@openzeppelin/contracts/access/Ownable.sol\":1531:1544  _checkOwner() */\n      tag_262\n        /* \"@openzeppelin/contracts/access/Ownable.sol\":1531:1542  _checkOwner */\n      tag_214\n        /* \"@openzeppelin/contracts/access/Ownable.sol\":1531:1544  _checkOwner() */\n      jump\t// in\n    tag_262:\n        /* \"@openzeppelin/contracts/access/Ownable.sol\":2647:2648  0 */\n      0x00\n        /* \"@openzeppelin/contracts/access/Ownable.sol\":2627:2649  newOwner == address(0) */\n      0xffffffffffffffffffffffffffffffffffffffff\n      and\n        /* \"@openzeppelin/contracts/access/Ownable.sol\":2627:2635  newOwner */\n      dup2\n        /* \"@openzeppelin/contracts/access/Ownable.sol\":2627:2649  newOwner == address(0) */\n      0xffffffffffffffffffffffffffffffffffffffff\n      and\n      sub\n        /* \"@openzeppelin/contracts/access/Ownable.sol\":2623:2714  if (newOwner == address(0)) {... */\n      tag_264\n      jumpi\n        /* \"@openzeppelin/contracts/access/Ownable.sol\":2700:2701  0 */\n      0x00\n        /* \"@openzeppelin/contracts/access/Ownable.sol\":2672:2703  OwnableInvalidOwner(address(0)) */\n      mload(0x40)\n      0x1e4fbdf700000000000000000000000000000000000000000000000000000000\n      dup2\n      mstore\n      0x04\n      add\n      tag_265\n      swap2\n      swap1\n      tag_88\n      jump\t// in\n    tag_265:\n      mload(0x40)\n      dup1\n      swap2\n      sub\n      swap1\n      revert\n        /* \"@openzeppelin/contracts/access/Ownable.sol\":2623:2714  if (newOwner == address(0)) {... */\n    tag_264:\n        /* \"@openzeppelin/contracts/access/Ownable.sol\":2723:2751  _transferOwnership(newOwner) */\n      tag_266\n        /* \"@openzeppelin/contracts/access/Ownable.sol\":2742:2750  newOwner */\n      dup2\n        /* \"@openzeppelin/contracts/access/Ownable.sol\":2723:2741  _transferOwnership */\n      tag_217\n        /* \"@openzeppelin/contracts/access/Ownable.sol\":2723:2751  _transferOwnership(newOwner) */\n      jump\t// in\n    tag_266:\n        /* \"@openzeppelin/contracts/access/Ownable.sol\":2543:2758  function transferOwnership(address newOwner) public virtual onlyOwner {... */\n      pop\n      jump\t// out\n        /* \"@openzeppelin/contracts/utils/Strings.sol\":2689:2837  function toHexString(address addr) internal pure returns (string memory) {... */\n    tag_182:\n        /* \"@openzeppelin/contracts/utils/Strings.sol\":2747:2760  string memory */\n      0x60\n        /* \"@openzeppelin/contracts/utils/Strings.sol\":2779:2830  toHexString(uint256(uint160(addr)), ADDRESS_LENGTH) */\n      tag_268\n        /* \"@openzeppelin/contracts/utils/Strings.sol\":2807:2811  addr */\n      dup3\n        /* \"@openzeppelin/contracts/utils/Strings.sol\":2791:2813  uint256(uint160(addr)) */\n      0xffffffffffffffffffffffffffffffffffffffff\n      and\n        /* \"@openzeppelin/contracts/utils/Strings.sol\":375:377  20 */\n      0x14\n        /* \"@openzeppelin/contracts/utils/Strings.sol\":2779:2830  toHexString(uint256(uint160(addr)), ADDRESS_LENGTH) */\n      0xff\n      and\n        /* \"@openzeppelin/contracts/utils/Strings.sol\":2779:2790  toHexString */\n      tag_269\n        /* \"@openzeppelin/contracts/utils/Strings.sol\":2779:2830  toHexString(uint256(uint160(addr)), ADDRESS_LENGTH) */\n      jump\t// in\n    tag_268:\n        /* \"@openzeppelin/contracts/utils/Strings.sol\":2772:2830  return toHexString(uint256(uint160(addr)), ADDRESS_LENGTH) */\n      swap1\n      pop\n        /* \"@openzeppelin/contracts/utils/Strings.sol\":2689:2837  function toHexString(address addr) internal pure returns (string memory) {... */\n      swap2\n      swap1\n      pop\n      jump\t// out\n        /* \"@openzeppelin/contracts/utils/Strings.sol\":637:1335  function toString(uint256 value) internal pure returns (string memory) {... */\n    tag_184:\n        /* \"@openzeppelin/contracts/utils/Strings.sol\":693:706  string memory */\n      0x60\n        /* \"@openzeppelin/contracts/utils/Strings.sol\":742:756  uint256 length */\n      0x00\n        /* \"@openzeppelin/contracts/utils/Strings.sol\":779:780  1 */\n      0x01\n        /* \"@openzeppelin/contracts/utils/Strings.sol\":759:776  Math.log10(value) */\n      tag_271\n        /* \"@openzeppelin/contracts/utils/Strings.sol\":770:775  value */\n      dup5\n        /* \"@openzeppelin/contracts/utils/Strings.sol\":759:769  Math.log10 */\n      tag_272\n        /* \"@openzeppelin/contracts/utils/Strings.sol\":759:776  Math.log10(value) */\n      jump\t// in\n    tag_271:\n        /* \"@openzeppelin/contracts/utils/Strings.sol\":759:780  Math.log10(value) + 1 */\n      add\n        /* \"@openzeppelin/contracts/utils/Strings.sol\":742:780  uint256 length = Math.log10(value) + 1 */\n      swap1\n      pop\n        /* \"@openzeppelin/contracts/utils/Strings.sol\":794:814  string memory buffer */\n      0x00\n        /* \"@openzeppelin/contracts/utils/Strings.sol\":828:834  length */\n      dup2\n        /* \"@openzeppelin/contracts/utils/Strings.sol\":817:835  new string(length) */\n      0xffffffffffffffff\n      dup2\n      gt\n      iszero\n      tag_273\n      jumpi\n      tag_274\n      tag_275\n      jump\t// in\n    tag_274:\n    tag_273:\n      mload(0x40)\n      swap1\n      dup1\n      dup3\n      mstore\n      dup1\n      0x1f\n      add\n      not(0x1f)\n      and\n      0x20\n      add\n      dup3\n      add\n      0x40\n      mstore\n      dup1\n      iszero\n      tag_276\n      jumpi\n      dup2\n      0x20\n      add\n      0x01\n      dup3\n      mul\n      dup1\n      calldatasize\n      dup4\n      calldatacopy\n      dup1\n      dup3\n      add\n      swap2\n      pop\n      pop\n      swap1\n      pop\n    tag_276:\n      pop\n        /* \"@openzeppelin/contracts/utils/Strings.sol\":794:835  string memory buffer = new string(length) */\n      swap1\n      pop\n        /* \"@openzeppelin/contracts/utils/Strings.sol\":849:860  uint256 ptr */\n      0x00\n        /* \"@openzeppelin/contracts/utils/Strings.sol\":975:981  length */\n      dup3\n        /* \"@openzeppelin/contracts/utils/Strings.sol\":971:973  32 */\n      0x20\n        /* \"@openzeppelin/contracts/utils/Strings.sol\":967:982  add(32, length) */\n      add\n        /* \"@openzeppelin/contracts/utils/Strings.sol\":959:965  buffer */\n      dup3\n        /* \"@openzeppelin/contracts/utils/Strings.sol\":955:983  add(buffer, add(32, length)) */\n      add\n        /* \"@openzeppelin/contracts/utils/Strings.sol\":948:983  ptr := add(buffer, add(32, length)) */\n      swap1\n      pop\n        /* \"@openzeppelin/contracts/utils/Strings.sol\":1010:1292  while (true) {... */\n    tag_277:\n        /* \"@openzeppelin/contracts/utils/Strings.sol\":1017:1021  true */\n      0x01\n        /* \"@openzeppelin/contracts/utils/Strings.sol\":1010:1292  while (true) {... */\n      iszero\n      tag_278\n      jumpi\n        /* \"@openzeppelin/contracts/utils/Strings.sol\":1041:1046  ptr-- */\n      dup1\n      dup1\n      0x01\n      swap1\n      sub\n      swap2\n      pop\n      pop\n        /* \"@openzeppelin/contracts/utils/Strings.sol\":1180:1190  HEX_DIGITS */\n      0x3031323334353637383961626364656600000000000000000000000000000000\n        /* \"@openzeppelin/contracts/utils/Strings.sol\":1175:1177  10 */\n      0x0a\n        /* \"@openzeppelin/contracts/utils/Strings.sol\":1168:1173  value */\n      dup7\n        /* \"@openzeppelin/contracts/utils/Strings.sol\":1164:1178  mod(value, 10) */\n      mod\n        /* \"@openzeppelin/contracts/utils/Strings.sol\":1159:1191  byte(mod(value, 10), HEX_DIGITS) */\n      byte\n        /* \"@openzeppelin/contracts/utils/Strings.sol\":1154:1157  ptr */\n      dup2\n        /* \"@openzeppelin/contracts/utils/Strings.sol\":1146:1192  mstore8(ptr, byte(mod(value, 10), HEX_DIGITS)) */\n      mstore8\n        /* \"@openzeppelin/contracts/utils/Strings.sol\":1236:1238  10 */\n      0x0a\n        /* \"@openzeppelin/contracts/utils/Strings.sol\":1227:1238  value /= 10 */\n      dup6\n      dup2\n      tag_279\n      jumpi\n      tag_280\n      tag_281\n      jump\t// in\n    tag_280:\n    tag_279:\n      div\n      swap5\n      pop\n        /* \"@openzeppelin/contracts/utils/Strings.sol\":1269:1270  0 */\n      0x00\n        /* \"@openzeppelin/contracts/utils/Strings.sol\":1260:1265  value */\n      dup6\n        /* \"@openzeppelin/contracts/utils/Strings.sol\":1260:1270  value == 0 */\n      sub\n        /* \"@openzeppelin/contracts/utils/Strings.sol\":1010:1292  while (true) {... */\n      tag_277\n        /* \"@openzeppelin/contracts/utils/Strings.sol\":1256:1277  if (value == 0) break */\n      jumpi\n        /* \"@openzeppelin/contracts/utils/Strings.sol\":1010:1292  while (true) {... */\n    tag_278:\n        /* \"@openzeppelin/contracts/utils/Strings.sol\":1312:1318  buffer */\n      dup2\n        /* \"@openzeppelin/contracts/utils/Strings.sol\":1305:1318  return buffer */\n      swap4\n      pop\n      pop\n      pop\n      pop\n        /* \"@openzeppelin/contracts/utils/Strings.sol\":637:1335  function toString(uint256 value) internal pure returns (string memory) {... */\n      swap2\n      swap1\n      pop\n      jump\t// out\n        /* \"@openzeppelin/contracts/access/Ownable.sol\":1796:1958  function _checkOwner() internal view virtual {... */\n    tag_214:\n        /* \"@openzeppelin/contracts/access/Ownable.sol\":1866:1878  _msgSender() */\n      tag_284\n        /* \"@openzeppelin/contracts/access/Ownable.sol\":1866:1876  _msgSender */\n      tag_285\n        /* \"@openzeppelin/contracts/access/Ownable.sol\":1866:1878  _msgSender() */\n      jump\t// in\n    tag_284:\n        /* \"@openzeppelin/contracts/access/Ownable.sol\":1855:1878  owner() != _msgSender() */\n      0xffffffffffffffffffffffffffffffffffffffff\n      and\n        /* \"@openzeppelin/contracts/access/Ownable.sol\":1855:1862  owner() */\n      tag_286\n        /* \"@openzeppelin/contracts/access/Ownable.sol\":1855:1860  owner */\n      tag_86\n        /* \"@openzeppelin/contracts/access/Ownable.sol\":1855:1862  owner() */\n      jump\t// in\n    tag_286:\n        /* \"@openzeppelin/contracts/access/Ownable.sol\":1855:1878  owner() != _msgSender() */\n      0xffffffffffffffffffffffffffffffffffffffff\n      and\n      eq\n        /* \"@openzeppelin/contracts/access/Ownable.sol\":1851:1952  if (owner() != _msgSender()) {... */\n      tag_287\n      jumpi\n        /* \"@openzeppelin/contracts/access/Ownable.sol\":1928:1940  _msgSender() */\n      tag_288\n        /* \"@openzeppelin/contracts/access/Ownable.sol\":1928:1938  _msgSender */\n      tag_285\n        /* \"@openzeppelin/contracts/access/Ownable.sol\":1928:1940  _msgSender() */\n      jump\t// in\n    tag_288:\n        /* \"@openzeppelin/contracts/access/Ownable.sol\":1901:1941  OwnableUnauthorizedAccount(_msgSender()) */\n      mload(0x40)\n      0x118cdaa700000000000000000000000000000000000000000000000000000000\n      dup2\n      mstore\n      0x04\n      add\n      tag_289\n      swap2\n      swap1\n      tag_88\n      jump\t// in\n    tag_289:\n      mload(0x40)\n      dup1\n      swap2\n      sub\n      swap1\n      revert\n        /* \"@openzeppelin/contracts/access/Ownable.sol\":1851:1952  if (owner() != _msgSender()) {... */\n    tag_287:\n        /* \"@openzeppelin/contracts/access/Ownable.sol\":1796:1958  function _checkOwner() internal view virtual {... */\n      jump\t// out\n        /* \"@openzeppelin/contracts/access/Ownable.sol\":2912:3099  function _transferOwnership(address newOwner) internal virtual {... */\n    tag_217:\n        /* \"@openzeppelin/contracts/access/Ownable.sol\":2985:3001  address oldOwner */\n      0x00\n        /* \"@openzeppelin/contracts/access/Ownable.sol\":3004:3010  _owner */\n      dup1\n      0x00\n      swap1\n      sload\n      swap1\n      0x0100\n      exp\n      swap1\n      div\n      0xffffffffffffffffffffffffffffffffffffffff\n      and\n        /* \"@openzeppelin/contracts/access/Ownable.sol\":2985:3010  address oldOwner = _owner */\n      swap1\n      pop\n        /* \"@openzeppelin/contracts/access/Ownable.sol\":3029:3037  newOwner */\n      dup2\n        /* \"@openzeppelin/contracts/access/Ownable.sol\":3020:3026  _owner */\n      0x00\n      dup1\n        /* \"@openzeppelin/contracts/access/Ownable.sol\":3020:3037  _owner = newOwner */\n      0x0100\n      exp\n      dup2\n      sload\n      dup2\n      0xffffffffffffffffffffffffffffffffffffffff\n      mul\n      not\n      and\n      swap1\n      dup4\n      0xffffffffffffffffffffffffffffffffffffffff\n      and\n      mul\n      or\n      swap1\n      sstore\n      pop\n        /* \"@openzeppelin/contracts/access/Ownable.sol\":3083:3091  newOwner */\n      dup2\n        /* \"@openzeppelin/contracts/access/Ownable.sol\":3052:3092  OwnershipTransferred(oldOwner, newOwner) */\n      0xffffffffffffffffffffffffffffffffffffffff\n      and\n        /* \"@openzeppelin/contracts/access/Ownable.sol\":3073:3081  oldOwner */\n      dup2\n        /* \"@openzeppelin/contracts/access/Ownable.sol\":3052:3092  OwnershipTransferred(oldOwner, newOwner) */\n      0xffffffffffffffffffffffffffffffffffffffff\n      and\n      0x8be0079c531659141344cd1fd0a4f28419497f9722a3daafe3b4186f6b6457e0\n      mload(0x40)\n      mload(0x40)\n      dup1\n      swap2\n      sub\n      swap1\n      log3\n        /* \"@openzeppelin/contracts/access/Ownable.sol\":2975:3099  {... */\n      pop\n        /* \"@openzeppelin/contracts/access/Ownable.sol\":2912:3099  function _transferOwnership(address newOwner) internal virtual {... */\n      pop\n      jump\t// out\n        /* \"@openzeppelin/contracts/utils/Strings.sol\":2005:2530  function toHexString(uint256 value, uint256 length) internal pure returns (string memory) {... */\n    tag_269:\n        /* \"@openzeppelin/contracts/utils/Strings.sol\":2080:2093  string memory */\n      0x60\n        /* \"@openzeppelin/contracts/utils/Strings.sol\":2105:2123  uint256 localValue */\n      0x00\n        /* \"@openzeppelin/contracts/utils/Strings.sol\":2126:2131  value */\n      dup4\n        /* \"@openzeppelin/contracts/utils/Strings.sol\":2105:2131  uint256 localValue = value */\n      swap1\n      pop\n        /* \"@openzeppelin/contracts/utils/Strings.sol\":2141:2160  bytes memory buffer */\n      0x00\n        /* \"@openzeppelin/contracts/utils/Strings.sol\":2186:2187  2 */\n      0x02\n        /* \"@openzeppelin/contracts/utils/Strings.sol\":2177:2183  length */\n      dup5\n        /* \"@openzeppelin/contracts/utils/Strings.sol\":2173:2174  2 */\n      0x02\n        /* \"@openzeppelin/contracts/utils/Strings.sol\":2173:2183  2 * length */\n      tag_292\n      swap2\n      swap1\n      tag_293\n      jump\t// in\n    tag_292:\n        /* \"@openzeppelin/contracts/utils/Strings.sol\":2173:2187  2 * length + 2 */\n      tag_294\n      swap2\n      swap1\n      tag_295\n      jump\t// in\n    tag_294:\n        /* \"@openzeppelin/contracts/utils/Strings.sol\":2163:2188  new bytes(2 * length + 2) */\n      0xffffffffffffffff\n      dup2\n      gt\n      iszero\n      tag_296\n      jumpi\n      tag_297\n      tag_275\n      jump\t// in\n    tag_297:\n    tag_296:\n      mload(0x40)\n      swap1\n      dup1\n      dup3\n      mstore\n      dup1\n      0x1f\n      add\n      not(0x1f)\n      and\n      0x20\n      add\n      dup3\n      add\n      0x40\n      mstore\n      dup1\n      iszero\n      tag_298\n      jumpi\n      dup2\n      0x20\n      add\n      0x01\n      dup3\n      mul\n      dup1\n      calldatasize\n      dup4\n      calldatacopy\n      dup1\n      dup3\n      add\n      swap2\n      pop\n      pop\n      swap1\n      pop\n    tag_298:\n      pop\n        /* \"@openzeppelin/contracts/utils/Strings.sol\":2141:2188  bytes memory buffer = new bytes(2 * length + 2) */\n      swap1\n      pop\n        /* \"@openzeppelin/contracts/utils/Strings.sol\":2198:2213  buffer[0] = \"0\" */\n      0x3000000000000000000000000000000000000000000000000000000000000000\n        /* \"@openzeppelin/contracts/utils/Strings.sol\":2198:2204  buffer */\n      dup2\n        /* \"@openzeppelin/contracts/utils/Strings.sol\":2205:2206  0 */\n      0x00\n        /* \"@openzeppelin/contracts/utils/Strings.sol\":2198:2207  buffer[0] */\n      dup2\n      mload\n      dup2\n      lt\n      tag_299\n      jumpi\n      tag_300\n      tag_121\n      jump\t// in\n    tag_300:\n    tag_299:\n      0x20\n      add\n      add\n        /* \"@openzeppelin/contracts/utils/Strings.sol\":2198:2213  buffer[0] = \"0\" */\n      swap1\n      not(0xffffffffffffffffffffffffffffffffffffffffffffffffffffffffffffff)\n      and\n      swap1\n      dup2\n      0x00\n      byte\n      swap1\n      mstore8\n      pop\n        /* \"@openzeppelin/contracts/utils/Strings.sol\":2223:2238  buffer[1] = \"x\" */\n      0x7800000000000000000000000000000000000000000000000000000000000000\n        /* \"@openzeppelin/contracts/utils/Strings.sol\":2223:2229  buffer */\n      dup2\n        /* \"@openzeppelin/contracts/utils/Strings.sol\":2230:2231  1 */\n      0x01\n        /* \"@openzeppelin/contracts/utils/Strings.sol\":2223:2232  buffer[1] */\n      dup2\n      mload\n      dup2\n      lt\n      tag_301\n      jumpi\n      tag_302\n      tag_121\n      jump\t// in\n    tag_302:\n    tag_301:\n      0x20\n      add\n      add\n        /* \"@openzeppelin/contracts/utils/Strings.sol\":2223:2238  buffer[1] = \"x\" */\n      swap1\n      not(0xffffffffffffffffffffffffffffffffffffffffffffffffffffffffffffff)\n      and\n      swap1\n      dup2\n      0x00\n      byte\n      swap1\n      mstore8\n      pop\n        /* \"@openzeppelin/contracts/utils/Strings.sol\":2253:2262  uint256 i */\n      0x00\n        /* \"@openzeppelin/contracts/utils/Strings.sol\":2278:2279  1 */\n      0x01\n        /* \"@openzeppelin/contracts/utils/Strings.sol\":2269:2275  length */\n      dup6\n        /* \"@openzeppelin/contracts/utils/Strings.sol\":2265:2266  2 */\n      0x02\n        /* \"@openzeppelin/contracts/utils/Strings.sol\":2265:2275  2 * length */\n      tag_306\n      swap2\n      swap1\n      tag_293\n      jump\t// in\n    tag_306:\n        /* \"@openzeppelin/contracts/utils/Strings.sol\":2265:2279  2 * length + 1 */\n      tag_307\n      swap2\n      swap1\n      tag_295\n      jump\t// in\n    tag_307:\n        /* \"@openzeppelin/contracts/utils/Strings.sol\":2253:2279  uint256 i = 2 * length + 1 */\n      swap1\n      pop\n        /* \"@openzeppelin/contracts/utils/Strings.sol\":2248:2388  for (uint256 i = 2 * length + 1; i > 1; --i) {... */\n    tag_303:\n        /* \"@openzeppelin/contracts/utils/Strings.sol\":2285:2286  1 */\n      0x01\n        /* \"@openzeppelin/contracts/utils/Strings.sol\":2281:2282  i */\n      dup2\n        /* \"@openzeppelin/contracts/utils/Strings.sol\":2281:2286  i > 1 */\n      gt\n        /* \"@openzeppelin/contracts/utils/Strings.sol\":2248:2388  for (uint256 i = 2 * length + 1; i > 1; --i) {... */\n      iszero\n      tag_304\n      jumpi\n        /* \"@openzeppelin/contracts/utils/Strings.sol\":2319:2329  HEX_DIGITS */\n      0x3031323334353637383961626364656600000000000000000000000000000000\n        /* \"@openzeppelin/contracts/utils/Strings.sol\":2343:2346  0xf */\n      0x0f\n        /* \"@openzeppelin/contracts/utils/Strings.sol\":2330:2340  localValue */\n      dup5\n        /* \"@openzeppelin/contracts/utils/Strings.sol\":2330:2346  localValue & 0xf */\n      and\n        /* \"@openzeppelin/contracts/utils/Strings.sol\":2319:2347  HEX_DIGITS[localValue & 0xf] */\n      0x10\n      dup2\n      lt\n      tag_308\n      jumpi\n      tag_309\n      tag_121\n      jump\t// in\n    tag_309:\n    tag_308:\n      byte\n      0xf8\n      shl\n        /* \"@openzeppelin/contracts/utils/Strings.sol\":2307:2313  buffer */\n      dup3\n        /* \"@openzeppelin/contracts/utils/Strings.sol\":2314:2315  i */\n      dup3\n        /* \"@openzeppelin/contracts/utils/Strings.sol\":2307:2316  buffer[i] */\n      dup2\n      mload\n      dup2\n      lt\n      tag_310\n      jumpi\n      tag_311\n      tag_121\n      jump\t// in\n    tag_311:\n    tag_310:\n      0x20\n      add\n      add\n        /* \"@openzeppelin/contracts/utils/Strings.sol\":2307:2347  buffer[i] = HEX_DIGITS[localValue & 0xf] */\n      swap1\n      not(0xffffffffffffffffffffffffffffffffffffffffffffffffffffffffffffff)\n      and\n      swap1\n      dup2\n      0x00\n      byte\n      swap1\n      mstore8\n      pop\n        /* \"@openzeppelin/contracts/utils/Strings.sol\":2376:2377  4 */\n      0x04\n        /* \"@openzeppelin/contracts/utils/Strings.sol\":2361:2377  localValue >>= 4 */\n      dup4\n      swap1\n      shr\n      swap3\n      pop\n        /* \"@openzeppelin/contracts/utils/Strings.sol\":2288:2291  --i */\n      dup1\n      tag_312\n      swap1\n      tag_313\n      jump\t// in\n    tag_312:\n      swap1\n      pop\n        /* \"@openzeppelin/contracts/utils/Strings.sol\":2248:2388  for (uint256 i = 2 * length + 1; i > 1; --i) {... */\n      jump(tag_303)\n    tag_304:\n      pop\n        /* \"@openzeppelin/contracts/utils/Strings.sol\":2415:2416  0 */\n      0x00\n        /* \"@openzeppelin/contracts/utils/Strings.sol\":2401:2411  localValue */\n      dup3\n        /* \"@openzeppelin/contracts/utils/Strings.sol\":2401:2416  localValue != 0 */\n      eq\n        /* \"@openzeppelin/contracts/utils/Strings.sol\":2397:2493  if (localValue != 0) {... */\n      tag_314\n      jumpi\n        /* \"@openzeppelin/contracts/utils/Strings.sol\":2468:2473  value */\n      dup5\n        /* \"@openzeppelin/contracts/utils/Strings.sol\":2475:2481  length */\n      dup5\n        /* \"@openzeppelin/contracts/utils/Strings.sol\":2439:2482  StringsInsufficientHexLength(value, length) */\n      mload(0x40)\n      0xe22e27eb00000000000000000000000000000000000000000000000000000000\n      dup2\n      mstore\n      0x04\n      add\n      tag_315\n      swap3\n      swap2\n      swap1\n      tag_316\n      jump\t// in\n    tag_315:\n      mload(0x40)\n      dup1\n      swap2\n      sub\n      swap1\n      revert\n        /* \"@openzeppelin/contracts/utils/Strings.sol\":2397:2493  if (localValue != 0) {... */\n    tag_314:\n        /* \"@openzeppelin/contracts/utils/Strings.sol\":2516:2522  buffer */\n      dup1\n        /* \"@openzeppelin/contracts/utils/Strings.sol\":2502:2523  return string(buffer) */\n      swap3\n      pop\n      pop\n      pop\n        /* \"@openzeppelin/contracts/utils/Strings.sol\":2005:2530  function toHexString(uint256 value, uint256 length) internal pure returns (string memory) {... */\n      swap3\n      swap2\n      pop\n      pop\n      jump\t// out\n        /* \"@openzeppelin/contracts/utils/math/Math.sol\":12214:13130  function log10(uint256 value) internal pure returns (uint256) {... */\n    tag_272:\n        /* \"@openzeppelin/contracts/utils/math/Math.sol\":12267:12274  uint256 */\n      0x00\n        /* \"@openzeppelin/contracts/utils/math/Math.sol\":12286:12300  uint256 result */\n      dup1\n        /* \"@openzeppelin/contracts/utils/math/Math.sol\":12303:12304  0 */\n      0x00\n        /* \"@openzeppelin/contracts/utils/math/Math.sol\":12286:12304  uint256 result = 0 */\n      swap1\n      pop\n        /* \"@openzeppelin/contracts/utils/math/Math.sol\":12351:12359  10 ** 64 */\n      0x184f03e93ff9f4daa797ed6e38ed64bf6a1f010000000000000000\n        /* \"@openzeppelin/contracts/utils/math/Math.sol\":12342:12347  value */\n      dup4\n        /* \"@openzeppelin/contracts/utils/math/Math.sol\":12342:12359  value >= 10 ** 64 */\n      lt\n        /* \"@openzeppelin/contracts/utils/math/Math.sol\":12338:12441  if (value >= 10 ** 64) {... */\n      tag_318\n      jumpi\n        /* \"@openzeppelin/contracts/utils/math/Math.sol\":12388:12396  10 ** 64 */\n      0x184f03e93ff9f4daa797ed6e38ed64bf6a1f010000000000000000\n        /* \"@openzeppelin/contracts/utils/math/Math.sol\":12379:12396  value /= 10 ** 64 */\n      dup4\n      dup2\n      tag_319\n      jumpi\n      tag_320\n      tag_281\n      jump\t// in\n    tag_320:\n    tag_319:\n      div\n      swap3\n      pop\n        /* \"@openzeppelin/contracts/utils/math/Math.sol\":12424:12426  64 */\n      0x40\n        /* \"@openzeppelin/contracts/utils/math/Math.sol\":12414:12426  result += 64 */\n      dup2\n      add\n      swap1\n      pop\n        /* \"@openzeppelin/contracts/utils/math/Math.sol\":12338:12441  if (value >= 10 ** 64) {... */\n    tag_318:\n        /* \"@openzeppelin/contracts/utils/math/Math.sol\":12467:12475  10 ** 32 */\n      0x04ee2d6d415b85acef8100000000\n        /* \"@openzeppelin/contracts/utils/math/Math.sol\":12458:12463  value */\n      dup4\n        /* \"@openzeppelin/contracts/utils/math/Math.sol\":12458:12475  value >= 10 ** 32 */\n      lt\n        /* \"@openzeppelin/contracts/utils/math/Math.sol\":12454:12557  if (value >= 10 ** 32) {... */\n      tag_321\n      jumpi\n        /* \"@openzeppelin/contracts/utils/math/Math.sol\":12504:12512  10 ** 32 */\n      0x04ee2d6d415b85acef8100000000\n        /* \"@openzeppelin/contracts/utils/math/Math.sol\":12495:12512  value /= 10 ** 32 */\n      dup4\n      dup2\n      tag_322\n      jumpi\n      tag_323\n      tag_281\n      jump\t// in\n    tag_323:\n    tag_322:\n      div\n      swap3\n      pop\n        /* \"@openzeppelin/contracts/utils/math/Math.sol\":12540:12542  32 */\n      0x20\n        /* \"@openzeppelin/contracts/utils/math/Math.sol\":12530:12542  result += 32 */\n      dup2\n      add\n      swap1\n      pop\n        /* \"@openzeppelin/contracts/utils/math/Math.sol\":12454:12557  if (value >= 10 ** 32) {... */\n    tag_321:\n        /* \"@openzeppelin/contracts/utils/math/Math.sol\":12583:12591  10 ** 16 */\n      0x2386f26fc10000\n        /* \"@openzeppelin/contracts/utils/math/Math.sol\":12574:12579  value */\n      dup4\n        /* \"@openzeppelin/contracts/utils/math/Math.sol\":12574:12591  value >= 10 ** 16 */\n      lt\n        /* \"@openzeppelin/contracts/utils/math/Math.sol\":12570:12673  if (value >= 10 ** 16) {... */\n      tag_324\n      jumpi\n        /* \"@openzeppelin/contracts/utils/math/Math.sol\":12620:12628  10 ** 16 */\n      0x2386f26fc10000\n        /* \"@openzeppelin/contracts/utils/math/Math.sol\":12611:12628  value /= 10 ** 16 */\n      dup4\n      dup2\n      tag_325\n      jumpi\n      tag_326\n      tag_281\n      jump\t// in\n    tag_326:\n    tag_325:\n      div\n      swap3\n      pop\n        /* \"@openzeppelin/contracts/utils/math/Math.sol\":12656:12658  16 */\n      0x10\n        /* \"@openzeppelin/contracts/utils/math/Math.sol\":12646:12658  result += 16 */\n      dup2\n      add\n      swap1\n      pop\n        /* \"@openzeppelin/contracts/utils/math/Math.sol\":12570:12673  if (value >= 10 ** 16) {... */\n    tag_324:\n        /* \"@openzeppelin/contracts/utils/math/Math.sol\":12699:12706  10 ** 8 */\n      0x05f5e100\n        /* \"@openzeppelin/contracts/utils/math/Math.sol\":12690:12695  value */\n      dup4\n        /* \"@openzeppelin/contracts/utils/math/Math.sol\":12690:12706  value >= 10 ** 8 */\n      lt\n        /* \"@openzeppelin/contracts/utils/math/Math.sol\":12686:12786  if (value >= 10 ** 8) {... */\n      tag_327\n      jumpi\n        /* \"@openzeppelin/contracts/utils/math/Math.sol\":12735:12742  10 ** 8 */\n      0x05f5e100\n        /* \"@openzeppelin/contracts/utils/math/Math.sol\":12726:12742  value /= 10 ** 8 */\n      dup4\n      dup2\n      tag_328\n      jumpi\n      tag_329\n      tag_281\n      jump\t// in\n    tag_329:\n    tag_328:\n      div\n      swap3\n      pop\n        /* \"@openzeppelin/contracts/utils/math/Math.sol\":12770:12771  8 */\n      0x08\n        /* \"@openzeppelin/contracts/utils/math/Math.sol\":12760:12771  result += 8 */\n      dup2\n      add\n      swap1\n      pop\n        /* \"@openzeppelin/contracts/utils/math/Math.sol\":12686:12786  if (value >= 10 ** 8) {... */\n    tag_327:\n        /* \"@openzeppelin/contracts/utils/math/Math.sol\":12812:12819  10 ** 4 */\n      0x2710\n        /* \"@openzeppelin/contracts/utils/math/Math.sol\":12803:12808  value */\n      dup4\n        /* \"@openzeppelin/contracts/utils/math/Math.sol\":12803:12819  value >= 10 ** 4 */\n      lt\n        /* \"@openzeppelin/contracts/utils/math/Math.sol\":12799:12899  if (value >= 10 ** 4) {... */\n      tag_330\n      jumpi\n        /* \"@openzeppelin/contracts/utils/math/Math.sol\":12848:12855  10 ** 4 */\n      0x2710\n        /* \"@openzeppelin/contracts/utils/math/Math.sol\":12839:12855  value /= 10 ** 4 */\n      dup4\n      dup2\n      tag_331\n      jumpi\n      tag_332\n      tag_281\n      jump\t// in\n    tag_332:\n    tag_331:\n      div\n      swap3\n      pop\n        /* \"@openzeppelin/contracts/utils/math/Math.sol\":12883:12884  4 */\n      0x04\n        /* \"@openzeppelin/contracts/utils/math/Math.sol\":12873:12884  result += 4 */\n      dup2\n      add\n      swap1\n      pop\n        /* \"@openzeppelin/contracts/utils/math/Math.sol\":12799:12899  if (value >= 10 ** 4) {... */\n    tag_330:\n        /* \"@openzeppelin/contracts/utils/math/Math.sol\":12925:12932  10 ** 2 */\n      0x64\n        /* \"@openzeppelin/contracts/utils/math/Math.sol\":12916:12921  value */\n      dup4\n        /* \"@openzeppelin/contracts/utils/math/Math.sol\":12916:12932  value >= 10 ** 2 */\n      lt\n        /* \"@openzeppelin/contracts/utils/math/Math.sol\":12912:13012  if (value >= 10 ** 2) {... */\n      tag_333\n      jumpi\n        /* \"@openzeppelin/contracts/utils/math/Math.sol\":12961:12968  10 ** 2 */\n      0x64\n        /* \"@openzeppelin/contracts/utils/math/Math.sol\":12952:12968  value /= 10 ** 2 */\n      dup4\n      dup2\n      tag_334\n      jumpi\n      tag_335\n      tag_281\n      jump\t// in\n    tag_335:\n    tag_334:\n      div\n      swap3\n      pop\n        /* \"@openzeppelin/contracts/utils/math/Math.sol\":12996:12997  2 */\n      0x02\n        /* \"@openzeppelin/contracts/utils/math/Math.sol\":12986:12997  result += 2 */\n      dup2\n      add\n      swap1\n      pop\n        /* \"@openzeppelin/contracts/utils/math/Math.sol\":12912:13012  if (value >= 10 ** 2) {... */\n    tag_333:\n        /* \"@openzeppelin/contracts/utils/math/Math.sol\":13038:13045  10 ** 1 */\n      0x0a\n        /* \"@openzeppelin/contracts/utils/math/Math.sol\":13029:13034  value */\n      dup4\n        /* \"@openzeppelin/contracts/utils/math/Math.sol\":13029:13045  value >= 10 ** 1 */\n      lt\n        /* \"@openzeppelin/contracts/utils/math/Math.sol\":13025:13091  if (value >= 10 ** 1) {... */\n      tag_336\n      jumpi\n        /* \"@openzeppelin/contracts/utils/math/Math.sol\":13075:13076  1 */\n      0x01\n        /* \"@openzeppelin/contracts/utils/math/Math.sol\":13065:13076  result += 1 */\n      dup2\n      add\n      swap1\n      pop\n        /* \"@openzeppelin/contracts/utils/math/Math.sol\":13025:13091  if (value >= 10 ** 1) {... */\n    tag_336:\n        /* \"@openzeppelin/contracts/utils/math/Math.sol\":13117:13123  result */\n      dup1\n        /* \"@openzeppelin/contracts/utils/math/Math.sol\":13110:13123  return result */\n      swap2\n      pop\n      pop\n        /* \"@openzeppelin/contracts/utils/math/Math.sol\":12214:13130  function log10(uint256 value) internal pure returns (uint256) {... */\n      swap2\n      swap1\n      pop\n      jump\t// out\n        /* \"@openzeppelin/contracts/utils/Context.sol\":656:752  function _msgSender() internal view virtual returns (address) {... */\n    tag_285:\n        /* \"@openzeppelin/contracts/utils/Context.sol\":709:716  address */\n      0x00\n        /* \"@openzeppelin/contracts/utils/Context.sol\":735:745  msg.sender */\n      caller\n        /* \"@openzeppelin/contracts/utils/Context.sol\":728:745  return msg.sender */\n      swap1\n      pop\n        /* \"@openzeppelin/contracts/utils/Context.sol\":656:752  function _msgSender() internal view virtual returns (address) {... */\n      swap1\n      jump\t// out\n        /* \"#utility.yul\":88:205   */\n    tag_339:\n        /* \"#utility.yul\":197:198   */\n      0x00\n        /* \"#utility.yul\":194:195   */\n      dup1\n        /* \"#utility.yul\":187:199   */\n      revert\n        /* \"#utility.yul\":211:328   */\n    tag_340:\n        /* \"#utility.yul\":320:321   */\n      0x00\n        /* \"#utility.yul\":317:318   */\n      dup1\n        /* \"#utility.yul\":310:322   */\n      revert\n        /* \"#utility.yul\":334:411   */\n    tag_341:\n        /* \"#utility.yul\":371:378   */\n      0x00\n        /* \"#utility.yul\":400:405   */\n      dup2\n        /* \"#utility.yul\":389:405   */\n      swap1\n      pop\n        /* \"#utility.yul\":334:411   */\n      swap2\n      swap1\n      pop\n      jump\t// out\n        /* \"#utility.yul\":417:539   */\n    tag_342:\n        /* \"#utility.yul\":490:514   */\n      tag_404\n        /* \"#utility.yul\":508:513   */\n      dup2\n        /* \"#utility.yul\":490:514   */\n      tag_341\n      jump\t// in\n    tag_404:\n        /* \"#utility.yul\":483:488   */\n      dup2\n        /* \"#utility.yul\":480:515   */\n      eq\n        /* \"#utility.yul\":470:533   */\n      tag_405\n      jumpi\n        /* \"#utility.yul\":529:530   */\n      0x00\n        /* \"#utility.yul\":526:527   */\n      dup1\n        /* \"#utility.yul\":519:531   */\n      revert\n        /* \"#utility.yul\":470:533   */\n    tag_405:\n        /* \"#utility.yul\":417:539   */\n      pop\n      jump\t// out\n        /* \"#utility.yul\":545:684   */\n    tag_343:\n        /* \"#utility.yul\":591:596   */\n      0x00\n        /* \"#utility.yul\":629:635   */\n      dup2\n        /* \"#utility.yul\":616:636   */\n      calldataload\n        /* \"#utility.yul\":607:636   */\n      swap1\n      pop\n        /* \"#utility.yul\":645:678   */\n      tag_407\n        /* \"#utility.yul\":672:677   */\n      dup2\n        /* \"#utility.yul\":645:678   */\n      tag_342\n      jump\t// in\n    tag_407:\n        /* \"#utility.yul\":545:684   */\n      swap3\n      swap2\n      pop\n      pop\n      jump\t// out\n        /* \"#utility.yul\":690:1019   */\n    tag_31:\n        /* \"#utility.yul\":749:755   */\n      0x00\n        /* \"#utility.yul\":798:800   */\n      0x20\n        /* \"#utility.yul\":786:795   */\n      dup3\n        /* \"#utility.yul\":777:784   */\n      dup5\n        /* \"#utility.yul\":773:796   */\n      sub\n        /* \"#utility.yul\":769:801   */\n      slt\n        /* \"#utility.yul\":766:885   */\n      iszero\n      tag_409\n      jumpi\n        /* \"#utility.yul\":804:883   */\n      tag_410\n      tag_339\n      jump\t// in\n    tag_410:\n        /* \"#utility.yul\":766:885   */\n    tag_409:\n        /* \"#utility.yul\":924:925   */\n      0x00\n        /* \"#utility.yul\":949:1002   */\n      tag_411\n        /* \"#utility.yul\":994:1001   */\n      dup5\n        /* \"#utility.yul\":985:991   */\n      dup3\n        /* \"#utility.yul\":974:983   */\n      dup6\n        /* \"#utility.yul\":970:992   */\n      add\n        /* \"#utility.yul\":949:1002   */\n      tag_343\n      jump\t// in\n    tag_411:\n        /* \"#utility.yul\":939:1002   */\n      swap2\n      pop\n        /* \"#utility.yul\":895:1012   */\n      pop\n        /* \"#utility.yul\":690:1019   */\n      swap3\n      swap2\n      pop\n      pop\n      jump\t// out\n        /* \"#utility.yul\":1025:1124   */\n    tag_344:\n        /* \"#utility.yul\":1077:1083   */\n      0x00\n        /* \"#utility.yul\":1111:1116   */\n      dup2\n        /* \"#utility.yul\":1105:1117   */\n      mload\n        /* \"#utility.yul\":1095:1117   */\n      swap1\n      pop\n        /* \"#utility.yul\":1025:1124   */\n      swap2\n      swap1\n      pop\n      jump\t// out\n        /* \"#utility.yul\":1130:1299   */\n    tag_345:\n        /* \"#utility.yul\":1214:1225   */\n      0x00\n        /* \"#utility.yul\":1248:1254   */\n      dup3\n        /* \"#utility.yul\":1243:1246   */\n      dup3\n        /* \"#utility.yul\":1236:1255   */\n      mstore\n        /* \"#utility.yul\":1288:1292   */\n      0x20\n        /* \"#utility.yul\":1283:1286   */\n      dup3\n        /* \"#utility.yul\":1279:1293   */\n      add\n        /* \"#utility.yul\":1264:1293   */\n      swap1\n      pop\n        /* \"#utility.yul\":1130:1299   */\n      swap3\n      swap2\n      pop\n      pop\n      jump\t// out\n        /* \"#utility.yul\":1305:1551   */\n    tag_346:\n        /* \"#utility.yul\":1386:1387   */\n      0x00\n        /* \"#utility.yul\":1396:1509   */\n    tag_415:\n        /* \"#utility.yul\":1410:1416   */\n      dup4\n        /* \"#utility.yul\":1407:1408   */\n      dup2\n        /* \"#utility.yul\":1404:1417   */\n      lt\n        /* \"#utility.yul\":1396:1509   */\n      iszero\n      tag_417\n      jumpi\n        /* \"#utility.yul\":1495:1496   */\n      dup1\n        /* \"#utility.yul\":1490:1493   */\n      dup3\n        /* \"#utility.yul\":1486:1497   */\n      add\n        /* \"#utility.yul\":1480:1498   */\n      mload\n        /* \"#utility.yul\":1476:1477   */\n      dup2\n        /* \"#utility.yul\":1471:1474   */\n      dup5\n        /* \"#utility.yul\":1467:1478   */\n      add\n        /* \"#utility.yul\":1460:1499   */\n      mstore\n        /* \"#utility.yul\":1432:1434   */\n      0x20\n        /* \"#utility.yul\":1429:1430   */\n      dup2\n        /* \"#utility.yul\":1425:1435   */\n      add\n        /* \"#utility.yul\":1420:1435   */\n      swap1\n      pop\n        /* \"#utility.yul\":1396:1509   */\n      jump(tag_415)\n    tag_417:\n        /* \"#utility.yul\":1543:1544   */\n      0x00\n        /* \"#utility.yul\":1534:1540   */\n      dup5\n        /* \"#utility.yul\":1529:1532   */\n      dup5\n        /* \"#utility.yul\":1525:1541   */\n      add\n        /* \"#utility.yul\":1518:1545   */\n      mstore\n        /* \"#utility.yul\":1367:1551   */\n      pop\n        /* \"#utility.yul\":1305:1551   */\n      pop\n      pop\n      pop\n      jump\t// out\n        /* \"#utility.yul\":1557:1659   */\n    tag_347:\n        /* \"#utility.yul\":1598:1604   */\n      0x00\n        /* \"#utility.yul\":1649:1651   */\n      0x1f\n        /* \"#utility.yul\":1645:1652   */\n      not\n        /* \"#utility.yul\":1640:1642   */\n      0x1f\n        /* \"#utility.yul\":1633:1638   */\n      dup4\n        /* \"#utility.yul\":1629:1643   */\n      add\n        /* \"#utility.yul\":1625:1653   */\n      and\n        /* \"#utility.yul\":1615:1653   */\n      swap1\n      pop\n        /* \"#utility.yul\":1557:1659   */\n      swap2\n      swap1\n      pop\n      jump\t// out\n        /* \"#utility.yul\":1665:2042   */\n    tag_348:\n        /* \"#utility.yul\":1753:1756   */\n      0x00\n        /* \"#utility.yul\":1781:1820   */\n      tag_420\n        /* \"#utility.yul\":1814:1819   */\n      dup3\n        /* \"#utility.yul\":1781:1820   */\n      tag_344\n      jump\t// in\n    tag_420:\n        /* \"#utility.yul\":1836:1907   */\n      tag_421\n        /* \"#utility.yul\":1900:1906   */\n      dup2\n        /* \"#utility.yul\":1895:1898   */\n      dup6\n        /* \"#utility.yul\":1836:1907   */\n      tag_345\n      jump\t// in\n    tag_421:\n        /* \"#utility.yul\":1829:1907   */\n      swap4\n      pop\n        /* \"#utility.yul\":1916:1981   */\n      tag_422\n        /* \"#utility.yul\":1974:1980   */\n      dup2\n        /* \"#utility.yul\":1969:1972   */\n      dup6\n        /* \"#utility.yul\":1962:1966   */\n      0x20\n        /* \"#utility.yul\":1955:1960   */\n      dup7\n        /* \"#utility.yul\":1951:1967   */\n      add\n        /* \"#utility.yul\":1916:1981   */\n      tag_346\n      jump\t// in\n    tag_422:\n        /* \"#utility.yul\":2006:2035   */\n      tag_423\n        /* \"#utility.yul\":2028:2034   */\n      dup2\n        /* \"#utility.yul\":2006:2035   */\n      tag_347\n      jump\t// in\n    tag_423:\n        /* \"#utility.yul\":2001:2004   */\n      dup5\n        /* \"#utility.yul\":1997:2036   */\n      add\n        /* \"#utility.yul\":1990:2036   */\n      swap2\n      pop\n        /* \"#utility.yul\":1757:2042   */\n      pop\n        /* \"#utility.yul\":1665:2042   */\n      swap3\n      swap2\n      pop\n      pop\n      jump\t// out\n        /* \"#utility.yul\":2048:2361   */\n    tag_34:\n        /* \"#utility.yul\":2161:2165   */\n      0x00\n        /* \"#utility.yul\":2199:2201   */\n      0x20\n        /* \"#utility.yul\":2188:2197   */\n      dup3\n        /* \"#utility.yul\":2184:2202   */\n      add\n        /* \"#utility.yul\":2176:2202   */\n      swap1\n      pop\n        /* \"#utility.yul\":2248:2257   */\n      dup2\n        /* \"#utility.yul\":2242:2246   */\n      dup2\n        /* \"#utility.yul\":2238:2258   */\n      sub\n        /* \"#utility.yul\":2234:2235   */\n      0x00\n        /* \"#utility.yul\":2223:2232   */\n      dup4\n        /* \"#utility.yul\":2219:2236   */\n      add\n        /* \"#utility.yul\":2212:2259   */\n      mstore\n        /* \"#utility.yul\":2276:2354   */\n      tag_425\n        /* \"#utility.yul\":2349:2353   */\n      dup2\n        /* \"#utility.yul\":2340:2346   */\n      dup5\n        /* \"#utility.yul\":2276:2354   */\n      tag_348\n      jump\t// in\n    tag_425:\n        /* \"#utility.yul\":2268:2354   */\n      swap1\n      pop\n        /* \"#utility.yul\":2048:2361   */\n      swap3\n      swap2\n      pop\n      pop\n      jump\t// out\n        /* \"#utility.yul\":2367:2493   */\n    tag_349:\n        /* \"#utility.yul\":2404:2411   */\n      0x00\n        /* \"#utility.yul\":2444:2486   */\n      0xffffffffffffffffffffffffffffffffffffffff\n        /* \"#utility.yul\":2437:2442   */\n      dup3\n        /* \"#utility.yul\":2433:2487   */\n      and\n        /* \"#utility.yul\":2422:2487   */\n      swap1\n      pop\n        /* \"#utility.yul\":2367:2493   */\n      swap2\n      swap1\n      pop\n      jump\t// out\n        /* \"#utility.yul\":2499:2595   */\n    tag_350:\n        /* \"#utility.yul\":2536:2543   */\n      0x00\n        /* \"#utility.yul\":2565:2589   */\n      tag_428\n        /* \"#utility.yul\":2583:2588   */\n      dup3\n        /* \"#utility.yul\":2565:2589   */\n      tag_349\n      jump\t// in\n    tag_428:\n        /* \"#utility.yul\":2554:2589   */\n      swap1\n      pop\n        /* \"#utility.yul\":2499:2595   */\n      swap2\n      swap1\n      pop\n      jump\t// out\n        /* \"#utility.yul\":2601:2719   */\n    tag_351:\n        /* \"#utility.yul\":2688:2712   */\n      tag_430\n        /* \"#utility.yul\":2706:2711   */\n      dup2\n        /* \"#utility.yul\":2688:2712   */\n      tag_350\n      jump\t// in\n    tag_430:\n        /* \"#utility.yul\":2683:2686   */\n      dup3\n        /* \"#utility.yul\":2676:2713   */\n      mstore\n        /* \"#utility.yul\":2601:2719   */\n      pop\n      pop\n      jump\t// out\n        /* \"#utility.yul\":2725:2843   */\n    tag_352:\n        /* \"#utility.yul\":2812:2836   */\n      tag_432\n        /* \"#utility.yul\":2830:2835   */\n      dup2\n        /* \"#utility.yul\":2812:2836   */\n      tag_341\n      jump\t// in\n    tag_432:\n        /* \"#utility.yul\":2807:2810   */\n      dup3\n        /* \"#utility.yul\":2800:2837   */\n      mstore\n        /* \"#utility.yul\":2725:2843   */\n      pop\n      pop\n      jump\t// out\n        /* \"#utility.yul\":2849:3382   */\n    tag_39:\n        /* \"#utility.yul\":3018:3022   */\n      0x00\n        /* \"#utility.yul\":3056:3058   */\n      0x60\n        /* \"#utility.yul\":3045:3054   */\n      dup3\n        /* \"#utility.yul\":3041:3059   */\n      add\n        /* \"#utility.yul\":3033:3059   */\n      swap1\n      pop\n        /* \"#utility.yul\":3069:3140   */\n      tag_434\n        /* \"#utility.yul\":3137:3138   */\n      0x00\n        /* \"#utility.yul\":3126:3135   */\n      dup4\n        /* \"#utility.yul\":3122:3139   */\n      add\n        /* \"#utility.yul\":3113:3119   */\n      dup7\n        /* \"#utility.yul\":3069:3140   */\n      tag_351\n      jump\t// in\n    tag_434:\n        /* \"#utility.yul\":3187:3196   */\n      dup2\n        /* \"#utility.yul\":3181:3185   */\n      dup2\n        /* \"#utility.yul\":3177:3197   */\n      sub\n        /* \"#utility.yul\":3172:3174   */\n      0x20\n        /* \"#utility.yul\":3161:3170   */\n      dup4\n        /* \"#utility.yul\":3157:3175   */\n      add\n        /* \"#utility.yul\":3150:3198   */\n      mstore\n        /* \"#utility.yul\":3215:3293   */\n      tag_435\n        /* \"#utility.yul\":3288:3292   */\n      dup2\n        /* \"#utility.yul\":3279:3285   */\n      dup6\n        /* \"#utility.yul\":3215:3293   */\n      tag_348\n      jump\t// in\n    tag_435:\n        /* \"#utility.yul\":3207:3293   */\n      swap1\n      pop\n        /* \"#utility.yul\":3303:3375   */\n      tag_436\n        /* \"#utility.yul\":3371:3373   */\n      0x40\n        /* \"#utility.yul\":3360:3369   */\n      dup4\n        /* \"#utility.yul\":3356:3374   */\n      add\n        /* \"#utility.yul\":3347:3353   */\n      dup5\n        /* \"#utility.yul\":3303:3375   */\n      tag_352\n      jump\t// in\n    tag_436:\n        /* \"#utility.yul\":2849:3382   */\n      swap5\n      swap4\n      pop\n      pop\n      pop\n      pop\n      jump\t// out\n        /* \"#utility.yul\":3388:3568   */\n    tag_140:\n        /* \"#utility.yul\":3436:3513   */\n      0x4e487b7100000000000000000000000000000000000000000000000000000000\n        /* \"#utility.yul\":3433:3434   */\n      0x00\n        /* \"#utility.yul\":3426:3514   */\n      mstore\n        /* \"#utility.yul\":3533:3537   */\n      0x21\n        /* \"#utility.yul\":3530:3531   */\n      0x04\n        /* \"#utility.yul\":3523:3538   */\n      mstore\n        /* \"#utility.yul\":3557:3561   */\n      0x24\n        /* \"#utility.yul\":3554:3555   */\n      0x00\n        /* \"#utility.yul\":3547:3562   */\n      revert\n        /* \"#utility.yul\":3574:3698   */\n    tag_353:\n        /* \"#utility.yul\":3666:3667   */\n      0x06\n        /* \"#utility.yul\":3659:3664   */\n      dup2\n        /* \"#utility.yul\":3656:3668   */\n      lt\n        /* \"#utility.yul\":3646:3692   */\n      tag_439\n      jumpi\n        /* \"#utility.yul\":3672:3690   */\n      tag_440\n      tag_140\n      jump\t// in\n    tag_440:\n        /* \"#utility.yul\":3646:3692   */\n    tag_439:\n        /* \"#utility.yul\":3574:3698   */\n      pop\n      jump\t// out\n        /* \"#utility.yul\":3704:3853   */\n    tag_354:\n        /* \"#utility.yul\":3760:3767   */\n      0x00\n        /* \"#utility.yul\":3789:3794   */\n      dup2\n        /* \"#utility.yul\":3778:3794   */\n      swap1\n      pop\n        /* \"#utility.yul\":3795:3847   */\n      tag_442\n        /* \"#utility.yul\":3841:3846   */\n      dup3\n        /* \"#utility.yul\":3795:3847   */\n      tag_353\n      jump\t// in\n    tag_442:\n        /* \"#utility.yul\":3704:3853   */\n      swap2\n      swap1\n      pop\n      jump\t// out\n        /* \"#utility.yul\":3859:4008   */\n    tag_355:\n        /* \"#utility.yul\":3926:3935   */\n      0x00\n        /* \"#utility.yul\":3959:4002   */\n      tag_444\n        /* \"#utility.yul\":3996:4001   */\n      dup3\n        /* \"#utility.yul\":3959:4002   */\n      tag_354\n      jump\t// in\n    tag_444:\n        /* \"#utility.yul\":3946:4002   */\n      swap1\n      pop\n        /* \"#utility.yul\":3859:4008   */\n      swap2\n      swap1\n      pop\n      jump\t// out\n        /* \"#utility.yul\":4014:4179   */\n    tag_356:\n        /* \"#utility.yul\":4118:4172   */\n      tag_446\n        /* \"#utility.yul\":4166:4171   */\n      dup2\n        /* \"#utility.yul\":4118:4172   */\n      tag_355\n      jump\t// in\n    tag_446:\n        /* \"#utility.yul\":4113:4116   */\n      dup3\n        /* \"#utility.yul\":4106:4173   */\n      mstore\n        /* \"#utility.yul\":4014:4179   */\n      pop\n      pop\n      jump\t// out\n        /* \"#utility.yul\":4185:4441   */\n    tag_46:\n        /* \"#utility.yul\":4295:4299   */\n      0x00\n        /* \"#utility.yul\":4333:4335   */\n      0x20\n        /* \"#utility.yul\":4322:4331   */\n      dup3\n        /* \"#utility.yul\":4318:4336   */\n      add\n        /* \"#utility.yul\":4310:4336   */\n      swap1\n      pop\n        /* \"#utility.yul\":4346:4434   */\n      tag_448\n        /* \"#utility.yul\":4431:4432   */\n      0x00\n        /* \"#utility.yul\":4420:4429   */\n      dup4\n        /* \"#utility.yul\":4416:4433   */\n      add\n        /* \"#utility.yul\":4407:4413   */\n      dup5\n        /* \"#utility.yul\":4346:4434   */\n      tag_356\n      jump\t// in\n    tag_448:\n        /* \"#utility.yul\":4185:4441   */\n      swap3\n      swap2\n      pop\n      pop\n      jump\t// out\n        /* \"#utility.yul\":4447:4564   */\n    tag_357:\n        /* \"#utility.yul\":4556:4557   */\n      0x00\n        /* \"#utility.yul\":4553:4554   */\n      dup1\n        /* \"#utility.yul\":4546:4558   */\n      revert\n        /* \"#utility.yul\":4570:4687   */\n    tag_358:\n        /* \"#utility.yul\":4679:4680   */\n      0x00\n        /* \"#utility.yul\":4676:4677   */\n      dup1\n        /* \"#utility.yul\":4669:4681   */\n      revert\n        /* \"#utility.yul\":4693:4810   */\n    tag_359:\n        /* \"#utility.yul\":4802:4803   */\n      0x00\n        /* \"#utility.yul\":4799:4800   */\n      dup1\n        /* \"#utility.yul\":4792:4804   */\n      revert\n        /* \"#utility.yul\":4830:5383   */\n    tag_360:\n        /* \"#utility.yul\":4888:4896   */\n      0x00\n        /* \"#utility.yul\":4898:4904   */\n      dup1\n        /* \"#utility.yul\":4948:4951   */\n      dup4\n        /* \"#utility.yul\":4941:4945   */\n      0x1f\n        /* \"#utility.yul\":4933:4939   */\n      dup5\n        /* \"#utility.yul\":4929:4946   */\n      add\n        /* \"#utility.yul\":4925:4952   */\n      slt\n        /* \"#utility.yul\":4915:5037   */\n      tag_453\n      jumpi\n        /* \"#utility.yul\":4956:5035   */\n      tag_454\n      tag_357\n      jump\t// in\n    tag_454:\n        /* \"#utility.yul\":4915:5037   */\n    tag_453:\n        /* \"#utility.yul\":5069:5075   */\n      dup3\n        /* \"#utility.yul\":5056:5076   */\n      calldataload\n        /* \"#utility.yul\":5046:5076   */\n      swap1\n      pop\n        /* \"#utility.yul\":5099:5117   */\n      0xffffffffffffffff\n        /* \"#utility.yul\":5091:5097   */\n      dup2\n        /* \"#utility.yul\":5088:5118   */\n      gt\n        /* \"#utility.yul\":5085:5202   */\n      iszero\n      tag_455\n      jumpi\n        /* \"#utility.yul\":5121:5200   */\n      tag_456\n      tag_358\n      jump\t// in\n    tag_456:\n        /* \"#utility.yul\":5085:5202   */\n    tag_455:\n        /* \"#utility.yul\":5235:5239   */\n      0x20\n        /* \"#utility.yul\":5227:5233   */\n      dup4\n        /* \"#utility.yul\":5223:5240   */\n      add\n        /* \"#utility.yul\":5211:5240   */\n      swap2\n      pop\n        /* \"#utility.yul\":5289:5292   */\n      dup4\n        /* \"#utility.yul\":5281:5285   */\n      0x01\n        /* \"#utility.yul\":5273:5279   */\n      dup3\n        /* \"#utility.yul\":5269:5286   */\n      mul\n        /* \"#utility.yul\":5259:5267   */\n      dup4\n        /* \"#utility.yul\":5255:5287   */\n      add\n        /* \"#utility.yul\":5252:5293   */\n      gt\n        /* \"#utility.yul\":5249:5377   */\n      iszero\n      tag_457\n      jumpi\n        /* \"#utility.yul\":5296:5375   */\n      tag_458\n      tag_359\n      jump\t// in\n    tag_458:\n        /* \"#utility.yul\":5249:5377   */\n    tag_457:\n        /* \"#utility.yul\":4830:5383   */\n      swap3\n      pop\n      swap3\n      swap1\n      pop\n      jump\t// out\n        /* \"#utility.yul\":5389:5918   */\n    tag_49:\n        /* \"#utility.yul\":5460:5466   */\n      0x00\n        /* \"#utility.yul\":5468:5474   */\n      dup1\n        /* \"#utility.yul\":5517:5519   */\n      0x20\n        /* \"#utility.yul\":5505:5514   */\n      dup4\n        /* \"#utility.yul\":5496:5503   */\n      dup6\n        /* \"#utility.yul\":5492:5515   */\n      sub\n        /* \"#utility.yul\":5488:5520   */\n      slt\n        /* \"#utility.yul\":5485:5604   */\n      iszero\n      tag_460\n      jumpi\n        /* \"#utility.yul\":5523:5602   */\n      tag_461\n      tag_339\n      jump\t// in\n    tag_461:\n        /* \"#utility.yul\":5485:5604   */\n    tag_460:\n        /* \"#utility.yul\":5671:5672   */\n      0x00\n        /* \"#utility.yul\":5660:5669   */\n      dup4\n        /* \"#utility.yul\":5656:5673   */\n      add\n        /* \"#utility.yul\":5643:5674   */\n      calldataload\n        /* \"#utility.yul\":5701:5719   */\n      0xffffffffffffffff\n        /* \"#utility.yul\":5693:5699   */\n      dup2\n        /* \"#utility.yul\":5690:5720   */\n      gt\n        /* \"#utility.yul\":5687:5804   */\n      iszero\n      tag_462\n      jumpi\n        /* \"#utility.yul\":5723:5802   */\n      tag_463\n      tag_340\n      jump\t// in\n    tag_463:\n        /* \"#utility.yul\":5687:5804   */\n    tag_462:\n        /* \"#utility.yul\":5836:5901   */\n      tag_464\n        /* \"#utility.yul\":5893:5900   */\n      dup6\n        /* \"#utility.yul\":5884:5890   */\n      dup3\n        /* \"#utility.yul\":5873:5882   */\n      dup7\n        /* \"#utility.yul\":5869:5891   */\n      add\n        /* \"#utility.yul\":5836:5901   */\n      tag_360\n      jump\t// in\n    tag_464:\n        /* \"#utility.yul\":5818:5901   */\n      swap3\n      pop\n      swap3\n      pop\n        /* \"#utility.yul\":5614:5911   */\n      pop\n        /* \"#utility.yul\":5389:5918   */\n      swap3\n      pop\n      swap3\n      swap1\n      pop\n      jump\t// out\n        /* \"#utility.yul\":5924:6046   */\n    tag_361:\n        /* \"#utility.yul\":5997:6021   */\n      tag_466\n        /* \"#utility.yul\":6015:6020   */\n      dup2\n        /* \"#utility.yul\":5997:6021   */\n      tag_350\n      jump\t// in\n    tag_466:\n        /* \"#utility.yul\":5990:5995   */\n      dup2\n        /* \"#utility.yul\":5987:6022   */\n      eq\n        /* \"#utility.yul\":5977:6040   */\n      tag_467\n      jumpi\n        /* \"#utility.yul\":6036:6037   */\n      0x00\n        /* \"#utility.yul\":6033:6034   */\n      dup1\n        /* \"#utility.yul\":6026:6038   */\n      revert\n        /* \"#utility.yul\":5977:6040   */\n    tag_467:\n        /* \"#utility.yul\":5924:6046   */\n      pop\n      jump\t// out\n        /* \"#utility.yul\":6052:6191   */\n    tag_362:\n        /* \"#utility.yul\":6098:6103   */\n      0x00\n        /* \"#utility.yul\":6136:6142   */\n      dup2\n        /* \"#utility.yul\":6123:6143   */\n      calldataload\n        /* \"#utility.yul\":6114:6143   */\n      swap1\n      pop\n        /* \"#utility.yul\":6152:6185   */\n      tag_469\n        /* \"#utility.yul\":6179:6184   */\n      dup2\n        /* \"#utility.yul\":6152:6185   */\n      tag_361\n      jump\t// in\n    tag_469:\n        /* \"#utility.yul\":6052:6191   */\n      swap3\n      swap2\n      pop\n      pop\n      jump\t// out\n        /* \"#utility.yul\":6197:6526   */\n    tag_56:\n        /* \"#utility.yul\":6256:6262   */\n      0x00\n        /* \"#utility.yul\":6305:6307   */\n      0x20\n        /* \"#utility.yul\":6293:6302   */\n      dup3\n        /* \"#utility.yul\":6284:6291   */\n      dup5\n        /* \"#utility.yul\":6280:6303   */\n      sub\n        /* \"#utility.yul\":6276:6308   */\n      slt\n        /* \"#utility.yul\":6273:6392   */\n      iszero\n      tag_471\n      jumpi\n        /* \"#utility.yul\":6311:6390   */\n      tag_472\n      tag_339\n      jump\t// in\n    tag_472:\n        /* \"#utility.yul\":6273:6392   */\n    tag_471:\n        /* \"#utility.yul\":6431:6432   */\n      0x00\n        /* \"#utility.yul\":6456:6509   */\n      tag_473\n        /* \"#utility.yul\":6501:6508   */\n      dup5\n        /* \"#utility.yul\":6492:6498   */\n      dup3\n        /* \"#utility.yul\":6481:6490   */\n      dup6\n        /* \"#utility.yul\":6477:6499   */\n      add\n        /* \"#utility.yul\":6456:6509   */\n      tag_362\n      jump\t// in\n    tag_473:\n        /* \"#utility.yul\":6446:6509   */\n      swap2\n      pop\n        /* \"#utility.yul\":6402:6519   */\n      pop\n        /* \"#utility.yul\":6197:6526   */\n      swap3\n      swap2\n      pop\n      pop\n      jump\t// out\n        /* \"#utility.yul\":6532:6622   */\n    tag_363:\n        /* \"#utility.yul\":6566:6573   */\n      0x00\n        /* \"#utility.yul\":6609:6614   */\n      dup2\n        /* \"#utility.yul\":6602:6615   */\n      iszero\n        /* \"#utility.yul\":6595:6616   */\n      iszero\n        /* \"#utility.yul\":6584:6616   */\n      swap1\n      pop\n        /* \"#utility.yul\":6532:6622   */\n      swap2\n      swap1\n      pop\n      jump\t// out\n        /* \"#utility.yul\":6628:6737   */\n    tag_364:\n        /* \"#utility.yul\":6709:6730   */\n      tag_476\n        /* \"#utility.yul\":6724:6729   */\n      dup2\n        /* \"#utility.yul\":6709:6730   */\n      tag_363\n      jump\t// in\n    tag_476:\n        /* \"#utility.yul\":6704:6707   */\n      dup3\n        /* \"#utility.yul\":6697:6731   */\n      mstore\n        /* \"#utility.yul\":6628:6737   */\n      pop\n      pop\n      jump\t// out\n        /* \"#utility.yul\":6743:6953   */\n    tag_62:\n        /* \"#utility.yul\":6830:6834   */\n      0x00\n        /* \"#utility.yul\":6868:6870   */\n      0x20\n        /* \"#utility.yul\":6857:6866   */\n      dup3\n        /* \"#utility.yul\":6853:6871   */\n      add\n        /* \"#utility.yul\":6845:6871   */\n      swap1\n      pop\n        /* \"#utility.yul\":6881:6946   */\n      tag_478\n        /* \"#utility.yul\":6943:6944   */\n      0x00\n        /* \"#utility.yul\":6932:6941   */\n      dup4\n        /* \"#utility.yul\":6928:6945   */\n      add\n        /* \"#utility.yul\":6919:6925   */\n      dup5\n        /* \"#utility.yul\":6881:6946   */\n      tag_364\n      jump\t// in\n    tag_478:\n        /* \"#utility.yul\":6743:6953   */\n      swap3\n      swap2\n      pop\n      pop\n      jump\t// out\n        /* \"#utility.yul\":6959:7181   */\n    tag_73:\n        /* \"#utility.yul\":7052:7056   */\n      0x00\n        /* \"#utility.yul\":7090:7092   */\n      0x20\n        /* \"#utility.yul\":7079:7088   */\n      dup3\n        /* \"#utility.yul\":7075:7093   */\n      add\n        /* \"#utility.yul\":7067:7093   */\n      swap1\n      pop\n        /* \"#utility.yul\":7103:7174   */\n      tag_480\n        /* \"#utility.yul\":7171:7172   */\n      0x00\n        /* \"#utility.yul\":7160:7169   */\n      dup4\n        /* \"#utility.yul\":7156:7173   */\n      add\n        /* \"#utility.yul\":7147:7153   */\n      dup5\n        /* \"#utility.yul\":7103:7174   */\n      tag_352\n      jump\t// in\n    tag_480:\n        /* \"#utility.yul\":6959:7181   */\n      swap3\n      swap2\n      pop\n      pop\n      jump\t// out\n        /* \"#utility.yul\":7187:7409   */\n    tag_88:\n        /* \"#utility.yul\":7280:7284   */\n      0x00\n        /* \"#utility.yul\":7318:7320   */\n      0x20\n        /* \"#utility.yul\":7307:7316   */\n      dup3\n        /* \"#utility.yul\":7303:7321   */\n      add\n        /* \"#utility.yul\":7295:7321   */\n      swap1\n      pop\n        /* \"#utility.yul\":7331:7402   */\n      tag_482\n        /* \"#utility.yul\":7399:7400   */\n      0x00\n        /* \"#utility.yul\":7388:7397   */\n      dup4\n        /* \"#utility.yul\":7384:7401   */\n      add\n        /* \"#utility.yul\":7375:7381   */\n      dup5\n        /* \"#utility.yul\":7331:7402   */\n      tag_351\n      jump\t// in\n    tag_482:\n        /* \"#utility.yul\":7187:7409   */\n      swap3\n      swap2\n      pop\n      pop\n      jump\t// out\n        /* \"#utility.yul\":7415:7833   */\n    tag_96:\n        /* \"#utility.yul\":7552:7556   */\n      0x00\n        /* \"#utility.yul\":7590:7592   */\n      0x60\n        /* \"#utility.yul\":7579:7588   */\n      dup3\n        /* \"#utility.yul\":7575:7593   */\n      add\n        /* \"#utility.yul\":7567:7593   */\n      swap1\n      pop\n        /* \"#utility.yul\":7603:7668   */\n      tag_484\n        /* \"#utility.yul\":7665:7666   */\n      0x00\n        /* \"#utility.yul\":7654:7663   */\n      dup4\n        /* \"#utility.yul\":7650:7667   */\n      add\n        /* \"#utility.yul\":7641:7647   */\n      dup7\n        /* \"#utility.yul\":7603:7668   */\n      tag_364\n      jump\t// in\n    tag_484:\n        /* \"#utility.yul\":7678:7744   */\n      tag_485\n        /* \"#utility.yul\":7740:7742   */\n      0x20\n        /* \"#utility.yul\":7729:7738   */\n      dup4\n        /* \"#utility.yul\":7725:7743   */\n      add\n        /* \"#utility.yul\":7716:7722   */\n      dup6\n        /* \"#utility.yul\":7678:7744   */\n      tag_364\n      jump\t// in\n    tag_485:\n        /* \"#utility.yul\":7754:7826   */\n      tag_486\n        /* \"#utility.yul\":7822:7824   */\n      0x40\n        /* \"#utility.yul\":7811:7820   */\n      dup4\n        /* \"#utility.yul\":7807:7825   */\n      add\n        /* \"#utility.yul\":7798:7804   */\n      dup5\n        /* \"#utility.yul\":7754:7826   */\n      tag_352\n      jump\t// in\n    tag_486:\n        /* \"#utility.yul\":7415:7833   */\n      swap5\n      swap4\n      pop\n      pop\n      pop\n      pop\n      jump\t// out\n        /* \"#utility.yul\":7856:8424   */\n    tag_365:\n        /* \"#utility.yul\":7929:7937   */\n      0x00\n        /* \"#utility.yul\":7939:7945   */\n      dup1\n        /* \"#utility.yul\":7989:7992   */\n      dup4\n        /* \"#utility.yul\":7982:7986   */\n      0x1f\n        /* \"#utility.yul\":7974:7980   */\n      dup5\n        /* \"#utility.yul\":7970:7987   */\n      add\n        /* \"#utility.yul\":7966:7993   */\n      slt\n        /* \"#utility.yul\":7956:8078   */\n      tag_488\n      jumpi\n        /* \"#utility.yul\":7997:8076   */\n      tag_489\n      tag_357\n      jump\t// in\n    tag_489:\n        /* \"#utility.yul\":7956:8078   */\n    tag_488:\n        /* \"#utility.yul\":8110:8116   */\n      dup3\n        /* \"#utility.yul\":8097:8117   */\n      calldataload\n        /* \"#utility.yul\":8087:8117   */\n      swap1\n      pop\n        /* \"#utility.yul\":8140:8158   */\n      0xffffffffffffffff\n        /* \"#utility.yul\":8132:8138   */\n      dup2\n        /* \"#utility.yul\":8129:8159   */\n      gt\n        /* \"#utility.yul\":8126:8243   */\n      iszero\n      tag_490\n      jumpi\n        /* \"#utility.yul\":8162:8241   */\n      tag_491\n      tag_358\n      jump\t// in\n    tag_491:\n        /* \"#utility.yul\":8126:8243   */\n    tag_490:\n        /* \"#utility.yul\":8276:8280   */\n      0x20\n        /* \"#utility.yul\":8268:8274   */\n      dup4\n        /* \"#utility.yul\":8264:8281   */\n      add\n        /* \"#utility.yul\":8252:8281   */\n      swap2\n      pop\n        /* \"#utility.yul\":8330:8333   */\n      dup4\n        /* \"#utility.yul\":8322:8326   */\n      0x20\n        /* \"#utility.yul\":8314:8320   */\n      dup3\n        /* \"#utility.yul\":8310:8327   */\n      mul\n        /* \"#utility.yul\":8300:8308   */\n      dup4\n        /* \"#utility.yul\":8296:8328   */\n      add\n        /* \"#utility.yul\":8293:8334   */\n      gt\n        /* \"#utility.yul\":8290:8418   */\n      iszero\n      tag_492\n      jumpi\n        /* \"#utility.yul\":8337:8416   */\n      tag_493\n      tag_359\n      jump\t// in\n    tag_493:\n        /* \"#utility.yul\":8290:8418   */\n    tag_492:\n        /* \"#utility.yul\":7856:8424   */\n      swap3\n      pop\n      swap3\n      swap1\n      pop\n      jump\t// out\n        /* \"#utility.yul\":8430:8989   */\n    tag_102:\n        /* \"#utility.yul\":8516:8522   */\n      0x00\n        /* \"#utility.yul\":8524:8530   */\n      dup1\n        /* \"#utility.yul\":8573:8575   */\n      0x20\n        /* \"#utility.yul\":8561:8570   */\n      dup4\n        /* \"#utility.yul\":8552:8559   */\n      dup6\n        /* \"#utility.yul\":8548:8571   */\n      sub\n        /* \"#utility.yul\":8544:8576   */\n      slt\n        /* \"#utility.yul\":8541:8660   */\n      iszero\n      tag_495\n      jumpi\n        /* \"#utility.yul\":8579:8658   */\n      tag_496\n      tag_339\n      jump\t// in\n    tag_496:\n        /* \"#utility.yul\":8541:8660   */\n    tag_495:\n        /* \"#utility.yul\":8727:8728   */\n      0x00\n        /* \"#utility.yul\":8716:8725   */\n      dup4\n        /* \"#utility.yul\":8712:8729   */\n      add\n        /* \"#utility.yul\":8699:8730   */\n      calldataload\n        /* \"#utility.yul\":8757:8775   */\n      0xffffffffffffffff\n        /* \"#utility.yul\":8749:8755   */\n      dup2\n        /* \"#utility.yul\":8746:8776   */\n      gt\n        /* \"#utility.yul\":8743:8860   */\n      iszero\n      tag_497\n      jumpi\n        /* \"#utility.yul\":8779:8858   */\n      tag_498\n      tag_340\n      jump\t// in\n    tag_498:\n        /* \"#utility.yul\":8743:8860   */\n    tag_497:\n        /* \"#utility.yul\":8892:8972   */\n      tag_499\n        /* \"#utility.yul\":8964:8971   */\n      dup6\n        /* \"#utility.yul\":8955:8961   */\n      dup3\n        /* \"#utility.yul\":8944:8953   */\n      dup7\n        /* \"#utility.yul\":8940:8962   */\n      add\n        /* \"#utility.yul\":8892:8972   */\n      tag_365\n      jump\t// in\n    tag_499:\n        /* \"#utility.yul\":8874:8972   */\n      swap3\n      pop\n      swap3\n      pop\n        /* \"#utility.yul\":8670:8982   */\n      pop\n        /* \"#utility.yul\":8430:8989   */\n      swap3\n      pop\n      swap3\n      swap1\n      pop\n      jump\t// out\n        /* \"#utility.yul\":8995:9159   */\n    tag_366:\n        /* \"#utility.yul\":9135:9151   */\n      0x416c726561647920766f7465642e000000000000000000000000000000000000\n        /* \"#utility.yul\":9131:9132   */\n      0x00\n        /* \"#utility.yul\":9123:9129   */\n      dup3\n        /* \"#utility.yul\":9119:9133   */\n      add\n        /* \"#utility.yul\":9112:9152   */\n      mstore\n        /* \"#utility.yul\":8995:9159   */\n      pop\n      jump\t// out\n        /* \"#utility.yul\":9165:9531   */\n    tag_367:\n        /* \"#utility.yul\":9307:9310   */\n      0x00\n        /* \"#utility.yul\":9328:9395   */\n      tag_502\n        /* \"#utility.yul\":9392:9394   */\n      0x0e\n        /* \"#utility.yul\":9387:9390   */\n      dup4\n        /* \"#utility.yul\":9328:9395   */\n      tag_345\n      jump\t// in\n    tag_502:\n        /* \"#utility.yul\":9321:9395   */\n      swap2\n      pop\n        /* \"#utility.yul\":9404:9497   */\n      tag_503\n        /* \"#utility.yul\":9493:9496   */\n      dup3\n        /* \"#utility.yul\":9404:9497   */\n      tag_366\n      jump\t// in\n    tag_503:\n        /* \"#utility.yul\":9522:9524   */\n      0x20\n        /* \"#utility.yul\":9517:9520   */\n      dup3\n        /* \"#utility.yul\":9513:9525   */\n      add\n        /* \"#utility.yul\":9506:9525   */\n      swap1\n      pop\n        /* \"#utility.yul\":9165:9531   */\n      swap2\n      swap1\n      pop\n      jump\t// out\n        /* \"#utility.yul\":9537:9956   */\n    tag_118:\n        /* \"#utility.yul\":9703:9707   */\n      0x00\n        /* \"#utility.yul\":9741:9743   */\n      0x20\n        /* \"#utility.yul\":9730:9739   */\n      dup3\n        /* \"#utility.yul\":9726:9744   */\n      add\n        /* \"#utility.yul\":9718:9744   */\n      swap1\n      pop\n        /* \"#utility.yul\":9790:9799   */\n      dup2\n        /* \"#utility.yul\":9784:9788   */\n      dup2\n        /* \"#utility.yul\":9780:9800   */\n      sub\n        /* \"#utility.yul\":9776:9777   */\n      0x00\n        /* \"#utility.yul\":9765:9774   */\n      dup4\n        /* \"#utility.yul\":9761:9778   */\n      add\n        /* \"#utility.yul\":9754:9801   */\n      mstore\n        /* \"#utility.yul\":9818:9949   */\n      tag_505\n        /* \"#utility.yul\":9944:9948   */\n      dup2\n        /* \"#utility.yul\":9818:9949   */\n      tag_367\n      jump\t// in\n    tag_505:\n        /* \"#utility.yul\":9810:9949   */\n      swap1\n      pop\n        /* \"#utility.yul\":9537:9956   */\n      swap2\n      swap1\n      pop\n      jump\t// out\n        /* \"#utility.yul\":9962:10142   */\n    tag_121:\n        /* \"#utility.yul\":10010:10087   */\n      0x4e487b7100000000000000000000000000000000000000000000000000000000\n        /* \"#utility.yul\":10007:10008   */\n      0x00\n        /* \"#utility.yul\":10000:10088   */\n      mstore\n        /* \"#utility.yul\":10107:10111   */\n      0x32\n        /* \"#utility.yul\":10104:10105   */\n      0x04\n        /* \"#utility.yul\":10097:10112   */\n      mstore\n        /* \"#utility.yul\":10131:10135   */\n      0x24\n        /* \"#utility.yul\":10128:10129   */\n      0x00\n        /* \"#utility.yul\":10121:10136   */\n      revert\n        /* \"#utility.yul\":10148:10328   */\n    tag_368:\n        /* \"#utility.yul\":10196:10273   */\n      0x4e487b7100000000000000000000000000000000000000000000000000000000\n        /* \"#utility.yul\":10193:10194   */\n      0x00\n        /* \"#utility.yul\":10186:10274   */\n      mstore\n        /* \"#utility.yul\":10293:10297   */\n      0x11\n        /* \"#utility.yul\":10290:10291   */\n      0x04\n        /* \"#utility.yul\":10283:10298   */\n      mstore\n        /* \"#utility.yul\":10317:10321   */\n      0x24\n        /* \"#utility.yul\":10314:10315   */\n      0x00\n        /* \"#utility.yul\":10307:10322   */\n      revert\n        /* \"#utility.yul\":10334:10567   */\n    tag_124:\n        /* \"#utility.yul\":10373:10376   */\n      0x00\n        /* \"#utility.yul\":10396:10420   */\n      tag_509\n        /* \"#utility.yul\":10414:10419   */\n      dup3\n        /* \"#utility.yul\":10396:10420   */\n      tag_341\n      jump\t// in\n    tag_509:\n        /* \"#utility.yul\":10387:10420   */\n      swap2\n      pop\n        /* \"#utility.yul\":10442:10508   */\n      0xffffffffffffffffffffffffffffffffffffffffffffffffffffffffffffffff\n        /* \"#utility.yul\":10435:10440   */\n      dup3\n        /* \"#utility.yul\":10432:10509   */\n      sub\n        /* \"#utility.yul\":10429:10532   */\n      tag_510\n      jumpi\n        /* \"#utility.yul\":10512:10530   */\n      tag_511\n      tag_368\n      jump\t// in\n    tag_511:\n        /* \"#utility.yul\":10429:10532   */\n    tag_510:\n        /* \"#utility.yul\":10559:10560   */\n      0x01\n        /* \"#utility.yul\":10552:10557   */\n      dup3\n        /* \"#utility.yul\":10548:10561   */\n      add\n        /* \"#utility.yul\":10541:10561   */\n      swap1\n      pop\n        /* \"#utility.yul\":10334:10567   */\n      swap2\n      swap1\n      pop\n      jump\t// out\n        /* \"#utility.yul\":10573:10905   */\n    tag_126:\n        /* \"#utility.yul\":10694:10698   */\n      0x00\n        /* \"#utility.yul\":10732:10734   */\n      0x40\n        /* \"#utility.yul\":10721:10730   */\n      dup3\n        /* \"#utility.yul\":10717:10735   */\n      add\n        /* \"#utility.yul\":10709:10735   */\n      swap1\n      pop\n        /* \"#utility.yul\":10745:10816   */\n      tag_513\n        /* \"#utility.yul\":10813:10814   */\n      0x00\n        /* \"#utility.yul\":10802:10811   */\n      dup4\n        /* \"#utility.yul\":10798:10815   */\n      add\n        /* \"#utility.yul\":10789:10795   */\n      dup6\n        /* \"#utility.yul\":10745:10816   */\n      tag_351\n      jump\t// in\n    tag_513:\n        /* \"#utility.yul\":10826:10898   */\n      tag_514\n        /* \"#utility.yul\":10894:10896   */\n      0x20\n        /* \"#utility.yul\":10883:10892   */\n      dup4\n        /* \"#utility.yul\":10879:10897   */\n      add\n        /* \"#utility.yul\":10870:10876   */\n      dup5\n        /* \"#utility.yul\":10826:10898   */\n      tag_352\n      jump\t// in\n    tag_514:\n        /* \"#utility.yul\":10573:10905   */\n      swap4\n      swap3\n      pop\n      pop\n      pop\n      jump\t// out\n        /* \"#utility.yul\":10911:11091   */\n    tag_369:\n        /* \"#utility.yul\":10959:11036   */\n      0x4e487b7100000000000000000000000000000000000000000000000000000000\n        /* \"#utility.yul\":10956:10957   */\n      0x00\n        /* \"#utility.yul\":10949:11037   */\n      mstore\n        /* \"#utility.yul\":11056:11060   */\n      0x22\n        /* \"#utility.yul\":11053:11054   */\n      0x04\n        /* \"#utility.yul\":11046:11061   */\n      mstore\n        /* \"#utility.yul\":11080:11084   */\n      0x24\n        /* \"#utility.yul\":11077:11078   */\n      0x00\n        /* \"#utility.yul\":11070:11085   */\n      revert\n        /* \"#utility.yul\":11097:11417   */\n    tag_131:\n        /* \"#utility.yul\":11141:11147   */\n      0x00\n        /* \"#utility.yul\":11178:11179   */\n      0x02\n        /* \"#utility.yul\":11172:11176   */\n      dup3\n        /* \"#utility.yul\":11168:11180   */\n      div\n        /* \"#utility.yul\":11158:11180   */\n      swap1\n      pop\n        /* \"#utility.yul\":11225:11226   */\n      0x01\n        /* \"#utility.yul\":11219:11223   */\n      dup3\n        /* \"#utility.yul\":11215:11227   */\n      and\n        /* \"#utility.yul\":11246:11264   */\n      dup1\n        /* \"#utility.yul\":11236:11317   */\n      tag_517\n      jumpi\n        /* \"#utility.yul\":11302:11306   */\n      0x7f\n        /* \"#utility.yul\":11294:11300   */\n      dup3\n        /* \"#utility.yul\":11290:11307   */\n      and\n        /* \"#utility.yul\":11280:11307   */\n      swap2\n      pop\n        /* \"#utility.yul\":11236:11317   */\n    tag_517:\n        /* \"#utility.yul\":11364:11366   */\n      0x20\n        /* \"#utility.yul\":11356:11362   */\n      dup3\n        /* \"#utility.yul\":11353:11367   */\n      lt\n        /* \"#utility.yul\":11333:11351   */\n      dup2\n        /* \"#utility.yul\":11330:11368   */\n      sub\n        /* \"#utility.yul\":11327:11411   */\n      tag_518\n      jumpi\n        /* \"#utility.yul\":11383:11401   */\n      tag_519\n      tag_369\n      jump\t// in\n    tag_519:\n        /* \"#utility.yul\":11327:11411   */\n    tag_518:\n        /* \"#utility.yul\":11148:11417   */\n      pop\n        /* \"#utility.yul\":11097:11417   */\n      swap2\n      swap1\n      pop\n      jump\t// out\n        /* \"#utility.yul\":11423:11823   */\n    tag_144:\n        /* \"#utility.yul\":11578:11582   */\n      0x00\n        /* \"#utility.yul\":11616:11618   */\n      0x40\n        /* \"#utility.yul\":11605:11614   */\n      dup3\n        /* \"#utility.yul\":11601:11619   */\n      add\n        /* \"#utility.yul\":11593:11619   */\n      swap1\n      pop\n        /* \"#utility.yul\":11629:11717   */\n      tag_521\n        /* \"#utility.yul\":11714:11715   */\n      0x00\n        /* \"#utility.yul\":11703:11712   */\n      dup4\n        /* \"#utility.yul\":11699:11716   */\n      add\n        /* \"#utility.yul\":11690:11696   */\n      dup6\n        /* \"#utility.yul\":11629:11717   */\n      tag_356\n      jump\t// in\n    tag_521:\n        /* \"#utility.yul\":11727:11816   */\n      tag_522\n        /* \"#utility.yul\":11812:11814   */\n      0x20\n        /* \"#utility.yul\":11801:11810   */\n      dup4\n        /* \"#utility.yul\":11797:11815   */\n      add\n        /* \"#utility.yul\":11788:11794   */\n      dup5\n        /* \"#utility.yul\":11727:11816   */\n      tag_356\n      jump\t// in\n    tag_522:\n        /* \"#utility.yul\":11423:11823   */\n      swap4\n      swap3\n      pop\n      pop\n      pop\n      jump\t// out\n        /* \"#utility.yul\":11829:12009   */\n    tag_275:\n        /* \"#utility.yul\":11877:11954   */\n      0x4e487b7100000000000000000000000000000000000000000000000000000000\n        /* \"#utility.yul\":11874:11875   */\n      0x00\n        /* \"#utility.yul\":11867:11955   */\n      mstore\n        /* \"#utility.yul\":11974:11978   */\n      0x41\n        /* \"#utility.yul\":11971:11972   */\n      0x04\n        /* \"#utility.yul\":11964:11979   */\n      mstore\n        /* \"#utility.yul\":11998:12002   */\n      0x24\n        /* \"#utility.yul\":11995:11996   */\n      0x00\n        /* \"#utility.yul\":11988:12003   */\n      revert\n        /* \"#utility.yul\":12015:12156   */\n    tag_370:\n        /* \"#utility.yul\":12064:12068   */\n      0x00\n        /* \"#utility.yul\":12087:12090   */\n      dup2\n        /* \"#utility.yul\":12079:12090   */\n      swap1\n      pop\n        /* \"#utility.yul\":12110:12113   */\n      dup2\n        /* \"#utility.yul\":12107:12108   */\n      0x00\n        /* \"#utility.yul\":12100:12114   */\n      mstore\n        /* \"#utility.yul\":12144:12148   */\n      0x20\n        /* \"#utility.yul\":12141:12142   */\n      0x00\n        /* \"#utility.yul\":12131:12149   */\n      keccak256\n        /* \"#utility.yul\":12123:12149   */\n      swap1\n      pop\n        /* \"#utility.yul\":12015:12156   */\n      swap2\n      swap1\n      pop\n      jump\t// out\n        /* \"#utility.yul\":12162:12255   */\n    tag_371:\n        /* \"#utility.yul\":12199:12205   */\n      0x00\n        /* \"#utility.yul\":12246:12248   */\n      0x20\n        /* \"#utility.yul\":12241:12243   */\n      0x1f\n        /* \"#utility.yul\":12234:12239   */\n      dup4\n        /* \"#utility.yul\":12230:12244   */\n      add\n        /* \"#utility.yul\":12226:12249   */\n      div\n        /* \"#utility.yul\":12216:12249   */\n      swap1\n      pop\n        /* \"#utility.yul\":12162:12255   */\n      swap2\n      swap1\n      pop\n      jump\t// out\n        /* \"#utility.yul\":12261:12368   */\n    tag_372:\n        /* \"#utility.yul\":12305:12313   */\n      0x00\n        /* \"#utility.yul\":12355:12360   */\n      dup3\n        /* \"#utility.yul\":12349:12353   */\n      dup3\n        /* \"#utility.yul\":12345:12361   */\n      shl\n        /* \"#utility.yul\":12324:12361   */\n      swap1\n      pop\n        /* \"#utility.yul\":12261:12368   */\n      swap3\n      swap2\n      pop\n      pop\n      jump\t// out\n        /* \"#utility.yul\":12374:12767   */\n    tag_373:\n        /* \"#utility.yul\":12443:12449   */\n      0x00\n        /* \"#utility.yul\":12493:12494   */\n      0x08\n        /* \"#utility.yul\":12481:12491   */\n      dup4\n        /* \"#utility.yul\":12477:12495   */\n      mul\n        /* \"#utility.yul\":12516:12613   */\n      tag_528\n        /* \"#utility.yul\":12546:12612   */\n      0xffffffffffffffffffffffffffffffffffffffffffffffffffffffffffffffff\n        /* \"#utility.yul\":12535:12544   */\n      dup3\n        /* \"#utility.yul\":12516:12613   */\n      tag_372\n      jump\t// in\n    tag_528:\n        /* \"#utility.yul\":12634:12673   */\n      tag_529\n        /* \"#utility.yul\":12664:12672   */\n      dup7\n        /* \"#utility.yul\":12653:12662   */\n      dup4\n        /* \"#utility.yul\":12634:12673   */\n      tag_372\n      jump\t// in\n    tag_529:\n        /* \"#utility.yul\":12622:12673   */\n      swap6\n      pop\n        /* \"#utility.yul\":12706:12710   */\n      dup1\n        /* \"#utility.yul\":12702:12711   */\n      not\n        /* \"#utility.yul\":12695:12700   */\n      dup5\n        /* \"#utility.yul\":12691:12712   */\n      and\n        /* \"#utility.yul\":12682:12712   */\n      swap4\n      pop\n        /* \"#utility.yul\":12755:12759   */\n      dup1\n        /* \"#utility.yul\":12745:12753   */\n      dup7\n        /* \"#utility.yul\":12741:12760   */\n      and\n        /* \"#utility.yul\":12734:12739   */\n      dup5\n        /* \"#utility.yul\":12731:12761   */\n      or\n        /* \"#utility.yul\":12721:12761   */\n      swap3\n      pop\n        /* \"#utility.yul\":12450:12767   */\n      pop\n      pop\n        /* \"#utility.yul\":12374:12767   */\n      swap4\n      swap3\n      pop\n      pop\n      pop\n      jump\t// out\n        /* \"#utility.yul\":12773:12833   */\n    tag_374:\n        /* \"#utility.yul\":12801:12804   */\n      0x00\n        /* \"#utility.yul\":12822:12827   */\n      dup2\n        /* \"#utility.yul\":12815:12827   */\n      swap1\n      pop\n        /* \"#utility.yul\":12773:12833   */\n      swap2\n      swap1\n      pop\n      jump\t// out\n        /* \"#utility.yul\":12839:12981   */\n    tag_375:\n        /* \"#utility.yul\":12889:12898   */\n      0x00\n        /* \"#utility.yul\":12922:12975   */\n      tag_532\n        /* \"#utility.yul\":12940:12974   */\n      tag_533\n        /* \"#utility.yul\":12949:12973   */\n      tag_534\n        /* \"#utility.yul\":12967:12972   */\n      dup5\n        /* \"#utility.yul\":12949:12973   */\n      tag_341\n      jump\t// in\n    tag_534:\n        /* \"#utility.yul\":12940:12974   */\n      tag_374\n      jump\t// in\n    tag_533:\n        /* \"#utility.yul\":12922:12975   */\n      tag_341\n      jump\t// in\n    tag_532:\n        /* \"#utility.yul\":12909:12975   */\n      swap1\n      pop\n        /* \"#utility.yul\":12839:12981   */\n      swap2\n      swap1\n      pop\n      jump\t// out\n        /* \"#utility.yul\":12987:13062   */\n    tag_376:\n        /* \"#utility.yul\":13030:13033   */\n      0x00\n        /* \"#utility.yul\":13051:13056   */\n      dup2\n        /* \"#utility.yul\":13044:13056   */\n      swap1\n      pop\n        /* \"#utility.yul\":12987:13062   */\n      swap2\n      swap1\n      pop\n      jump\t// out\n        /* \"#utility.yul\":13068:13337   */\n    tag_377:\n        /* \"#utility.yul\":13178:13217   */\n      tag_537\n        /* \"#utility.yul\":13209:13216   */\n      dup4\n        /* \"#utility.yul\":13178:13217   */\n      tag_375\n      jump\t// in\n    tag_537:\n        /* \"#utility.yul\":13239:13330   */\n      tag_538\n        /* \"#utility.yul\":13288:13329   */\n      tag_539\n        /* \"#utility.yul\":13312:13328   */\n      dup3\n        /* \"#utility.yul\":13288:13329   */\n      tag_376\n      jump\t// in\n    tag_539:\n        /* \"#utility.yul\":13280:13286   */\n      dup5\n        /* \"#utility.yul\":13273:13277   */\n      dup5\n        /* \"#utility.yul\":13267:13278   */\n      sload\n        /* \"#utility.yul\":13239:13330   */\n      tag_373\n      jump\t// in\n    tag_538:\n        /* \"#utility.yul\":13233:13237   */\n      dup3\n        /* \"#utility.yul\":13226:13331   */\n      sstore\n        /* \"#utility.yul\":13144:13337   */\n      pop\n        /* \"#utility.yul\":13068:13337   */\n      pop\n      pop\n      pop\n      jump\t// out\n        /* \"#utility.yul\":13343:13416   */\n    tag_378:\n        /* \"#utility.yul\":13388:13391   */\n      0x00\n        /* \"#utility.yul\":13343:13416   */\n      swap1\n      jump\t// out\n        /* \"#utility.yul\":13422:13611   */\n    tag_379:\n        /* \"#utility.yul\":13499:13531   */\n      tag_542\n      tag_378\n      jump\t// in\n    tag_542:\n        /* \"#utility.yul\":13540:13605   */\n      tag_543\n        /* \"#utility.yul\":13598:13604   */\n      dup2\n        /* \"#utility.yul\":13590:13596   */\n      dup5\n        /* \"#utility.yul\":13584:13588   */\n      dup5\n        /* \"#utility.yul\":13540:13605   */\n      tag_377\n      jump\t// in\n    tag_543:\n        /* \"#utility.yul\":13475:13611   */\n      pop\n        /* \"#utility.yul\":13422:13611   */\n      pop\n      pop\n      jump\t// out\n        /* \"#utility.yul\":13617:13803   */\n    tag_380:\n        /* \"#utility.yul\":13677:13797   */\n    tag_545:\n        /* \"#utility.yul\":13694:13697   */\n      dup2\n        /* \"#utility.yul\":13687:13692   */\n      dup2\n        /* \"#utility.yul\":13684:13698   */\n      lt\n        /* \"#utility.yul\":13677:13797   */\n      iszero\n      tag_547\n      jumpi\n        /* \"#utility.yul\":13748:13787   */\n      tag_548\n        /* \"#utility.yul\":13785:13786   */\n      0x00\n        /* \"#utility.yul\":13778:13783   */\n      dup3\n        /* \"#utility.yul\":13748:13787   */\n      tag_379\n      jump\t// in\n    tag_548:\n        /* \"#utility.yul\":13721:13722   */\n      0x01\n        /* \"#utility.yul\":13714:13719   */\n      dup2\n        /* \"#utility.yul\":13710:13723   */\n      add\n        /* \"#utility.yul\":13701:13723   */\n      swap1\n      pop\n        /* \"#utility.yul\":13677:13797   */\n      jump(tag_545)\n    tag_547:\n        /* \"#utility.yul\":13617:13803   */\n      pop\n      pop\n      jump\t// out\n        /* \"#utility.yul\":13809:14352   */\n    tag_381:\n        /* \"#utility.yul\":13910:13912   */\n      0x1f\n        /* \"#utility.yul\":13905:13908   */\n      dup3\n        /* \"#utility.yul\":13902:13913   */\n      gt\n        /* \"#utility.yul\":13899:14345   */\n      iszero\n      tag_550\n      jumpi\n        /* \"#utility.yul\":13944:13982   */\n      tag_551\n        /* \"#utility.yul\":13976:13981   */\n      dup2\n        /* \"#utility.yul\":13944:13982   */\n      tag_370\n      jump\t// in\n    tag_551:\n        /* \"#utility.yul\":14028:14057   */\n      tag_552\n        /* \"#utility.yul\":14046:14056   */\n      dup5\n        /* \"#utility.yul\":14028:14057   */\n      tag_371\n      jump\t// in\n    tag_552:\n        /* \"#utility.yul\":14018:14026   */\n      dup2\n        /* \"#utility.yul\":14014:14058   */\n      add\n        /* \"#utility.yul\":14211:14213   */\n      0x20\n        /* \"#utility.yul\":14199:14209   */\n      dup6\n        /* \"#utility.yul\":14196:14214   */\n      lt\n        /* \"#utility.yul\":14193:14242   */\n      iszero\n      tag_553\n      jumpi\n        /* \"#utility.yul\":14232:14240   */\n      dup2\n        /* \"#utility.yul\":14217:14240   */\n      swap1\n      pop\n        /* \"#utility.yul\":14193:14242   */\n    tag_553:\n        /* \"#utility.yul\":14255:14335   */\n      tag_554\n        /* \"#utility.yul\":14311:14333   */\n      tag_555\n        /* \"#utility.yul\":14329:14332   */\n      dup6\n        /* \"#utility.yul\":14311:14333   */\n      tag_371\n      jump\t// in\n    tag_555:\n        /* \"#utility.yul\":14301:14309   */\n      dup4\n        /* \"#utility.yul\":14297:14334   */\n      add\n        /* \"#utility.yul\":14284:14295   */\n      dup3\n        /* \"#utility.yul\":14255:14335   */\n      tag_380\n      jump\t// in\n    tag_554:\n        /* \"#utility.yul\":13914:14345   */\n      pop\n      pop\n        /* \"#utility.yul\":13899:14345   */\n    tag_550:\n        /* \"#utility.yul\":13809:14352   */\n      pop\n      pop\n      pop\n      jump\t// out\n        /* \"#utility.yul\":14358:14475   */\n    tag_382:\n        /* \"#utility.yul\":14412:14420   */\n      0x00\n        /* \"#utility.yul\":14462:14467   */\n      dup3\n        /* \"#utility.yul\":14456:14460   */\n      dup3\n        /* \"#utility.yul\":14452:14468   */\n      shr\n        /* \"#utility.yul\":14431:14468   */\n      swap1\n      pop\n        /* \"#utility.yul\":14358:14475   */\n      swap3\n      swap2\n      pop\n      pop\n      jump\t// out\n        /* \"#utility.yul\":14481:14650   */\n    tag_383:\n        /* \"#utility.yul\":14525:14531   */\n      0x00\n        /* \"#utility.yul\":14558:14609   */\n      tag_558\n        /* \"#utility.yul\":14606:14607   */\n      0x00\n        /* \"#utility.yul\":14602:14608   */\n      not\n        /* \"#utility.yul\":14594:14599   */\n      dup5\n        /* \"#utility.yul\":14591:14592   */\n      0x08\n        /* \"#utility.yul\":14587:14600   */\n      mul\n        /* \"#utility.yul\":14558:14609   */\n      tag_382\n      jump\t// in\n    tag_558:\n        /* \"#utility.yul\":14554:14610   */\n      not\n        /* \"#utility.yul\":14639:14643   */\n      dup1\n        /* \"#utility.yul\":14633:14637   */\n      dup4\n        /* \"#utility.yul\":14629:14644   */\n      and\n        /* \"#utility.yul\":14619:14644   */\n      swap2\n      pop\n        /* \"#utility.yul\":14532:14650   */\n      pop\n        /* \"#utility.yul\":14481:14650   */\n      swap3\n      swap2\n      pop\n      pop\n      jump\t// out\n        /* \"#utility.yul\":14655:14950   */\n    tag_384:\n        /* \"#utility.yul\":14731:14735   */\n      0x00\n        /* \"#utility.yul\":14877:14906   */\n      tag_560\n        /* \"#utility.yul\":14902:14905   */\n      dup4\n        /* \"#utility.yul\":14896:14900   */\n      dup4\n        /* \"#utility.yul\":14877:14906   */\n      tag_383\n      jump\t// in\n    tag_560:\n        /* \"#utility.yul\":14869:14906   */\n      swap2\n      pop\n        /* \"#utility.yul\":14939:14942   */\n      dup3\n        /* \"#utility.yul\":14936:14937   */\n      0x02\n        /* \"#utility.yul\":14932:14943   */\n      mul\n        /* \"#utility.yul\":14926:14930   */\n      dup3\n        /* \"#utility.yul\":14923:14944   */\n      or\n        /* \"#utility.yul\":14915:14944   */\n      swap1\n      pop\n        /* \"#utility.yul\":14655:14950   */\n      swap3\n      swap2\n      pop\n      pop\n      jump\t// out\n        /* \"#utility.yul\":14955:16350   */\n    tag_150:\n        /* \"#utility.yul\":15072:15109   */\n      tag_562\n        /* \"#utility.yul\":15105:15108   */\n      dup3\n        /* \"#utility.yul\":15072:15109   */\n      tag_344\n      jump\t// in\n    tag_562:\n        /* \"#utility.yul\":15174:15192   */\n      0xffffffffffffffff\n        /* \"#utility.yul\":15166:15172   */\n      dup2\n        /* \"#utility.yul\":15163:15193   */\n      gt\n        /* \"#utility.yul\":15160:15216   */\n      iszero\n      tag_563\n      jumpi\n        /* \"#utility.yul\":15196:15214   */\n      tag_564\n      tag_275\n      jump\t// in\n    tag_564:\n        /* \"#utility.yul\":15160:15216   */\n    tag_563:\n        /* \"#utility.yul\":15240:15278   */\n      tag_565\n        /* \"#utility.yul\":15272:15276   */\n      dup3\n        /* \"#utility.yul\":15266:15277   */\n      sload\n        /* \"#utility.yul\":15240:15278   */\n      tag_131\n      jump\t// in\n    tag_565:\n        /* \"#utility.yul\":15325:15392   */\n      tag_566\n        /* \"#utility.yul\":15385:15391   */\n      dup3\n        /* \"#utility.yul\":15377:15383   */\n      dup3\n        /* \"#utility.yul\":15371:15375   */\n      dup6\n        /* \"#utility.yul\":15325:15392   */\n      tag_381\n      jump\t// in\n    tag_566:\n        /* \"#utility.yul\":15419:15420   */\n      0x00\n        /* \"#utility.yul\":15443:15447   */\n      0x20\n        /* \"#utility.yul\":15430:15447   */\n      swap1\n      pop\n        /* \"#utility.yul\":15475:15477   */\n      0x1f\n        /* \"#utility.yul\":15467:15473   */\n      dup4\n        /* \"#utility.yul\":15464:15478   */\n      gt\n        /* \"#utility.yul\":15492:15493   */\n      0x01\n        /* \"#utility.yul\":15487:16105   */\n      dup2\n      eq\n      tag_568\n      jumpi\n        /* \"#utility.yul\":16149:16150   */\n      0x00\n        /* \"#utility.yul\":16166:16172   */\n      dup5\n        /* \"#utility.yul\":16163:16240   */\n      iszero\n      tag_569\n      jumpi\n        /* \"#utility.yul\":16215:16224   */\n      dup3\n        /* \"#utility.yul\":16210:16213   */\n      dup8\n        /* \"#utility.yul\":16206:16225   */\n      add\n        /* \"#utility.yul\":16200:16226   */\n      mload\n        /* \"#utility.yul\":16191:16226   */\n      swap1\n      pop\n        /* \"#utility.yul\":16163:16240   */\n    tag_569:\n        /* \"#utility.yul\":16266:16333   */\n      tag_570\n        /* \"#utility.yul\":16326:16332   */\n      dup6\n        /* \"#utility.yul\":16319:16324   */\n      dup3\n        /* \"#utility.yul\":16266:16333   */\n      tag_384\n      jump\t// in\n    tag_570:\n        /* \"#utility.yul\":16260:16264   */\n      dup7\n        /* \"#utility.yul\":16253:16334   */\n      sstore\n        /* \"#utility.yul\":16122:16344   */\n      pop\n        /* \"#utility.yul\":15457:16344   */\n      jump(tag_567)\n        /* \"#utility.yul\":15487:16105   */\n    tag_568:\n        /* \"#utility.yul\":15539:15543   */\n      0x1f\n        /* \"#utility.yul\":15535:15544   */\n      not\n        /* \"#utility.yul\":15527:15533   */\n      dup5\n        /* \"#utility.yul\":15523:15545   */\n      and\n        /* \"#utility.yul\":15573:15610   */\n      tag_571\n        /* \"#utility.yul\":15605:15609   */\n      dup7\n        /* \"#utility.yul\":15573:15610   */\n      tag_370\n      jump\t// in\n    tag_571:\n        /* \"#utility.yul\":15632:15633   */\n      0x00\n        /* \"#utility.yul\":15646:15854   */\n    tag_572:\n        /* \"#utility.yul\":15660:15667   */\n      dup3\n        /* \"#utility.yul\":15657:15658   */\n      dup2\n        /* \"#utility.yul\":15654:15668   */\n      lt\n        /* \"#utility.yul\":15646:15854   */\n      iszero\n      tag_574\n      jumpi\n        /* \"#utility.yul\":15739:15748   */\n      dup5\n        /* \"#utility.yul\":15734:15737   */\n      dup10\n        /* \"#utility.yul\":15730:15749   */\n      add\n        /* \"#utility.yul\":15724:15750   */\n      mload\n        /* \"#utility.yul\":15716:15722   */\n      dup3\n        /* \"#utility.yul\":15709:15751   */\n      sstore\n        /* \"#utility.yul\":15790:15791   */\n      0x01\n        /* \"#utility.yul\":15782:15788   */\n      dup3\n        /* \"#utility.yul\":15778:15792   */\n      add\n        /* \"#utility.yul\":15768:15792   */\n      swap2\n      pop\n        /* \"#utility.yul\":15837:15839   */\n      0x20\n        /* \"#utility.yul\":15826:15835   */\n      dup6\n        /* \"#utility.yul\":15822:15840   */\n      add\n        /* \"#utility.yul\":15809:15840   */\n      swap5\n      pop\n        /* \"#utility.yul\":15683:15687   */\n      0x20\n        /* \"#utility.yul\":15680:15681   */\n      dup2\n        /* \"#utility.yul\":15676:15688   */\n      add\n        /* \"#utility.yul\":15671:15688   */\n      swap1\n      pop\n        /* \"#utility.yul\":15646:15854   */\n      jump(tag_572)\n    tag_574:\n        /* \"#utility.yul\":15882:15888   */\n      dup7\n        /* \"#utility.yul\":15873:15880   */\n      dup4\n        /* \"#utility.yul\":15870:15889   */\n      lt\n        /* \"#utility.yul\":15867:16046   */\n      iszero\n      tag_575\n      jumpi\n        /* \"#utility.yul\":15940:15949   */\n      dup5\n        /* \"#utility.yul\":15935:15938   */\n      dup10\n        /* \"#utility.yul\":15931:15950   */\n      add\n        /* \"#utility.yul\":15925:15951   */\n      mload\n        /* \"#utility.yul\":15983:16031   */\n      tag_576\n        /* \"#utility.yul\":16025:16029   */\n      0x1f\n        /* \"#utility.yul\":16017:16023   */\n      dup10\n        /* \"#utility.yul\":16013:16030   */\n      and\n        /* \"#utility.yul\":16002:16011   */\n      dup3\n        /* \"#utility.yul\":15983:16031   */\n      tag_383\n      jump\t// in\n    tag_576:\n        /* \"#utility.yul\":15975:15981   */\n      dup4\n        /* \"#utility.yul\":15968:16032   */\n      sstore\n        /* \"#utility.yul\":15890:16046   */\n      pop\n        /* \"#utility.yul\":15867:16046   */\n    tag_575:\n        /* \"#utility.yul\":16092:16093   */\n      0x01\n        /* \"#utility.yul\":16088:16089   */\n      0x02\n        /* \"#utility.yul\":16080:16086   */\n      dup9\n        /* \"#utility.yul\":16076:16090   */\n      mul\n        /* \"#utility.yul\":16072:16094   */\n      add\n        /* \"#utility.yul\":16066:16070   */\n      dup9\n        /* \"#utility.yul\":16059:16095   */\n      sstore\n        /* \"#utility.yul\":15494:16105   */\n      pop\n      pop\n      pop\n        /* \"#utility.yul\":15457:16344   */\n    tag_567:\n      pop\n        /* \"#utility.yul\":15047:16350   */\n      pop\n      pop\n      pop\n        /* \"#utility.yul\":14955:16350   */\n      pop\n      pop\n      jump\t// out\n        /* \"#utility.yul\":16356:16550   */\n    tag_152:\n        /* \"#utility.yul\":16396:16400   */\n      0x00\n        /* \"#utility.yul\":16416:16436   */\n      tag_578\n        /* \"#utility.yul\":16434:16435   */\n      dup3\n        /* \"#utility.yul\":16416:16436   */\n      tag_341\n      jump\t// in\n    tag_578:\n        /* \"#utility.yul\":16411:16436   */\n      swap2\n      pop\n        /* \"#utility.yul\":16450:16470   */\n      tag_579\n        /* \"#utility.yul\":16468:16469   */\n      dup4\n        /* \"#utility.yul\":16450:16470   */\n      tag_341\n      jump\t// in\n    tag_579:\n        /* \"#utility.yul\":16445:16470   */\n      swap3\n      pop\n        /* \"#utility.yul\":16494:16495   */\n      dup3\n        /* \"#utility.yul\":16491:16492   */\n      dup3\n        /* \"#utility.yul\":16487:16496   */\n      sub\n        /* \"#utility.yul\":16479:16496   */\n      swap1\n      pop\n        /* \"#utility.yul\":16518:16519   */\n      dup2\n        /* \"#utility.yul\":16512:16516   */\n      dup2\n        /* \"#utility.yul\":16509:16520   */\n      gt\n        /* \"#utility.yul\":16506:16543   */\n      iszero\n      tag_580\n      jumpi\n        /* \"#utility.yul\":16523:16541   */\n      tag_581\n      tag_368\n      jump\t// in\n    tag_581:\n        /* \"#utility.yul\":16506:16543   */\n    tag_580:\n        /* \"#utility.yul\":16356:16550   */\n      swap3\n      swap2\n      pop\n      pop\n      jump\t// out\n        /* \"#utility.yul\":16556:16718   */\n    tag_385:\n        /* \"#utility.yul\":16696:16710   */\n      0x556e617574686f72697a65640000000000000000000000000000000000000000\n        /* \"#utility.yul\":16692:16693   */\n      0x00\n        /* \"#utility.yul\":16684:16690   */\n      dup3\n        /* \"#utility.yul\":16680:16694   */\n      add\n        /* \"#utility.yul\":16673:16711   */\n      mstore\n        /* \"#utility.yul\":16556:16718   */\n      pop\n      jump\t// out\n        /* \"#utility.yul\":16724:17090   */\n    tag_386:\n        /* \"#utility.yul\":16866:16869   */\n      0x00\n        /* \"#utility.yul\":16887:16954   */\n      tag_584\n        /* \"#utility.yul\":16951:16953   */\n      0x0c\n        /* \"#utility.yul\":16946:16949   */\n      dup4\n        /* \"#utility.yul\":16887:16954   */\n      tag_345\n      jump\t// in\n    tag_584:\n        /* \"#utility.yul\":16880:16954   */\n      swap2\n      pop\n        /* \"#utility.yul\":16963:17056   */\n      tag_585\n        /* \"#utility.yul\":17052:17055   */\n      dup3\n        /* \"#utility.yul\":16963:17056   */\n      tag_385\n      jump\t// in\n    tag_585:\n        /* \"#utility.yul\":17081:17083   */\n      0x20\n        /* \"#utility.yul\":17076:17079   */\n      dup3\n        /* \"#utility.yul\":17072:17084   */\n      add\n        /* \"#utility.yul\":17065:17084   */\n      swap1\n      pop\n        /* \"#utility.yul\":16724:17090   */\n      swap2\n      swap1\n      pop\n      jump\t// out\n        /* \"#utility.yul\":17096:17515   */\n    tag_164:\n        /* \"#utility.yul\":17262:17266   */\n      0x00\n        /* \"#utility.yul\":17300:17302   */\n      0x20\n        /* \"#utility.yul\":17289:17298   */\n      dup3\n        /* \"#utility.yul\":17285:17303   */\n      add\n        /* \"#utility.yul\":17277:17303   */\n      swap1\n      pop\n        /* \"#utility.yul\":17349:17358   */\n      dup2\n        /* \"#utility.yul\":17343:17347   */\n      dup2\n        /* \"#utility.yul\":17339:17359   */\n      sub\n        /* \"#utility.yul\":17335:17336   */\n      0x00\n        /* \"#utility.yul\":17324:17333   */\n      dup4\n        /* \"#utility.yul\":17320:17337   */\n      add\n        /* \"#utility.yul\":17313:17360   */\n      mstore\n        /* \"#utility.yul\":17377:17508   */\n      tag_587\n        /* \"#utility.yul\":17503:17507   */\n      dup2\n        /* \"#utility.yul\":17377:17508   */\n      tag_386\n      jump\t// in\n    tag_587:\n        /* \"#utility.yul\":17369:17508   */\n      swap1\n      pop\n        /* \"#utility.yul\":17096:17515   */\n      swap2\n      swap1\n      pop\n      jump\t// out\n        /* \"#utility.yul\":17521:17704   */\n    tag_387:\n        /* \"#utility.yul\":17689:17697   */\n      0x566f746572200000000000000000000000000000000000000000000000000000\n        /* \"#utility.yul\":17684:17687   */\n      dup2\n        /* \"#utility.yul\":17677:17698   */\n      mstore\n        /* \"#utility.yul\":17521:17704   */\n      pop\n      jump\t// out\n        /* \"#utility.yul\":17710:17858   */\n    tag_388:\n        /* \"#utility.yul\":17812:17823   */\n      0x00\n        /* \"#utility.yul\":17849:17852   */\n      dup2\n        /* \"#utility.yul\":17834:17852   */\n      swap1\n      pop\n        /* \"#utility.yul\":17710:17858   */\n      swap3\n      swap2\n      pop\n      pop\n      jump\t// out\n        /* \"#utility.yul\":17864:18254   */\n    tag_389:\n        /* \"#utility.yul\":17970:17973   */\n      0x00\n        /* \"#utility.yul\":17998:18037   */\n      tag_591\n        /* \"#utility.yul\":18031:18036   */\n      dup3\n        /* \"#utility.yul\":17998:18037   */\n      tag_344\n      jump\t// in\n    tag_591:\n        /* \"#utility.yul\":18053:18142   */\n      tag_592\n        /* \"#utility.yul\":18135:18141   */\n      dup2\n        /* \"#utility.yul\":18130:18133   */\n      dup6\n        /* \"#utility.yul\":18053:18142   */\n      tag_388\n      jump\t// in\n    tag_592:\n        /* \"#utility.yul\":18046:18142   */\n      swap4\n      pop\n        /* \"#utility.yul\":18151:18216   */\n      tag_593\n        /* \"#utility.yul\":18209:18215   */\n      dup2\n        /* \"#utility.yul\":18204:18207   */\n      dup6\n        /* \"#utility.yul\":18197:18201   */\n      0x20\n        /* \"#utility.yul\":18190:18195   */\n      dup7\n        /* \"#utility.yul\":18186:18202   */\n      add\n        /* \"#utility.yul\":18151:18216   */\n      tag_346\n      jump\t// in\n    tag_593:\n        /* \"#utility.yul\":18241:18247   */\n      dup1\n        /* \"#utility.yul\":18236:18239   */\n      dup5\n        /* \"#utility.yul\":18232:18248   */\n      add\n        /* \"#utility.yul\":18225:18248   */\n      swap2\n      pop\n        /* \"#utility.yul\":17974:18254   */\n      pop\n        /* \"#utility.yul\":17864:18254   */\n      swap3\n      swap2\n      pop\n      pop\n      jump\t// out\n        /* \"#utility.yul\":18260:18463   */\n    tag_390:\n        /* \"#utility.yul\":18429:18456   */\n      0x2068617320766f74656420666f722070726f706f73616c202300000000000000\n        /* \"#utility.yul\":18424:18427   */\n      dup2\n        /* \"#utility.yul\":18417:18457   */\n      mstore\n        /* \"#utility.yul\":18260:18463   */\n      pop\n      jump\t// out\n        /* \"#utility.yul\":18469:18649   */\n    tag_391:\n        /* \"#utility.yul\":18637:18642   */\n      0x203a200000000000000000000000000000000000000000000000000000000000\n        /* \"#utility.yul\":18632:18635   */\n      dup2\n        /* \"#utility.yul\":18625:18643   */\n      mstore\n        /* \"#utility.yul\":18469:18649   */\n      pop\n      jump\t// out\n        /* \"#utility.yul\":18655:18800   */\n    tag_392:\n        /* \"#utility.yul\":18708:18712   */\n      0x00\n        /* \"#utility.yul\":18731:18734   */\n      dup2\n        /* \"#utility.yul\":18723:18734   */\n      swap1\n      pop\n        /* \"#utility.yul\":18754:18757   */\n      dup2\n        /* \"#utility.yul\":18751:18752   */\n      0x00\n        /* \"#utility.yul\":18744:18758   */\n      mstore\n        /* \"#utility.yul\":18788:18792   */\n      0x20\n        /* \"#utility.yul\":18785:18786   */\n      0x00\n        /* \"#utility.yul\":18775:18793   */\n      keccak256\n        /* \"#utility.yul\":18767:18793   */\n      swap1\n      pop\n        /* \"#utility.yul\":18655:18800   */\n      swap2\n      swap1\n      pop\n      jump\t// out\n        /* \"#utility.yul\":18830:19712   */\n    tag_393:\n        /* \"#utility.yul\":18937:18940   */\n      0x00\n        /* \"#utility.yul\":18974:18979   */\n      dup2\n        /* \"#utility.yul\":18968:18980   */\n      sload\n        /* \"#utility.yul\":19003:19039   */\n      tag_598\n        /* \"#utility.yul\":19029:19038   */\n      dup2\n        /* \"#utility.yul\":19003:19039   */\n      tag_131\n      jump\t// in\n    tag_598:\n        /* \"#utility.yul\":19055:19144   */\n      tag_599\n        /* \"#utility.yul\":19137:19143   */\n      dup2\n        /* \"#utility.yul\":19132:19135   */\n      dup7\n        /* \"#utility.yul\":19055:19144   */\n      tag_388\n      jump\t// in\n    tag_599:\n        /* \"#utility.yul\":19048:19144   */\n      swap5\n      pop\n        /* \"#utility.yul\":19175:19176   */\n      0x01\n        /* \"#utility.yul\":19164:19173   */\n      dup3\n        /* \"#utility.yul\":19160:19177   */\n      and\n        /* \"#utility.yul\":19191:19192   */\n      0x00\n        /* \"#utility.yul\":19186:19352   */\n      dup2\n      eq\n      tag_601\n      jumpi\n        /* \"#utility.yul\":19366:19367   */\n      0x01\n        /* \"#utility.yul\":19361:19706   */\n      dup2\n      eq\n      tag_602\n      jumpi\n        /* \"#utility.yul\":19153:19706   */\n      jump(tag_600)\n        /* \"#utility.yul\":19186:19352   */\n    tag_601:\n        /* \"#utility.yul\":19270:19274   */\n      0xff\n        /* \"#utility.yul\":19266:19275   */\n      not\n        /* \"#utility.yul\":19255:19264   */\n      dup4\n        /* \"#utility.yul\":19251:19276   */\n      and\n        /* \"#utility.yul\":19246:19249   */\n      dup7\n        /* \"#utility.yul\":19239:19277   */\n      mstore\n        /* \"#utility.yul\":19332:19338   */\n      dup2\n        /* \"#utility.yul\":19325:19339   */\n      iszero\n        /* \"#utility.yul\":19318:19340   */\n      iszero\n        /* \"#utility.yul\":19310:19316   */\n      dup3\n        /* \"#utility.yul\":19306:19341   */\n      mul\n        /* \"#utility.yul\":19301:19304   */\n      dup7\n        /* \"#utility.yul\":19297:19342   */\n      add\n        /* \"#utility.yul\":19290:19342   */\n      swap4\n      pop\n        /* \"#utility.yul\":19186:19352   */\n      jump(tag_600)\n        /* \"#utility.yul\":19361:19706   */\n    tag_602:\n        /* \"#utility.yul\":19428:19470   */\n      tag_603\n        /* \"#utility.yul\":19464:19469   */\n      dup6\n        /* \"#utility.yul\":19428:19470   */\n      tag_392\n      jump\t// in\n    tag_603:\n        /* \"#utility.yul\":19492:19493   */\n      0x00\n        /* \"#utility.yul\":19506:19660   */\n    tag_604:\n        /* \"#utility.yul\":19520:19526   */\n      dup4\n        /* \"#utility.yul\":19517:19518   */\n      dup2\n        /* \"#utility.yul\":19514:19527   */\n      lt\n        /* \"#utility.yul\":19506:19660   */\n      iszero\n      tag_606\n      jumpi\n        /* \"#utility.yul\":19594:19601   */\n      dup2\n        /* \"#utility.yul\":19588:19602   */\n      sload\n        /* \"#utility.yul\":19584:19585   */\n      dup2\n        /* \"#utility.yul\":19579:19582   */\n      dup10\n        /* \"#utility.yul\":19575:19586   */\n      add\n        /* \"#utility.yul\":19568:19603   */\n      mstore\n        /* \"#utility.yul\":19644:19645   */\n      0x01\n        /* \"#utility.yul\":19635:19642   */\n      dup3\n        /* \"#utility.yul\":19631:19646   */\n      add\n        /* \"#utility.yul\":19620:19646   */\n      swap2\n      pop\n        /* \"#utility.yul\":19542:19546   */\n      0x20\n        /* \"#utility.yul\":19539:19540   */\n      dup2\n        /* \"#utility.yul\":19535:19547   */\n      add\n        /* \"#utility.yul\":19530:19547   */\n      swap1\n      pop\n        /* \"#utility.yul\":19506:19660   */\n      jump(tag_604)\n    tag_606:\n        /* \"#utility.yul\":19689:19695   */\n      dup4\n        /* \"#utility.yul\":19684:19687   */\n      dup9\n        /* \"#utility.yul\":19680:19696   */\n      add\n        /* \"#utility.yul\":19673:19696   */\n      swap6\n      pop\n        /* \"#utility.yul\":19368:19706   */\n      pop\n      pop\n        /* \"#utility.yul\":19153:19706   */\n    tag_600:\n      pop\n        /* \"#utility.yul\":18941:19712   */\n      pop\n      pop\n        /* \"#utility.yul\":18830:19712   */\n      swap3\n      swap2\n      pop\n      pop\n      jump\t// out\n        /* \"#utility.yul\":19718:21110   */\n    tag_186:\n        /* \"#utility.yul\":20218:20221   */\n      0x00\n        /* \"#utility.yul\":20233:20370   */\n      tag_608\n        /* \"#utility.yul\":20366:20369   */\n      dup3\n        /* \"#utility.yul\":20233:20370   */\n      tag_387\n      jump\t// in\n    tag_608:\n        /* \"#utility.yul\":20395:20396   */\n      0x06\n        /* \"#utility.yul\":20390:20393   */\n      dup3\n        /* \"#utility.yul\":20386:20397   */\n      add\n        /* \"#utility.yul\":20379:20397   */\n      swap2\n      pop\n        /* \"#utility.yul\":20414:20509   */\n      tag_609\n        /* \"#utility.yul\":20505:20508   */\n      dup3\n        /* \"#utility.yul\":20496:20502   */\n      dup7\n        /* \"#utility.yul\":20414:20509   */\n      tag_389\n      jump\t// in\n    tag_609:\n        /* \"#utility.yul\":20407:20509   */\n      swap2\n      pop\n        /* \"#utility.yul\":20519:20657   */\n      tag_610\n        /* \"#utility.yul\":20653:20656   */\n      dup3\n        /* \"#utility.yul\":20519:20657   */\n      tag_390\n      jump\t// in\n    tag_610:\n        /* \"#utility.yul\":20682:20684   */\n      0x19\n        /* \"#utility.yul\":20677:20680   */\n      dup3\n        /* \"#utility.yul\":20673:20685   */\n      add\n        /* \"#utility.yul\":20666:20685   */\n      swap2\n      pop\n        /* \"#utility.yul\":20702:20797   */\n      tag_611\n        /* \"#utility.yul\":20793:20796   */\n      dup3\n        /* \"#utility.yul\":20784:20790   */\n      dup6\n        /* \"#utility.yul\":20702:20797   */\n      tag_389\n      jump\t// in\n    tag_611:\n        /* \"#utility.yul\":20695:20797   */\n      swap2\n      pop\n        /* \"#utility.yul\":20807:20944   */\n      tag_612\n        /* \"#utility.yul\":20940:20943   */\n      dup3\n        /* \"#utility.yul\":20807:20944   */\n      tag_391\n      jump\t// in\n    tag_612:\n        /* \"#utility.yul\":20969:20970   */\n      0x03\n        /* \"#utility.yul\":20964:20967   */\n      dup3\n        /* \"#utility.yul\":20960:20971   */\n      add\n        /* \"#utility.yul\":20953:20971   */\n      swap2\n      pop\n        /* \"#utility.yul\":20988:21084   */\n      tag_613\n        /* \"#utility.yul\":21080:21083   */\n      dup3\n        /* \"#utility.yul\":21071:21077   */\n      dup5\n        /* \"#utility.yul\":20988:21084   */\n      tag_393\n      jump\t// in\n    tag_613:\n        /* \"#utility.yul\":20981:21084   */\n      swap2\n      pop\n        /* \"#utility.yul\":21101:21104   */\n      dup2\n        /* \"#utility.yul\":21094:21104   */\n      swap1\n      pop\n        /* \"#utility.yul\":19718:21110   */\n      swap5\n      swap4\n      pop\n      pop\n      pop\n      pop\n      jump\t// out\n        /* \"#utility.yul\":21116:21296   */\n    tag_394:\n        /* \"#utility.yul\":21284:21289   */\n      0x2d20230000000000000000000000000000000000000000000000000000000000\n        /* \"#utility.yul\":21279:21282   */\n      dup2\n        /* \"#utility.yul\":21272:21290   */\n      mstore\n        /* \"#utility.yul\":21116:21296   */\n      pop\n      jump\t// out\n        /* \"#utility.yul\":21302:21482   */\n    tag_395:\n        /* \"#utility.yul\":21470:21475   */\n      0x202d200000000000000000000000000000000000000000000000000000000000\n        /* \"#utility.yul\":21465:21468   */\n      dup2\n        /* \"#utility.yul\":21458:21476   */\n      mstore\n        /* \"#utility.yul\":21302:21482   */\n      pop\n      jump\t// out\n        /* \"#utility.yul\":21512:22386   */\n    tag_396:\n        /* \"#utility.yul\":21615:21618   */\n      0x00\n        /* \"#utility.yul\":21652:21657   */\n      dup2\n        /* \"#utility.yul\":21646:21658   */\n      sload\n        /* \"#utility.yul\":21681:21717   */\n      tag_617\n        /* \"#utility.yul\":21707:21716   */\n      dup2\n        /* \"#utility.yul\":21681:21717   */\n      tag_131\n      jump\t// in\n    tag_617:\n        /* \"#utility.yul\":21733:21822   */\n      tag_618\n        /* \"#utility.yul\":21815:21821   */\n      dup2\n        /* \"#utility.yul\":21810:21813   */\n      dup7\n        /* \"#utility.yul\":21733:21822   */\n      tag_388\n      jump\t// in\n    tag_618:\n        /* \"#utility.yul\":21726:21822   */\n      swap5\n      pop\n        /* \"#utility.yul\":21853:21854   */\n      0x01\n        /* \"#utility.yul\":21842:21851   */\n      dup3\n        /* \"#utility.yul\":21838:21855   */\n      and\n        /* \"#utility.yul\":21869:21870   */\n      0x00\n        /* \"#utility.yul\":21864:22030   */\n      dup2\n      eq\n      tag_620\n      jumpi\n        /* \"#utility.yul\":22044:22045   */\n      0x01\n        /* \"#utility.yul\":22039:22380   */\n      dup2\n      eq\n      tag_621\n      jumpi\n        /* \"#utility.yul\":21831:22380   */\n      jump(tag_619)\n        /* \"#utility.yul\":21864:22030   */\n    tag_620:\n        /* \"#utility.yul\":21948:21952   */\n      0xff\n        /* \"#utility.yul\":21944:21953   */\n      not\n        /* \"#utility.yul\":21933:21942   */\n      dup4\n        /* \"#utility.yul\":21929:21954   */\n      and\n        /* \"#utility.yul\":21924:21927   */\n      dup7\n        /* \"#utility.yul\":21917:21955   */\n      mstore\n        /* \"#utility.yul\":22010:22016   */\n      dup2\n        /* \"#utility.yul\":22003:22017   */\n      iszero\n        /* \"#utility.yul\":21996:22018   */\n      iszero\n        /* \"#utility.yul\":21988:21994   */\n      dup3\n        /* \"#utility.yul\":21984:22019   */\n      mul\n        /* \"#utility.yul\":21979:21982   */\n      dup7\n        /* \"#utility.yul\":21975:22020   */\n      add\n        /* \"#utility.yul\":21968:22020   */\n      swap4\n      pop\n        /* \"#utility.yul\":21864:22030   */\n      jump(tag_619)\n        /* \"#utility.yul\":22039:22380   */\n    tag_621:\n        /* \"#utility.yul\":22106:22144   */\n      tag_622\n        /* \"#utility.yul\":22138:22143   */\n      dup6\n        /* \"#utility.yul\":22106:22144   */\n      tag_370\n      jump\t// in\n    tag_622:\n        /* \"#utility.yul\":22166:22167   */\n      0x00\n        /* \"#utility.yul\":22180:22334   */\n    tag_623:\n        /* \"#utility.yul\":22194:22200   */\n      dup4\n        /* \"#utility.yul\":22191:22192   */\n      dup2\n        /* \"#utility.yul\":22188:22201   */\n      lt\n        /* \"#utility.yul\":22180:22334   */\n      iszero\n      tag_625\n      jumpi\n        /* \"#utility.yul\":22268:22275   */\n      dup2\n        /* \"#utility.yul\":22262:22276   */\n      sload\n        /* \"#utility.yul\":22258:22259   */\n      dup2\n        /* \"#utility.yul\":22253:22256   */\n      dup10\n        /* \"#utility.yul\":22249:22260   */\n      add\n        /* \"#utility.yul\":22242:22277   */\n      mstore\n        /* \"#utility.yul\":22318:22319   */\n      0x01\n        /* \"#utility.yul\":22309:22316   */\n      dup3\n        /* \"#utility.yul\":22305:22320   */\n      add\n        /* \"#utility.yul\":22294:22320   */\n      swap2\n      pop\n        /* \"#utility.yul\":22216:22220   */\n      0x20\n        /* \"#utility.yul\":22213:22214   */\n      dup2\n        /* \"#utility.yul\":22209:22221   */\n      add\n        /* \"#utility.yul\":22204:22221   */\n      swap1\n      pop\n        /* \"#utility.yul\":22180:22334   */\n      jump(tag_623)\n    tag_625:\n        /* \"#utility.yul\":22363:22369   */\n      dup4\n        /* \"#utility.yul\":22358:22361   */\n      dup9\n        /* \"#utility.yul\":22354:22370   */\n      add\n        /* \"#utility.yul\":22347:22370   */\n      swap6\n      pop\n        /* \"#utility.yul\":22046:22380   */\n      pop\n      pop\n        /* \"#utility.yul\":21831:22380   */\n    tag_619:\n      pop\n        /* \"#utility.yul\":21619:22386   */\n      pop\n      pop\n        /* \"#utility.yul\":21512:22386   */\n      swap3\n      swap2\n      pop\n      pop\n      jump\t// out\n        /* \"#utility.yul\":22392:22633   */\n    tag_397:\n        /* \"#utility.yul\":22560:22626   */\n      0x0a00000000000000000000000000000000000000000000000000000000000000\n        /* \"#utility.yul\":22555:22558   */\n      dup2\n        /* \"#utility.yul\":22548:22627   */\n      mstore\n        /* \"#utility.yul\":22392:22633   */\n      pop\n      jump\t// out\n        /* \"#utility.yul\":22639:24020   */\n    tag_210:\n        /* \"#utility.yul\":23134:23137   */\n      0x00\n        /* \"#utility.yul\":23156:23251   */\n      tag_628\n        /* \"#utility.yul\":23247:23250   */\n      dup3\n        /* \"#utility.yul\":23238:23244   */\n      dup7\n        /* \"#utility.yul\":23156:23251   */\n      tag_389\n      jump\t// in\n    tag_628:\n        /* \"#utility.yul\":23149:23251   */\n      swap2\n      pop\n        /* \"#utility.yul\":23261:23398   */\n      tag_629\n        /* \"#utility.yul\":23394:23397   */\n      dup3\n        /* \"#utility.yul\":23261:23398   */\n      tag_394\n      jump\t// in\n    tag_629:\n        /* \"#utility.yul\":23423:23424   */\n      0x03\n        /* \"#utility.yul\":23418:23421   */\n      dup3\n        /* \"#utility.yul\":23414:23425   */\n      add\n        /* \"#utility.yul\":23407:23425   */\n      swap2\n      pop\n        /* \"#utility.yul\":23442:23537   */\n      tag_630\n        /* \"#utility.yul\":23533:23536   */\n      dup3\n        /* \"#utility.yul\":23524:23530   */\n      dup6\n        /* \"#utility.yul\":23442:23537   */\n      tag_389\n      jump\t// in\n    tag_630:\n        /* \"#utility.yul\":23435:23537   */\n      swap2\n      pop\n        /* \"#utility.yul\":23547:23684   */\n      tag_631\n        /* \"#utility.yul\":23680:23683   */\n      dup3\n        /* \"#utility.yul\":23547:23684   */\n      tag_395\n      jump\t// in\n    tag_631:\n        /* \"#utility.yul\":23709:23710   */\n      0x03\n        /* \"#utility.yul\":23704:23707   */\n      dup3\n        /* \"#utility.yul\":23700:23711   */\n      add\n        /* \"#utility.yul\":23693:23711   */\n      swap2\n      pop\n        /* \"#utility.yul\":23728:23820   */\n      tag_632\n        /* \"#utility.yul\":23816:23819   */\n      dup3\n        /* \"#utility.yul\":23807:23813   */\n      dup5\n        /* \"#utility.yul\":23728:23820   */\n      tag_396\n      jump\t// in\n    tag_632:\n        /* \"#utility.yul\":23721:23820   */\n      swap2\n      pop\n        /* \"#utility.yul\":23830:23967   */\n      tag_633\n        /* \"#utility.yul\":23963:23966   */\n      dup3\n        /* \"#utility.yul\":23830:23967   */\n      tag_397\n      jump\t// in\n    tag_633:\n        /* \"#utility.yul\":23992:23993   */\n      0x01\n        /* \"#utility.yul\":23987:23990   */\n      dup3\n        /* \"#utility.yul\":23983:23994   */\n      add\n        /* \"#utility.yul\":23976:23994   */\n      swap2\n      pop\n        /* \"#utility.yul\":24011:24014   */\n      dup2\n        /* \"#utility.yul\":24004:24014   */\n      swap1\n      pop\n        /* \"#utility.yul\":22639:24020   */\n      swap5\n      swap4\n      pop\n      pop\n      pop\n      pop\n      jump\t// out\n        /* \"#utility.yul\":24026:24206   */\n    tag_281:\n        /* \"#utility.yul\":24074:24151   */\n      0x4e487b7100000000000000000000000000000000000000000000000000000000\n        /* \"#utility.yul\":24071:24072   */\n      0x00\n        /* \"#utility.yul\":24064:24152   */\n      mstore\n        /* \"#utility.yul\":24171:24175   */\n      0x12\n        /* \"#utility.yul\":24168:24169   */\n      0x04\n        /* \"#utility.yul\":24161:24176   */\n      mstore\n        /* \"#utility.yul\":24195:24199   */\n      0x24\n        /* \"#utility.yul\":24192:24193   */\n      0x00\n        /* \"#utility.yul\":24185:24200   */\n      revert\n        /* \"#utility.yul\":24212:24622   */\n    tag_293:\n        /* \"#utility.yul\":24252:24259   */\n      0x00\n        /* \"#utility.yul\":24275:24295   */\n      tag_636\n        /* \"#utility.yul\":24293:24294   */\n      dup3\n        /* \"#utility.yul\":24275:24295   */\n      tag_341\n      jump\t// in\n    tag_636:\n        /* \"#utility.yul\":24270:24295   */\n      swap2\n      pop\n        /* \"#utility.yul\":24309:24329   */\n      tag_637\n        /* \"#utility.yul\":24327:24328   */\n      dup4\n        /* \"#utility.yul\":24309:24329   */\n      tag_341\n      jump\t// in\n    tag_637:\n        /* \"#utility.yul\":24304:24329   */\n      swap3\n      pop\n        /* \"#utility.yul\":24364:24365   */\n      dup3\n        /* \"#utility.yul\":24361:24362   */\n      dup3\n        /* \"#utility.yul\":24357:24366   */\n      mul\n        /* \"#utility.yul\":24386:24416   */\n      tag_638\n        /* \"#utility.yul\":24404:24415   */\n      dup2\n        /* \"#utility.yul\":24386:24416   */\n      tag_341\n      jump\t// in\n    tag_638:\n        /* \"#utility.yul\":24375:24416   */\n      swap2\n      pop\n        /* \"#utility.yul\":24565:24566   */\n      dup3\n        /* \"#utility.yul\":24556:24563   */\n      dup3\n        /* \"#utility.yul\":24552:24567   */\n      div\n        /* \"#utility.yul\":24549:24550   */\n      dup5\n        /* \"#utility.yul\":24546:24568   */\n      eq\n        /* \"#utility.yul\":24526:24527   */\n      dup4\n        /* \"#utility.yul\":24519:24528   */\n      iszero\n        /* \"#utility.yul\":24499:24582   */\n      or\n        /* \"#utility.yul\":24476:24615   */\n      tag_639\n      jumpi\n        /* \"#utility.yul\":24595:24613   */\n      tag_640\n      tag_368\n      jump\t// in\n    tag_640:\n        /* \"#utility.yul\":24476:24615   */\n    tag_639:\n        /* \"#utility.yul\":24260:24622   */\n      pop\n        /* \"#utility.yul\":24212:24622   */\n      swap3\n      swap2\n      pop\n      pop\n      jump\t// out\n        /* \"#utility.yul\":24628:24819   */\n    tag_295:\n        /* \"#utility.yul\":24668:24671   */\n      0x00\n        /* \"#utility.yul\":24687:24707   */\n      tag_642\n        /* \"#utility.yul\":24705:24706   */\n      dup3\n        /* \"#utility.yul\":24687:24707   */\n      tag_341\n      jump\t// in\n    tag_642:\n        /* \"#utility.yul\":24682:24707   */\n      swap2\n      pop\n        /* \"#utility.yul\":24721:24741   */\n      tag_643\n        /* \"#utility.yul\":24739:24740   */\n      dup4\n        /* \"#utility.yul\":24721:24741   */\n      tag_341\n      jump\t// in\n    tag_643:\n        /* \"#utility.yul\":24716:24741   */\n      swap3\n      pop\n        /* \"#utility.yul\":24764:24765   */\n      dup3\n        /* \"#utility.yul\":24761:24762   */\n      dup3\n        /* \"#utility.yul\":24757:24766   */\n      add\n        /* \"#utility.yul\":24750:24766   */\n      swap1\n      pop\n        /* \"#utility.yul\":24785:24788   */\n      dup1\n        /* \"#utility.yul\":24782:24783   */\n      dup3\n        /* \"#utility.yul\":24779:24789   */\n      gt\n        /* \"#utility.yul\":24776:24812   */\n      iszero\n      tag_644\n      jumpi\n        /* \"#utility.yul\":24792:24810   */\n      tag_645\n      tag_368\n      jump\t// in\n    tag_645:\n        /* \"#utility.yul\":24776:24812   */\n    tag_644:\n        /* \"#utility.yul\":24628:24819   */\n      swap3\n      swap2\n      pop\n      pop\n      jump\t// out\n        /* \"#utility.yul\":24825:24996   */\n    tag_313:\n        /* \"#utility.yul\":24864:24867   */\n      0x00\n        /* \"#utility.yul\":24887:24911   */\n      tag_647\n        /* \"#utility.yul\":24905:24910   */\n      dup3\n        /* \"#utility.yul\":24887:24911   */\n      tag_341\n      jump\t// in\n    tag_647:\n        /* \"#utility.yul\":24878:24911   */\n      swap2\n      pop\n        /* \"#utility.yul\":24933:24937   */\n      0x00\n        /* \"#utility.yul\":24926:24931   */\n      dup3\n        /* \"#utility.yul\":24923:24938   */\n      sub\n        /* \"#utility.yul\":24920:24961   */\n      tag_648\n      jumpi\n        /* \"#utility.yul\":24941:24959   */\n      tag_649\n      tag_368\n      jump\t// in\n    tag_649:\n        /* \"#utility.yul\":24920:24961   */\n    tag_648:\n        /* \"#utility.yul\":24988:24989   */\n      0x01\n        /* \"#utility.yul\":24981:24986   */\n      dup3\n        /* \"#utility.yul\":24977:24990   */\n      sub\n        /* \"#utility.yul\":24970:24990   */\n      swap1\n      pop\n        /* \"#utility.yul\":24825:24996   */\n      swap2\n      swap1\n      pop\n      jump\t// out\n        /* \"#utility.yul\":25002:25334   */\n    tag_316:\n        /* \"#utility.yul\":25123:25127   */\n      0x00\n        /* \"#utility.yul\":25161:25163   */\n      0x40\n        /* \"#utility.yul\":25150:25159   */\n      dup3\n        /* \"#utility.yul\":25146:25164   */\n      add\n        /* \"#utility.yul\":25138:25164   */\n      swap1\n      pop\n        /* \"#utility.yul\":25174:25245   */\n      tag_651\n        /* \"#utility.yul\":25242:25243   */\n      0x00\n        /* \"#utility.yul\":25231:25240   */\n      dup4\n        /* \"#utility.yul\":25227:25244   */\n      add\n        /* \"#utility.yul\":25218:25224   */\n      dup6\n        /* \"#utility.yul\":25174:25245   */\n      tag_352\n      jump\t// in\n    tag_651:\n        /* \"#utility.yul\":25255:25327   */\n      tag_652\n        /* \"#utility.yul\":25323:25325   */\n      0x20\n        /* \"#utility.yul\":25312:25321   */\n      dup4\n        /* \"#utility.yul\":25308:25326   */\n      add\n        /* \"#utility.yul\":25299:25305   */\n      dup5\n        /* \"#utility.yul\":25255:25327   */\n      tag_352\n      jump\t// in\n    tag_652:\n        /* \"#utility.yul\":25002:25334   */\n      swap4\n      swap3\n      pop\n      pop\n      pop\n      jump\t// out\n    stop\n    data_2f0ffc18843a02f24c9deca7bacfe051a4aeb4f47d6f35a4007bcbc0e5d2b7c4 5468652070726f706f73616c7320726567697374726174696f6e206973206e6f7720636c6f736564\n    data_440091fa9eba46a29e9c02481171c9fd56211f745e04143ee58df1023504e963 5468652070726f706f73616c7320726567697374726174696f6e206973206e6f77206f70656e6564\n    data_45ba25bcd275f0d4a19e5bb98899419bcb1b28f7c401176b754a4739a198375b 496d706f737369626c6520746f207375626d6974207468652070726f706f73616c\n    data_76f3d43de8cdad96b0b56def1184b01fcba5eb8d2e1f2382a50af536cc460d32 4f6e6c7920746865206f776e65722063616e20636c6f7365207468652070726f706f73616c7320726567697374726174696f6e\n    data_88a406b1d665316b3b2047424e9f0e9c9b428e67803f433038201efdc3d96325 4f6e6c7920746865206f776e65722063616e206f70656e207468652070726f706f73616c7320726567697374726174696f6e\n    data_e789111c5cb92820c15b35d96ef8b2b2eaf113efb853281e8e02f130ce996914 4f6e6c7920746865206f776e65722063616e206f70656e2074686520766f74696e672073657373696f6e\n    data_f7540479865b09ae568e9b6ed54864db588b36e32eb75ea997eb6a43dfba6168 4f6e6c7920746865206f776e65722063616e20636c6f73652074686520766f74696e672073657373696f6e\n\n    auxdata: 0xa2646970667358221220f0a17228c139b9d223b93dc01b18d9570287511fe066f517b72c8dab1e7b4d3264736f6c63430008150033\n}\n",
				"bytecode": {
					"linkReferences": {},
					"object": "608060405234801562000010575f80fd5b5060405162002ef938038062002ef9833981810160405281019062000036919062000229565b805f73ffffffffffffffffffffffffffffffffffffffff168173ffffffffffffffffffffffffffffffffffffffff1603620000aa575f6040517f1e4fbdf7000000000000000000000000000000000000000000000000000000008152600401620000a191906200026a565b60405180910390fd5b620000bb816200010360201b60201c565b508060015f6101000a81548173ffffffffffffffffffffffffffffffffffffffff021916908373ffffffffffffffffffffffffffffffffffffffff1602179055505062000285565b5f805f9054906101000a900473ffffffffffffffffffffffffffffffffffffffff169050815f806101000a81548173ffffffffffffffffffffffffffffffffffffffff021916908373ffffffffffffffffffffffffffffffffffffffff1602179055508173ffffffffffffffffffffffffffffffffffffffff168173ffffffffffffffffffffffffffffffffffffffff167f8be0079c531659141344cd1fd0a4f28419497f9722a3daafe3b4186f6b6457e060405160405180910390a35050565b5f80fd5b5f73ffffffffffffffffffffffffffffffffffffffff82169050919050565b5f620001f382620001c8565b9050919050565b6200020581620001e7565b811462000210575f80fd5b50565b5f815190506200022381620001fa565b92915050565b5f60208284031215620002415762000240620001c4565b5b5f620002508482850162000213565b91505092915050565b6200026481620001e7565b82525050565b5f6020820190506200027f5f83018462000259565b92915050565b612c6680620002935f395ff3fe608060405234801561000f575f80fd5b506004361061014b575f3560e01c806367469356116100c1578063a3ec138d1161007a578063a3ec138d14610381578063b2c63487146103b3578063d55ec9c1146103d1578063eaa3799914610401578063f06d10901461041f578063f2fde38b1461043d5761014b565b806367469356146102e1578063686caf9e146102ff578063715018a61461031d5780637c70458f146103275780638da5cb5b146103455780638e7ea5b2146103635761014b565b8063378a217811610113578063378a21781461021d57806338db6dd3146102275780633fb2d578146102575780634de17bca146102755780635588094914610293578063609ff1bd146102c35761014b565b80630121b93f1461014f578063013cf08b1461017f57806307fa315f146101b15780631181a490146101cf578063373d6d5e146101ed575b5f80fd5b61016960048036038101906101649190611e1e565b610459565b6040516101769190611ed3565b60405180910390f35b61019960048036038101906101949190611e1e565b610617565b6040516101a893929190611f41565b60405180910390f35b6101b96106f1565b6040516101c69190611ed3565b60405180910390f35b6101d7610858565b6040516101e49190611ff0565b60405180910390f35b6102076004803603810190610202919061206a565b61086b565b6040516102149190611ed3565b60405180910390f35b610225610a30565b005b610241600480360381019061023c91906120df565b610aea565b60405161024e9190611ed3565b60405180910390f35b61025f610d32565b60405161026c9190612124565b60405180910390f35b61027d610d45565b60405161028a9190611ed3565b60405180910390f35b6102ad60048036038101906102a891906120df565b610ec8565b6040516102ba9190611ed3565b60405180910390f35b6102cb610f71565b6040516102d8919061213d565b60405180910390f35b6102e9610ff2565b6040516102f69190611ed3565b60405180910390f35b6103076110c8565b6040516103149190612124565b60405180910390f35b6103256110db565b005b61032f6110ee565b60405161033c9190612124565b60405180910390f35b61034d611100565b60405161035a9190612156565b60405180910390f35b61036b611127565b6040516103789190612156565b60405180910390f35b61039b600480360381019061039691906120df565b61117e565b6040516103aa9392919061216f565b60405180910390f35b6103bb6111bc565b6040516103c89190611ed3565b60405180910390f35b6103eb60048036038101906103e691906121f9565b611315565b6040516103f89190611ed3565b60405180910390f35b6104096115f4565b6040516104169190611ed3565b60405180910390f35b610427611779565b6040516104349190611ff0565b60405180910390f35b610457600480360381019061045291906120df565b61178a565b005b6060600460029054906101000a900460ff16156105d9575f60025f3373ffffffffffffffffffffffffffffffffffffffff1673ffffffffffffffffffffffffffffffffffffffff1681526020019081526020015f209050805f0160019054906101000a900460ff1615610501576040517f08c379a00000000000000000000000000000000000000000000000000000000081526004016104f89061228e565b60405180910390fd5b6001815f0160016101000a81548160ff0219169083151502179055508281600101819055506003838154811061053a576105396122ac565b5b905f5260205f2090600302016002015f81548092919061055990612306565b91905055507f4d99b957a2bc29a30ebd96a7be8e68fe50a3c701db28a91436490b7d53870ca433826001015460405161059392919061234d565b60405180910390a16040518060400160405280600581526020017f566f746564000000000000000000000000000000000000000000000000000000815250915050610612565b6040518060400160405280601281526020017f566f7465206e6f7420617661696c61626c65000000000000000000000000000081525090505b919050565b60038181548110610626575f80fd5b905f5260205f2090600302015f91509050805f015f9054906101000a900473ffffffffffffffffffffffffffffffffffffffff169080600101805461066a906123a1565b80601f0160208091040260200160405190810160405280929190818152602001828054610696906123a1565b80156106e15780601f106106b8576101008083540402835291602001916106e1565b820191905f5260205f20905b8154815290600101906020018083116106c457829003601f168201915b5050505050908060020154905083565b606060015f9054906101000a900473ffffffffffffffffffffffffffffffffffffffff1673ffffffffffffffffffffffffffffffffffffffff163373ffffffffffffffffffffffffffffffffffffffff1603610839575f600460016101000a81548160ff021916908315150217905550600460039054906101000a900460ff166004806101000a81548160ff0219169083600581111561079457610793611f7d565b5b02179055506002600460036101000a81548160ff021916908360058111156107bf576107be611f7d565b5b02179055507f0a97a4ee45751e2abf3e4fc8946939630b11b371ea8ae39ccdc3056e98f5cc3f60048054906101000a900460ff16600460039054906101000a900460ff166040516108119291906123d1565b60405180910390a1604051806060016040528060288152602001612b06602891399050610855565b604051806060016040528060338152602001612b776033913990505b90565b600460039054906101000a900460ff1681565b6060600460019054906101000a900460ff1615610a0e575f60405180606001604052803373ffffffffffffffffffffffffffffffffffffffff16815260200185858080601f0160208091040260200160405190810160405280939291908181526020018383808284375f81840152601f19601f8201169050808301925050505050505081526020015f8152509050600381908060018154018082558091505060019003905f5260205f2090600302015f909190919091505f820151815f015f6101000a81548173ffffffffffffffffffffffffffffffffffffffff021916908373ffffffffffffffffffffffffffffffffffffffff160217905550602082015181600101908161097b91906125c2565b506040820151816002015550507f92e393e9b54e2f801d3ea4beb0c5e71a21cc34a5d34b77d0fb8a3aa1650dc18f60016003805490506109bb9190612691565b6040516109c8919061213d565b60405180910390a16040518060400160405280601281526020017f50726f706f73616c207375626d69747465640000000000000000000000000000815250915050610a2a565b604051806060016040528060218152602001612b566021913990505b92915050565b600460039054906101000a900460ff166004806101000a81548160ff02191690836005811115610a6357610a62611f7d565b5b02179055506005600460036101000a81548160ff02191690836005811115610a8e57610a8d611f7d565b5b02179055507f0a97a4ee45751e2abf3e4fc8946939630b11b371ea8ae39ccdc3056e98f5cc3f60048054906101000a900460ff16600460039054906101000a900460ff16604051610ae09291906123d1565b60405180910390a1565b60606001151560025f3373ffffffffffffffffffffffffffffffffffffffff1673ffffffffffffffffffffffffffffffffffffffff1681526020019081526020015f205f015f9054906101000a900460ff16151503610b7e576040517f08c379a0000000000000000000000000000000000000000000000000000000008152600401610b759061270e565b60405180910390fd5b60015f9054906101000a900473ffffffffffffffffffffffffffffffffffffffff1673ffffffffffffffffffffffffffffffffffffffff163373ffffffffffffffffffffffffffffffffffffffff1603610cf457600160025f8473ffffffffffffffffffffffffffffffffffffffff1673ffffffffffffffffffffffffffffffffffffffff1681526020019081526020015f205f015f6101000a81548160ff0219169083151502179055505f60025f8473ffffffffffffffffffffffffffffffffffffffff1673ffffffffffffffffffffffffffffffffffffffff1681526020019081526020015f205f0160016101000a81548160ff0219169083151502179055507fb6be2187d059cc2a55fe29e0e503b566e1e0f8c8780096e185429350acffd3dd82604051610caf9190612156565b60405180910390a16040518060400160405280600b81526020017f566f7465722061646465640000000000000000000000000000000000000000008152509050610d2d565b6040518060400160405280601b81526020017f496d706f737369626c6520746f206164642074686520766f746572000000000081525090505b919050565b600460019054906101000a900460ff1681565b606060015f9054906101000a900473ffffffffffffffffffffffffffffffffffffffff1673ffffffffffffffffffffffffffffffffffffffff163373ffffffffffffffffffffffffffffffffffffffff1603610ea9575f600460026101000a81548160ff021916908315150217905550600460039054906101000a900460ff166004806101000a81548160ff02191690836005811115610de857610de7611f7d565b5b021790555060048060036101000a81548160ff02191690836005811115610e1257610e11611f7d565b5b02179055507f0a97a4ee45751e2abf3e4fc8946939630b11b371ea8ae39ccdc3056e98f5cc3f60048054906101000a900460ff16600460039054906101000a900460ff16604051610e649291906123d1565b60405180910390a16040518060400160405280602081526020017f54686520766f74696e672073657373696f6e206973206e6f77206f70656e65648152509050610ec5565b6040518060600160405280602b8152602001612c06602b913990505b90565b60605f60025f8473ffffffffffffffffffffffffffffffffffffffff1673ffffffffffffffffffffffffffffffffffffffff1681526020019081526020015f206001015490505f60038281548110610f2357610f226122ac565b5b905f5260205f2090600302016001019050610f3d8461180e565b610f468361183b565b82604051602001610f599392919061286a565b60405160208183030381529060405292505050919050565b5f805f90505f5b600380549050811015610fed578160038281548110610f9a57610f996122ac565b5b905f5260205f209060030201600201541115610fda5760038181548110610fc457610fc36122ac565b5b905f5260205f2090600302016002015491508092505b8080610fe590612306565b915050610f78565b505090565b6060600460029054906101000a900460ff16801561101457505f600380549050115b1561108d575f5b60038054905081101561108b57816110328261183b565b60038381548110611046576110456122ac565b5b905f5260205f209060030201600101604051602001611067939291906129b9565b6040516020818303038152906040529150808061108390612306565b91505061101b565b505b6040518060400160405280601681526020017f4e6f2070726f706f73616c207375626d69747465642e00000000000000000000815250905090565b600460029054906101000a900460ff1681565b6110e3611905565b6110ec5f61198c565b565b60045f9054906101000a900460ff1681565b5f805f9054906101000a900473ffffffffffffffffffffffffffffffffffffffff16905090565b5f6003611132610f71565b81548110611143576111426122ac565b5b905f5260205f2090600302015f015f9054906101000a900473ffffffffffffffffffffffffffffffffffffffff16905061117b610a30565b90565b6002602052805f5260405f205f91509050805f015f9054906101000a900460ff1690805f0160019054906101000a900460ff16908060010154905083565b606060015f9054906101000a900473ffffffffffffffffffffffffffffffffffffffff1673ffffffffffffffffffffffffffffffffffffffff163373ffffffffffffffffffffffffffffffffffffffff16036112f6576001600460016101000a81548160ff0219169083151502179055505f6004806101000a81548160ff0219169083600581111561125157611250611f7d565b5b02179055506001600460036101000a81548160ff0219169083600581111561127c5761127b611f7d565b5b02179055507f0a97a4ee45751e2abf3e4fc8946939630b11b371ea8ae39ccdc3056e98f5cc3f60048054906101000a900460ff16600460039054906101000a900460ff166040516112ce9291906123d1565b60405180910390a1604051806060016040528060288152602001612b2e602891399050611312565b604051806060016040528060328152602001612baa6032913990505b90565b60606001151560025f3373ffffffffffffffffffffffffffffffffffffffff1673ffffffffffffffffffffffffffffffffffffffff1681526020019081526020015f205f015f9054906101000a900460ff161515036113a9576040517f08c379a00000000000000000000000000000000000000000000000000000000081526004016113a09061270e565b60405180910390fd5b60015f9054906101000a900473ffffffffffffffffffffffffffffffffffffffff1673ffffffffffffffffffffffffffffffffffffffff163373ffffffffffffffffffffffffffffffffffffffff16036115b5575f5b8383905081101561157757600160025f868685818110611422576114216122ac565b5b905060200201602081019061143791906120df565b73ffffffffffffffffffffffffffffffffffffffff1673ffffffffffffffffffffffffffffffffffffffff1681526020019081526020015f205f015f6101000a81548160ff0219169083151502179055505f60025f86868581811061149f5761149e6122ac565b5b90506020020160208101906114b491906120df565b73ffffffffffffffffffffffffffffffffffffffff1673ffffffffffffffffffffffffffffffffffffffff1681526020019081526020015f205f0160016101000a81548160ff0219169083151502179055507fb6be2187d059cc2a55fe29e0e503b566e1e0f8c8780096e185429350acffd3dd84848381811061153a576115396122ac565b5b905060200201602081019061154f91906120df565b60405161155c9190612156565b60405180910390a1808061156f90612306565b9150506113ff565b506040518060400160405280601181526020017f566f74657273207265676973746572656400000000000000000000000000000081525090506115ee565b6040518060400160405280601d81526020017f4f6e6c7920746865206f776e65722063616e2061646420766f7465727300000081525090505b92915050565b606060015f9054906101000a900473ffffffffffffffffffffffffffffffffffffffff1673ffffffffffffffffffffffffffffffffffffffff163373ffffffffffffffffffffffffffffffffffffffff160361175a576001600460026101000a81548160ff021916908315150217905550600460039054906101000a900460ff166004806101000a81548160ff0219169083600581111561169857611697611f7d565b5b02179055506003600460036101000a81548160ff021916908360058111156116c3576116c2611f7d565b5b02179055507f0a97a4ee45751e2abf3e4fc8946939630b11b371ea8ae39ccdc3056e98f5cc3f60048054906101000a900460ff16600460039054906101000a900460ff166040516117159291906123d1565b60405180910390a16040518060400160405280602081526020017f54686520766f74696e672073657373696f6e206973206e6f77206f70656e65648152509050611776565b6040518060600160405280602a8152602001612bdc602a913990505b90565b60048054906101000a900460ff1681565b611792611905565b5f73ffffffffffffffffffffffffffffffffffffffff168173ffffffffffffffffffffffffffffffffffffffff1603611802575f6040517f1e4fbdf70000000000000000000000000000000000000000000000000000000081526004016117f99190612156565b60405180910390fd5b61180b8161198c565b50565b60606118348273ffffffffffffffffffffffffffffffffffffffff16601460ff16611a4d565b9050919050565b60605f600161184984611c8b565b0190505f8167ffffffffffffffff811115611867576118666123f8565b5b6040519080825280601f01601f1916602001820160405280156118995781602001600182028036833780820191505090505b5090505f82602001820190505b6001156118fa578080600190039150507f3031323334353637383961626364656600000000000000000000000000000000600a86061a8153600a85816118ef576118ee612a16565b5b0494505f85036118a6575b819350505050919050565b61190d611ddc565b73ffffffffffffffffffffffffffffffffffffffff1661192b611100565b73ffffffffffffffffffffffffffffffffffffffff161461198a5761194e611ddc565b6040517f118cdaa70000000000000000000000000000000000000000000000000000000081526004016119819190612156565b60405180910390fd5b565b5f805f9054906101000a900473ffffffffffffffffffffffffffffffffffffffff169050815f806101000a81548173ffffffffffffffffffffffffffffffffffffffff021916908373ffffffffffffffffffffffffffffffffffffffff1602179055508173ffffffffffffffffffffffffffffffffffffffff168173ffffffffffffffffffffffffffffffffffffffff167f8be0079c531659141344cd1fd0a4f28419497f9722a3daafe3b4186f6b6457e060405160405180910390a35050565b60605f8390505f6002846002611a639190612a43565b611a6d9190612a84565b67ffffffffffffffff811115611a8657611a856123f8565b5b6040519080825280601f01601f191660200182016040528015611ab85781602001600182028036833780820191505090505b5090507f3000000000000000000000000000000000000000000000000000000000000000815f81518110611aef57611aee6122ac565b5b60200101907effffffffffffffffffffffffffffffffffffffffffffffffffffffffffffff191690815f1a9053507f780000000000000000000000000000000000000000000000000000000000000081600181518110611b5257611b516122ac565b5b60200101907effffffffffffffffffffffffffffffffffffffffffffffffffffffffffffff191690815f1a9053505f6001856002611b909190612a43565b611b9a9190612a84565b90505b6001811115611c39577f3031323334353637383961626364656600000000000000000000000000000000600f841660108110611bdc57611bdb6122ac565b5b1a60f81b828281518110611bf357611bf26122ac565b5b60200101907effffffffffffffffffffffffffffffffffffffffffffffffffffffffffffff191690815f1a905350600483901c925080611c3290612ab7565b9050611b9d565b505f8214611c805784846040517fe22e27eb000000000000000000000000000000000000000000000000000000008152600401611c77929190612ade565b60405180910390fd5b809250505092915050565b5f805f90507a184f03e93ff9f4daa797ed6e38ed64bf6a1f0100000000000000008310611ce7577a184f03e93ff9f4daa797ed6e38ed64bf6a1f0100000000000000008381611cdd57611cdc612a16565b5b0492506040810190505b6d04ee2d6d415b85acef81000000008310611d24576d04ee2d6d415b85acef81000000008381611d1a57611d19612a16565b5b0492506020810190505b662386f26fc100008310611d5357662386f26fc100008381611d4957611d48612a16565b5b0492506010810190505b6305f5e1008310611d7c576305f5e1008381611d7257611d71612a16565b5b0492506008810190505b6127108310611da1576127108381611d9757611d96612a16565b5b0492506004810190505b60648310611dc45760648381611dba57611db9612a16565b5b0492506002810190505b600a8310611dd3576001810190505b80915050919050565b5f33905090565b5f80fd5b5f80fd5b5f819050919050565b611dfd81611deb565b8114611e07575f80fd5b50565b5f81359050611e1881611df4565b92915050565b5f60208284031215611e3357611e32611de3565b5b5f611e4084828501611e0a565b91505092915050565b5f81519050919050565b5f82825260208201905092915050565b5f5b83811015611e80578082015181840152602081019050611e65565b5f8484015250505050565b5f601f19601f8301169050919050565b5f611ea582611e49565b611eaf8185611e53565b9350611ebf818560208601611e63565b611ec881611e8b565b840191505092915050565b5f6020820190508181035f830152611eeb8184611e9b565b905092915050565b5f73ffffffffffffffffffffffffffffffffffffffff82169050919050565b5f611f1c82611ef3565b9050919050565b611f2c81611f12565b82525050565b611f3b81611deb565b82525050565b5f606082019050611f545f830186611f23565b8181036020830152611f668185611e9b565b9050611f756040830184611f32565b949350505050565b7f4e487b71000000000000000000000000000000000000000000000000000000005f52602160045260245ffd5b60068110611fbb57611fba611f7d565b5b50565b5f819050611fcb82611faa565b919050565b5f611fda82611fbe565b9050919050565b611fea81611fd0565b82525050565b5f6020820190506120035f830184611fe1565b92915050565b5f80fd5b5f80fd5b5f80fd5b5f8083601f84011261202a57612029612009565b5b8235905067ffffffffffffffff8111156120475761204661200d565b5b60208301915083600182028301111561206357612062612011565b5b9250929050565b5f80602083850312156120805761207f611de3565b5b5f83013567ffffffffffffffff81111561209d5761209c611de7565b5b6120a985828601612015565b92509250509250929050565b6120be81611f12565b81146120c8575f80fd5b50565b5f813590506120d9816120b5565b92915050565b5f602082840312156120f4576120f3611de3565b5b5f612101848285016120cb565b91505092915050565b5f8115159050919050565b61211e8161210a565b82525050565b5f6020820190506121375f830184612115565b92915050565b5f6020820190506121505f830184611f32565b92915050565b5f6020820190506121695f830184611f23565b92915050565b5f6060820190506121825f830186612115565b61218f6020830185612115565b61219c6040830184611f32565b949350505050565b5f8083601f8401126121b9576121b8612009565b5b8235905067ffffffffffffffff8111156121d6576121d561200d565b5b6020830191508360208202830111156121f2576121f1612011565b5b9250929050565b5f806020838503121561220f5761220e611de3565b5b5f83013567ffffffffffffffff81111561222c5761222b611de7565b5b612238858286016121a4565b92509250509250929050565b7f416c726561647920766f7465642e0000000000000000000000000000000000005f82015250565b5f612278600e83611e53565b915061228382612244565b602082019050919050565b5f6020820190508181035f8301526122a58161226c565b9050919050565b7f4e487b71000000000000000000000000000000000000000000000000000000005f52603260045260245ffd5b7f4e487b71000000000000000000000000000000000000000000000000000000005f52601160045260245ffd5b5f61231082611deb565b91507fffffffffffffffffffffffffffffffffffffffffffffffffffffffffffffffff8203612342576123416122d9565b5b600182019050919050565b5f6040820190506123605f830185611f23565b61236d6020830184611f32565b9392505050565b7f4e487b71000000000000000000000000000000000000000000000000000000005f52602260045260245ffd5b5f60028204905060018216806123b857607f821691505b6020821081036123cb576123ca612374565b5b50919050565b5f6040820190506123e45f830185611fe1565b6123f16020830184611fe1565b9392505050565b7f4e487b71000000000000000000000000000000000000000000000000000000005f52604160045260245ffd5b5f819050815f5260205f209050919050565b5f6020601f8301049050919050565b5f82821b905092915050565b5f600883026124817fffffffffffffffffffffffffffffffffffffffffffffffffffffffffffffffff82612446565b61248b8683612446565b95508019841693508086168417925050509392505050565b5f819050919050565b5f6124c66124c16124bc84611deb565b6124a3565b611deb565b9050919050565b5f819050919050565b6124df836124ac565b6124f36124eb826124cd565b848454612452565b825550505050565b5f90565b6125076124fb565b6125128184846124d6565b505050565b5b818110156125355761252a5f826124ff565b600181019050612518565b5050565b601f82111561257a5761254b81612425565b61255484612437565b81016020851015612563578190505b61257761256f85612437565b830182612517565b50505b505050565b5f82821c905092915050565b5f61259a5f198460080261257f565b1980831691505092915050565b5f6125b2838361258b565b9150826002028217905092915050565b6125cb82611e49565b67ffffffffffffffff8111156125e4576125e36123f8565b5b6125ee82546123a1565b6125f9828285612539565b5f60209050601f83116001811461262a575f8415612618578287015190505b61262285826125a7565b865550612689565b601f19841661263886612425565b5f5b8281101561265f5784890151825560018201915060208501945060208101905061263a565b8683101561267c5784890151612678601f89168261258b565b8355505b6001600288020188555050505b505050505050565b5f61269b82611deb565b91506126a683611deb565b92508282039050818111156126be576126bd6122d9565b5b92915050565b7f556e617574686f72697a656400000000000000000000000000000000000000005f82015250565b5f6126f8600c83611e53565b9150612703826126c4565b602082019050919050565b5f6020820190508181035f830152612725816126ec565b9050919050565b7f566f746572200000000000000000000000000000000000000000000000000000815250565b5f81905092915050565b5f61276682611e49565b6127708185612752565b9350612780818560208601611e63565b80840191505092915050565b7f2068617320766f74656420666f722070726f706f73616c202300000000000000815250565b7f203a200000000000000000000000000000000000000000000000000000000000815250565b5f819050815f5260205f209050919050565b5f81546127f6816123a1565b6128008186612752565b9450600182165f811461281a576001811461282f57612861565b60ff1983168652811515820286019350612861565b612838856127d8565b5f5b838110156128595781548189015260018201915060208101905061283a565b838801955050505b50505092915050565b5f6128748261272c565b600682019150612884828661275c565b915061288f8261278c565b60198201915061289f828561275c565b91506128aa826127b2565b6003820191506128ba82846127ea565b9150819050949350505050565b7f2d20230000000000000000000000000000000000000000000000000000000000815250565b7f202d200000000000000000000000000000000000000000000000000000000000815250565b5f815461291f816123a1565b6129298186612752565b9450600182165f811461294357600181146129585761298a565b60ff198316865281151582028601935061298a565b61296185612425565b5f5b8381101561298257815481890152600182019150602081019050612963565b838801955050505b50505092915050565b7f0a00000000000000000000000000000000000000000000000000000000000000815250565b5f6129c4828661275c565b91506129cf826128c7565b6003820191506129df828561275c565b91506129ea826128ed565b6003820191506129fa8284612913565b9150612a0582612993565b600182019150819050949350505050565b7f4e487b71000000000000000000000000000000000000000000000000000000005f52601260045260245ffd5b5f612a4d82611deb565b9150612a5883611deb565b9250828202612a6681611deb565b91508282048414831517612a7d57612a7c6122d9565b5b5092915050565b5f612a8e82611deb565b9150612a9983611deb565b9250828201905080821115612ab157612ab06122d9565b5b92915050565b5f612ac182611deb565b91505f8203612ad357612ad26122d9565b5b600182039050919050565b5f604082019050612af15f830185611f32565b612afe6020830184611f32565b939250505056fe5468652070726f706f73616c7320726567697374726174696f6e206973206e6f7720636c6f7365645468652070726f706f73616c7320726567697374726174696f6e206973206e6f77206f70656e6564496d706f737369626c6520746f207375626d6974207468652070726f706f73616c4f6e6c7920746865206f776e65722063616e20636c6f7365207468652070726f706f73616c7320726567697374726174696f6e4f6e6c7920746865206f776e65722063616e206f70656e207468652070726f706f73616c7320726567697374726174696f6e4f6e6c7920746865206f776e65722063616e206f70656e2074686520766f74696e672073657373696f6e4f6e6c7920746865206f776e65722063616e20636c6f73652074686520766f74696e672073657373696f6ea2646970667358221220f0a17228c139b9d223b93dc01b18d9570287511fe066f517b72c8dab1e7b4d3264736f6c63430008150033",
					"opcodes": "PUSH1 0x80 PUSH1 0x40 MSTORE CALLVALUE DUP1 ISZERO PUSH3 0x10 JUMPI PUSH0 DUP1 REVERT JUMPDEST POP PUSH1 0x40 MLOAD PUSH3 0x2EF9 CODESIZE SUB DUP1 PUSH3 0x2EF9 DUP4 CODECOPY DUP2 DUP2 ADD PUSH1 0x40 MSTORE DUP2 ADD SWAP1 PUSH3 0x36 SWAP2 SWAP1 PUSH3 0x229 JUMP JUMPDEST DUP1 PUSH0 PUSH20 0xFFFFFFFFFFFFFFFFFFFFFFFFFFFFFFFFFFFFFFFF AND DUP2 PUSH20 0xFFFFFFFFFFFFFFFFFFFFFFFFFFFFFFFFFFFFFFFF AND SUB PUSH3 0xAA JUMPI PUSH0 PUSH1 0x40 MLOAD PUSH32 0x1E4FBDF700000000000000000000000000000000000000000000000000000000 DUP2 MSTORE PUSH1 0x4 ADD PUSH3 0xA1 SWAP2 SWAP1 PUSH3 0x26A JUMP JUMPDEST PUSH1 0x40 MLOAD DUP1 SWAP2 SUB SWAP1 REVERT JUMPDEST PUSH3 0xBB DUP2 PUSH3 0x103 PUSH1 0x20 SHL PUSH1 0x20 SHR JUMP JUMPDEST POP DUP1 PUSH1 0x1 PUSH0 PUSH2 0x100 EXP DUP2 SLOAD DUP2 PUSH20 0xFFFFFFFFFFFFFFFFFFFFFFFFFFFFFFFFFFFFFFFF MUL NOT AND SWAP1 DUP4 PUSH20 0xFFFFFFFFFFFFFFFFFFFFFFFFFFFFFFFFFFFFFFFF AND MUL OR SWAP1 SSTORE POP POP PUSH3 0x285 JUMP JUMPDEST PUSH0 DUP1 PUSH0 SWAP1 SLOAD SWAP1 PUSH2 0x100 EXP SWAP1 DIV PUSH20 0xFFFFFFFFFFFFFFFFFFFFFFFFFFFFFFFFFFFFFFFF AND SWAP1 POP DUP2 PUSH0 DUP1 PUSH2 0x100 EXP DUP2 SLOAD DUP2 PUSH20 0xFFFFFFFFFFFFFFFFFFFFFFFFFFFFFFFFFFFFFFFF MUL NOT AND SWAP1 DUP4 PUSH20 0xFFFFFFFFFFFFFFFFFFFFFFFFFFFFFFFFFFFFFFFF AND MUL OR SWAP1 SSTORE POP DUP2 PUSH20 0xFFFFFFFFFFFFFFFFFFFFFFFFFFFFFFFFFFFFFFFF AND DUP2 PUSH20 0xFFFFFFFFFFFFFFFFFFFFFFFFFFFFFFFFFFFFFFFF AND PUSH32 0x8BE0079C531659141344CD1FD0A4F28419497F9722A3DAAFE3B4186F6B6457E0 PUSH1 0x40 MLOAD PUSH1 0x40 MLOAD DUP1 SWAP2 SUB SWAP1 LOG3 POP POP JUMP JUMPDEST PUSH0 DUP1 REVERT JUMPDEST PUSH0 PUSH20 0xFFFFFFFFFFFFFFFFFFFFFFFFFFFFFFFFFFFFFFFF DUP3 AND SWAP1 POP SWAP2 SWAP1 POP JUMP JUMPDEST PUSH0 PUSH3 0x1F3 DUP3 PUSH3 0x1C8 JUMP JUMPDEST SWAP1 POP SWAP2 SWAP1 POP JUMP JUMPDEST PUSH3 0x205 DUP2 PUSH3 0x1E7 JUMP JUMPDEST DUP2 EQ PUSH3 0x210 JUMPI PUSH0 DUP1 REVERT JUMPDEST POP JUMP JUMPDEST PUSH0 DUP2 MLOAD SWAP1 POP PUSH3 0x223 DUP2 PUSH3 0x1FA JUMP JUMPDEST SWAP3 SWAP2 POP POP JUMP JUMPDEST PUSH0 PUSH1 0x20 DUP3 DUP5 SUB SLT ISZERO PUSH3 0x241 JUMPI PUSH3 0x240 PUSH3 0x1C4 JUMP JUMPDEST JUMPDEST PUSH0 PUSH3 0x250 DUP5 DUP3 DUP6 ADD PUSH3 0x213 JUMP JUMPDEST SWAP2 POP POP SWAP3 SWAP2 POP POP JUMP JUMPDEST PUSH3 0x264 DUP2 PUSH3 0x1E7 JUMP JUMPDEST DUP3 MSTORE POP POP JUMP JUMPDEST PUSH0 PUSH1 0x20 DUP3 ADD SWAP1 POP PUSH3 0x27F PUSH0 DUP4 ADD DUP5 PUSH3 0x259 JUMP JUMPDEST SWAP3 SWAP2 POP POP JUMP JUMPDEST PUSH2 0x2C66 DUP1 PUSH3 0x293 PUSH0 CODECOPY PUSH0 RETURN INVALID PUSH1 0x80 PUSH1 0x40 MSTORE CALLVALUE DUP1 ISZERO PUSH2 0xF JUMPI PUSH0 DUP1 REVERT JUMPDEST POP PUSH1 0x4 CALLDATASIZE LT PUSH2 0x14B JUMPI PUSH0 CALLDATALOAD PUSH1 0xE0 SHR DUP1 PUSH4 0x67469356 GT PUSH2 0xC1 JUMPI DUP1 PUSH4 0xA3EC138D GT PUSH2 0x7A JUMPI DUP1 PUSH4 0xA3EC138D EQ PUSH2 0x381 JUMPI DUP1 PUSH4 0xB2C63487 EQ PUSH2 0x3B3 JUMPI DUP1 PUSH4 0xD55EC9C1 EQ PUSH2 0x3D1 JUMPI DUP1 PUSH4 0xEAA37999 EQ PUSH2 0x401 JUMPI DUP1 PUSH4 0xF06D1090 EQ PUSH2 0x41F JUMPI DUP1 PUSH4 0xF2FDE38B EQ PUSH2 0x43D JUMPI PUSH2 0x14B JUMP JUMPDEST DUP1 PUSH4 0x67469356 EQ PUSH2 0x2E1 JUMPI DUP1 PUSH4 0x686CAF9E EQ PUSH2 0x2FF JUMPI DUP1 PUSH4 0x715018A6 EQ PUSH2 0x31D JUMPI DUP1 PUSH4 0x7C70458F EQ PUSH2 0x327 JUMPI DUP1 PUSH4 0x8DA5CB5B EQ PUSH2 0x345 JUMPI DUP1 PUSH4 0x8E7EA5B2 EQ PUSH2 0x363 JUMPI PUSH2 0x14B JUMP JUMPDEST DUP1 PUSH4 0x378A2178 GT PUSH2 0x113 JUMPI DUP1 PUSH4 0x378A2178 EQ PUSH2 0x21D JUMPI DUP1 PUSH4 0x38DB6DD3 EQ PUSH2 0x227 JUMPI DUP1 PUSH4 0x3FB2D578 EQ PUSH2 0x257 JUMPI DUP1 PUSH4 0x4DE17BCA EQ PUSH2 0x275 JUMPI DUP1 PUSH4 0x55880949 EQ PUSH2 0x293 JUMPI DUP1 PUSH4 0x609FF1BD EQ PUSH2 0x2C3 JUMPI PUSH2 0x14B JUMP JUMPDEST DUP1 PUSH4 0x121B93F EQ PUSH2 0x14F JUMPI DUP1 PUSH4 0x13CF08B EQ PUSH2 0x17F JUMPI DUP1 PUSH4 0x7FA315F EQ PUSH2 0x1B1 JUMPI DUP1 PUSH4 0x1181A490 EQ PUSH2 0x1CF JUMPI DUP1 PUSH4 0x373D6D5E EQ PUSH2 0x1ED JUMPI JUMPDEST PUSH0 DUP1 REVERT JUMPDEST PUSH2 0x169 PUSH1 0x4 DUP1 CALLDATASIZE SUB DUP2 ADD SWAP1 PUSH2 0x164 SWAP2 SWAP1 PUSH2 0x1E1E JUMP JUMPDEST PUSH2 0x459 JUMP JUMPDEST PUSH1 0x40 MLOAD PUSH2 0x176 SWAP2 SWAP1 PUSH2 0x1ED3 JUMP JUMPDEST PUSH1 0x40 MLOAD DUP1 SWAP2 SUB SWAP1 RETURN JUMPDEST PUSH2 0x199 PUSH1 0x4 DUP1 CALLDATASIZE SUB DUP2 ADD SWAP1 PUSH2 0x194 SWAP2 SWAP1 PUSH2 0x1E1E JUMP JUMPDEST PUSH2 0x617 JUMP JUMPDEST PUSH1 0x40 MLOAD PUSH2 0x1A8 SWAP4 SWAP3 SWAP2 SWAP1 PUSH2 0x1F41 JUMP JUMPDEST PUSH1 0x40 MLOAD DUP1 SWAP2 SUB SWAP1 RETURN JUMPDEST PUSH2 0x1B9 PUSH2 0x6F1 JUMP JUMPDEST PUSH1 0x40 MLOAD PUSH2 0x1C6 SWAP2 SWAP1 PUSH2 0x1ED3 JUMP JUMPDEST PUSH1 0x40 MLOAD DUP1 SWAP2 SUB SWAP1 RETURN JUMPDEST PUSH2 0x1D7 PUSH2 0x858 JUMP JUMPDEST PUSH1 0x40 MLOAD PUSH2 0x1E4 SWAP2 SWAP1 PUSH2 0x1FF0 JUMP JUMPDEST PUSH1 0x40 MLOAD DUP1 SWAP2 SUB SWAP1 RETURN JUMPDEST PUSH2 0x207 PUSH1 0x4 DUP1 CALLDATASIZE SUB DUP2 ADD SWAP1 PUSH2 0x202 SWAP2 SWAP1 PUSH2 0x206A JUMP JUMPDEST PUSH2 0x86B JUMP JUMPDEST PUSH1 0x40 MLOAD PUSH2 0x214 SWAP2 SWAP1 PUSH2 0x1ED3 JUMP JUMPDEST PUSH1 0x40 MLOAD DUP1 SWAP2 SUB SWAP1 RETURN JUMPDEST PUSH2 0x225 PUSH2 0xA30 JUMP JUMPDEST STOP JUMPDEST PUSH2 0x241 PUSH1 0x4 DUP1 CALLDATASIZE SUB DUP2 ADD SWAP1 PUSH2 0x23C SWAP2 SWAP1 PUSH2 0x20DF JUMP JUMPDEST PUSH2 0xAEA JUMP JUMPDEST PUSH1 0x40 MLOAD PUSH2 0x24E SWAP2 SWAP1 PUSH2 0x1ED3 JUMP JUMPDEST PUSH1 0x40 MLOAD DUP1 SWAP2 SUB SWAP1 RETURN JUMPDEST PUSH2 0x25F PUSH2 0xD32 JUMP JUMPDEST PUSH1 0x40 MLOAD PUSH2 0x26C SWAP2 SWAP1 PUSH2 0x2124 JUMP JUMPDEST PUSH1 0x40 MLOAD DUP1 SWAP2 SUB SWAP1 RETURN JUMPDEST PUSH2 0x27D PUSH2 0xD45 JUMP JUMPDEST PUSH1 0x40 MLOAD PUSH2 0x28A SWAP2 SWAP1 PUSH2 0x1ED3 JUMP JUMPDEST PUSH1 0x40 MLOAD DUP1 SWAP2 SUB SWAP1 RETURN JUMPDEST PUSH2 0x2AD PUSH1 0x4 DUP1 CALLDATASIZE SUB DUP2 ADD SWAP1 PUSH2 0x2A8 SWAP2 SWAP1 PUSH2 0x20DF JUMP JUMPDEST PUSH2 0xEC8 JUMP JUMPDEST PUSH1 0x40 MLOAD PUSH2 0x2BA SWAP2 SWAP1 PUSH2 0x1ED3 JUMP JUMPDEST PUSH1 0x40 MLOAD DUP1 SWAP2 SUB SWAP1 RETURN JUMPDEST PUSH2 0x2CB PUSH2 0xF71 JUMP JUMPDEST PUSH1 0x40 MLOAD PUSH2 0x2D8 SWAP2 SWAP1 PUSH2 0x213D JUMP JUMPDEST PUSH1 0x40 MLOAD DUP1 SWAP2 SUB SWAP1 RETURN JUMPDEST PUSH2 0x2E9 PUSH2 0xFF2 JUMP JUMPDEST PUSH1 0x40 MLOAD PUSH2 0x2F6 SWAP2 SWAP1 PUSH2 0x1ED3 JUMP JUMPDEST PUSH1 0x40 MLOAD DUP1 SWAP2 SUB SWAP1 RETURN JUMPDEST PUSH2 0x307 PUSH2 0x10C8 JUMP JUMPDEST PUSH1 0x40 MLOAD PUSH2 0x314 SWAP2 SWAP1 PUSH2 0x2124 JUMP JUMPDEST PUSH1 0x40 MLOAD DUP1 SWAP2 SUB SWAP1 RETURN JUMPDEST PUSH2 0x325 PUSH2 0x10DB JUMP JUMPDEST STOP JUMPDEST PUSH2 0x32F PUSH2 0x10EE JUMP JUMPDEST PUSH1 0x40 MLOAD PUSH2 0x33C SWAP2 SWAP1 PUSH2 0x2124 JUMP JUMPDEST PUSH1 0x40 MLOAD DUP1 SWAP2 SUB SWAP1 RETURN JUMPDEST PUSH2 0x34D PUSH2 0x1100 JUMP JUMPDEST PUSH1 0x40 MLOAD PUSH2 0x35A SWAP2 SWAP1 PUSH2 0x2156 JUMP JUMPDEST PUSH1 0x40 MLOAD DUP1 SWAP2 SUB SWAP1 RETURN JUMPDEST PUSH2 0x36B PUSH2 0x1127 JUMP JUMPDEST PUSH1 0x40 MLOAD PUSH2 0x378 SWAP2 SWAP1 PUSH2 0x2156 JUMP JUMPDEST PUSH1 0x40 MLOAD DUP1 SWAP2 SUB SWAP1 RETURN JUMPDEST PUSH2 0x39B PUSH1 0x4 DUP1 CALLDATASIZE SUB DUP2 ADD SWAP1 PUSH2 0x396 SWAP2 SWAP1 PUSH2 0x20DF JUMP JUMPDEST PUSH2 0x117E JUMP JUMPDEST PUSH1 0x40 MLOAD PUSH2 0x3AA SWAP4 SWAP3 SWAP2 SWAP1 PUSH2 0x216F JUMP JUMPDEST PUSH1 0x40 MLOAD DUP1 SWAP2 SUB SWAP1 RETURN JUMPDEST PUSH2 0x3BB PUSH2 0x11BC JUMP JUMPDEST PUSH1 0x40 MLOAD PUSH2 0x3C8 SWAP2 SWAP1 PUSH2 0x1ED3 JUMP JUMPDEST PUSH1 0x40 MLOAD DUP1 SWAP2 SUB SWAP1 RETURN JUMPDEST PUSH2 0x3EB PUSH1 0x4 DUP1 CALLDATASIZE SUB DUP2 ADD SWAP1 PUSH2 0x3E6 SWAP2 SWAP1 PUSH2 0x21F9 JUMP JUMPDEST PUSH2 0x1315 JUMP JUMPDEST PUSH1 0x40 MLOAD PUSH2 0x3F8 SWAP2 SWAP1 PUSH2 0x1ED3 JUMP JUMPDEST PUSH1 0x40 MLOAD DUP1 SWAP2 SUB SWAP1 RETURN JUMPDEST PUSH2 0x409 PUSH2 0x15F4 JUMP JUMPDEST PUSH1 0x40 MLOAD PUSH2 0x416 SWAP2 SWAP1 PUSH2 0x1ED3 JUMP JUMPDEST PUSH1 0x40 MLOAD DUP1 SWAP2 SUB SWAP1 RETURN JUMPDEST PUSH2 0x427 PUSH2 0x1779 JUMP JUMPDEST PUSH1 0x40 MLOAD PUSH2 0x434 SWAP2 SWAP1 PUSH2 0x1FF0 JUMP JUMPDEST PUSH1 0x40 MLOAD DUP1 SWAP2 SUB SWAP1 RETURN JUMPDEST PUSH2 0x457 PUSH1 0x4 DUP1 CALLDATASIZE SUB DUP2 ADD SWAP1 PUSH2 0x452 SWAP2 SWAP1 PUSH2 0x20DF JUMP JUMPDEST PUSH2 0x178A JUMP JUMPDEST STOP JUMPDEST PUSH1 0x60 PUSH1 0x4 PUSH1 0x2 SWAP1 SLOAD SWAP1 PUSH2 0x100 EXP SWAP1 DIV PUSH1 0xFF AND ISZERO PUSH2 0x5D9 JUMPI PUSH0 PUSH1 0x2 PUSH0 CALLER PUSH20 0xFFFFFFFFFFFFFFFFFFFFFFFFFFFFFFFFFFFFFFFF AND PUSH20 0xFFFFFFFFFFFFFFFFFFFFFFFFFFFFFFFFFFFFFFFF AND DUP2 MSTORE PUSH1 0x20 ADD SWAP1 DUP2 MSTORE PUSH1 0x20 ADD PUSH0 KECCAK256 SWAP1 POP DUP1 PUSH0 ADD PUSH1 0x1 SWAP1 SLOAD SWAP1 PUSH2 0x100 EXP SWAP1 DIV PUSH1 0xFF AND ISZERO PUSH2 0x501 JUMPI PUSH1 0x40 MLOAD PUSH32 0x8C379A000000000000000000000000000000000000000000000000000000000 DUP2 MSTORE PUSH1 0x4 ADD PUSH2 0x4F8 SWAP1 PUSH2 0x228E JUMP JUMPDEST PUSH1 0x40 MLOAD DUP1 SWAP2 SUB SWAP1 REVERT JUMPDEST PUSH1 0x1 DUP2 PUSH0 ADD PUSH1 0x1 PUSH2 0x100 EXP DUP2 SLOAD DUP2 PUSH1 0xFF MUL NOT AND SWAP1 DUP4 ISZERO ISZERO MUL OR SWAP1 SSTORE POP DUP3 DUP2 PUSH1 0x1 ADD DUP2 SWAP1 SSTORE POP PUSH1 0x3 DUP4 DUP2 SLOAD DUP2 LT PUSH2 0x53A JUMPI PUSH2 0x539 PUSH2 0x22AC JUMP JUMPDEST JUMPDEST SWAP1 PUSH0 MSTORE PUSH1 0x20 PUSH0 KECCAK256 SWAP1 PUSH1 0x3 MUL ADD PUSH1 0x2 ADD PUSH0 DUP2 SLOAD DUP1 SWAP3 SWAP2 SWAP1 PUSH2 0x559 SWAP1 PUSH2 0x2306 JUMP JUMPDEST SWAP2 SWAP1 POP SSTORE POP PUSH32 0x4D99B957A2BC29A30EBD96A7BE8E68FE50A3C701DB28A91436490B7D53870CA4 CALLER DUP3 PUSH1 0x1 ADD SLOAD PUSH1 0x40 MLOAD PUSH2 0x593 SWAP3 SWAP2 SWAP1 PUSH2 0x234D JUMP JUMPDEST PUSH1 0x40 MLOAD DUP1 SWAP2 SUB SWAP1 LOG1 PUSH1 0x40 MLOAD DUP1 PUSH1 0x40 ADD PUSH1 0x40 MSTORE DUP1 PUSH1 0x5 DUP2 MSTORE PUSH1 0x20 ADD PUSH32 0x566F746564000000000000000000000000000000000000000000000000000000 DUP2 MSTORE POP SWAP2 POP POP PUSH2 0x612 JUMP JUMPDEST PUSH1 0x40 MLOAD DUP1 PUSH1 0x40 ADD PUSH1 0x40 MSTORE DUP1 PUSH1 0x12 DUP2 MSTORE PUSH1 0x20 ADD PUSH32 0x566F7465206E6F7420617661696C61626C650000000000000000000000000000 DUP2 MSTORE POP SWAP1 POP JUMPDEST SWAP2 SWAP1 POP JUMP JUMPDEST PUSH1 0x3 DUP2 DUP2 SLOAD DUP2 LT PUSH2 0x626 JUMPI PUSH0 DUP1 REVERT JUMPDEST SWAP1 PUSH0 MSTORE PUSH1 0x20 PUSH0 KECCAK256 SWAP1 PUSH1 0x3 MUL ADD PUSH0 SWAP2 POP SWAP1 POP DUP1 PUSH0 ADD PUSH0 SWAP1 SLOAD SWAP1 PUSH2 0x100 EXP SWAP1 DIV PUSH20 0xFFFFFFFFFFFFFFFFFFFFFFFFFFFFFFFFFFFFFFFF AND SWAP1 DUP1 PUSH1 0x1 ADD DUP1 SLOAD PUSH2 0x66A SWAP1 PUSH2 0x23A1 JUMP JUMPDEST DUP1 PUSH1 0x1F ADD PUSH1 0x20 DUP1 SWAP2 DIV MUL PUSH1 0x20 ADD PUSH1 0x40 MLOAD SWAP1 DUP2 ADD PUSH1 0x40 MSTORE DUP1 SWAP3 SWAP2 SWAP1 DUP2 DUP2 MSTORE PUSH1 0x20 ADD DUP3 DUP1 SLOAD PUSH2 0x696 SWAP1 PUSH2 0x23A1 JUMP JUMPDEST DUP1 ISZERO PUSH2 0x6E1 JUMPI DUP1 PUSH1 0x1F LT PUSH2 0x6B8 JUMPI PUSH2 0x100 DUP1 DUP4 SLOAD DIV MUL DUP4 MSTORE SWAP2 PUSH1 0x20 ADD SWAP2 PUSH2 0x6E1 JUMP JUMPDEST DUP3 ADD SWAP2 SWAP1 PUSH0 MSTORE PUSH1 0x20 PUSH0 KECCAK256 SWAP1 JUMPDEST DUP2 SLOAD DUP2 MSTORE SWAP1 PUSH1 0x1 ADD SWAP1 PUSH1 0x20 ADD DUP1 DUP4 GT PUSH2 0x6C4 JUMPI DUP3 SWAP1 SUB PUSH1 0x1F AND DUP3 ADD SWAP2 JUMPDEST POP POP POP POP POP SWAP1 DUP1 PUSH1 0x2 ADD SLOAD SWAP1 POP DUP4 JUMP JUMPDEST PUSH1 0x60 PUSH1 0x1 PUSH0 SWAP1 SLOAD SWAP1 PUSH2 0x100 EXP SWAP1 DIV PUSH20 0xFFFFFFFFFFFFFFFFFFFFFFFFFFFFFFFFFFFFFFFF AND PUSH20 0xFFFFFFFFFFFFFFFFFFFFFFFFFFFFFFFFFFFFFFFF AND CALLER PUSH20 0xFFFFFFFFFFFFFFFFFFFFFFFFFFFFFFFFFFFFFFFF AND SUB PUSH2 0x839 JUMPI PUSH0 PUSH1 0x4 PUSH1 0x1 PUSH2 0x100 EXP DUP2 SLOAD DUP2 PUSH1 0xFF MUL NOT AND SWAP1 DUP4 ISZERO ISZERO MUL OR SWAP1 SSTORE POP PUSH1 0x4 PUSH1 0x3 SWAP1 SLOAD SWAP1 PUSH2 0x100 EXP SWAP1 DIV PUSH1 0xFF AND PUSH1 0x4 DUP1 PUSH2 0x100 EXP DUP2 SLOAD DUP2 PUSH1 0xFF MUL NOT AND SWAP1 DUP4 PUSH1 0x5 DUP2 GT ISZERO PUSH2 0x794 JUMPI PUSH2 0x793 PUSH2 0x1F7D JUMP JUMPDEST JUMPDEST MUL OR SWAP1 SSTORE POP PUSH1 0x2 PUSH1 0x4 PUSH1 0x3 PUSH2 0x100 EXP DUP2 SLOAD DUP2 PUSH1 0xFF MUL NOT AND SWAP1 DUP4 PUSH1 0x5 DUP2 GT ISZERO PUSH2 0x7BF JUMPI PUSH2 0x7BE PUSH2 0x1F7D JUMP JUMPDEST JUMPDEST MUL OR SWAP1 SSTORE POP PUSH32 0xA97A4EE45751E2ABF3E4FC8946939630B11B371EA8AE39CCDC3056E98F5CC3F PUSH1 0x4 DUP1 SLOAD SWAP1 PUSH2 0x100 EXP SWAP1 DIV PUSH1 0xFF AND PUSH1 0x4 PUSH1 0x3 SWAP1 SLOAD SWAP1 PUSH2 0x100 EXP SWAP1 DIV PUSH1 0xFF AND PUSH1 0x40 MLOAD PUSH2 0x811 SWAP3 SWAP2 SWAP1 PUSH2 0x23D1 JUMP JUMPDEST PUSH1 0x40 MLOAD DUP1 SWAP2 SUB SWAP1 LOG1 PUSH1 0x40 MLOAD DUP1 PUSH1 0x60 ADD PUSH1 0x40 MSTORE DUP1 PUSH1 0x28 DUP2 MSTORE PUSH1 0x20 ADD PUSH2 0x2B06 PUSH1 0x28 SWAP2 CODECOPY SWAP1 POP PUSH2 0x855 JUMP JUMPDEST PUSH1 0x40 MLOAD DUP1 PUSH1 0x60 ADD PUSH1 0x40 MSTORE DUP1 PUSH1 0x33 DUP2 MSTORE PUSH1 0x20 ADD PUSH2 0x2B77 PUSH1 0x33 SWAP2 CODECOPY SWAP1 POP JUMPDEST SWAP1 JUMP JUMPDEST PUSH1 0x4 PUSH1 0x3 SWAP1 SLOAD SWAP1 PUSH2 0x100 EXP SWAP1 DIV PUSH1 0xFF AND DUP2 JUMP JUMPDEST PUSH1 0x60 PUSH1 0x4 PUSH1 0x1 SWAP1 SLOAD SWAP1 PUSH2 0x100 EXP SWAP1 DIV PUSH1 0xFF AND ISZERO PUSH2 0xA0E JUMPI PUSH0 PUSH1 0x40 MLOAD DUP1 PUSH1 0x60 ADD PUSH1 0x40 MSTORE DUP1 CALLER PUSH20 0xFFFFFFFFFFFFFFFFFFFFFFFFFFFFFFFFFFFFFFFF AND DUP2 MSTORE PUSH1 0x20 ADD DUP6 DUP6 DUP1 DUP1 PUSH1 0x1F ADD PUSH1 0x20 DUP1 SWAP2 DIV MUL PUSH1 0x20 ADD PUSH1 0x40 MLOAD SWAP1 DUP2 ADD PUSH1 0x40 MSTORE DUP1 SWAP4 SWAP3 SWAP2 SWAP1 DUP2 DUP2 MSTORE PUSH1 0x20 ADD DUP4 DUP4 DUP1 DUP3 DUP5 CALLDATACOPY PUSH0 DUP2 DUP5 ADD MSTORE PUSH1 0x1F NOT PUSH1 0x1F DUP3 ADD AND SWAP1 POP DUP1 DUP4 ADD SWAP3 POP POP POP POP POP POP POP DUP2 MSTORE PUSH1 0x20 ADD PUSH0 DUP2 MSTORE POP SWAP1 POP PUSH1 0x3 DUP2 SWAP1 DUP1 PUSH1 0x1 DUP2 SLOAD ADD DUP1 DUP3 SSTORE DUP1 SWAP2 POP POP PUSH1 0x1 SWAP1 SUB SWAP1 PUSH0 MSTORE PUSH1 0x20 PUSH0 KECCAK256 SWAP1 PUSH1 0x3 MUL ADD PUSH0 SWAP1 SWAP2 SWAP1 SWAP2 SWAP1 SWAP2 POP PUSH0 DUP3 ADD MLOAD DUP2 PUSH0 ADD PUSH0 PUSH2 0x100 EXP DUP2 SLOAD DUP2 PUSH20 0xFFFFFFFFFFFFFFFFFFFFFFFFFFFFFFFFFFFFFFFF MUL NOT AND SWAP1 DUP4 PUSH20 0xFFFFFFFFFFFFFFFFFFFFFFFFFFFFFFFFFFFFFFFF AND MUL OR SWAP1 SSTORE POP PUSH1 0x20 DUP3 ADD MLOAD DUP2 PUSH1 0x1 ADD SWAP1 DUP2 PUSH2 0x97B SWAP2 SWAP1 PUSH2 0x25C2 JUMP JUMPDEST POP PUSH1 0x40 DUP3 ADD MLOAD DUP2 PUSH1 0x2 ADD SSTORE POP POP PUSH32 0x92E393E9B54E2F801D3EA4BEB0C5E71A21CC34A5D34B77D0FB8A3AA1650DC18F PUSH1 0x1 PUSH1 0x3 DUP1 SLOAD SWAP1 POP PUSH2 0x9BB SWAP2 SWAP1 PUSH2 0x2691 JUMP JUMPDEST PUSH1 0x40 MLOAD PUSH2 0x9C8 SWAP2 SWAP1 PUSH2 0x213D JUMP JUMPDEST PUSH1 0x40 MLOAD DUP1 SWAP2 SUB SWAP1 LOG1 PUSH1 0x40 MLOAD DUP1 PUSH1 0x40 ADD PUSH1 0x40 MSTORE DUP1 PUSH1 0x12 DUP2 MSTORE PUSH1 0x20 ADD PUSH32 0x50726F706F73616C207375626D69747465640000000000000000000000000000 DUP2 MSTORE POP SWAP2 POP POP PUSH2 0xA2A JUMP JUMPDEST PUSH1 0x40 MLOAD DUP1 PUSH1 0x60 ADD PUSH1 0x40 MSTORE DUP1 PUSH1 0x21 DUP2 MSTORE PUSH1 0x20 ADD PUSH2 0x2B56 PUSH1 0x21 SWAP2 CODECOPY SWAP1 POP JUMPDEST SWAP3 SWAP2 POP POP JUMP JUMPDEST PUSH1 0x4 PUSH1 0x3 SWAP1 SLOAD SWAP1 PUSH2 0x100 EXP SWAP1 DIV PUSH1 0xFF AND PUSH1 0x4 DUP1 PUSH2 0x100 EXP DUP2 SLOAD DUP2 PUSH1 0xFF MUL NOT AND SWAP1 DUP4 PUSH1 0x5 DUP2 GT ISZERO PUSH2 0xA63 JUMPI PUSH2 0xA62 PUSH2 0x1F7D JUMP JUMPDEST JUMPDEST MUL OR SWAP1 SSTORE POP PUSH1 0x5 PUSH1 0x4 PUSH1 0x3 PUSH2 0x100 EXP DUP2 SLOAD DUP2 PUSH1 0xFF MUL NOT AND SWAP1 DUP4 PUSH1 0x5 DUP2 GT ISZERO PUSH2 0xA8E JUMPI PUSH2 0xA8D PUSH2 0x1F7D JUMP JUMPDEST JUMPDEST MUL OR SWAP1 SSTORE POP PUSH32 0xA97A4EE45751E2ABF3E4FC8946939630B11B371EA8AE39CCDC3056E98F5CC3F PUSH1 0x4 DUP1 SLOAD SWAP1 PUSH2 0x100 EXP SWAP1 DIV PUSH1 0xFF AND PUSH1 0x4 PUSH1 0x3 SWAP1 SLOAD SWAP1 PUSH2 0x100 EXP SWAP1 DIV PUSH1 0xFF AND PUSH1 0x40 MLOAD PUSH2 0xAE0 SWAP3 SWAP2 SWAP1 PUSH2 0x23D1 JUMP JUMPDEST PUSH1 0x40 MLOAD DUP1 SWAP2 SUB SWAP1 LOG1 JUMP JUMPDEST PUSH1 0x60 PUSH1 0x1 ISZERO ISZERO PUSH1 0x2 PUSH0 CALLER PUSH20 0xFFFFFFFFFFFFFFFFFFFFFFFFFFFFFFFFFFFFFFFF AND PUSH20 0xFFFFFFFFFFFFFFFFFFFFFFFFFFFFFFFFFFFFFFFF AND DUP2 MSTORE PUSH1 0x20 ADD SWAP1 DUP2 MSTORE PUSH1 0x20 ADD PUSH0 KECCAK256 PUSH0 ADD PUSH0 SWAP1 SLOAD SWAP1 PUSH2 0x100 EXP SWAP1 DIV PUSH1 0xFF AND ISZERO ISZERO SUB PUSH2 0xB7E JUMPI PUSH1 0x40 MLOAD PUSH32 0x8C379A000000000000000000000000000000000000000000000000000000000 DUP2 MSTORE PUSH1 0x4 ADD PUSH2 0xB75 SWAP1 PUSH2 0x270E JUMP JUMPDEST PUSH1 0x40 MLOAD DUP1 SWAP2 SUB SWAP1 REVERT JUMPDEST PUSH1 0x1 PUSH0 SWAP1 SLOAD SWAP1 PUSH2 0x100 EXP SWAP1 DIV PUSH20 0xFFFFFFFFFFFFFFFFFFFFFFFFFFFFFFFFFFFFFFFF AND PUSH20 0xFFFFFFFFFFFFFFFFFFFFFFFFFFFFFFFFFFFFFFFF AND CALLER PUSH20 0xFFFFFFFFFFFFFFFFFFFFFFFFFFFFFFFFFFFFFFFF AND SUB PUSH2 0xCF4 JUMPI PUSH1 0x1 PUSH1 0x2 PUSH0 DUP5 PUSH20 0xFFFFFFFFFFFFFFFFFFFFFFFFFFFFFFFFFFFFFFFF AND PUSH20 0xFFFFFFFFFFFFFFFFFFFFFFFFFFFFFFFFFFFFFFFF AND DUP2 MSTORE PUSH1 0x20 ADD SWAP1 DUP2 MSTORE PUSH1 0x20 ADD PUSH0 KECCAK256 PUSH0 ADD PUSH0 PUSH2 0x100 EXP DUP2 SLOAD DUP2 PUSH1 0xFF MUL NOT AND SWAP1 DUP4 ISZERO ISZERO MUL OR SWAP1 SSTORE POP PUSH0 PUSH1 0x2 PUSH0 DUP5 PUSH20 0xFFFFFFFFFFFFFFFFFFFFFFFFFFFFFFFFFFFFFFFF AND PUSH20 0xFFFFFFFFFFFFFFFFFFFFFFFFFFFFFFFFFFFFFFFF AND DUP2 MSTORE PUSH1 0x20 ADD SWAP1 DUP2 MSTORE PUSH1 0x20 ADD PUSH0 KECCAK256 PUSH0 ADD PUSH1 0x1 PUSH2 0x100 EXP DUP2 SLOAD DUP2 PUSH1 0xFF MUL NOT AND SWAP1 DUP4 ISZERO ISZERO MUL OR SWAP1 SSTORE POP PUSH32 0xB6BE2187D059CC2A55FE29E0E503B566E1E0F8C8780096E185429350ACFFD3DD DUP3 PUSH1 0x40 MLOAD PUSH2 0xCAF SWAP2 SWAP1 PUSH2 0x2156 JUMP JUMPDEST PUSH1 0x40 MLOAD DUP1 SWAP2 SUB SWAP1 LOG1 PUSH1 0x40 MLOAD DUP1 PUSH1 0x40 ADD PUSH1 0x40 MSTORE DUP1 PUSH1 0xB DUP2 MSTORE PUSH1 0x20 ADD PUSH32 0x566F746572206164646564000000000000000000000000000000000000000000 DUP2 MSTORE POP SWAP1 POP PUSH2 0xD2D JUMP JUMPDEST PUSH1 0x40 MLOAD DUP1 PUSH1 0x40 ADD PUSH1 0x40 MSTORE DUP1 PUSH1 0x1B DUP2 MSTORE PUSH1 0x20 ADD PUSH32 0x496D706F737369626C6520746F206164642074686520766F7465720000000000 DUP2 MSTORE POP SWAP1 POP JUMPDEST SWAP2 SWAP1 POP JUMP JUMPDEST PUSH1 0x4 PUSH1 0x1 SWAP1 SLOAD SWAP1 PUSH2 0x100 EXP SWAP1 DIV PUSH1 0xFF AND DUP2 JUMP JUMPDEST PUSH1 0x60 PUSH1 0x1 PUSH0 SWAP1 SLOAD SWAP1 PUSH2 0x100 EXP SWAP1 DIV PUSH20 0xFFFFFFFFFFFFFFFFFFFFFFFFFFFFFFFFFFFFFFFF AND PUSH20 0xFFFFFFFFFFFFFFFFFFFFFFFFFFFFFFFFFFFFFFFF AND CALLER PUSH20 0xFFFFFFFFFFFFFFFFFFFFFFFFFFFFFFFFFFFFFFFF AND SUB PUSH2 0xEA9 JUMPI PUSH0 PUSH1 0x4 PUSH1 0x2 PUSH2 0x100 EXP DUP2 SLOAD DUP2 PUSH1 0xFF MUL NOT AND SWAP1 DUP4 ISZERO ISZERO MUL OR SWAP1 SSTORE POP PUSH1 0x4 PUSH1 0x3 SWAP1 SLOAD SWAP1 PUSH2 0x100 EXP SWAP1 DIV PUSH1 0xFF AND PUSH1 0x4 DUP1 PUSH2 0x100 EXP DUP2 SLOAD DUP2 PUSH1 0xFF MUL NOT AND SWAP1 DUP4 PUSH1 0x5 DUP2 GT ISZERO PUSH2 0xDE8 JUMPI PUSH2 0xDE7 PUSH2 0x1F7D JUMP JUMPDEST JUMPDEST MUL OR SWAP1 SSTORE POP PUSH1 0x4 DUP1 PUSH1 0x3 PUSH2 0x100 EXP DUP2 SLOAD DUP2 PUSH1 0xFF MUL NOT AND SWAP1 DUP4 PUSH1 0x5 DUP2 GT ISZERO PUSH2 0xE12 JUMPI PUSH2 0xE11 PUSH2 0x1F7D JUMP JUMPDEST JUMPDEST MUL OR SWAP1 SSTORE POP PUSH32 0xA97A4EE45751E2ABF3E4FC8946939630B11B371EA8AE39CCDC3056E98F5CC3F PUSH1 0x4 DUP1 SLOAD SWAP1 PUSH2 0x100 EXP SWAP1 DIV PUSH1 0xFF AND PUSH1 0x4 PUSH1 0x3 SWAP1 SLOAD SWAP1 PUSH2 0x100 EXP SWAP1 DIV PUSH1 0xFF AND PUSH1 0x40 MLOAD PUSH2 0xE64 SWAP3 SWAP2 SWAP1 PUSH2 0x23D1 JUMP JUMPDEST PUSH1 0x40 MLOAD DUP1 SWAP2 SUB SWAP1 LOG1 PUSH1 0x40 MLOAD DUP1 PUSH1 0x40 ADD PUSH1 0x40 MSTORE DUP1 PUSH1 0x20 DUP2 MSTORE PUSH1 0x20 ADD PUSH32 0x54686520766F74696E672073657373696F6E206973206E6F77206F70656E6564 DUP2 MSTORE POP SWAP1 POP PUSH2 0xEC5 JUMP JUMPDEST PUSH1 0x40 MLOAD DUP1 PUSH1 0x60 ADD PUSH1 0x40 MSTORE DUP1 PUSH1 0x2B DUP2 MSTORE PUSH1 0x20 ADD PUSH2 0x2C06 PUSH1 0x2B SWAP2 CODECOPY SWAP1 POP JUMPDEST SWAP1 JUMP JUMPDEST PUSH1 0x60 PUSH0 PUSH1 0x2 PUSH0 DUP5 PUSH20 0xFFFFFFFFFFFFFFFFFFFFFFFFFFFFFFFFFFFFFFFF AND PUSH20 0xFFFFFFFFFFFFFFFFFFFFFFFFFFFFFFFFFFFFFFFF AND DUP2 MSTORE PUSH1 0x20 ADD SWAP1 DUP2 MSTORE PUSH1 0x20 ADD PUSH0 KECCAK256 PUSH1 0x1 ADD SLOAD SWAP1 POP PUSH0 PUSH1 0x3 DUP3 DUP2 SLOAD DUP2 LT PUSH2 0xF23 JUMPI PUSH2 0xF22 PUSH2 0x22AC JUMP JUMPDEST JUMPDEST SWAP1 PUSH0 MSTORE PUSH1 0x20 PUSH0 KECCAK256 SWAP1 PUSH1 0x3 MUL ADD PUSH1 0x1 ADD SWAP1 POP PUSH2 0xF3D DUP5 PUSH2 0x180E JUMP JUMPDEST PUSH2 0xF46 DUP4 PUSH2 0x183B JUMP JUMPDEST DUP3 PUSH1 0x40 MLOAD PUSH1 0x20 ADD PUSH2 0xF59 SWAP4 SWAP3 SWAP2 SWAP1 PUSH2 0x286A JUMP JUMPDEST PUSH1 0x40 MLOAD PUSH1 0x20 DUP2 DUP4 SUB SUB DUP2 MSTORE SWAP1 PUSH1 0x40 MSTORE SWAP3 POP POP POP SWAP2 SWAP1 POP JUMP JUMPDEST PUSH0 DUP1 PUSH0 SWAP1 POP PUSH0 JUMPDEST PUSH1 0x3 DUP1 SLOAD SWAP1 POP DUP2 LT ISZERO PUSH2 0xFED JUMPI DUP2 PUSH1 0x3 DUP3 DUP2 SLOAD DUP2 LT PUSH2 0xF9A JUMPI PUSH2 0xF99 PUSH2 0x22AC JUMP JUMPDEST JUMPDEST SWAP1 PUSH0 MSTORE PUSH1 0x20 PUSH0 KECCAK256 SWAP1 PUSH1 0x3 MUL ADD PUSH1 0x2 ADD SLOAD GT ISZERO PUSH2 0xFDA JUMPI PUSH1 0x3 DUP2 DUP2 SLOAD DUP2 LT PUSH2 0xFC4 JUMPI PUSH2 0xFC3 PUSH2 0x22AC JUMP JUMPDEST JUMPDEST SWAP1 PUSH0 MSTORE PUSH1 0x20 PUSH0 KECCAK256 SWAP1 PUSH1 0x3 MUL ADD PUSH1 0x2 ADD SLOAD SWAP2 POP DUP1 SWAP3 POP JUMPDEST DUP1 DUP1 PUSH2 0xFE5 SWAP1 PUSH2 0x2306 JUMP JUMPDEST SWAP2 POP POP PUSH2 0xF78 JUMP JUMPDEST POP POP SWAP1 JUMP JUMPDEST PUSH1 0x60 PUSH1 0x4 PUSH1 0x2 SWAP1 SLOAD SWAP1 PUSH2 0x100 EXP SWAP1 DIV PUSH1 0xFF AND DUP1 ISZERO PUSH2 0x1014 JUMPI POP PUSH0 PUSH1 0x3 DUP1 SLOAD SWAP1 POP GT JUMPDEST ISZERO PUSH2 0x108D JUMPI PUSH0 JUMPDEST PUSH1 0x3 DUP1 SLOAD SWAP1 POP DUP2 LT ISZERO PUSH2 0x108B JUMPI DUP2 PUSH2 0x1032 DUP3 PUSH2 0x183B JUMP JUMPDEST PUSH1 0x3 DUP4 DUP2 SLOAD DUP2 LT PUSH2 0x1046 JUMPI PUSH2 0x1045 PUSH2 0x22AC JUMP JUMPDEST JUMPDEST SWAP1 PUSH0 MSTORE PUSH1 0x20 PUSH0 KECCAK256 SWAP1 PUSH1 0x3 MUL ADD PUSH1 0x1 ADD PUSH1 0x40 MLOAD PUSH1 0x20 ADD PUSH2 0x1067 SWAP4 SWAP3 SWAP2 SWAP1 PUSH2 0x29B9 JUMP JUMPDEST PUSH1 0x40 MLOAD PUSH1 0x20 DUP2 DUP4 SUB SUB DUP2 MSTORE SWAP1 PUSH1 0x40 MSTORE SWAP2 POP DUP1 DUP1 PUSH2 0x1083 SWAP1 PUSH2 0x2306 JUMP JUMPDEST SWAP2 POP POP PUSH2 0x101B JUMP JUMPDEST POP JUMPDEST PUSH1 0x40 MLOAD DUP1 PUSH1 0x40 ADD PUSH1 0x40 MSTORE DUP1 PUSH1 0x16 DUP2 MSTORE PUSH1 0x20 ADD PUSH32 0x4E6F2070726F706F73616C207375626D69747465642E00000000000000000000 DUP2 MSTORE POP SWAP1 POP SWAP1 JUMP JUMPDEST PUSH1 0x4 PUSH1 0x2 SWAP1 SLOAD SWAP1 PUSH2 0x100 EXP SWAP1 DIV PUSH1 0xFF AND DUP2 JUMP JUMPDEST PUSH2 0x10E3 PUSH2 0x1905 JUMP JUMPDEST PUSH2 0x10EC PUSH0 PUSH2 0x198C JUMP JUMPDEST JUMP JUMPDEST PUSH1 0x4 PUSH0 SWAP1 SLOAD SWAP1 PUSH2 0x100 EXP SWAP1 DIV PUSH1 0xFF AND DUP2 JUMP JUMPDEST PUSH0 DUP1 PUSH0 SWAP1 SLOAD SWAP1 PUSH2 0x100 EXP SWAP1 DIV PUSH20 0xFFFFFFFFFFFFFFFFFFFFFFFFFFFFFFFFFFFFFFFF AND SWAP1 POP SWAP1 JUMP JUMPDEST PUSH0 PUSH1 0x3 PUSH2 0x1132 PUSH2 0xF71 JUMP JUMPDEST DUP2 SLOAD DUP2 LT PUSH2 0x1143 JUMPI PUSH2 0x1142 PUSH2 0x22AC JUMP JUMPDEST JUMPDEST SWAP1 PUSH0 MSTORE PUSH1 0x20 PUSH0 KECCAK256 SWAP1 PUSH1 0x3 MUL ADD PUSH0 ADD PUSH0 SWAP1 SLOAD SWAP1 PUSH2 0x100 EXP SWAP1 DIV PUSH20 0xFFFFFFFFFFFFFFFFFFFFFFFFFFFFFFFFFFFFFFFF AND SWAP1 POP PUSH2 0x117B PUSH2 0xA30 JUMP JUMPDEST SWAP1 JUMP JUMPDEST PUSH1 0x2 PUSH1 0x20 MSTORE DUP1 PUSH0 MSTORE PUSH1 0x40 PUSH0 KECCAK256 PUSH0 SWAP2 POP SWAP1 POP DUP1 PUSH0 ADD PUSH0 SWAP1 SLOAD SWAP1 PUSH2 0x100 EXP SWAP1 DIV PUSH1 0xFF AND SWAP1 DUP1 PUSH0 ADD PUSH1 0x1 SWAP1 SLOAD SWAP1 PUSH2 0x100 EXP SWAP1 DIV PUSH1 0xFF AND SWAP1 DUP1 PUSH1 0x1 ADD SLOAD SWAP1 POP DUP4 JUMP JUMPDEST PUSH1 0x60 PUSH1 0x1 PUSH0 SWAP1 SLOAD SWAP1 PUSH2 0x100 EXP SWAP1 DIV PUSH20 0xFFFFFFFFFFFFFFFFFFFFFFFFFFFFFFFFFFFFFFFF AND PUSH20 0xFFFFFFFFFFFFFFFFFFFFFFFFFFFFFFFFFFFFFFFF AND CALLER PUSH20 0xFFFFFFFFFFFFFFFFFFFFFFFFFFFFFFFFFFFFFFFF AND SUB PUSH2 0x12F6 JUMPI PUSH1 0x1 PUSH1 0x4 PUSH1 0x1 PUSH2 0x100 EXP DUP2 SLOAD DUP2 PUSH1 0xFF MUL NOT AND SWAP1 DUP4 ISZERO ISZERO MUL OR SWAP1 SSTORE POP PUSH0 PUSH1 0x4 DUP1 PUSH2 0x100 EXP DUP2 SLOAD DUP2 PUSH1 0xFF MUL NOT AND SWAP1 DUP4 PUSH1 0x5 DUP2 GT ISZERO PUSH2 0x1251 JUMPI PUSH2 0x1250 PUSH2 0x1F7D JUMP JUMPDEST JUMPDEST MUL OR SWAP1 SSTORE POP PUSH1 0x1 PUSH1 0x4 PUSH1 0x3 PUSH2 0x100 EXP DUP2 SLOAD DUP2 PUSH1 0xFF MUL NOT AND SWAP1 DUP4 PUSH1 0x5 DUP2 GT ISZERO PUSH2 0x127C JUMPI PUSH2 0x127B PUSH2 0x1F7D JUMP JUMPDEST JUMPDEST MUL OR SWAP1 SSTORE POP PUSH32 0xA97A4EE45751E2ABF3E4FC8946939630B11B371EA8AE39CCDC3056E98F5CC3F PUSH1 0x4 DUP1 SLOAD SWAP1 PUSH2 0x100 EXP SWAP1 DIV PUSH1 0xFF AND PUSH1 0x4 PUSH1 0x3 SWAP1 SLOAD SWAP1 PUSH2 0x100 EXP SWAP1 DIV PUSH1 0xFF AND PUSH1 0x40 MLOAD PUSH2 0x12CE SWAP3 SWAP2 SWAP1 PUSH2 0x23D1 JUMP JUMPDEST PUSH1 0x40 MLOAD DUP1 SWAP2 SUB SWAP1 LOG1 PUSH1 0x40 MLOAD DUP1 PUSH1 0x60 ADD PUSH1 0x40 MSTORE DUP1 PUSH1 0x28 DUP2 MSTORE PUSH1 0x20 ADD PUSH2 0x2B2E PUSH1 0x28 SWAP2 CODECOPY SWAP1 POP PUSH2 0x1312 JUMP JUMPDEST PUSH1 0x40 MLOAD DUP1 PUSH1 0x60 ADD PUSH1 0x40 MSTORE DUP1 PUSH1 0x32 DUP2 MSTORE PUSH1 0x20 ADD PUSH2 0x2BAA PUSH1 0x32 SWAP2 CODECOPY SWAP1 POP JUMPDEST SWAP1 JUMP JUMPDEST PUSH1 0x60 PUSH1 0x1 ISZERO ISZERO PUSH1 0x2 PUSH0 CALLER PUSH20 0xFFFFFFFFFFFFFFFFFFFFFFFFFFFFFFFFFFFFFFFF AND PUSH20 0xFFFFFFFFFFFFFFFFFFFFFFFFFFFFFFFFFFFFFFFF AND DUP2 MSTORE PUSH1 0x20 ADD SWAP1 DUP2 MSTORE PUSH1 0x20 ADD PUSH0 KECCAK256 PUSH0 ADD PUSH0 SWAP1 SLOAD SWAP1 PUSH2 0x100 EXP SWAP1 DIV PUSH1 0xFF AND ISZERO ISZERO SUB PUSH2 0x13A9 JUMPI PUSH1 0x40 MLOAD PUSH32 0x8C379A000000000000000000000000000000000000000000000000000000000 DUP2 MSTORE PUSH1 0x4 ADD PUSH2 0x13A0 SWAP1 PUSH2 0x270E JUMP JUMPDEST PUSH1 0x40 MLOAD DUP1 SWAP2 SUB SWAP1 REVERT JUMPDEST PUSH1 0x1 PUSH0 SWAP1 SLOAD SWAP1 PUSH2 0x100 EXP SWAP1 DIV PUSH20 0xFFFFFFFFFFFFFFFFFFFFFFFFFFFFFFFFFFFFFFFF AND PUSH20 0xFFFFFFFFFFFFFFFFFFFFFFFFFFFFFFFFFFFFFFFF AND CALLER PUSH20 0xFFFFFFFFFFFFFFFFFFFFFFFFFFFFFFFFFFFFFFFF AND SUB PUSH2 0x15B5 JUMPI PUSH0 JUMPDEST DUP4 DUP4 SWAP1 POP DUP2 LT ISZERO PUSH2 0x1577 JUMPI PUSH1 0x1 PUSH1 0x2 PUSH0 DUP7 DUP7 DUP6 DUP2 DUP2 LT PUSH2 0x1422 JUMPI PUSH2 0x1421 PUSH2 0x22AC JUMP JUMPDEST JUMPDEST SWAP1 POP PUSH1 0x20 MUL ADD PUSH1 0x20 DUP2 ADD SWAP1 PUSH2 0x1437 SWAP2 SWAP1 PUSH2 0x20DF JUMP JUMPDEST PUSH20 0xFFFFFFFFFFFFFFFFFFFFFFFFFFFFFFFFFFFFFFFF AND PUSH20 0xFFFFFFFFFFFFFFFFFFFFFFFFFFFFFFFFFFFFFFFF AND DUP2 MSTORE PUSH1 0x20 ADD SWAP1 DUP2 MSTORE PUSH1 0x20 ADD PUSH0 KECCAK256 PUSH0 ADD PUSH0 PUSH2 0x100 EXP DUP2 SLOAD DUP2 PUSH1 0xFF MUL NOT AND SWAP1 DUP4 ISZERO ISZERO MUL OR SWAP1 SSTORE POP PUSH0 PUSH1 0x2 PUSH0 DUP7 DUP7 DUP6 DUP2 DUP2 LT PUSH2 0x149F JUMPI PUSH2 0x149E PUSH2 0x22AC JUMP JUMPDEST JUMPDEST SWAP1 POP PUSH1 0x20 MUL ADD PUSH1 0x20 DUP2 ADD SWAP1 PUSH2 0x14B4 SWAP2 SWAP1 PUSH2 0x20DF JUMP JUMPDEST PUSH20 0xFFFFFFFFFFFFFFFFFFFFFFFFFFFFFFFFFFFFFFFF AND PUSH20 0xFFFFFFFFFFFFFFFFFFFFFFFFFFFFFFFFFFFFFFFF AND DUP2 MSTORE PUSH1 0x20 ADD SWAP1 DUP2 MSTORE PUSH1 0x20 ADD PUSH0 KECCAK256 PUSH0 ADD PUSH1 0x1 PUSH2 0x100 EXP DUP2 SLOAD DUP2 PUSH1 0xFF MUL NOT AND SWAP1 DUP4 ISZERO ISZERO MUL OR SWAP1 SSTORE POP PUSH32 0xB6BE2187D059CC2A55FE29E0E503B566E1E0F8C8780096E185429350ACFFD3DD DUP5 DUP5 DUP4 DUP2 DUP2 LT PUSH2 0x153A JUMPI PUSH2 0x1539 PUSH2 0x22AC JUMP JUMPDEST JUMPDEST SWAP1 POP PUSH1 0x20 MUL ADD PUSH1 0x20 DUP2 ADD SWAP1 PUSH2 0x154F SWAP2 SWAP1 PUSH2 0x20DF JUMP JUMPDEST PUSH1 0x40 MLOAD PUSH2 0x155C SWAP2 SWAP1 PUSH2 0x2156 JUMP JUMPDEST PUSH1 0x40 MLOAD DUP1 SWAP2 SUB SWAP1 LOG1 DUP1 DUP1 PUSH2 0x156F SWAP1 PUSH2 0x2306 JUMP JUMPDEST SWAP2 POP POP PUSH2 0x13FF JUMP JUMPDEST POP PUSH1 0x40 MLOAD DUP1 PUSH1 0x40 ADD PUSH1 0x40 MSTORE DUP1 PUSH1 0x11 DUP2 MSTORE PUSH1 0x20 ADD PUSH32 0x566F746572732072656769737465726564000000000000000000000000000000 DUP2 MSTORE POP SWAP1 POP PUSH2 0x15EE JUMP JUMPDEST PUSH1 0x40 MLOAD DUP1 PUSH1 0x40 ADD PUSH1 0x40 MSTORE DUP1 PUSH1 0x1D DUP2 MSTORE PUSH1 0x20 ADD PUSH32 0x4F6E6C7920746865206F776E65722063616E2061646420766F74657273000000 DUP2 MSTORE POP SWAP1 POP JUMPDEST SWAP3 SWAP2 POP POP JUMP JUMPDEST PUSH1 0x60 PUSH1 0x1 PUSH0 SWAP1 SLOAD SWAP1 PUSH2 0x100 EXP SWAP1 DIV PUSH20 0xFFFFFFFFFFFFFFFFFFFFFFFFFFFFFFFFFFFFFFFF AND PUSH20 0xFFFFFFFFFFFFFFFFFFFFFFFFFFFFFFFFFFFFFFFF AND CALLER PUSH20 0xFFFFFFFFFFFFFFFFFFFFFFFFFFFFFFFFFFFFFFFF AND SUB PUSH2 0x175A JUMPI PUSH1 0x1 PUSH1 0x4 PUSH1 0x2 PUSH2 0x100 EXP DUP2 SLOAD DUP2 PUSH1 0xFF MUL NOT AND SWAP1 DUP4 ISZERO ISZERO MUL OR SWAP1 SSTORE POP PUSH1 0x4 PUSH1 0x3 SWAP1 SLOAD SWAP1 PUSH2 0x100 EXP SWAP1 DIV PUSH1 0xFF AND PUSH1 0x4 DUP1 PUSH2 0x100 EXP DUP2 SLOAD DUP2 PUSH1 0xFF MUL NOT AND SWAP1 DUP4 PUSH1 0x5 DUP2 GT ISZERO PUSH2 0x1698 JUMPI PUSH2 0x1697 PUSH2 0x1F7D JUMP JUMPDEST JUMPDEST MUL OR SWAP1 SSTORE POP PUSH1 0x3 PUSH1 0x4 PUSH1 0x3 PUSH2 0x100 EXP DUP2 SLOAD DUP2 PUSH1 0xFF MUL NOT AND SWAP1 DUP4 PUSH1 0x5 DUP2 GT ISZERO PUSH2 0x16C3 JUMPI PUSH2 0x16C2 PUSH2 0x1F7D JUMP JUMPDEST JUMPDEST MUL OR SWAP1 SSTORE POP PUSH32 0xA97A4EE45751E2ABF3E4FC8946939630B11B371EA8AE39CCDC3056E98F5CC3F PUSH1 0x4 DUP1 SLOAD SWAP1 PUSH2 0x100 EXP SWAP1 DIV PUSH1 0xFF AND PUSH1 0x4 PUSH1 0x3 SWAP1 SLOAD SWAP1 PUSH2 0x100 EXP SWAP1 DIV PUSH1 0xFF AND PUSH1 0x40 MLOAD PUSH2 0x1715 SWAP3 SWAP2 SWAP1 PUSH2 0x23D1 JUMP JUMPDEST PUSH1 0x40 MLOAD DUP1 SWAP2 SUB SWAP1 LOG1 PUSH1 0x40 MLOAD DUP1 PUSH1 0x40 ADD PUSH1 0x40 MSTORE DUP1 PUSH1 0x20 DUP2 MSTORE PUSH1 0x20 ADD PUSH32 0x54686520766F74696E672073657373696F6E206973206E6F77206F70656E6564 DUP2 MSTORE POP SWAP1 POP PUSH2 0x1776 JUMP JUMPDEST PUSH1 0x40 MLOAD DUP1 PUSH1 0x60 ADD PUSH1 0x40 MSTORE DUP1 PUSH1 0x2A DUP2 MSTORE PUSH1 0x20 ADD PUSH2 0x2BDC PUSH1 0x2A SWAP2 CODECOPY SWAP1 POP JUMPDEST SWAP1 JUMP JUMPDEST PUSH1 0x4 DUP1 SLOAD SWAP1 PUSH2 0x100 EXP SWAP1 DIV PUSH1 0xFF AND DUP2 JUMP JUMPDEST PUSH2 0x1792 PUSH2 0x1905 JUMP JUMPDEST PUSH0 PUSH20 0xFFFFFFFFFFFFFFFFFFFFFFFFFFFFFFFFFFFFFFFF AND DUP2 PUSH20 0xFFFFFFFFFFFFFFFFFFFFFFFFFFFFFFFFFFFFFFFF AND SUB PUSH2 0x1802 JUMPI PUSH0 PUSH1 0x40 MLOAD PUSH32 0x1E4FBDF700000000000000000000000000000000000000000000000000000000 DUP2 MSTORE PUSH1 0x4 ADD PUSH2 0x17F9 SWAP2 SWAP1 PUSH2 0x2156 JUMP JUMPDEST PUSH1 0x40 MLOAD DUP1 SWAP2 SUB SWAP1 REVERT JUMPDEST PUSH2 0x180B DUP2 PUSH2 0x198C JUMP JUMPDEST POP JUMP JUMPDEST PUSH1 0x60 PUSH2 0x1834 DUP3 PUSH20 0xFFFFFFFFFFFFFFFFFFFFFFFFFFFFFFFFFFFFFFFF AND PUSH1 0x14 PUSH1 0xFF AND PUSH2 0x1A4D JUMP JUMPDEST SWAP1 POP SWAP2 SWAP1 POP JUMP JUMPDEST PUSH1 0x60 PUSH0 PUSH1 0x1 PUSH2 0x1849 DUP5 PUSH2 0x1C8B JUMP JUMPDEST ADD SWAP1 POP PUSH0 DUP2 PUSH8 0xFFFFFFFFFFFFFFFF DUP2 GT ISZERO PUSH2 0x1867 JUMPI PUSH2 0x1866 PUSH2 0x23F8 JUMP JUMPDEST JUMPDEST PUSH1 0x40 MLOAD SWAP1 DUP1 DUP3 MSTORE DUP1 PUSH1 0x1F ADD PUSH1 0x1F NOT AND PUSH1 0x20 ADD DUP3 ADD PUSH1 0x40 MSTORE DUP1 ISZERO PUSH2 0x1899 JUMPI DUP2 PUSH1 0x20 ADD PUSH1 0x1 DUP3 MUL DUP1 CALLDATASIZE DUP4 CALLDATACOPY DUP1 DUP3 ADD SWAP2 POP POP SWAP1 POP JUMPDEST POP SWAP1 POP PUSH0 DUP3 PUSH1 0x20 ADD DUP3 ADD SWAP1 POP JUMPDEST PUSH1 0x1 ISZERO PUSH2 0x18FA JUMPI DUP1 DUP1 PUSH1 0x1 SWAP1 SUB SWAP2 POP POP PUSH32 0x3031323334353637383961626364656600000000000000000000000000000000 PUSH1 0xA DUP7 MOD BYTE DUP2 MSTORE8 PUSH1 0xA DUP6 DUP2 PUSH2 0x18EF JUMPI PUSH2 0x18EE PUSH2 0x2A16 JUMP JUMPDEST JUMPDEST DIV SWAP5 POP PUSH0 DUP6 SUB PUSH2 0x18A6 JUMPI JUMPDEST DUP2 SWAP4 POP POP POP POP SWAP2 SWAP1 POP JUMP JUMPDEST PUSH2 0x190D PUSH2 0x1DDC JUMP JUMPDEST PUSH20 0xFFFFFFFFFFFFFFFFFFFFFFFFFFFFFFFFFFFFFFFF AND PUSH2 0x192B PUSH2 0x1100 JUMP JUMPDEST PUSH20 0xFFFFFFFFFFFFFFFFFFFFFFFFFFFFFFFFFFFFFFFF AND EQ PUSH2 0x198A JUMPI PUSH2 0x194E PUSH2 0x1DDC JUMP JUMPDEST PUSH1 0x40 MLOAD PUSH32 0x118CDAA700000000000000000000000000000000000000000000000000000000 DUP2 MSTORE PUSH1 0x4 ADD PUSH2 0x1981 SWAP2 SWAP1 PUSH2 0x2156 JUMP JUMPDEST PUSH1 0x40 MLOAD DUP1 SWAP2 SUB SWAP1 REVERT JUMPDEST JUMP JUMPDEST PUSH0 DUP1 PUSH0 SWAP1 SLOAD SWAP1 PUSH2 0x100 EXP SWAP1 DIV PUSH20 0xFFFFFFFFFFFFFFFFFFFFFFFFFFFFFFFFFFFFFFFF AND SWAP1 POP DUP2 PUSH0 DUP1 PUSH2 0x100 EXP DUP2 SLOAD DUP2 PUSH20 0xFFFFFFFFFFFFFFFFFFFFFFFFFFFFFFFFFFFFFFFF MUL NOT AND SWAP1 DUP4 PUSH20 0xFFFFFFFFFFFFFFFFFFFFFFFFFFFFFFFFFFFFFFFF AND MUL OR SWAP1 SSTORE POP DUP2 PUSH20 0xFFFFFFFFFFFFFFFFFFFFFFFFFFFFFFFFFFFFFFFF AND DUP2 PUSH20 0xFFFFFFFFFFFFFFFFFFFFFFFFFFFFFFFFFFFFFFFF AND PUSH32 0x8BE0079C531659141344CD1FD0A4F28419497F9722A3DAAFE3B4186F6B6457E0 PUSH1 0x40 MLOAD PUSH1 0x40 MLOAD DUP1 SWAP2 SUB SWAP1 LOG3 POP POP JUMP JUMPDEST PUSH1 0x60 PUSH0 DUP4 SWAP1 POP PUSH0 PUSH1 0x2 DUP5 PUSH1 0x2 PUSH2 0x1A63 SWAP2 SWAP1 PUSH2 0x2A43 JUMP JUMPDEST PUSH2 0x1A6D SWAP2 SWAP1 PUSH2 0x2A84 JUMP JUMPDEST PUSH8 0xFFFFFFFFFFFFFFFF DUP2 GT ISZERO PUSH2 0x1A86 JUMPI PUSH2 0x1A85 PUSH2 0x23F8 JUMP JUMPDEST JUMPDEST PUSH1 0x40 MLOAD SWAP1 DUP1 DUP3 MSTORE DUP1 PUSH1 0x1F ADD PUSH1 0x1F NOT AND PUSH1 0x20 ADD DUP3 ADD PUSH1 0x40 MSTORE DUP1 ISZERO PUSH2 0x1AB8 JUMPI DUP2 PUSH1 0x20 ADD PUSH1 0x1 DUP3 MUL DUP1 CALLDATASIZE DUP4 CALLDATACOPY DUP1 DUP3 ADD SWAP2 POP POP SWAP1 POP JUMPDEST POP SWAP1 POP PUSH32 0x3000000000000000000000000000000000000000000000000000000000000000 DUP2 PUSH0 DUP2 MLOAD DUP2 LT PUSH2 0x1AEF JUMPI PUSH2 0x1AEE PUSH2 0x22AC JUMP JUMPDEST JUMPDEST PUSH1 0x20 ADD ADD SWAP1 PUSH31 0xFFFFFFFFFFFFFFFFFFFFFFFFFFFFFFFFFFFFFFFFFFFFFFFFFFFFFFFFFFFFFF NOT AND SWAP1 DUP2 PUSH0 BYTE SWAP1 MSTORE8 POP PUSH32 0x7800000000000000000000000000000000000000000000000000000000000000 DUP2 PUSH1 0x1 DUP2 MLOAD DUP2 LT PUSH2 0x1B52 JUMPI PUSH2 0x1B51 PUSH2 0x22AC JUMP JUMPDEST JUMPDEST PUSH1 0x20 ADD ADD SWAP1 PUSH31 0xFFFFFFFFFFFFFFFFFFFFFFFFFFFFFFFFFFFFFFFFFFFFFFFFFFFFFFFFFFFFFF NOT AND SWAP1 DUP2 PUSH0 BYTE SWAP1 MSTORE8 POP PUSH0 PUSH1 0x1 DUP6 PUSH1 0x2 PUSH2 0x1B90 SWAP2 SWAP1 PUSH2 0x2A43 JUMP JUMPDEST PUSH2 0x1B9A SWAP2 SWAP1 PUSH2 0x2A84 JUMP JUMPDEST SWAP1 POP JUMPDEST PUSH1 0x1 DUP2 GT ISZERO PUSH2 0x1C39 JUMPI PUSH32 0x3031323334353637383961626364656600000000000000000000000000000000 PUSH1 0xF DUP5 AND PUSH1 0x10 DUP2 LT PUSH2 0x1BDC JUMPI PUSH2 0x1BDB PUSH2 0x22AC JUMP JUMPDEST JUMPDEST BYTE PUSH1 0xF8 SHL DUP3 DUP3 DUP2 MLOAD DUP2 LT PUSH2 0x1BF3 JUMPI PUSH2 0x1BF2 PUSH2 0x22AC JUMP JUMPDEST JUMPDEST PUSH1 0x20 ADD ADD SWAP1 PUSH31 0xFFFFFFFFFFFFFFFFFFFFFFFFFFFFFFFFFFFFFFFFFFFFFFFFFFFFFFFFFFFFFF NOT AND SWAP1 DUP2 PUSH0 BYTE SWAP1 MSTORE8 POP PUSH1 0x4 DUP4 SWAP1 SHR SWAP3 POP DUP1 PUSH2 0x1C32 SWAP1 PUSH2 0x2AB7 JUMP JUMPDEST SWAP1 POP PUSH2 0x1B9D JUMP JUMPDEST POP PUSH0 DUP3 EQ PUSH2 0x1C80 JUMPI DUP5 DUP5 PUSH1 0x40 MLOAD PUSH32 0xE22E27EB00000000000000000000000000000000000000000000000000000000 DUP2 MSTORE PUSH1 0x4 ADD PUSH2 0x1C77 SWAP3 SWAP2 SWAP1 PUSH2 0x2ADE JUMP JUMPDEST PUSH1 0x40 MLOAD DUP1 SWAP2 SUB SWAP1 REVERT JUMPDEST DUP1 SWAP3 POP POP POP SWAP3 SWAP2 POP POP JUMP JUMPDEST PUSH0 DUP1 PUSH0 SWAP1 POP PUSH27 0x184F03E93FF9F4DAA797ED6E38ED64BF6A1F010000000000000000 DUP4 LT PUSH2 0x1CE7 JUMPI PUSH27 0x184F03E93FF9F4DAA797ED6E38ED64BF6A1F010000000000000000 DUP4 DUP2 PUSH2 0x1CDD JUMPI PUSH2 0x1CDC PUSH2 0x2A16 JUMP JUMPDEST JUMPDEST DIV SWAP3 POP PUSH1 0x40 DUP2 ADD SWAP1 POP JUMPDEST PUSH14 0x4EE2D6D415B85ACEF8100000000 DUP4 LT PUSH2 0x1D24 JUMPI PUSH14 0x4EE2D6D415B85ACEF8100000000 DUP4 DUP2 PUSH2 0x1D1A JUMPI PUSH2 0x1D19 PUSH2 0x2A16 JUMP JUMPDEST JUMPDEST DIV SWAP3 POP PUSH1 0x20 DUP2 ADD SWAP1 POP JUMPDEST PUSH7 0x2386F26FC10000 DUP4 LT PUSH2 0x1D53 JUMPI PUSH7 0x2386F26FC10000 DUP4 DUP2 PUSH2 0x1D49 JUMPI PUSH2 0x1D48 PUSH2 0x2A16 JUMP JUMPDEST JUMPDEST DIV SWAP3 POP PUSH1 0x10 DUP2 ADD SWAP1 POP JUMPDEST PUSH4 0x5F5E100 DUP4 LT PUSH2 0x1D7C JUMPI PUSH4 0x5F5E100 DUP4 DUP2 PUSH2 0x1D72 JUMPI PUSH2 0x1D71 PUSH2 0x2A16 JUMP JUMPDEST JUMPDEST DIV SWAP3 POP PUSH1 0x8 DUP2 ADD SWAP1 POP JUMPDEST PUSH2 0x2710 DUP4 LT PUSH2 0x1DA1 JUMPI PUSH2 0x2710 DUP4 DUP2 PUSH2 0x1D97 JUMPI PUSH2 0x1D96 PUSH2 0x2A16 JUMP JUMPDEST JUMPDEST DIV SWAP3 POP PUSH1 0x4 DUP2 ADD SWAP1 POP JUMPDEST PUSH1 0x64 DUP4 LT PUSH2 0x1DC4 JUMPI PUSH1 0x64 DUP4 DUP2 PUSH2 0x1DBA JUMPI PUSH2 0x1DB9 PUSH2 0x2A16 JUMP JUMPDEST JUMPDEST DIV SWAP3 POP PUSH1 0x2 DUP2 ADD SWAP1 POP JUMPDEST PUSH1 0xA DUP4 LT PUSH2 0x1DD3 JUMPI PUSH1 0x1 DUP2 ADD SWAP1 POP JUMPDEST DUP1 SWAP2 POP POP SWAP2 SWAP1 POP JUMP JUMPDEST PUSH0 CALLER SWAP1 POP SWAP1 JUMP JUMPDEST PUSH0 DUP1 REVERT JUMPDEST PUSH0 DUP1 REVERT JUMPDEST PUSH0 DUP2 SWAP1 POP SWAP2 SWAP1 POP JUMP JUMPDEST PUSH2 0x1DFD DUP2 PUSH2 0x1DEB JUMP JUMPDEST DUP2 EQ PUSH2 0x1E07 JUMPI PUSH0 DUP1 REVERT JUMPDEST POP JUMP JUMPDEST PUSH0 DUP2 CALLDATALOAD SWAP1 POP PUSH2 0x1E18 DUP2 PUSH2 0x1DF4 JUMP JUMPDEST SWAP3 SWAP2 POP POP JUMP JUMPDEST PUSH0 PUSH1 0x20 DUP3 DUP5 SUB SLT ISZERO PUSH2 0x1E33 JUMPI PUSH2 0x1E32 PUSH2 0x1DE3 JUMP JUMPDEST JUMPDEST PUSH0 PUSH2 0x1E40 DUP5 DUP3 DUP6 ADD PUSH2 0x1E0A JUMP JUMPDEST SWAP2 POP POP SWAP3 SWAP2 POP POP JUMP JUMPDEST PUSH0 DUP2 MLOAD SWAP1 POP SWAP2 SWAP1 POP JUMP JUMPDEST PUSH0 DUP3 DUP3 MSTORE PUSH1 0x20 DUP3 ADD SWAP1 POP SWAP3 SWAP2 POP POP JUMP JUMPDEST PUSH0 JUMPDEST DUP4 DUP2 LT ISZERO PUSH2 0x1E80 JUMPI DUP1 DUP3 ADD MLOAD DUP2 DUP5 ADD MSTORE PUSH1 0x20 DUP2 ADD SWAP1 POP PUSH2 0x1E65 JUMP JUMPDEST PUSH0 DUP5 DUP5 ADD MSTORE POP POP POP POP JUMP JUMPDEST PUSH0 PUSH1 0x1F NOT PUSH1 0x1F DUP4 ADD AND SWAP1 POP SWAP2 SWAP1 POP JUMP JUMPDEST PUSH0 PUSH2 0x1EA5 DUP3 PUSH2 0x1E49 JUMP JUMPDEST PUSH2 0x1EAF DUP2 DUP6 PUSH2 0x1E53 JUMP JUMPDEST SWAP4 POP PUSH2 0x1EBF DUP2 DUP6 PUSH1 0x20 DUP7 ADD PUSH2 0x1E63 JUMP JUMPDEST PUSH2 0x1EC8 DUP2 PUSH2 0x1E8B JUMP JUMPDEST DUP5 ADD SWAP2 POP POP SWAP3 SWAP2 POP POP JUMP JUMPDEST PUSH0 PUSH1 0x20 DUP3 ADD SWAP1 POP DUP2 DUP2 SUB PUSH0 DUP4 ADD MSTORE PUSH2 0x1EEB DUP2 DUP5 PUSH2 0x1E9B JUMP JUMPDEST SWAP1 POP SWAP3 SWAP2 POP POP JUMP JUMPDEST PUSH0 PUSH20 0xFFFFFFFFFFFFFFFFFFFFFFFFFFFFFFFFFFFFFFFF DUP3 AND SWAP1 POP SWAP2 SWAP1 POP JUMP JUMPDEST PUSH0 PUSH2 0x1F1C DUP3 PUSH2 0x1EF3 JUMP JUMPDEST SWAP1 POP SWAP2 SWAP1 POP JUMP JUMPDEST PUSH2 0x1F2C DUP2 PUSH2 0x1F12 JUMP JUMPDEST DUP3 MSTORE POP POP JUMP JUMPDEST PUSH2 0x1F3B DUP2 PUSH2 0x1DEB JUMP JUMPDEST DUP3 MSTORE POP POP JUMP JUMPDEST PUSH0 PUSH1 0x60 DUP3 ADD SWAP1 POP PUSH2 0x1F54 PUSH0 DUP4 ADD DUP7 PUSH2 0x1F23 JUMP JUMPDEST DUP2 DUP2 SUB PUSH1 0x20 DUP4 ADD MSTORE PUSH2 0x1F66 DUP2 DUP6 PUSH2 0x1E9B JUMP JUMPDEST SWAP1 POP PUSH2 0x1F75 PUSH1 0x40 DUP4 ADD DUP5 PUSH2 0x1F32 JUMP JUMPDEST SWAP5 SWAP4 POP POP POP POP JUMP JUMPDEST PUSH32 0x4E487B7100000000000000000000000000000000000000000000000000000000 PUSH0 MSTORE PUSH1 0x21 PUSH1 0x4 MSTORE PUSH1 0x24 PUSH0 REVERT JUMPDEST PUSH1 0x6 DUP2 LT PUSH2 0x1FBB JUMPI PUSH2 0x1FBA PUSH2 0x1F7D JUMP JUMPDEST JUMPDEST POP JUMP JUMPDEST PUSH0 DUP2 SWAP1 POP PUSH2 0x1FCB DUP3 PUSH2 0x1FAA JUMP JUMPDEST SWAP2 SWAP1 POP JUMP JUMPDEST PUSH0 PUSH2 0x1FDA DUP3 PUSH2 0x1FBE JUMP JUMPDEST SWAP1 POP SWAP2 SWAP1 POP JUMP JUMPDEST PUSH2 0x1FEA DUP2 PUSH2 0x1FD0 JUMP JUMPDEST DUP3 MSTORE POP POP JUMP JUMPDEST PUSH0 PUSH1 0x20 DUP3 ADD SWAP1 POP PUSH2 0x2003 PUSH0 DUP4 ADD DUP5 PUSH2 0x1FE1 JUMP JUMPDEST SWAP3 SWAP2 POP POP JUMP JUMPDEST PUSH0 DUP1 REVERT JUMPDEST PUSH0 DUP1 REVERT JUMPDEST PUSH0 DUP1 REVERT JUMPDEST PUSH0 DUP1 DUP4 PUSH1 0x1F DUP5 ADD SLT PUSH2 0x202A JUMPI PUSH2 0x2029 PUSH2 0x2009 JUMP JUMPDEST JUMPDEST DUP3 CALLDATALOAD SWAP1 POP PUSH8 0xFFFFFFFFFFFFFFFF DUP2 GT ISZERO PUSH2 0x2047 JUMPI PUSH2 0x2046 PUSH2 0x200D JUMP JUMPDEST JUMPDEST PUSH1 0x20 DUP4 ADD SWAP2 POP DUP4 PUSH1 0x1 DUP3 MUL DUP4 ADD GT ISZERO PUSH2 0x2063 JUMPI PUSH2 0x2062 PUSH2 0x2011 JUMP JUMPDEST JUMPDEST SWAP3 POP SWAP3 SWAP1 POP JUMP JUMPDEST PUSH0 DUP1 PUSH1 0x20 DUP4 DUP6 SUB SLT ISZERO PUSH2 0x2080 JUMPI PUSH2 0x207F PUSH2 0x1DE3 JUMP JUMPDEST JUMPDEST PUSH0 DUP4 ADD CALLDATALOAD PUSH8 0xFFFFFFFFFFFFFFFF DUP2 GT ISZERO PUSH2 0x209D JUMPI PUSH2 0x209C PUSH2 0x1DE7 JUMP JUMPDEST JUMPDEST PUSH2 0x20A9 DUP6 DUP3 DUP7 ADD PUSH2 0x2015 JUMP JUMPDEST SWAP3 POP SWAP3 POP POP SWAP3 POP SWAP3 SWAP1 POP JUMP JUMPDEST PUSH2 0x20BE DUP2 PUSH2 0x1F12 JUMP JUMPDEST DUP2 EQ PUSH2 0x20C8 JUMPI PUSH0 DUP1 REVERT JUMPDEST POP JUMP JUMPDEST PUSH0 DUP2 CALLDATALOAD SWAP1 POP PUSH2 0x20D9 DUP2 PUSH2 0x20B5 JUMP JUMPDEST SWAP3 SWAP2 POP POP JUMP JUMPDEST PUSH0 PUSH1 0x20 DUP3 DUP5 SUB SLT ISZERO PUSH2 0x20F4 JUMPI PUSH2 0x20F3 PUSH2 0x1DE3 JUMP JUMPDEST JUMPDEST PUSH0 PUSH2 0x2101 DUP5 DUP3 DUP6 ADD PUSH2 0x20CB JUMP JUMPDEST SWAP2 POP POP SWAP3 SWAP2 POP POP JUMP JUMPDEST PUSH0 DUP2 ISZERO ISZERO SWAP1 POP SWAP2 SWAP1 POP JUMP JUMPDEST PUSH2 0x211E DUP2 PUSH2 0x210A JUMP JUMPDEST DUP3 MSTORE POP POP JUMP JUMPDEST PUSH0 PUSH1 0x20 DUP3 ADD SWAP1 POP PUSH2 0x2137 PUSH0 DUP4 ADD DUP5 PUSH2 0x2115 JUMP JUMPDEST SWAP3 SWAP2 POP POP JUMP JUMPDEST PUSH0 PUSH1 0x20 DUP3 ADD SWAP1 POP PUSH2 0x2150 PUSH0 DUP4 ADD DUP5 PUSH2 0x1F32 JUMP JUMPDEST SWAP3 SWAP2 POP POP JUMP JUMPDEST PUSH0 PUSH1 0x20 DUP3 ADD SWAP1 POP PUSH2 0x2169 PUSH0 DUP4 ADD DUP5 PUSH2 0x1F23 JUMP JUMPDEST SWAP3 SWAP2 POP POP JUMP JUMPDEST PUSH0 PUSH1 0x60 DUP3 ADD SWAP1 POP PUSH2 0x2182 PUSH0 DUP4 ADD DUP7 PUSH2 0x2115 JUMP JUMPDEST PUSH2 0x218F PUSH1 0x20 DUP4 ADD DUP6 PUSH2 0x2115 JUMP JUMPDEST PUSH2 0x219C PUSH1 0x40 DUP4 ADD DUP5 PUSH2 0x1F32 JUMP JUMPDEST SWAP5 SWAP4 POP POP POP POP JUMP JUMPDEST PUSH0 DUP1 DUP4 PUSH1 0x1F DUP5 ADD SLT PUSH2 0x21B9 JUMPI PUSH2 0x21B8 PUSH2 0x2009 JUMP JUMPDEST JUMPDEST DUP3 CALLDATALOAD SWAP1 POP PUSH8 0xFFFFFFFFFFFFFFFF DUP2 GT ISZERO PUSH2 0x21D6 JUMPI PUSH2 0x21D5 PUSH2 0x200D JUMP JUMPDEST JUMPDEST PUSH1 0x20 DUP4 ADD SWAP2 POP DUP4 PUSH1 0x20 DUP3 MUL DUP4 ADD GT ISZERO PUSH2 0x21F2 JUMPI PUSH2 0x21F1 PUSH2 0x2011 JUMP JUMPDEST JUMPDEST SWAP3 POP SWAP3 SWAP1 POP JUMP JUMPDEST PUSH0 DUP1 PUSH1 0x20 DUP4 DUP6 SUB SLT ISZERO PUSH2 0x220F JUMPI PUSH2 0x220E PUSH2 0x1DE3 JUMP JUMPDEST JUMPDEST PUSH0 DUP4 ADD CALLDATALOAD PUSH8 0xFFFFFFFFFFFFFFFF DUP2 GT ISZERO PUSH2 0x222C JUMPI PUSH2 0x222B PUSH2 0x1DE7 JUMP JUMPDEST JUMPDEST PUSH2 0x2238 DUP6 DUP3 DUP7 ADD PUSH2 0x21A4 JUMP JUMPDEST SWAP3 POP SWAP3 POP POP SWAP3 POP SWAP3 SWAP1 POP JUMP JUMPDEST PUSH32 0x416C726561647920766F7465642E000000000000000000000000000000000000 PUSH0 DUP3 ADD MSTORE POP JUMP JUMPDEST PUSH0 PUSH2 0x2278 PUSH1 0xE DUP4 PUSH2 0x1E53 JUMP JUMPDEST SWAP2 POP PUSH2 0x2283 DUP3 PUSH2 0x2244 JUMP JUMPDEST PUSH1 0x20 DUP3 ADD SWAP1 POP SWAP2 SWAP1 POP JUMP JUMPDEST PUSH0 PUSH1 0x20 DUP3 ADD SWAP1 POP DUP2 DUP2 SUB PUSH0 DUP4 ADD MSTORE PUSH2 0x22A5 DUP2 PUSH2 0x226C JUMP JUMPDEST SWAP1 POP SWAP2 SWAP1 POP JUMP JUMPDEST PUSH32 0x4E487B7100000000000000000000000000000000000000000000000000000000 PUSH0 MSTORE PUSH1 0x32 PUSH1 0x4 MSTORE PUSH1 0x24 PUSH0 REVERT JUMPDEST PUSH32 0x4E487B7100000000000000000000000000000000000000000000000000000000 PUSH0 MSTORE PUSH1 0x11 PUSH1 0x4 MSTORE PUSH1 0x24 PUSH0 REVERT JUMPDEST PUSH0 PUSH2 0x2310 DUP3 PUSH2 0x1DEB JUMP JUMPDEST SWAP2 POP PUSH32 0xFFFFFFFFFFFFFFFFFFFFFFFFFFFFFFFFFFFFFFFFFFFFFFFFFFFFFFFFFFFFFFFF DUP3 SUB PUSH2 0x2342 JUMPI PUSH2 0x2341 PUSH2 0x22D9 JUMP JUMPDEST JUMPDEST PUSH1 0x1 DUP3 ADD SWAP1 POP SWAP2 SWAP1 POP JUMP JUMPDEST PUSH0 PUSH1 0x40 DUP3 ADD SWAP1 POP PUSH2 0x2360 PUSH0 DUP4 ADD DUP6 PUSH2 0x1F23 JUMP JUMPDEST PUSH2 0x236D PUSH1 0x20 DUP4 ADD DUP5 PUSH2 0x1F32 JUMP JUMPDEST SWAP4 SWAP3 POP POP POP JUMP JUMPDEST PUSH32 0x4E487B7100000000000000000000000000000000000000000000000000000000 PUSH0 MSTORE PUSH1 0x22 PUSH1 0x4 MSTORE PUSH1 0x24 PUSH0 REVERT JUMPDEST PUSH0 PUSH1 0x2 DUP3 DIV SWAP1 POP PUSH1 0x1 DUP3 AND DUP1 PUSH2 0x23B8 JUMPI PUSH1 0x7F DUP3 AND SWAP2 POP JUMPDEST PUSH1 0x20 DUP3 LT DUP2 SUB PUSH2 0x23CB JUMPI PUSH2 0x23CA PUSH2 0x2374 JUMP JUMPDEST JUMPDEST POP SWAP2 SWAP1 POP JUMP JUMPDEST PUSH0 PUSH1 0x40 DUP3 ADD SWAP1 POP PUSH2 0x23E4 PUSH0 DUP4 ADD DUP6 PUSH2 0x1FE1 JUMP JUMPDEST PUSH2 0x23F1 PUSH1 0x20 DUP4 ADD DUP5 PUSH2 0x1FE1 JUMP JUMPDEST SWAP4 SWAP3 POP POP POP JUMP JUMPDEST PUSH32 0x4E487B7100000000000000000000000000000000000000000000000000000000 PUSH0 MSTORE PUSH1 0x41 PUSH1 0x4 MSTORE PUSH1 0x24 PUSH0 REVERT JUMPDEST PUSH0 DUP2 SWAP1 POP DUP2 PUSH0 MSTORE PUSH1 0x20 PUSH0 KECCAK256 SWAP1 POP SWAP2 SWAP1 POP JUMP JUMPDEST PUSH0 PUSH1 0x20 PUSH1 0x1F DUP4 ADD DIV SWAP1 POP SWAP2 SWAP1 POP JUMP JUMPDEST PUSH0 DUP3 DUP3 SHL SWAP1 POP SWAP3 SWAP2 POP POP JUMP JUMPDEST PUSH0 PUSH1 0x8 DUP4 MUL PUSH2 0x2481 PUSH32 0xFFFFFFFFFFFFFFFFFFFFFFFFFFFFFFFFFFFFFFFFFFFFFFFFFFFFFFFFFFFFFFFF DUP3 PUSH2 0x2446 JUMP JUMPDEST PUSH2 0x248B DUP7 DUP4 PUSH2 0x2446 JUMP JUMPDEST SWAP6 POP DUP1 NOT DUP5 AND SWAP4 POP DUP1 DUP7 AND DUP5 OR SWAP3 POP POP POP SWAP4 SWAP3 POP POP POP JUMP JUMPDEST PUSH0 DUP2 SWAP1 POP SWAP2 SWAP1 POP JUMP JUMPDEST PUSH0 PUSH2 0x24C6 PUSH2 0x24C1 PUSH2 0x24BC DUP5 PUSH2 0x1DEB JUMP JUMPDEST PUSH2 0x24A3 JUMP JUMPDEST PUSH2 0x1DEB JUMP JUMPDEST SWAP1 POP SWAP2 SWAP1 POP JUMP JUMPDEST PUSH0 DUP2 SWAP1 POP SWAP2 SWAP1 POP JUMP JUMPDEST PUSH2 0x24DF DUP4 PUSH2 0x24AC JUMP JUMPDEST PUSH2 0x24F3 PUSH2 0x24EB DUP3 PUSH2 0x24CD JUMP JUMPDEST DUP5 DUP5 SLOAD PUSH2 0x2452 JUMP JUMPDEST DUP3 SSTORE POP POP POP POP JUMP JUMPDEST PUSH0 SWAP1 JUMP JUMPDEST PUSH2 0x2507 PUSH2 0x24FB JUMP JUMPDEST PUSH2 0x2512 DUP2 DUP5 DUP5 PUSH2 0x24D6 JUMP JUMPDEST POP POP POP JUMP JUMPDEST JUMPDEST DUP2 DUP2 LT ISZERO PUSH2 0x2535 JUMPI PUSH2 0x252A PUSH0 DUP3 PUSH2 0x24FF JUMP JUMPDEST PUSH1 0x1 DUP2 ADD SWAP1 POP PUSH2 0x2518 JUMP JUMPDEST POP POP JUMP JUMPDEST PUSH1 0x1F DUP3 GT ISZERO PUSH2 0x257A JUMPI PUSH2 0x254B DUP2 PUSH2 0x2425 JUMP JUMPDEST PUSH2 0x2554 DUP5 PUSH2 0x2437 JUMP JUMPDEST DUP2 ADD PUSH1 0x20 DUP6 LT ISZERO PUSH2 0x2563 JUMPI DUP2 SWAP1 POP JUMPDEST PUSH2 0x2577 PUSH2 0x256F DUP6 PUSH2 0x2437 JUMP JUMPDEST DUP4 ADD DUP3 PUSH2 0x2517 JUMP JUMPDEST POP POP JUMPDEST POP POP POP JUMP JUMPDEST PUSH0 DUP3 DUP3 SHR SWAP1 POP SWAP3 SWAP2 POP POP JUMP JUMPDEST PUSH0 PUSH2 0x259A PUSH0 NOT DUP5 PUSH1 0x8 MUL PUSH2 0x257F JUMP JUMPDEST NOT DUP1 DUP4 AND SWAP2 POP POP SWAP3 SWAP2 POP POP JUMP JUMPDEST PUSH0 PUSH2 0x25B2 DUP4 DUP4 PUSH2 0x258B JUMP JUMPDEST SWAP2 POP DUP3 PUSH1 0x2 MUL DUP3 OR SWAP1 POP SWAP3 SWAP2 POP POP JUMP JUMPDEST PUSH2 0x25CB DUP3 PUSH2 0x1E49 JUMP JUMPDEST PUSH8 0xFFFFFFFFFFFFFFFF DUP2 GT ISZERO PUSH2 0x25E4 JUMPI PUSH2 0x25E3 PUSH2 0x23F8 JUMP JUMPDEST JUMPDEST PUSH2 0x25EE DUP3 SLOAD PUSH2 0x23A1 JUMP JUMPDEST PUSH2 0x25F9 DUP3 DUP3 DUP6 PUSH2 0x2539 JUMP JUMPDEST PUSH0 PUSH1 0x20 SWAP1 POP PUSH1 0x1F DUP4 GT PUSH1 0x1 DUP2 EQ PUSH2 0x262A JUMPI PUSH0 DUP5 ISZERO PUSH2 0x2618 JUMPI DUP3 DUP8 ADD MLOAD SWAP1 POP JUMPDEST PUSH2 0x2622 DUP6 DUP3 PUSH2 0x25A7 JUMP JUMPDEST DUP7 SSTORE POP PUSH2 0x2689 JUMP JUMPDEST PUSH1 0x1F NOT DUP5 AND PUSH2 0x2638 DUP7 PUSH2 0x2425 JUMP JUMPDEST PUSH0 JUMPDEST DUP3 DUP2 LT ISZERO PUSH2 0x265F JUMPI DUP5 DUP10 ADD MLOAD DUP3 SSTORE PUSH1 0x1 DUP3 ADD SWAP2 POP PUSH1 0x20 DUP6 ADD SWAP5 POP PUSH1 0x20 DUP2 ADD SWAP1 POP PUSH2 0x263A JUMP JUMPDEST DUP7 DUP4 LT ISZERO PUSH2 0x267C JUMPI DUP5 DUP10 ADD MLOAD PUSH2 0x2678 PUSH1 0x1F DUP10 AND DUP3 PUSH2 0x258B JUMP JUMPDEST DUP4 SSTORE POP JUMPDEST PUSH1 0x1 PUSH1 0x2 DUP9 MUL ADD DUP9 SSTORE POP POP POP JUMPDEST POP POP POP POP POP POP JUMP JUMPDEST PUSH0 PUSH2 0x269B DUP3 PUSH2 0x1DEB JUMP JUMPDEST SWAP2 POP PUSH2 0x26A6 DUP4 PUSH2 0x1DEB JUMP JUMPDEST SWAP3 POP DUP3 DUP3 SUB SWAP1 POP DUP2 DUP2 GT ISZERO PUSH2 0x26BE JUMPI PUSH2 0x26BD PUSH2 0x22D9 JUMP JUMPDEST JUMPDEST SWAP3 SWAP2 POP POP JUMP JUMPDEST PUSH32 0x556E617574686F72697A65640000000000000000000000000000000000000000 PUSH0 DUP3 ADD MSTORE POP JUMP JUMPDEST PUSH0 PUSH2 0x26F8 PUSH1 0xC DUP4 PUSH2 0x1E53 JUMP JUMPDEST SWAP2 POP PUSH2 0x2703 DUP3 PUSH2 0x26C4 JUMP JUMPDEST PUSH1 0x20 DUP3 ADD SWAP1 POP SWAP2 SWAP1 POP JUMP JUMPDEST PUSH0 PUSH1 0x20 DUP3 ADD SWAP1 POP DUP2 DUP2 SUB PUSH0 DUP4 ADD MSTORE PUSH2 0x2725 DUP2 PUSH2 0x26EC JUMP JUMPDEST SWAP1 POP SWAP2 SWAP1 POP JUMP JUMPDEST PUSH32 0x566F746572200000000000000000000000000000000000000000000000000000 DUP2 MSTORE POP JUMP JUMPDEST PUSH0 DUP2 SWAP1 POP SWAP3 SWAP2 POP POP JUMP JUMPDEST PUSH0 PUSH2 0x2766 DUP3 PUSH2 0x1E49 JUMP JUMPDEST PUSH2 0x2770 DUP2 DUP6 PUSH2 0x2752 JUMP JUMPDEST SWAP4 POP PUSH2 0x2780 DUP2 DUP6 PUSH1 0x20 DUP7 ADD PUSH2 0x1E63 JUMP JUMPDEST DUP1 DUP5 ADD SWAP2 POP POP SWAP3 SWAP2 POP POP JUMP JUMPDEST PUSH32 0x2068617320766F74656420666F722070726F706F73616C202300000000000000 DUP2 MSTORE POP JUMP JUMPDEST PUSH32 0x203A200000000000000000000000000000000000000000000000000000000000 DUP2 MSTORE POP JUMP JUMPDEST PUSH0 DUP2 SWAP1 POP DUP2 PUSH0 MSTORE PUSH1 0x20 PUSH0 KECCAK256 SWAP1 POP SWAP2 SWAP1 POP JUMP JUMPDEST PUSH0 DUP2 SLOAD PUSH2 0x27F6 DUP2 PUSH2 0x23A1 JUMP JUMPDEST PUSH2 0x2800 DUP2 DUP7 PUSH2 0x2752 JUMP JUMPDEST SWAP5 POP PUSH1 0x1 DUP3 AND PUSH0 DUP2 EQ PUSH2 0x281A JUMPI PUSH1 0x1 DUP2 EQ PUSH2 0x282F JUMPI PUSH2 0x2861 JUMP JUMPDEST PUSH1 0xFF NOT DUP4 AND DUP7 MSTORE DUP2 ISZERO ISZERO DUP3 MUL DUP7 ADD SWAP4 POP PUSH2 0x2861 JUMP JUMPDEST PUSH2 0x2838 DUP6 PUSH2 0x27D8 JUMP JUMPDEST PUSH0 JUMPDEST DUP4 DUP2 LT ISZERO PUSH2 0x2859 JUMPI DUP2 SLOAD DUP2 DUP10 ADD MSTORE PUSH1 0x1 DUP3 ADD SWAP2 POP PUSH1 0x20 DUP2 ADD SWAP1 POP PUSH2 0x283A JUMP JUMPDEST DUP4 DUP9 ADD SWAP6 POP POP POP JUMPDEST POP POP POP SWAP3 SWAP2 POP POP JUMP JUMPDEST PUSH0 PUSH2 0x2874 DUP3 PUSH2 0x272C JUMP JUMPDEST PUSH1 0x6 DUP3 ADD SWAP2 POP PUSH2 0x2884 DUP3 DUP7 PUSH2 0x275C JUMP JUMPDEST SWAP2 POP PUSH2 0x288F DUP3 PUSH2 0x278C JUMP JUMPDEST PUSH1 0x19 DUP3 ADD SWAP2 POP PUSH2 0x289F DUP3 DUP6 PUSH2 0x275C JUMP JUMPDEST SWAP2 POP PUSH2 0x28AA DUP3 PUSH2 0x27B2 JUMP JUMPDEST PUSH1 0x3 DUP3 ADD SWAP2 POP PUSH2 0x28BA DUP3 DUP5 PUSH2 0x27EA JUMP JUMPDEST SWAP2 POP DUP2 SWAP1 POP SWAP5 SWAP4 POP POP POP POP JUMP JUMPDEST PUSH32 0x2D20230000000000000000000000000000000000000000000000000000000000 DUP2 MSTORE POP JUMP JUMPDEST PUSH32 0x202D200000000000000000000000000000000000000000000000000000000000 DUP2 MSTORE POP JUMP JUMPDEST PUSH0 DUP2 SLOAD PUSH2 0x291F DUP2 PUSH2 0x23A1 JUMP JUMPDEST PUSH2 0x2929 DUP2 DUP7 PUSH2 0x2752 JUMP JUMPDEST SWAP5 POP PUSH1 0x1 DUP3 AND PUSH0 DUP2 EQ PUSH2 0x2943 JUMPI PUSH1 0x1 DUP2 EQ PUSH2 0x2958 JUMPI PUSH2 0x298A JUMP JUMPDEST PUSH1 0xFF NOT DUP4 AND DUP7 MSTORE DUP2 ISZERO ISZERO DUP3 MUL DUP7 ADD SWAP4 POP PUSH2 0x298A JUMP JUMPDEST PUSH2 0x2961 DUP6 PUSH2 0x2425 JUMP JUMPDEST PUSH0 JUMPDEST DUP4 DUP2 LT ISZERO PUSH2 0x2982 JUMPI DUP2 SLOAD DUP2 DUP10 ADD MSTORE PUSH1 0x1 DUP3 ADD SWAP2 POP PUSH1 0x20 DUP2 ADD SWAP1 POP PUSH2 0x2963 JUMP JUMPDEST DUP4 DUP9 ADD SWAP6 POP POP POP JUMPDEST POP POP POP SWAP3 SWAP2 POP POP JUMP JUMPDEST PUSH32 0xA00000000000000000000000000000000000000000000000000000000000000 DUP2 MSTORE POP JUMP JUMPDEST PUSH0 PUSH2 0x29C4 DUP3 DUP7 PUSH2 0x275C JUMP JUMPDEST SWAP2 POP PUSH2 0x29CF DUP3 PUSH2 0x28C7 JUMP JUMPDEST PUSH1 0x3 DUP3 ADD SWAP2 POP PUSH2 0x29DF DUP3 DUP6 PUSH2 0x275C JUMP JUMPDEST SWAP2 POP PUSH2 0x29EA DUP3 PUSH2 0x28ED JUMP JUMPDEST PUSH1 0x3 DUP3 ADD SWAP2 POP PUSH2 0x29FA DUP3 DUP5 PUSH2 0x2913 JUMP JUMPDEST SWAP2 POP PUSH2 0x2A05 DUP3 PUSH2 0x2993 JUMP JUMPDEST PUSH1 0x1 DUP3 ADD SWAP2 POP DUP2 SWAP1 POP SWAP5 SWAP4 POP POP POP POP JUMP JUMPDEST PUSH32 0x4E487B7100000000000000000000000000000000000000000000000000000000 PUSH0 MSTORE PUSH1 0x12 PUSH1 0x4 MSTORE PUSH1 0x24 PUSH0 REVERT JUMPDEST PUSH0 PUSH2 0x2A4D DUP3 PUSH2 0x1DEB JUMP JUMPDEST SWAP2 POP PUSH2 0x2A58 DUP4 PUSH2 0x1DEB JUMP JUMPDEST SWAP3 POP DUP3 DUP3 MUL PUSH2 0x2A66 DUP2 PUSH2 0x1DEB JUMP JUMPDEST SWAP2 POP DUP3 DUP3 DIV DUP5 EQ DUP4 ISZERO OR PUSH2 0x2A7D JUMPI PUSH2 0x2A7C PUSH2 0x22D9 JUMP JUMPDEST JUMPDEST POP SWAP3 SWAP2 POP POP JUMP JUMPDEST PUSH0 PUSH2 0x2A8E DUP3 PUSH2 0x1DEB JUMP JUMPDEST SWAP2 POP PUSH2 0x2A99 DUP4 PUSH2 0x1DEB JUMP JUMPDEST SWAP3 POP DUP3 DUP3 ADD SWAP1 POP DUP1 DUP3 GT ISZERO PUSH2 0x2AB1 JUMPI PUSH2 0x2AB0 PUSH2 0x22D9 JUMP JUMPDEST JUMPDEST SWAP3 SWAP2 POP POP JUMP JUMPDEST PUSH0 PUSH2 0x2AC1 DUP3 PUSH2 0x1DEB JUMP JUMPDEST SWAP2 POP PUSH0 DUP3 SUB PUSH2 0x2AD3 JUMPI PUSH2 0x2AD2 PUSH2 0x22D9 JUMP JUMPDEST JUMPDEST PUSH1 0x1 DUP3 SUB SWAP1 POP SWAP2 SWAP1 POP JUMP JUMPDEST PUSH0 PUSH1 0x40 DUP3 ADD SWAP1 POP PUSH2 0x2AF1 PUSH0 DUP4 ADD DUP6 PUSH2 0x1F32 JUMP JUMPDEST PUSH2 0x2AFE PUSH1 0x20 DUP4 ADD DUP5 PUSH2 0x1F32 JUMP JUMPDEST SWAP4 SWAP3 POP POP POP JUMP INVALID SLOAD PUSH9 0x652070726F706F7361 PUSH13 0x7320726567697374726174696F PUSH15 0x206973206E6F7720636C6F73656454 PUSH9 0x652070726F706F7361 PUSH13 0x7320726567697374726174696F PUSH15 0x206973206E6F77206F70656E656449 PUSH14 0x706F737369626C6520746F207375 PUSH3 0x6D6974 KECCAK256 PUSH21 0x68652070726F706F73616C4F6E6C7920746865206F PUSH24 0x6E65722063616E20636C6F7365207468652070726F706F73 PUSH2 0x6C73 KECCAK256 PUSH19 0x6567697374726174696F6E4F6E6C7920746865 KECCAK256 PUSH16 0x776E65722063616E206F70656E207468 PUSH6 0x2070726F706F PUSH20 0x616C7320726567697374726174696F6E4F6E6C79 KECCAK256 PUSH21 0x6865206F776E65722063616E206F70656E20746865 KECCAK256 PUSH23 0x6F74696E672073657373696F6E4F6E6C7920746865206F PUSH24 0x6E65722063616E20636C6F73652074686520766F74696E67 KECCAK256 PUSH20 0x657373696F6EA2646970667358221220F0A17228 0xC1 CODECOPY 0xB9 0xD2 0x23 0xB9 RETURNDATASIZE 0xC0 SHL XOR 0xD9 JUMPI MUL DUP8 MLOAD 0x1F 0xE0 PUSH7 0xF517B72C8DAB1E PUSH28 0x4D3264736F6C63430008150033000000000000000000000000000000 "
				},
				"gasEstimates": {
					"creation": {
						"codeDepositCost": "2273200",
						"executionCost": "infinite",
						"totalCost": "infinite"
					},
					"external": {
						"closeProposalRegistration()": "infinite",
						"closeVotingSession()": "infinite",
						"consultVote(address)": "infinite",
						"currentSessionStatus()": "2695",
						"displayProposals()": "infinite",
						"getWinner()": "infinite",
						"openProposalRegistration()": "infinite",
						"openVotingSession()": "infinite",
						"owner()": "2626",
						"previousSessionStatus()": "2712",
						"proposalRegistrationSessionIsOpened()": "2584",
						"proposals(uint256)": "infinite",
						"registerVoter(address)": "infinite",
						"registerVoters(address[])": "infinite",
						"renounceOwnership()": "infinite",
						"submitProposal(string)": "infinite",
						"tallyVotes()": "infinite",
						"transferOwnership(address)": "infinite",
						"vote(uint256)": "infinite",
						"voterRegistrationIsOpened()": "2555",
						"voters(address)": "infinite",
						"votingSessionIsOpened()": "2562",
						"winningProposal()": "infinite"
					}
				},
				"methodIdentifiers": {
					"closeProposalRegistration()": "07fa315f",
					"closeVotingSession()": "4de17bca",
					"consultVote(address)": "55880949",
					"currentSessionStatus()": "1181a490",
					"displayProposals()": "67469356",
					"getWinner()": "8e7ea5b2",
					"openProposalRegistration()": "b2c63487",
					"openVotingSession()": "eaa37999",
					"owner()": "8da5cb5b",
					"previousSessionStatus()": "f06d1090",
					"proposalRegistrationSessionIsOpened()": "3fb2d578",
					"proposals(uint256)": "013cf08b",
					"registerVoter(address)": "38db6dd3",
					"registerVoters(address[])": "d55ec9c1",
					"renounceOwnership()": "715018a6",
					"submitProposal(string)": "373d6d5e",
					"tallyVotes()": "378a2178",
					"transferOwnership(address)": "f2fde38b",
					"vote(uint256)": "0121b93f",
					"voterRegistrationIsOpened()": "7c70458f",
					"voters(address)": "a3ec138d",
					"votingSessionIsOpened()": "686caf9e",
					"winningProposal()": "609ff1bd"
				}
			},
			"storageLayout": {
				"storage": [
					{
						"astId": 8,
						"contract": "contracts/Voting.sol:Voting",
						"label": "_owner",
						"offset": 0,
						"slot": "0",
						"type": "t_address"
					},
					{
						"astId": 1612,
						"contract": "contracts/Voting.sol:Voting",
						"label": "contractOwner",
						"offset": 0,
						"slot": "1",
						"type": "t_address"
					},
					{
						"astId": 1617,
						"contract": "contracts/Voting.sol:Voting",
						"label": "voters",
						"offset": 0,
						"slot": "2",
						"type": "t_mapping(t_address,t_struct(Voter)1596_storage)"
					},
					{
						"astId": 1621,
						"contract": "contracts/Voting.sol:Voting",
						"label": "proposals",
						"offset": 0,
						"slot": "3",
						"type": "t_array(t_struct(Proposal)1603_storage)dyn_storage"
					},
					{
						"astId": 1623,
						"contract": "contracts/Voting.sol:Voting",
						"label": "voterRegistrationIsOpened",
						"offset": 0,
						"slot": "4",
						"type": "t_bool"
					},
					{
						"astId": 1625,
						"contract": "contracts/Voting.sol:Voting",
						"label": "proposalRegistrationSessionIsOpened",
						"offset": 1,
						"slot": "4",
						"type": "t_bool"
					},
					{
						"astId": 1627,
						"contract": "contracts/Voting.sol:Voting",
						"label": "votingSessionIsOpened",
						"offset": 2,
						"slot": "4",
						"type": "t_bool"
					},
					{
						"astId": 1630,
						"contract": "contracts/Voting.sol:Voting",
						"label": "currentSessionStatus",
						"offset": 3,
						"slot": "4",
						"type": "t_enum(WorkflowStatus)1610"
					},
					{
						"astId": 1633,
						"contract": "contracts/Voting.sol:Voting",
						"label": "previousSessionStatus",
						"offset": 4,
						"slot": "4",
						"type": "t_enum(WorkflowStatus)1610"
					}
				],
				"types": {
					"t_address": {
						"encoding": "inplace",
						"label": "address",
						"numberOfBytes": "20"
					},
					"t_array(t_struct(Proposal)1603_storage)dyn_storage": {
						"base": "t_struct(Proposal)1603_storage",
						"encoding": "dynamic_array",
						"label": "struct Voting.Proposal[]",
						"numberOfBytes": "32"
					},
					"t_bool": {
						"encoding": "inplace",
						"label": "bool",
						"numberOfBytes": "1"
					},
					"t_enum(WorkflowStatus)1610": {
						"encoding": "inplace",
						"label": "enum Voting.WorkflowStatus",
						"numberOfBytes": "1"
					},
					"t_mapping(t_address,t_struct(Voter)1596_storage)": {
						"encoding": "mapping",
						"key": "t_address",
						"label": "mapping(address => struct Voting.Voter)",
						"numberOfBytes": "32",
						"value": "t_struct(Voter)1596_storage"
					},
					"t_string_storage": {
						"encoding": "bytes",
						"label": "string",
						"numberOfBytes": "32"
					},
					"t_struct(Proposal)1603_storage": {
						"encoding": "inplace",
						"label": "struct Voting.Proposal",
						"members": [
							{
								"astId": 1598,
								"contract": "contracts/Voting.sol:Voting",
								"label": "hasBeenSubmittedBy",
								"offset": 0,
								"slot": "0",
								"type": "t_address"
							},
							{
								"astId": 1600,
								"contract": "contracts/Voting.sol:Voting",
								"label": "description",
								"offset": 0,
								"slot": "1",
								"type": "t_string_storage"
							},
							{
								"astId": 1602,
								"contract": "contracts/Voting.sol:Voting",
								"label": "voteCount",
								"offset": 0,
								"slot": "2",
								"type": "t_uint256"
							}
						],
						"numberOfBytes": "96"
					},
					"t_struct(Voter)1596_storage": {
						"encoding": "inplace",
						"label": "struct Voting.Voter",
						"members": [
							{
								"astId": 1591,
								"contract": "contracts/Voting.sol:Voting",
								"label": "isRegistered",
								"offset": 0,
								"slot": "0",
								"type": "t_bool"
							},
							{
								"astId": 1593,
								"contract": "contracts/Voting.sol:Voting",
								"label": "hasVoted",
								"offset": 1,
								"slot": "0",
								"type": "t_bool"
							},
							{
								"astId": 1595,
								"contract": "contracts/Voting.sol:Voting",
								"label": "votedProposalId",
								"offset": 0,
								"slot": "1",
								"type": "t_uint256"
							}
						],
						"numberOfBytes": "64"
					},
					"t_uint256": {
						"encoding": "inplace",
						"label": "uint256",
						"numberOfBytes": "32"
					}
				}
			},
			"userdoc": {
				"kind": "user",
				"methods": {},
				"version": 1
			}
		}
	}
}