{
	"data": {
		"bytecode": {
			"linkReferences": {},
			"object": "608060405234801562000010575f80fd5b5060405162005f9738038062005f97833981810160405281019062000036919062000229565b805f73ffffffffffffffffffffffffffffffffffffffff168173ffffffffffffffffffffffffffffffffffffffff1603620000aa575f6040517f1e4fbdf7000000000000000000000000000000000000000000000000000000008152600401620000a191906200026a565b60405180910390fd5b620000bb816200010360201b60201c565b508060015f6101000a81548173ffffffffffffffffffffffffffffffffffffffff021916908373ffffffffffffffffffffffffffffffffffffffff1602179055505062000285565b5f805f9054906101000a900473ffffffffffffffffffffffffffffffffffffffff169050815f806101000a81548173ffffffffffffffffffffffffffffffffffffffff021916908373ffffffffffffffffffffffffffffffffffffffff1602179055508173ffffffffffffffffffffffffffffffffffffffff168173ffffffffffffffffffffffffffffffffffffffff167f8be0079c531659141344cd1fd0a4f28419497f9722a3daafe3b4186f6b6457e060405160405180910390a35050565b5f80fd5b5f73ffffffffffffffffffffffffffffffffffffffff82169050919050565b5f620001f382620001c8565b9050919050565b6200020581620001e7565b811462000210575f80fd5b50565b5f815190506200022381620001fa565b92915050565b5f60208284031215620002415762000240620001c4565b5b5f620002508482850162000213565b91505092915050565b6200026481620001e7565b82525050565b5f6020820190506200027f5f83018462000259565b92915050565b615d0480620002935f395ff3fe608060405234801561000f575f80fd5b5060043610610156575f3560e01c8063798c0f7e116100c1578063b2c634871161007a578063b2c63487146103b6578063bcee5b2a146103d4578063d55ec9c1146103f2578063eaa3799914610422578063ee53e77814610440578063f2fde38b1461045e57610156565b8063798c0f7e146102f257806386c1ff68146103105780638da5cb5b146103405780638e7ea5b21461035e578063a51346201461037c578063a941b0991461039a57610156565b80634de17bca116101135780634de17bca1461022e578063558809491461024c57806356643ca51461027c578063582aa4dd146102ac57806367469356146102ca578063715018a6146102e857610156565b80630121b93f1461015a57806307fa315f1461018a578063373d6d5e146101a8578063378a2178146101d857806338db6dd3146101e25780634500f68914610212575b5f80fd5b610174600480360381019061016f919061340e565b61047a565b60405161018191906134c3565b60405180910390f35b6101926106aa565b60405161019f91906134c3565b60405180910390f35b6101c260048036038101906101bd9190613544565b610880565b6040516101cf91906134c3565b60405180910390f35b6101e0610b17565b005b6101fc60048036038101906101f791906135e9565b610ca7565b60405161020991906134c3565b60405180910390f35b61022c60048036038101906102279190613544565b611045565b005b61023661127d565b60405161024391906134c3565b60405180910390f35b610266600480360381019061026191906135e9565b611471565b60405161027391906134c3565b60405180910390f35b6102966004803603810190610291919061374c565b6116cc565b6040516102a391906134c3565b60405180910390f35b6102b4611842565b6040516102c191906134c3565b60405180910390f35b6102d2611a19565b6040516102df91906134c3565b60405180910390f35b6102f0611b63565b005b6102fa611b76565b60405161030791906134c3565b60405180910390f35b61032a600480360381019061032591906135e9565b611d4d565b60405161033791906134c3565b60405180910390f35b610348611f23565b60405161035591906137a2565b60405180910390f35b610366611f4a565b60405161037391906137a2565b60405180910390f35b61038461200e565b60405161039191906134c3565b60405180910390f35b6103b460048036038101906103af9190613544565b61213b565b005b6103be612292565b6040516103cb91906134c3565b60405180910390f35b6103dc612469565b6040516103e991906134c3565b60405180910390f35b61040c60048036038101906104079190613810565b61265b565b60405161041991906134c3565b60405180910390f35b61042a612847565b60405161043791906134c3565b60405180910390f35b610448612a3b565b60405161045591906134c3565b60405180910390f35b610478600480360381019061047391906135e9565b612c25565b005b6060600660088111156104905761048f61385b565b5b600560049054906101000a900460ff1660088111156104b2576104b161385b565b5b146104f2576040517f08c379a00000000000000000000000000000000000000000000000000000000081526004016104e9906138f8565b60405180910390fd5b5f60025f3373ffffffffffffffffffffffffffffffffffffffff1673ffffffffffffffffffffffffffffffffffffffff1681526020019081526020015f209050805f015f9054906101000a900460ff16610581576040517f08c379a000000000000000000000000000000000000000000000000000000000815260040161057890613960565b60405180910390fd5b805f0160019054906101000a900460ff16156105d2576040517f08c379a00000000000000000000000000000000000000000000000000000000081526004016105c9906139c8565b60405180910390fd5b6001815f0160016101000a81548160ff0219169083151502179055508281600101819055506003838154811061060b5761060a6139e6565b5b905f5260205f2090600302016002015f81548092919061062a90613a40565b91905055507f4d99b957a2bc29a30ebd96a7be8e68fe50a3c701db28a91436490b7d53870ca4338260010154604051610664929190613a96565b60405180910390a16040518060400160405280600f81526020017f566f746520726567697374657265640000000000000000000000000000000000815250915050919050565b606060015f9054906101000a900473ffffffffffffffffffffffffffffffffffffffff1673ffffffffffffffffffffffffffffffffffffffff163373ffffffffffffffffffffffffffffffffffffffff161461073b576040517f08c379a000000000000000000000000000000000000000000000000000000000815260040161073290613b2d565b60405180910390fd5b60011515600560029054906101000a900460ff16151514610791576040517f08c379a000000000000000000000000000000000000000000000000000000000815260040161078890613be1565b60405180910390fd5b5f600560026101000a81548160ff021916908315150217905550600560049054906101000a900460ff166005806101000a81548160ff021916908360088111156107de576107dd61385b565b5b021790555060058060046101000a81548160ff021916908360088111156108085761080761385b565b5b02179055507f0a97a4ee45751e2abf3e4fc8946939630b11b371ea8ae39ccdc3056e98f5cc3f60058054906101000a900460ff16600560049054906101000a900460ff1660405161085a929190613c45565b60405180910390a1604051806060016040528060288152602001615c5a60289139905090565b60606001151560025f3373ffffffffffffffffffffffffffffffffffffffff1673ffffffffffffffffffffffffffffffffffffffff1681526020019081526020015f205f015f9054906101000a900460ff16151514610914576040517f08c379a000000000000000000000000000000000000000000000000000000000815260040161090b90613cdc565b60405180910390fd5b600460088111156109285761092761385b565b5b600560049054906101000a900460ff16600881111561094a5761094961385b565b5b1461098a576040517f08c379a000000000000000000000000000000000000000000000000000000000815260040161098190613d6a565b60405180910390fd5b5f60405180606001604052803373ffffffffffffffffffffffffffffffffffffffff16815260200185858080601f0160208091040260200160405190810160405280939291908181526020018383808284375f81840152601f19601f8201169050808301925050505050505081526020015f8152509050600381908060018154018082558091505060019003905f5260205f2090600302015f909190919091505f820151815f015f6101000a81548173ffffffffffffffffffffffffffffffffffffffff021916908373ffffffffffffffffffffffffffffffffffffffff1602179055506020820151816001019081610a839190613f82565b506040820151816002015550507f92e393e9b54e2f801d3ea4beb0c5e71a21cc34a5d34b77d0fb8a3aa1650dc18f6001600380549050610ac39190614051565b604051610ad09190614084565b60405180910390a16040518060400160405280601281526020017f50726f706f73616c207375626d6974746564000000000000000000000000000081525091505092915050565b60015f9054906101000a900473ffffffffffffffffffffffffffffffffffffffff1673ffffffffffffffffffffffffffffffffffffffff163373ffffffffffffffffffffffffffffffffffffffff1614610ba6576040517f08c379a0000000000000000000000000000000000000000000000000000000008152600401610b9d90614133565b60405180910390fd5b5f60038054905011610bed576040517f08c379a0000000000000000000000000000000000000000000000000000000008152600401610be4906141c1565b60405180910390fd5b600560049054906101000a900460ff166005806101000a81548160ff02191690836008811115610c2057610c1f61385b565b5b02179055506008600560046101000a81548160ff02191690836008811115610c4b57610c4a61385b565b5b02179055507f0a97a4ee45751e2abf3e4fc8946939630b11b371ea8ae39ccdc3056e98f5cc3f60058054906101000a900460ff16600560049054906101000a900460ff16604051610c9d929190613c45565b60405180910390a1565b6060816001151560025f8373ffffffffffffffffffffffffffffffffffffffff1673ffffffffffffffffffffffffffffffffffffffff1681526020019081526020015f205f015f9054906101000a900460ff1615151415610d0782612ca9565b604051602001610d179190614265565b60405160208183030381529060405290610d67576040517f08c379a0000000000000000000000000000000000000000000000000000000008152600401610d5e91906134c3565b60405180910390fd5b5060015f9054906101000a900473ffffffffffffffffffffffffffffffffffffffff1673ffffffffffffffffffffffffffffffffffffffff163373ffffffffffffffffffffffffffffffffffffffff1614610df7576040517f08c379a0000000000000000000000000000000000000000000000000000000008152600401610dee90614309565b60405180910390fd5b6001151560055f9054906101000a900460ff16151514610e4c576040517f08c379a0000000000000000000000000000000000000000000000000000000008152600401610e43906143bd565b60405180910390fd5b60026008811115610e6057610e5f61385b565b5b600560049054906101000a900460ff166008811115610e8257610e8161385b565b5b14610ec2576040517f08c379a0000000000000000000000000000000000000000000000000000000008152600401610eb990614471565b60405180910390fd5b600160025f8573ffffffffffffffffffffffffffffffffffffffff1673ffffffffffffffffffffffffffffffffffffffff1681526020019081526020015f205f015f6101000a81548160ff0219169083151502179055505f60025f8573ffffffffffffffffffffffffffffffffffffffff1673ffffffffffffffffffffffffffffffffffffffff1681526020019081526020015f205f0160016101000a81548160ff021916908315150217905550600483908060018154018082558091505060019003905f5260205f20015f9091909190916101000a81548173ffffffffffffffffffffffffffffffffffffffff021916908373ffffffffffffffffffffffffffffffffffffffff1602179055507fb6be2187d059cc2a55fe29e0e503b566e1e0f8c8780096e185429350acffd3dd83604051610fff91906137a2565b60405180910390a16040518060400160405280601081526020017f566f746572207265676973746572656400000000000000000000000000000000815250915050919050565b60015f9054906101000a900473ffffffffffffffffffffffffffffffffffffffff1673ffffffffffffffffffffffffffffffffffffffff163373ffffffffffffffffffffffffffffffffffffffff16146110d4576040517f08c379a00000000000000000000000000000000000000000000000000000000081526004016110cb906144ff565b60405180910390fd5b6001151560055f9054906101000a900460ff161515148015611109575060011515600560039054906101000a900460ff161515145b611148576040517f08c379a000000000000000000000000000000000000000000000000000000000815260040161113f906145b3565b60405180910390fd5b5f828260405160200161115c929190614699565b60405160208183030381529060405290507f8cc3686a72325c2385bad54b271cb2f124e8ae1e52479bd8d6edbccd3817eea78160405161119c91906134c3565b60405180910390a15f5b600480549050811015611258575f60025f600484815481106111cb576111ca6139e6565b5b905f5260205f20015f9054906101000a900473ffffffffffffffffffffffffffffffffffffffff1673ffffffffffffffffffffffffffffffffffffffff1673ffffffffffffffffffffffffffffffffffffffff1681526020019081526020015f205f0160016101000a81548160ff021916908315150217905550808061125090613a40565b9150506111a6565b5060035f61126691906132ff565b61126e61127d565b50611277612292565b50505050565b606060015f9054906101000a900473ffffffffffffffffffffffffffffffffffffffff1673ffffffffffffffffffffffffffffffffffffffff163373ffffffffffffffffffffffffffffffffffffffff161461130e576040517f08c379a00000000000000000000000000000000000000000000000000000000081526004016113059061472c565b60405180910390fd5b60011515600560039054906101000a900460ff16151514611364576040517f08c379a000000000000000000000000000000000000000000000000000000000815260040161135b906147e0565b60405180910390fd5b5f600560036101000a81548160ff021916908315150217905550600560049054906101000a900460ff166005806101000a81548160ff021916908360088111156113b1576113b061385b565b5b02179055506007600560046101000a81548160ff021916908360088111156113dc576113db61385b565b5b02179055507f0a97a4ee45751e2abf3e4fc8946939630b11b371ea8ae39ccdc3056e98f5cc3f60058054906101000a900460ff16600560049054906101000a900460ff1660405161142e929190613c45565b60405180910390a16040518060400160405280602081526020017f54686520766f74696e672073657373696f6e206973206e6f7720636c6f736564815250905090565b606060025f3373ffffffffffffffffffffffffffffffffffffffff1673ffffffffffffffffffffffffffffffffffffffff1681526020019081526020015f205f015f9054906101000a900460ff166114fe576040517f08c379a00000000000000000000000000000000000000000000000000000000081526004016114f590614848565b60405180910390fd5b6001151560055f9054906101000a900460ff16151514801561155357506006600881111561152f5761152e61385b565b5b600560049054906101000a900460ff1660088111156115515761155061385b565b5b145b611592576040517f08c379a0000000000000000000000000000000000000000000000000000000008152600401611589906148fc565b60405180910390fd5b6001151560025f8473ffffffffffffffffffffffffffffffffffffffff1673ffffffffffffffffffffffffffffffffffffffff1681526020019081526020015f205f0160019054906101000a900460ff16151514611625576040517f08c379a000000000000000000000000000000000000000000000000000000000815260040161161c906149b0565b60405180910390fd5b5f60025f8473ffffffffffffffffffffffffffffffffffffffff1673ffffffffffffffffffffffffffffffffffffffff1681526020019081526020015f206001015490505f6003828154811061167e5761167d6139e6565b5b905f5260205f209060030201600101905061169884612ca9565b6116a183612cd6565b826040516020016116b493929190614aac565b60405160208183030381529060405292505050919050565b606060015f9054906101000a900473ffffffffffffffffffffffffffffffffffffffff1673ffffffffffffffffffffffffffffffffffffffff163373ffffffffffffffffffffffffffffffffffffffff161461175d576040517f08c379a000000000000000000000000000000000000000000000000000000000815260040161175490614b79565b60405180910390fd5b6001151560055f9054906101000a900460ff16151514801561178357505f600480549050115b6117c2576040517f08c379a00000000000000000000000000000000000000000000000000000000081526004016117b990614c2d565b60405180910390fd5b5f5b8251811015611804576117f08382815181106117e3576117e26139e6565b5b6020026020010151611d4d565b5080806117fc90613a40565b9150506117c4565b506040518060400160405280600e81526020017f566f746572732072656d6f7665640000000000000000000000000000000000008152509050919050565b606060015f9054906101000a900473ffffffffffffffffffffffffffffffffffffffff1673ffffffffffffffffffffffffffffffffffffffff163373ffffffffffffffffffffffffffffffffffffffff16146118d3576040517f08c379a00000000000000000000000000000000000000000000000000000000081526004016118ca90614cbb565b60405180910390fd5b60011515600560019054906101000a900460ff16151514611929576040517f08c379a000000000000000000000000000000000000000000000000000000000815260040161192090614d6f565b60405180910390fd5b5f600560016101000a81548160ff021916908315150217905550600560049054906101000a900460ff166005806101000a81548160ff021916908360088111156119765761197561385b565b5b02179055506003600560046101000a81548160ff021916908360088111156119a1576119a061385b565b5b02179055507f0a97a4ee45751e2abf3e4fc8946939630b11b371ea8ae39ccdc3056e98f5cc3f60058054906101000a900460ff16600560049054906101000a900460ff166040516119f3929190613c45565b60405180910390a1604051806060016040528060258152602001615caa60259139905090565b606060025f3373ffffffffffffffffffffffffffffffffffffffff1673ffffffffffffffffffffffffffffffffffffffff1681526020019081526020015f205f015f9054906101000a900460ff16611aa6576040517f08c379a0000000000000000000000000000000000000000000000000000000008152600401611a9d90614dfd565b60405180910390fd5b5f60038054905011611aed576040517f08c379a0000000000000000000000000000000000000000000000000000000008152600401611ae490614e65565b60405180910390fd5b5f5b600380549050811015611b5f5781611b0682612cd6565b60038381548110611b1a57611b196139e6565b5b905f5260205f209060030201600101604051602001611b3b93929190614f75565b60405160208183030381529060405291508080611b5790613a40565b915050611aef565b5090565b611b6b612da0565b611b745f612e27565b565b606060015f9054906101000a900473ffffffffffffffffffffffffffffffffffffffff1673ffffffffffffffffffffffffffffffffffffffff163373ffffffffffffffffffffffffffffffffffffffff1614611c07576040517f08c379a0000000000000000000000000000000000000000000000000000000008152600401611bfe90615042565b60405180910390fd5b6001151560055f9054906101000a900460ff16151514611c5c576040517f08c379a0000000000000000000000000000000000000000000000000000000008152600401611c53906150f6565b60405180910390fd5b6001600560016101000a81548160ff021916908315150217905550600560049054906101000a900460ff166005806101000a81548160ff02191690836008811115611caa57611ca961385b565b5b02179055506002600560046101000a81548160ff02191690836008811115611cd557611cd461385b565b5b02179055507f0a97a4ee45751e2abf3e4fc8946939630b11b371ea8ae39ccdc3056e98f5cc3f60058054906101000a900460ff16600560049054906101000a900460ff16604051611d27929190613c45565b60405180910390a1604051806060016040528060258152602001615c3560259139905090565b606060015f9054906101000a900473ffffffffffffffffffffffffffffffffffffffff1673ffffffffffffffffffffffffffffffffffffffff163373ffffffffffffffffffffffffffffffffffffffff1614611dde576040517f08c379a0000000000000000000000000000000000000000000000000000000008152600401611dd590615184565b60405180910390fd5b6001151560055f9054906101000a900460ff161515148015611e0457505f600480549050115b611e43576040517f08c379a0000000000000000000000000000000000000000000000000000000008152600401611e3a90615238565b60405180910390fd5b60025f8373ffffffffffffffffffffffffffffffffffffffff1673ffffffffffffffffffffffffffffffffffffffff1681526020019081526020015f205f8082015f6101000a81549060ff02191690555f820160016101000a81549060ff0219169055600182015f905550507fa14a79af012d1756818f9bd59ccfc9ad185a71df86b9392d9059d9e6faf6d64482604051611ede91906137a2565b60405180910390a16040518060400160405280600e81526020017f566f746572732072656d6f7665640000000000000000000000000000000000008152509050919050565b5f805f9054906101000a900473ffffffffffffffffffffffffffffffffffffffff16905090565b5f600880811115611f5e57611f5d61385b565b5b600560049054906101000a900460ff166008811115611f8057611f7f61385b565b5b14611fc0576040517f08c379a0000000000000000000000000000000000000000000000000000000008152600401611fb7906152c6565b60405180910390fd5b6003611fca612ee8565b81548110611fdb57611fda6139e6565b5b905f5260205f2090600302015f015f9054906101000a900473ffffffffffffffffffffffffffffffffffffffff16905090565b60606008808111156120235761202261385b565b5b600560049054906101000a900460ff1660088111156120455761204461385b565b5b14612085576040517f08c379a000000000000000000000000000000000000000000000000000000000815260040161207c9061537a565b60405180910390fd5b600361208f612ee8565b815481106120a05761209f6139e6565b5b905f5260205f20906003020160010180546120ba90613db5565b80601f01602080910402602001604051908101604052809291908181526020018280546120e690613db5565b80156121315780601f1061210857610100808354040283529160200191612131565b820191905f5260205f20905b81548152906001019060200180831161211457829003601f168201915b5050505050905090565b60015f9054906101000a900473ffffffffffffffffffffffffffffffffffffffff1673ffffffffffffffffffffffffffffffffffffffff163373ffffffffffffffffffffffffffffffffffffffff16146121ca576040517f08c379a00000000000000000000000000000000000000000000000000000000081526004016121c190615408565b60405180910390fd5b6001151560055f9054906101000a900460ff1615151461221f576040517f08c379a000000000000000000000000000000000000000000000000000000000815260040161221690615496565b60405180910390fd5b5f8282604051602001612233929190615524565b60405160208183030381529060405290507f4426482700b103b4d462340ae3eb71b1797fcb09a90c8e1c8f0c4ea8eff0cb0f8160405161227391906134c3565b60405180910390a1612283612a3b565b5061228c612292565b50505050565b606060015f9054906101000a900473ffffffffffffffffffffffffffffffffffffffff1673ffffffffffffffffffffffffffffffffffffffff163373ffffffffffffffffffffffffffffffffffffffff1614612323576040517f08c379a000000000000000000000000000000000000000000000000000000000815260040161231a906155b7565b60405180910390fd5b6001151560055f9054906101000a900460ff16151514612378576040517f08c379a000000000000000000000000000000000000000000000000000000000815260040161236f9061566b565b60405180910390fd5b6001600560026101000a81548160ff021916908315150217905550600560049054906101000a900460ff166005806101000a81548160ff021916908360088111156123c6576123c561385b565b5b02179055506004600560046101000a81548160ff021916908360088111156123f1576123f061385b565b5b02179055507f0a97a4ee45751e2abf3e4fc8946939630b11b371ea8ae39ccdc3056e98f5cc3f60058054906101000a900460ff16600560049054906101000a900460ff16604051612443929190613c45565b60405180910390a1604051806060016040528060288152602001615c8260289139905090565b606060015f9054906101000a900473ffffffffffffffffffffffffffffffffffffffff1673ffffffffffffffffffffffffffffffffffffffff163373ffffffffffffffffffffffffffffffffffffffff16146124fa576040517f08c379a00000000000000000000000000000000000000000000000000000000081526004016124f1906156f9565b60405180910390fd5b6001151560055f9054906101000a900460ff1615151461254f576040517f08c379a000000000000000000000000000000000000000000000000000000000815260040161254690615787565b60405180910390fd5b5f60055f6101000a81548160ff021916908315150217905550600560049054906101000a900460ff166005806101000a81548160ff0219169083600881111561259b5761259a61385b565b5b02179055506001600560046101000a81548160ff021916908360088111156125c6576125c561385b565b5b02179055507f0a97a4ee45751e2abf3e4fc8946939630b11b371ea8ae39ccdc3056e98f5cc3f60058054906101000a900460ff16600560049054906101000a900460ff16604051612618929190613c45565b60405180910390a16040518060400160405280602081526020017f54686520676c6f62616c2073657373696f6e206973206e6f7720636c6f736564815250905090565b606060015f9054906101000a900473ffffffffffffffffffffffffffffffffffffffff1673ffffffffffffffffffffffffffffffffffffffff163373ffffffffffffffffffffffffffffffffffffffff16146126ec576040517f08c379a00000000000000000000000000000000000000000000000000000000081526004016126e390615815565b60405180910390fd5b6001151560055f9054906101000a900460ff16151514612741576040517f08c379a0000000000000000000000000000000000000000000000000000000008152600401612738906158c9565b60405180910390fd5b600260088111156127555761275461385b565b5b600560049054906101000a900460ff1660088111156127775761277661385b565b5b146127b7576040517f08c379a00000000000000000000000000000000000000000000000000000000081526004016127ae9061597d565b60405180910390fd5b5f5b83839050811015612808576127f48484838181106127da576127d96139e6565b5b90506020020160208101906127ef91906135e9565b610ca7565b50808061280090613a40565b9150506127b9565b506040518060400160405280601181526020017f566f746572732072656769737465726564000000000000000000000000000000815250905092915050565b606060015f9054906101000a900473ffffffffffffffffffffffffffffffffffffffff1673ffffffffffffffffffffffffffffffffffffffff163373ffffffffffffffffffffffffffffffffffffffff16146128d8576040517f08c379a00000000000000000000000000000000000000000000000000000000081526004016128cf90615a0b565b60405180910390fd5b6001151560055f9054906101000a900460ff1615151461292d576040517f08c379a000000000000000000000000000000000000000000000000000000000815260040161292490615a99565b60405180910390fd5b6001600560036101000a81548160ff021916908315150217905550600560049054906101000a900460ff166005806101000a81548160ff0219169083600881111561297b5761297a61385b565b5b02179055506006600560046101000a81548160ff021916908360088111156129a6576129a561385b565b5b02179055507f0a97a4ee45751e2abf3e4fc8946939630b11b371ea8ae39ccdc3056e98f5cc3f60058054906101000a900460ff16600560049054906101000a900460ff166040516129f8929190613c45565b60405180910390a16040518060400160405280602081526020017f54686520766f74696e672073657373696f6e206973206e6f77206f70656e6564815250905090565b606060015f9054906101000a900473ffffffffffffffffffffffffffffffffffffffff1673ffffffffffffffffffffffffffffffffffffffff163373ffffffffffffffffffffffffffffffffffffffff1614612acc576040517f08c379a0000000000000000000000000000000000000000000000000000000008152600401612ac390615b27565b60405180910390fd5b5f600560016101000a81548160ff0219169083151502179055505f600560026101000a81548160ff0219169083151502179055505f600560036101000a81548160ff0219169083151502179055505f6004805490501115612bb557612bb36004805480602002602001604051908101604052809291908181526020018280548015612ba957602002820191905f5260205f20905b815f9054906101000a900473ffffffffffffffffffffffffffffffffffffffff1673ffffffffffffffffffffffffffffffffffffffff1681526020019060010190808311612b60575b50505050506116cc565b505b5f6003805490501115612bd05760035f612bcf91906132ff565b5b6040518060400160405280601b81526020017f41206e65772073657373696f6e206973206e6f77206f70656e656400000000008152509050600160055f6101000a81548160ff02191690831515021790555090565b612c2d612da0565b5f73ffffffffffffffffffffffffffffffffffffffff168173ffffffffffffffffffffffffffffffffffffffff1603612c9d575f6040517f1e4fbdf7000000000000000000000000000000000000000000000000000000008152600401612c9491906137a2565b60405180910390fd5b612ca681612e27565b50565b6060612ccf8273ffffffffffffffffffffffffffffffffffffffff16601460ff16612f69565b9050919050565b60605f6001612ce4846131a7565b0190505f8167ffffffffffffffff811115612d0257612d01613614565b5b6040519080825280601f01601f191660200182016040528015612d345781602001600182028036833780820191505090505b5090505f82602001820190505b600115612d95578080600190039150507f3031323334353637383961626364656600000000000000000000000000000000600a86061a8153600a8581612d8a57612d89615b45565b5b0494505f8503612d41575b819350505050919050565b612da86132f8565b73ffffffffffffffffffffffffffffffffffffffff16612dc6611f23565b73ffffffffffffffffffffffffffffffffffffffff1614612e2557612de96132f8565b6040517f118cdaa7000000000000000000000000000000000000000000000000000000008152600401612e1c91906137a2565b60405180910390fd5b565b5f805f9054906101000a900473ffffffffffffffffffffffffffffffffffffffff169050815f806101000a81548173ffffffffffffffffffffffffffffffffffffffff021916908373ffffffffffffffffffffffffffffffffffffffff1602179055508173ffffffffffffffffffffffffffffffffffffffff168173ffffffffffffffffffffffffffffffffffffffff167f8be0079c531659141344cd1fd0a4f28419497f9722a3daafe3b4186f6b6457e060405160405180910390a35050565b5f805f90505f5b600380549050811015612f64578160038281548110612f1157612f106139e6565b5b905f5260205f209060030201600201541115612f515760038181548110612f3b57612f3a6139e6565b5b905f5260205f2090600302016002015491508092505b8080612f5c90613a40565b915050612eef565b505090565b60605f8390505f6002846002612f7f9190615b72565b612f899190615bb3565b67ffffffffffffffff811115612fa257612fa1613614565b5b6040519080825280601f01601f191660200182016040528015612fd45781602001600182028036833780820191505090505b5090507f3000000000000000000000000000000000000000000000000000000000000000815f8151811061300b5761300a6139e6565b5b60200101907effffffffffffffffffffffffffffffffffffffffffffffffffffffffffffff191690815f1a9053507f78000000000000000000000000000000000000000000000000000000000000008160018151811061306e5761306d6139e6565b5b60200101907effffffffffffffffffffffffffffffffffffffffffffffffffffffffffffff191690815f1a9053505f60018560026130ac9190615b72565b6130b69190615bb3565b90505b6001811115613155577f3031323334353637383961626364656600000000000000000000000000000000600f8416601081106130f8576130f76139e6565b5b1a60f81b82828151811061310f5761310e6139e6565b5b60200101907effffffffffffffffffffffffffffffffffffffffffffffffffffffffffffff191690815f1a905350600483901c92508061314e90615be6565b90506130b9565b505f821461319c5784846040517fe22e27eb000000000000000000000000000000000000000000000000000000008152600401613193929190615c0d565b60405180910390fd5b809250505092915050565b5f805f90507a184f03e93ff9f4daa797ed6e38ed64bf6a1f0100000000000000008310613203577a184f03e93ff9f4daa797ed6e38ed64bf6a1f01000000000000000083816131f9576131f8615b45565b5b0492506040810190505b6d04ee2d6d415b85acef81000000008310613240576d04ee2d6d415b85acef8100000000838161323657613235615b45565b5b0492506020810190505b662386f26fc10000831061326f57662386f26fc10000838161326557613264615b45565b5b0492506010810190505b6305f5e1008310613298576305f5e100838161328e5761328d615b45565b5b0492506008810190505b61271083106132bd5761271083816132b3576132b2615b45565b5b0492506004810190505b606483106132e057606483816132d6576132d5615b45565b5b0492506002810190505b600a83106132ef576001810190505b80915050919050565b5f33905090565b5080545f8255600302905f5260205f209081019061331d9190613320565b50565b5b8082111561336e575f8082015f6101000a81549073ffffffffffffffffffffffffffffffffffffffff0219169055600182015f61335e9190613372565b600282015f905550600301613321565b5090565b50805461337e90613db5565b5f825580601f1061338f57506133ac565b601f0160209004905f5260205f20908101906133ab91906133af565b5b50565b5b808211156133c6575f815f9055506001016133b0565b5090565b5f604051905090565b5f80fd5b5f80fd5b5f819050919050565b6133ed816133db565b81146133f7575f80fd5b50565b5f81359050613408816133e4565b92915050565b5f60208284031215613423576134226133d3565b5b5f613430848285016133fa565b91505092915050565b5f81519050919050565b5f82825260208201905092915050565b5f5b83811015613470578082015181840152602081019050613455565b5f8484015250505050565b5f601f19601f8301169050919050565b5f61349582613439565b61349f8185613443565b93506134af818560208601613453565b6134b88161347b565b840191505092915050565b5f6020820190508181035f8301526134db818461348b565b905092915050565b5f80fd5b5f80fd5b5f80fd5b5f8083601f840112613504576135036134e3565b5b8235905067ffffffffffffffff811115613521576135206134e7565b5b60208301915083600182028301111561353d5761353c6134eb565b5b9250929050565b5f806020838503121561355a576135596133d3565b5b5f83013567ffffffffffffffff811115613577576135766133d7565b5b613583858286016134ef565b92509250509250929050565b5f73ffffffffffffffffffffffffffffffffffffffff82169050919050565b5f6135b88261358f565b9050919050565b6135c8816135ae565b81146135d2575f80fd5b50565b5f813590506135e3816135bf565b92915050565b5f602082840312156135fe576135fd6133d3565b5b5f61360b848285016135d5565b91505092915050565b7f4e487b71000000000000000000000000000000000000000000000000000000005f52604160045260245ffd5b61364a8261347b565b810181811067ffffffffffffffff8211171561366957613668613614565b5b80604052505050565b5f61367b6133ca565b90506136878282613641565b919050565b5f67ffffffffffffffff8211156136a6576136a5613614565b5b602082029050602081019050919050565b5f6136c96136c48461368c565b613672565b905080838252602082019050602084028301858111156136ec576136eb6134eb565b5b835b81811015613715578061370188826135d5565b8452602084019350506020810190506136ee565b5050509392505050565b5f82601f830112613733576137326134e3565b5b81356137438482602086016136b7565b91505092915050565b5f60208284031215613761576137606133d3565b5b5f82013567ffffffffffffffff81111561377e5761377d6133d7565b5b61378a8482850161371f565b91505092915050565b61379c816135ae565b82525050565b5f6020820190506137b55f830184613793565b92915050565b5f8083601f8401126137d0576137cf6134e3565b5b8235905067ffffffffffffffff8111156137ed576137ec6134e7565b5b602083019150836020820283011115613809576138086134eb565b5b9250929050565b5f8060208385031215613826576138256133d3565b5b5f83013567ffffffffffffffff811115613843576138426133d7565b5b61384f858286016137bb565b92509250509250929050565b7f4e487b71000000000000000000000000000000000000000000000000000000005f52602160045260245ffd5b7f54686520766f74696e672073657373696f6e206973206e6f74206f70656e65645f8201527f2e00000000000000000000000000000000000000000000000000000000000000602082015250565b5f6138e2602183613443565b91506138ed82613888565b604082019050919050565b5f6020820190508181035f83015261390f816138d6565b9050919050565b7f596f7520617265206e6f7420616c6c6f77656420746f20766f74652e000000005f82015250565b5f61394a601c83613443565b915061395582613916565b602082019050919050565b5f6020820190508181035f8301526139778161393e565b9050919050565b7f416c726561647920766f7465642e0000000000000000000000000000000000005f82015250565b5f6139b2600e83613443565b91506139bd8261397e565b602082019050919050565b5f6020820190508181035f8301526139df816139a6565b9050919050565b7f4e487b71000000000000000000000000000000000000000000000000000000005f52603260045260245ffd5b7f4e487b71000000000000000000000000000000000000000000000000000000005f52601160045260245ffd5b5f613a4a826133db565b91507fffffffffffffffffffffffffffffffffffffffffffffffffffffffffffffffff8203613a7c57613a7b613a13565b5b600182019050919050565b613a90816133db565b82525050565b5f604082019050613aa95f830185613793565b613ab66020830184613a87565b9392505050565b7f4f6e6c792074686520636f6e74726163742773206f776e65722063616e20636c5f8201527f6f7365207468652070726f706f73616c7320726567697374726174696f6e0000602082015250565b5f613b17603e83613443565b9150613b2282613abd565b604082019050919050565b5f6020820190508181035f830152613b4481613b0b565b9050919050565b7f5468652070726f706f73616c7320726567697374726174696f6e2073657373695f8201527f6f6e206d757374206265206f70656e206265666f72652069742063616e20626560208201527f20636c6f73656400000000000000000000000000000000000000000000000000604082015250565b5f613bcb604783613443565b9150613bd682613b4b565b606082019050919050565b5f6020820190508181035f830152613bf881613bbf565b9050919050565b60098110613c1057613c0f61385b565b5b50565b5f819050613c2082613bff565b919050565b5f613c2f82613c13565b9050919050565b613c3f81613c25565b82525050565b5f604082019050613c585f830185613c36565b613c656020830184613c36565b9392505050565b7f596f7520617265206e6f7420616c6c6f77656420746f207375626d69742070725f8201527f6f706f73616c732e000000000000000000000000000000000000000000000000602082015250565b5f613cc6602883613443565b9150613cd182613c6c565b604082019050919050565b5f6020820190508181035f830152613cf381613cba565b9050919050565b7f5468652073657373696f6e20666f72207375626d697474696e672070726f706f5f8201527f73616c73206973206e6f74206f70656e65642e00000000000000000000000000602082015250565b5f613d54603383613443565b9150613d5f82613cfa565b604082019050919050565b5f6020820190508181035f830152613d8181613d48565b9050919050565b7f4e487b71000000000000000000000000000000000000000000000000000000005f52602260045260245ffd5b5f6002820490506001821680613dcc57607f821691505b602082108103613ddf57613dde613d88565b5b50919050565b5f819050815f5260205f209050919050565b5f6020601f8301049050919050565b5f82821b905092915050565b5f60088302613e417fffffffffffffffffffffffffffffffffffffffffffffffffffffffffffffffff82613e06565b613e4b8683613e06565b95508019841693508086168417925050509392505050565b5f819050919050565b5f613e86613e81613e7c846133db565b613e63565b6133db565b9050919050565b5f819050919050565b613e9f83613e6c565b613eb3613eab82613e8d565b848454613e12565b825550505050565b5f90565b613ec7613ebb565b613ed2818484613e96565b505050565b5b81811015613ef557613eea5f82613ebf565b600181019050613ed8565b5050565b601f821115613f3a57613f0b81613de5565b613f1484613df7565b81016020851015613f23578190505b613f37613f2f85613df7565b830182613ed7565b50505b505050565b5f82821c905092915050565b5f613f5a5f1984600802613f3f565b1980831691505092915050565b5f613f728383613f4b565b9150826002028217905092915050565b613f8b82613439565b67ffffffffffffffff811115613fa457613fa3613614565b5b613fae8254613db5565b613fb9828285613ef9565b5f60209050601f831160018114613fea575f8415613fd8578287015190505b613fe28582613f67565b865550614049565b601f198416613ff886613de5565b5f5b8281101561401f57848901518255600182019150602085019450602081019050613ffa565b8683101561403c5784890151614038601f891682613f4b565b8355505b6001600288020188555050505b505050505050565b5f61405b826133db565b9150614066836133db565b925082820390508181111561407e5761407d613a13565b5b92915050565b5f6020820190506140975f830184613a87565b92915050565b7f4f6e6c792074686520636f6e74726163742773206f776e65722063616e20636f5f8201527f756e742074686520766f74657320616e6420616e6e6f756e636520746865207760208201527f696e6e65722e0000000000000000000000000000000000000000000000000000604082015250565b5f61411d604683613443565b91506141288261409d565b606082019050919050565b5f6020820190508181035f83015261414a81614111565b9050919050565b7f5468657265206d757374206265206174206c6561737420312070726f706f73615f8201527f6c20746f2074616c6c792074686520766f746573000000000000000000000000602082015250565b5f6141ab603483613443565b91506141b682614151565b604082019050919050565b5f6020820190508181035f8301526141d88161419f565b9050919050565b7f566f746572200000000000000000000000000000000000000000000000000000815250565b5f81905092915050565b5f61421982613439565b6142238185614205565b9350614233818560208601613453565b80840191505092915050565b7f20697320616c7265616479207265676973746572656400000000000000000000815250565b5f61426f826141df565b60068201915061427f828461420f565b915061428a8261423f565b60168201915081905092915050565b7f4f6e6c792074686520636f6e74726163742773206f776e65722063616e2061645f8201527f6420766f74657200000000000000000000000000000000000000000000000000602082015250565b5f6142f3602783613443565b91506142fe82614299565b604082019050919050565b5f6020820190508181035f830152614320816142e7565b9050919050565b7f54686520676c6f62616c2073657373696f6e206d757374206265206f70656e655f8201527f6420746f206f70656e20726567697374726174696f6e206f66206120766f746560208201527f7200000000000000000000000000000000000000000000000000000000000000604082015250565b5f6143a7604183613443565b91506143b282614327565b606082019050919050565b5f6020820190508181035f8301526143d48161439b565b9050919050565b7f54686520766f7465727320726567697374726174696f6e2073657373696f6e205f8201527f697320636c6f7365642e20596f752063616e6e6f7420616464206e657720766f60208201527f7465727300000000000000000000000000000000000000000000000000000000604082015250565b5f61445b604483613443565b9150614466826143db565b606082019050919050565b5f6020820190508181035f8301526144888161444f565b9050919050565b7f4f6e6c792074686520636f6e74726163742773206f776e65722063616e2072655f8201527f7365742074686520766f74696e672073657373696f6e00000000000000000000602082015250565b5f6144e9603683613443565b91506144f48261448f565b604082019050919050565b5f6020820190508181035f830152614516816144dd565b9050919050565b7f54686520676c6f62616c2073657373696f6e202620766f74696e6720736573735f8201527f696f6e206d757374206265206f70656e656420746f207265736574207468652060208201527f766f74696e672073657373696f6e000000000000000000000000000000000000604082015250565b5f61459d604e83613443565b91506145a88261451d565b606082019050919050565b5f6020820190508181035f8301526145ca81614591565b9050919050565b7f5468652073657373696f6e20686173206265656e20726573657420746f2074685f8201527f652070726f706f73616c73207375626d697373696f6e2073657373696f6e206660208201527f6f722074686520666f6c6c6f77696e6720726561736f6e287329203a20000000604082015250565b5f614651605d83614205565b915061465c826145d1565b605d82019050919050565b828183375f83830152505050565b5f6146808385614205565b935061468d838584614667565b82840190509392505050565b5f6146a382614645565b91506146b0828486614675565b91508190509392505050565b7f4f6e6c792074686520636f6e74726163742773206f776e65722063616e20636c5f8201527f6f73652074686520766f74696e672073657373696f6e00000000000000000000602082015250565b5f614716603683613443565b9150614721826146bc565b604082019050919050565b5f6020820190508181035f8301526147438161470a565b9050919050565b7f54686520766f74696e6720726567697374726174696f6e2073657373696f6e205f8201527f6d757374206265206f70656e206265666f72652069742063616e20626520636c60208201527f6f73656400000000000000000000000000000000000000000000000000000000604082015250565b5f6147ca604483613443565b91506147d58261474a565b606082019050919050565b5f6020820190508181035f8301526147f7816147be565b9050919050565b7f566f74657220756e6b6e6f776e000000000000000000000000000000000000005f82015250565b5f614832600d83613443565b915061483d826147fe565b602082019050919050565b5f6020820190508181035f83015261485f81614826565b9050919050565b7f54686520676c6f62616c2073657373696f6e202620766f74696e6720736573735f8201527f696f6e206d757374206265206f70656e656420746f20636f6e73756c7420746860208201527f6520766f7465206f6620616e6f7468657220766f746572000000000000000000604082015250565b5f6148e6605783613443565b91506148f182614866565b606082019050919050565b5f6020820190508181035f830152614913816148da565b9050919050565b7f596f752063616e6e6f7420636f6e73756c74207468697320766f7465722773205f8201527f766f74652062656361757365207468697320766f74657220686173206e6f742060208201527f766f746564207965740000000000000000000000000000000000000000000000604082015250565b5f61499a604983613443565b91506149a58261491a565b606082019050919050565b5f6020820190508181035f8301526149c78161498e565b9050919050565b7f2068617320766f74656420666f722070726f706f73616c202300000000000000815250565b7f203a200000000000000000000000000000000000000000000000000000000000815250565b5f819050815f5260205f209050919050565b5f8154614a3881613db5565b614a428186614205565b9450600182165f8114614a5c5760018114614a7157614aa3565b60ff1983168652811515820286019350614aa3565b614a7a85614a1a565b5f5b83811015614a9b57815481890152600182019150602081019050614a7c565b838801955050505b50505092915050565b5f614ab6826141df565b600682019150614ac6828661420f565b9150614ad1826149ce565b601982019150614ae1828561420f565b9150614aec826149f4565b600382019150614afc8284614a2c565b9150819050949350505050565b7f4f6e6c792074686520636f6e74726163742773206f776e65722063616e2072655f8201527f6d6f766520766f74657273000000000000000000000000000000000000000000602082015250565b5f614b63602b83613443565b9150614b6e82614b09565b604082019050919050565b5f6020820190508181035f830152614b9081614b57565b9050919050565b7f54686520676c6f62616c2073657373696f6e206d757374206265206f70656e655f8201527f64202620746865206e756d626572206f6620766f74657273206d75737420626560208201527f203e203020746f2072656d6f766520766f746572730000000000000000000000604082015250565b5f614c17605583613443565b9150614c2282614b97565b606082019050919050565b5f6020820190508181035f830152614c4481614c0b565b9050919050565b7f4f6e6c792074686520636f6e74726163742773206f776e65722063616e20636c5f8201527f6f73652074686520766f7465727320726567697374726174696f6e0000000000602082015250565b5f614ca5603b83613443565b9150614cb082614c4b565b604082019050919050565b5f6020820190508181035f830152614cd281614c99565b9050919050565b7f54686520766f7465727320726567697374726174696f6e2073657373696f6e205f8201527f6d757374206265206f70656e206265666f72652069742063616e20626520636c60208201527f6f73656400000000000000000000000000000000000000000000000000000000604082015250565b5f614d59604483613443565b9150614d6482614cd9565b606082019050919050565b5f6020820190508181035f830152614d8681614d4d565b9050919050565b7f596f7520617265206e6f7420616c6c6f77656420746f20636f6e73756c7420745f8201527f68652070726f706f73616c73206c6973742e0000000000000000000000000000602082015250565b5f614de7603283613443565b9150614df282614d8d565b604082019050919050565b5f6020820190508181035f830152614e1481614ddb565b9050919050565b7f4e6f2070726f706f73616c207375626d697474656420736f206661722e0000005f82015250565b5f614e4f601d83613443565b9150614e5a82614e1b565b602082019050919050565b5f6020820190508181035f830152614e7c81614e43565b9050919050565b7f2d20230000000000000000000000000000000000000000000000000000000000815250565b7f202d200000000000000000000000000000000000000000000000000000000000815250565b5f8154614edb81613db5565b614ee58186614205565b9450600182165f8114614eff5760018114614f1457614f46565b60ff1983168652811515820286019350614f46565b614f1d85613de5565b5f5b83811015614f3e57815481890152600182019150602081019050614f1f565b838801955050505b50505092915050565b7f0a00000000000000000000000000000000000000000000000000000000000000815250565b5f614f80828661420f565b9150614f8b82614e83565b600382019150614f9b828561420f565b9150614fa682614ea9565b600382019150614fb68284614ecf565b9150614fc182614f4f565b600182019150819050949350505050565b7f4f6e6c792074686520636f6e74726163742773206f776e65722063616e206f705f8201527f656e2074686520766f7465727320726567697374726174696f6e000000000000602082015250565b5f61502c603a83613443565b915061503782614fd2565b604082019050919050565b5f6020820190508181035f83015261505981615020565b9050919050565b7f54686520676c6f62616c2073657373696f6e206d757374206265206f70656e655f8201527f6420746f206f70656e2074686520766f7465727320726567697374726174696f60208201527f6e00000000000000000000000000000000000000000000000000000000000000604082015250565b5f6150e0604183613443565b91506150eb82615060565b606082019050919050565b5f6020820190508181035f83015261510d816150d4565b9050919050565b7f4f6e6c792074686520636f6e74726163742773206f776e65722063616e2072655f8201527f6d6f766520766f74657200000000000000000000000000000000000000000000602082015250565b5f61516e602a83613443565b915061517982615114565b604082019050919050565b5f6020820190508181035f83015261519b81615162565b9050919050565b7f54686520676c6f62616c2073657373696f6e206d757374206265206f70656e655f8201527f64202620746865206e756d626572206f6620766f74657273206d75737420626560208201527f203e203020746f2072656d6f7665206120766f74657200000000000000000000604082015250565b5f615222605683613443565b915061522d826151a2565b606082019050919050565b5f6020820190508181035f83015261524f81615216565b9050919050565b7f54686520766f746573206d7573742068617665206265656e207461696c6c65645f8201527f20746f2064657465726d696e65207468652077696e6e65720000000000000000602082015250565b5f6152b0603883613443565b91506152bb82615256565b604082019050919050565b5f6020820190508181035f8301526152dd816152a4565b9050919050565b7f54686520766f746573206d7573742068617665206265656e207461696c6c65645f8201527f20746f2064657465726d696e65207468652077696e6e696e672070726f706f7360208201527f616c000000000000000000000000000000000000000000000000000000000000604082015250565b5f615364604283613443565b915061536f826152e4565b606082019050919050565b5f6020820190508181035f83015261539181615358565b9050919050565b7f4f6e6c792074686520636f6e74726163742773206f776e65722063616e2072655f8201527f7365742074686520676c6f62616c2073657373696f6e00000000000000000000602082015250565b5f6153f2603683613443565b91506153fd82615398565b604082019050919050565b5f6020820190508181035f83015261541f816153e6565b9050919050565b7f54686520676c6f62616c2073657373696f6e206d757374206265206f70656e655f8201527f6420746f20626520726573657400000000000000000000000000000000000000602082015250565b5f615480602d83613443565b915061548b82615426565b604082019050919050565b5f6020820190508181035f8301526154ad81615474565b9050919050565b7f5468652073657373696f6e20686173206265656e2066756c6c792072657365745f8201527f20666f722074686520666f6c6c6f77696e6720726561736f6e287329203a2000602082015250565b5f61550e603f83614205565b9150615519826154b4565b603f82019050919050565b5f61552e82615502565b915061553b828486614675565b91508190509392505050565b7f4f6e6c792074686520636f6e74726163742773206f776e65722063616e206f705f8201527f656e207468652070726f706f73616c7320726567697374726174696f6e000000602082015250565b5f6155a1603d83613443565b91506155ac82615547565b604082019050919050565b5f6020820190508181035f8301526155ce81615595565b9050919050565b7f54686520676c6f62616c2073657373696f6e206d757374206265206f70656e655f8201527f6420746f206f70656e207468652070726f706f73616c7320726567697374726160208201527f74696f6e00000000000000000000000000000000000000000000000000000000604082015250565b5f615655604483613443565b9150615660826155d5565b606082019050919050565b5f6020820190508181035f83015261568281615649565b9050919050565b7f4f6e6c792074686520636f6e74726163742773206f776e65722063616e20636c5f8201527f6f73652074686520676c6f62616c2073657373696f6e00000000000000000000602082015250565b5f6156e3603683613443565b91506156ee82615689565b604082019050919050565b5f6020820190508181035f830152615710816156d7565b9050919050565b7f54686520676c6f62616c2073657373696f6e206d757374206265206f70656e205f8201527f6265666f72652069742063616e20626520636c6f736564000000000000000000602082015250565b5f615771603783613443565b915061577c82615717565b604082019050919050565b5f6020820190508181035f83015261579e81615765565b9050919050565b7f4f6e6c792074686520636f6e74726163742773206f776e65722063616e2061645f8201527f6420766f74657273000000000000000000000000000000000000000000000000602082015250565b5f6157ff602883613443565b915061580a826157a5565b604082019050919050565b5f6020820190508181035f83015261582c816157f3565b9050919050565b7f54686520676c6f62616c2073657373696f6e206d757374206265206f70656e655f8201527f6420746f206f70656e2074686520726567697374726174696f6e206f6620766f60208201527f7465727300000000000000000000000000000000000000000000000000000000604082015250565b5f6158b3604483613443565b91506158be82615833565b606082019050919050565b5f6020820190508181035f8301526158e0816158a7565b9050919050565b7f54686520766f7465727320726567697374726174696f6e2073657373696f6e205f8201527f697320636c6f7365642e20596f752063616e6e6f74206164642061206e65772060208201527f766f746572000000000000000000000000000000000000000000000000000000604082015250565b5f615967604583613443565b9150615972826158e7565b606082019050919050565b5f6020820190508181035f8301526159948161595b565b9050919050565b7f4f6e6c792074686520636f6e74726163742773206f776e65722063616e206f705f8201527f656e2074686520766f74696e672073657373696f6e0000000000000000000000602082015250565b5f6159f5603583613443565b9150615a008261599b565b604082019050919050565b5f6020820190508181035f830152615a22816159e9565b9050919050565b7f54686520676c6f62616c2073657373696f6e206d757374206265206f70656e655f8201527f6420746f206f70656e2074686520766f74657320726567697374726174696f6e602082015250565b5f615a83604083613443565b9150615a8e82615a29565b604082019050919050565b5f6020820190508181035f830152615ab081615a77565b9050919050565b7f4f6e6c792074686520636f6e74726163742773206f776e65722063616e206f705f8201527f656e2061206e65772073657373696f6e00000000000000000000000000000000602082015250565b5f615b11603083613443565b9150615b1c82615ab7565b604082019050919050565b5f6020820190508181035f830152615b3e81615b05565b9050919050565b7f4e487b71000000000000000000000000000000000000000000000000000000005f52601260045260245ffd5b5f615b7c826133db565b9150615b87836133db565b9250828202615b95816133db565b91508282048414831517615bac57615bab613a13565b5b5092915050565b5f615bbd826133db565b9150615bc8836133db565b9250828201905080821115615be057615bdf613a13565b5b92915050565b5f615bf0826133db565b91505f8203615c0257615c01613a13565b5b600182039050919050565b5f604082019050615c205f830185613a87565b615c2d6020830184613a87565b939250505056fe54686520766f7465727320726567697374726174696f6e206973206e6f77206f70656e65645468652070726f706f73616c7320726567697374726174696f6e206973206e6f7720636c6f7365645468652070726f706f73616c7320726567697374726174696f6e206973206e6f77206f70656e656454686520766f7465727320726567697374726174696f6e206973206e6f7720636c6f736564a2646970667358221220c61923a787c9a201815a6f7f14adf64d4ecfd1f97d9b420050eb8f09056398c864736f6c63430008150033",
			"opcodes": "PUSH1 0x80 PUSH1 0x40 MSTORE CALLVALUE DUP1 ISZERO PUSH3 0x10 JUMPI PUSH0 DUP1 REVERT JUMPDEST POP PUSH1 0x40 MLOAD PUSH3 0x5F97 CODESIZE SUB DUP1 PUSH3 0x5F97 DUP4 CODECOPY DUP2 DUP2 ADD PUSH1 0x40 MSTORE DUP2 ADD SWAP1 PUSH3 0x36 SWAP2 SWAP1 PUSH3 0x229 JUMP JUMPDEST DUP1 PUSH0 PUSH20 0xFFFFFFFFFFFFFFFFFFFFFFFFFFFFFFFFFFFFFFFF AND DUP2 PUSH20 0xFFFFFFFFFFFFFFFFFFFFFFFFFFFFFFFFFFFFFFFF AND SUB PUSH3 0xAA JUMPI PUSH0 PUSH1 0x40 MLOAD PUSH32 0x1E4FBDF700000000000000000000000000000000000000000000000000000000 DUP2 MSTORE PUSH1 0x4 ADD PUSH3 0xA1 SWAP2 SWAP1 PUSH3 0x26A JUMP JUMPDEST PUSH1 0x40 MLOAD DUP1 SWAP2 SUB SWAP1 REVERT JUMPDEST PUSH3 0xBB DUP2 PUSH3 0x103 PUSH1 0x20 SHL PUSH1 0x20 SHR JUMP JUMPDEST POP DUP1 PUSH1 0x1 PUSH0 PUSH2 0x100 EXP DUP2 SLOAD DUP2 PUSH20 0xFFFFFFFFFFFFFFFFFFFFFFFFFFFFFFFFFFFFFFFF MUL NOT AND SWAP1 DUP4 PUSH20 0xFFFFFFFFFFFFFFFFFFFFFFFFFFFFFFFFFFFFFFFF AND MUL OR SWAP1 SSTORE POP POP PUSH3 0x285 JUMP JUMPDEST PUSH0 DUP1 PUSH0 SWAP1 SLOAD SWAP1 PUSH2 0x100 EXP SWAP1 DIV PUSH20 0xFFFFFFFFFFFFFFFFFFFFFFFFFFFFFFFFFFFFFFFF AND SWAP1 POP DUP2 PUSH0 DUP1 PUSH2 0x100 EXP DUP2 SLOAD DUP2 PUSH20 0xFFFFFFFFFFFFFFFFFFFFFFFFFFFFFFFFFFFFFFFF MUL NOT AND SWAP1 DUP4 PUSH20 0xFFFFFFFFFFFFFFFFFFFFFFFFFFFFFFFFFFFFFFFF AND MUL OR SWAP1 SSTORE POP DUP2 PUSH20 0xFFFFFFFFFFFFFFFFFFFFFFFFFFFFFFFFFFFFFFFF AND DUP2 PUSH20 0xFFFFFFFFFFFFFFFFFFFFFFFFFFFFFFFFFFFFFFFF AND PUSH32 0x8BE0079C531659141344CD1FD0A4F28419497F9722A3DAAFE3B4186F6B6457E0 PUSH1 0x40 MLOAD PUSH1 0x40 MLOAD DUP1 SWAP2 SUB SWAP1 LOG3 POP POP JUMP JUMPDEST PUSH0 DUP1 REVERT JUMPDEST PUSH0 PUSH20 0xFFFFFFFFFFFFFFFFFFFFFFFFFFFFFFFFFFFFFFFF DUP3 AND SWAP1 POP SWAP2 SWAP1 POP JUMP JUMPDEST PUSH0 PUSH3 0x1F3 DUP3 PUSH3 0x1C8 JUMP JUMPDEST SWAP1 POP SWAP2 SWAP1 POP JUMP JUMPDEST PUSH3 0x205 DUP2 PUSH3 0x1E7 JUMP JUMPDEST DUP2 EQ PUSH3 0x210 JUMPI PUSH0 DUP1 REVERT JUMPDEST POP JUMP JUMPDEST PUSH0 DUP2 MLOAD SWAP1 POP PUSH3 0x223 DUP2 PUSH3 0x1FA JUMP JUMPDEST SWAP3 SWAP2 POP POP JUMP JUMPDEST PUSH0 PUSH1 0x20 DUP3 DUP5 SUB SLT ISZERO PUSH3 0x241 JUMPI PUSH3 0x240 PUSH3 0x1C4 JUMP JUMPDEST JUMPDEST PUSH0 PUSH3 0x250 DUP5 DUP3 DUP6 ADD PUSH3 0x213 JUMP JUMPDEST SWAP2 POP POP SWAP3 SWAP2 POP POP JUMP JUMPDEST PUSH3 0x264 DUP2 PUSH3 0x1E7 JUMP JUMPDEST DUP3 MSTORE POP POP JUMP JUMPDEST PUSH0 PUSH1 0x20 DUP3 ADD SWAP1 POP PUSH3 0x27F PUSH0 DUP4 ADD DUP5 PUSH3 0x259 JUMP JUMPDEST SWAP3 SWAP2 POP POP JUMP JUMPDEST PUSH2 0x5D04 DUP1 PUSH3 0x293 PUSH0 CODECOPY PUSH0 RETURN INVALID PUSH1 0x80 PUSH1 0x40 MSTORE CALLVALUE DUP1 ISZERO PUSH2 0xF JUMPI PUSH0 DUP1 REVERT JUMPDEST POP PUSH1 0x4 CALLDATASIZE LT PUSH2 0x156 JUMPI PUSH0 CALLDATALOAD PUSH1 0xE0 SHR DUP1 PUSH4 0x798C0F7E GT PUSH2 0xC1 JUMPI DUP1 PUSH4 0xB2C63487 GT PUSH2 0x7A JUMPI DUP1 PUSH4 0xB2C63487 EQ PUSH2 0x3B6 JUMPI DUP1 PUSH4 0xBCEE5B2A EQ PUSH2 0x3D4 JUMPI DUP1 PUSH4 0xD55EC9C1 EQ PUSH2 0x3F2 JUMPI DUP1 PUSH4 0xEAA37999 EQ PUSH2 0x422 JUMPI DUP1 PUSH4 0xEE53E778 EQ PUSH2 0x440 JUMPI DUP1 PUSH4 0xF2FDE38B EQ PUSH2 0x45E JUMPI PUSH2 0x156 JUMP JUMPDEST DUP1 PUSH4 0x798C0F7E EQ PUSH2 0x2F2 JUMPI DUP1 PUSH4 0x86C1FF68 EQ PUSH2 0x310 JUMPI DUP1 PUSH4 0x8DA5CB5B EQ PUSH2 0x340 JUMPI DUP1 PUSH4 0x8E7EA5B2 EQ PUSH2 0x35E JUMPI DUP1 PUSH4 0xA5134620 EQ PUSH2 0x37C JUMPI DUP1 PUSH4 0xA941B099 EQ PUSH2 0x39A JUMPI PUSH2 0x156 JUMP JUMPDEST DUP1 PUSH4 0x4DE17BCA GT PUSH2 0x113 JUMPI DUP1 PUSH4 0x4DE17BCA EQ PUSH2 0x22E JUMPI DUP1 PUSH4 0x55880949 EQ PUSH2 0x24C JUMPI DUP1 PUSH4 0x56643CA5 EQ PUSH2 0x27C JUMPI DUP1 PUSH4 0x582AA4DD EQ PUSH2 0x2AC JUMPI DUP1 PUSH4 0x67469356 EQ PUSH2 0x2CA JUMPI DUP1 PUSH4 0x715018A6 EQ PUSH2 0x2E8 JUMPI PUSH2 0x156 JUMP JUMPDEST DUP1 PUSH4 0x121B93F EQ PUSH2 0x15A JUMPI DUP1 PUSH4 0x7FA315F EQ PUSH2 0x18A JUMPI DUP1 PUSH4 0x373D6D5E EQ PUSH2 0x1A8 JUMPI DUP1 PUSH4 0x378A2178 EQ PUSH2 0x1D8 JUMPI DUP1 PUSH4 0x38DB6DD3 EQ PUSH2 0x1E2 JUMPI DUP1 PUSH4 0x4500F689 EQ PUSH2 0x212 JUMPI JUMPDEST PUSH0 DUP1 REVERT JUMPDEST PUSH2 0x174 PUSH1 0x4 DUP1 CALLDATASIZE SUB DUP2 ADD SWAP1 PUSH2 0x16F SWAP2 SWAP1 PUSH2 0x340E JUMP JUMPDEST PUSH2 0x47A JUMP JUMPDEST PUSH1 0x40 MLOAD PUSH2 0x181 SWAP2 SWAP1 PUSH2 0x34C3 JUMP JUMPDEST PUSH1 0x40 MLOAD DUP1 SWAP2 SUB SWAP1 RETURN JUMPDEST PUSH2 0x192 PUSH2 0x6AA JUMP JUMPDEST PUSH1 0x40 MLOAD PUSH2 0x19F SWAP2 SWAP1 PUSH2 0x34C3 JUMP JUMPDEST PUSH1 0x40 MLOAD DUP1 SWAP2 SUB SWAP1 RETURN JUMPDEST PUSH2 0x1C2 PUSH1 0x4 DUP1 CALLDATASIZE SUB DUP2 ADD SWAP1 PUSH2 0x1BD SWAP2 SWAP1 PUSH2 0x3544 JUMP JUMPDEST PUSH2 0x880 JUMP JUMPDEST PUSH1 0x40 MLOAD PUSH2 0x1CF SWAP2 SWAP1 PUSH2 0x34C3 JUMP JUMPDEST PUSH1 0x40 MLOAD DUP1 SWAP2 SUB SWAP1 RETURN JUMPDEST PUSH2 0x1E0 PUSH2 0xB17 JUMP JUMPDEST STOP JUMPDEST PUSH2 0x1FC PUSH1 0x4 DUP1 CALLDATASIZE SUB DUP2 ADD SWAP1 PUSH2 0x1F7 SWAP2 SWAP1 PUSH2 0x35E9 JUMP JUMPDEST PUSH2 0xCA7 JUMP JUMPDEST PUSH1 0x40 MLOAD PUSH2 0x209 SWAP2 SWAP1 PUSH2 0x34C3 JUMP JUMPDEST PUSH1 0x40 MLOAD DUP1 SWAP2 SUB SWAP1 RETURN JUMPDEST PUSH2 0x22C PUSH1 0x4 DUP1 CALLDATASIZE SUB DUP2 ADD SWAP1 PUSH2 0x227 SWAP2 SWAP1 PUSH2 0x3544 JUMP JUMPDEST PUSH2 0x1045 JUMP JUMPDEST STOP JUMPDEST PUSH2 0x236 PUSH2 0x127D JUMP JUMPDEST PUSH1 0x40 MLOAD PUSH2 0x243 SWAP2 SWAP1 PUSH2 0x34C3 JUMP JUMPDEST PUSH1 0x40 MLOAD DUP1 SWAP2 SUB SWAP1 RETURN JUMPDEST PUSH2 0x266 PUSH1 0x4 DUP1 CALLDATASIZE SUB DUP2 ADD SWAP1 PUSH2 0x261 SWAP2 SWAP1 PUSH2 0x35E9 JUMP JUMPDEST PUSH2 0x1471 JUMP JUMPDEST PUSH1 0x40 MLOAD PUSH2 0x273 SWAP2 SWAP1 PUSH2 0x34C3 JUMP JUMPDEST PUSH1 0x40 MLOAD DUP1 SWAP2 SUB SWAP1 RETURN JUMPDEST PUSH2 0x296 PUSH1 0x4 DUP1 CALLDATASIZE SUB DUP2 ADD SWAP1 PUSH2 0x291 SWAP2 SWAP1 PUSH2 0x374C JUMP JUMPDEST PUSH2 0x16CC JUMP JUMPDEST PUSH1 0x40 MLOAD PUSH2 0x2A3 SWAP2 SWAP1 PUSH2 0x34C3 JUMP JUMPDEST PUSH1 0x40 MLOAD DUP1 SWAP2 SUB SWAP1 RETURN JUMPDEST PUSH2 0x2B4 PUSH2 0x1842 JUMP JUMPDEST PUSH1 0x40 MLOAD PUSH2 0x2C1 SWAP2 SWAP1 PUSH2 0x34C3 JUMP JUMPDEST PUSH1 0x40 MLOAD DUP1 SWAP2 SUB SWAP1 RETURN JUMPDEST PUSH2 0x2D2 PUSH2 0x1A19 JUMP JUMPDEST PUSH1 0x40 MLOAD PUSH2 0x2DF SWAP2 SWAP1 PUSH2 0x34C3 JUMP JUMPDEST PUSH1 0x40 MLOAD DUP1 SWAP2 SUB SWAP1 RETURN JUMPDEST PUSH2 0x2F0 PUSH2 0x1B63 JUMP JUMPDEST STOP JUMPDEST PUSH2 0x2FA PUSH2 0x1B76 JUMP JUMPDEST PUSH1 0x40 MLOAD PUSH2 0x307 SWAP2 SWAP1 PUSH2 0x34C3 JUMP JUMPDEST PUSH1 0x40 MLOAD DUP1 SWAP2 SUB SWAP1 RETURN JUMPDEST PUSH2 0x32A PUSH1 0x4 DUP1 CALLDATASIZE SUB DUP2 ADD SWAP1 PUSH2 0x325 SWAP2 SWAP1 PUSH2 0x35E9 JUMP JUMPDEST PUSH2 0x1D4D JUMP JUMPDEST PUSH1 0x40 MLOAD PUSH2 0x337 SWAP2 SWAP1 PUSH2 0x34C3 JUMP JUMPDEST PUSH1 0x40 MLOAD DUP1 SWAP2 SUB SWAP1 RETURN JUMPDEST PUSH2 0x348 PUSH2 0x1F23 JUMP JUMPDEST PUSH1 0x40 MLOAD PUSH2 0x355 SWAP2 SWAP1 PUSH2 0x37A2 JUMP JUMPDEST PUSH1 0x40 MLOAD DUP1 SWAP2 SUB SWAP1 RETURN JUMPDEST PUSH2 0x366 PUSH2 0x1F4A JUMP JUMPDEST PUSH1 0x40 MLOAD PUSH2 0x373 SWAP2 SWAP1 PUSH2 0x37A2 JUMP JUMPDEST PUSH1 0x40 MLOAD DUP1 SWAP2 SUB SWAP1 RETURN JUMPDEST PUSH2 0x384 PUSH2 0x200E JUMP JUMPDEST PUSH1 0x40 MLOAD PUSH2 0x391 SWAP2 SWAP1 PUSH2 0x34C3 JUMP JUMPDEST PUSH1 0x40 MLOAD DUP1 SWAP2 SUB SWAP1 RETURN JUMPDEST PUSH2 0x3B4 PUSH1 0x4 DUP1 CALLDATASIZE SUB DUP2 ADD SWAP1 PUSH2 0x3AF SWAP2 SWAP1 PUSH2 0x3544 JUMP JUMPDEST PUSH2 0x213B JUMP JUMPDEST STOP JUMPDEST PUSH2 0x3BE PUSH2 0x2292 JUMP JUMPDEST PUSH1 0x40 MLOAD PUSH2 0x3CB SWAP2 SWAP1 PUSH2 0x34C3 JUMP JUMPDEST PUSH1 0x40 MLOAD DUP1 SWAP2 SUB SWAP1 RETURN JUMPDEST PUSH2 0x3DC PUSH2 0x2469 JUMP JUMPDEST PUSH1 0x40 MLOAD PUSH2 0x3E9 SWAP2 SWAP1 PUSH2 0x34C3 JUMP JUMPDEST PUSH1 0x40 MLOAD DUP1 SWAP2 SUB SWAP1 RETURN JUMPDEST PUSH2 0x40C PUSH1 0x4 DUP1 CALLDATASIZE SUB DUP2 ADD SWAP1 PUSH2 0x407 SWAP2 SWAP1 PUSH2 0x3810 JUMP JUMPDEST PUSH2 0x265B JUMP JUMPDEST PUSH1 0x40 MLOAD PUSH2 0x419 SWAP2 SWAP1 PUSH2 0x34C3 JUMP JUMPDEST PUSH1 0x40 MLOAD DUP1 SWAP2 SUB SWAP1 RETURN JUMPDEST PUSH2 0x42A PUSH2 0x2847 JUMP JUMPDEST PUSH1 0x40 MLOAD PUSH2 0x437 SWAP2 SWAP1 PUSH2 0x34C3 JUMP JUMPDEST PUSH1 0x40 MLOAD DUP1 SWAP2 SUB SWAP1 RETURN JUMPDEST PUSH2 0x448 PUSH2 0x2A3B JUMP JUMPDEST PUSH1 0x40 MLOAD PUSH2 0x455 SWAP2 SWAP1 PUSH2 0x34C3 JUMP JUMPDEST PUSH1 0x40 MLOAD DUP1 SWAP2 SUB SWAP1 RETURN JUMPDEST PUSH2 0x478 PUSH1 0x4 DUP1 CALLDATASIZE SUB DUP2 ADD SWAP1 PUSH2 0x473 SWAP2 SWAP1 PUSH2 0x35E9 JUMP JUMPDEST PUSH2 0x2C25 JUMP JUMPDEST STOP JUMPDEST PUSH1 0x60 PUSH1 0x6 PUSH1 0x8 DUP2 GT ISZERO PUSH2 0x490 JUMPI PUSH2 0x48F PUSH2 0x385B JUMP JUMPDEST JUMPDEST PUSH1 0x5 PUSH1 0x4 SWAP1 SLOAD SWAP1 PUSH2 0x100 EXP SWAP1 DIV PUSH1 0xFF AND PUSH1 0x8 DUP2 GT ISZERO PUSH2 0x4B2 JUMPI PUSH2 0x4B1 PUSH2 0x385B JUMP JUMPDEST JUMPDEST EQ PUSH2 0x4F2 JUMPI PUSH1 0x40 MLOAD PUSH32 0x8C379A000000000000000000000000000000000000000000000000000000000 DUP2 MSTORE PUSH1 0x4 ADD PUSH2 0x4E9 SWAP1 PUSH2 0x38F8 JUMP JUMPDEST PUSH1 0x40 MLOAD DUP1 SWAP2 SUB SWAP1 REVERT JUMPDEST PUSH0 PUSH1 0x2 PUSH0 CALLER PUSH20 0xFFFFFFFFFFFFFFFFFFFFFFFFFFFFFFFFFFFFFFFF AND PUSH20 0xFFFFFFFFFFFFFFFFFFFFFFFFFFFFFFFFFFFFFFFF AND DUP2 MSTORE PUSH1 0x20 ADD SWAP1 DUP2 MSTORE PUSH1 0x20 ADD PUSH0 KECCAK256 SWAP1 POP DUP1 PUSH0 ADD PUSH0 SWAP1 SLOAD SWAP1 PUSH2 0x100 EXP SWAP1 DIV PUSH1 0xFF AND PUSH2 0x581 JUMPI PUSH1 0x40 MLOAD PUSH32 0x8C379A000000000000000000000000000000000000000000000000000000000 DUP2 MSTORE PUSH1 0x4 ADD PUSH2 0x578 SWAP1 PUSH2 0x3960 JUMP JUMPDEST PUSH1 0x40 MLOAD DUP1 SWAP2 SUB SWAP1 REVERT JUMPDEST DUP1 PUSH0 ADD PUSH1 0x1 SWAP1 SLOAD SWAP1 PUSH2 0x100 EXP SWAP1 DIV PUSH1 0xFF AND ISZERO PUSH2 0x5D2 JUMPI PUSH1 0x40 MLOAD PUSH32 0x8C379A000000000000000000000000000000000000000000000000000000000 DUP2 MSTORE PUSH1 0x4 ADD PUSH2 0x5C9 SWAP1 PUSH2 0x39C8 JUMP JUMPDEST PUSH1 0x40 MLOAD DUP1 SWAP2 SUB SWAP1 REVERT JUMPDEST PUSH1 0x1 DUP2 PUSH0 ADD PUSH1 0x1 PUSH2 0x100 EXP DUP2 SLOAD DUP2 PUSH1 0xFF MUL NOT AND SWAP1 DUP4 ISZERO ISZERO MUL OR SWAP1 SSTORE POP DUP3 DUP2 PUSH1 0x1 ADD DUP2 SWAP1 SSTORE POP PUSH1 0x3 DUP4 DUP2 SLOAD DUP2 LT PUSH2 0x60B JUMPI PUSH2 0x60A PUSH2 0x39E6 JUMP JUMPDEST JUMPDEST SWAP1 PUSH0 MSTORE PUSH1 0x20 PUSH0 KECCAK256 SWAP1 PUSH1 0x3 MUL ADD PUSH1 0x2 ADD PUSH0 DUP2 SLOAD DUP1 SWAP3 SWAP2 SWAP1 PUSH2 0x62A SWAP1 PUSH2 0x3A40 JUMP JUMPDEST SWAP2 SWAP1 POP SSTORE POP PUSH32 0x4D99B957A2BC29A30EBD96A7BE8E68FE50A3C701DB28A91436490B7D53870CA4 CALLER DUP3 PUSH1 0x1 ADD SLOAD PUSH1 0x40 MLOAD PUSH2 0x664 SWAP3 SWAP2 SWAP1 PUSH2 0x3A96 JUMP JUMPDEST PUSH1 0x40 MLOAD DUP1 SWAP2 SUB SWAP1 LOG1 PUSH1 0x40 MLOAD DUP1 PUSH1 0x40 ADD PUSH1 0x40 MSTORE DUP1 PUSH1 0xF DUP2 MSTORE PUSH1 0x20 ADD PUSH32 0x566F746520726567697374657265640000000000000000000000000000000000 DUP2 MSTORE POP SWAP2 POP POP SWAP2 SWAP1 POP JUMP JUMPDEST PUSH1 0x60 PUSH1 0x1 PUSH0 SWAP1 SLOAD SWAP1 PUSH2 0x100 EXP SWAP1 DIV PUSH20 0xFFFFFFFFFFFFFFFFFFFFFFFFFFFFFFFFFFFFFFFF AND PUSH20 0xFFFFFFFFFFFFFFFFFFFFFFFFFFFFFFFFFFFFFFFF AND CALLER PUSH20 0xFFFFFFFFFFFFFFFFFFFFFFFFFFFFFFFFFFFFFFFF AND EQ PUSH2 0x73B JUMPI PUSH1 0x40 MLOAD PUSH32 0x8C379A000000000000000000000000000000000000000000000000000000000 DUP2 MSTORE PUSH1 0x4 ADD PUSH2 0x732 SWAP1 PUSH2 0x3B2D JUMP JUMPDEST PUSH1 0x40 MLOAD DUP1 SWAP2 SUB SWAP1 REVERT JUMPDEST PUSH1 0x1 ISZERO ISZERO PUSH1 0x5 PUSH1 0x2 SWAP1 SLOAD SWAP1 PUSH2 0x100 EXP SWAP1 DIV PUSH1 0xFF AND ISZERO ISZERO EQ PUSH2 0x791 JUMPI PUSH1 0x40 MLOAD PUSH32 0x8C379A000000000000000000000000000000000000000000000000000000000 DUP2 MSTORE PUSH1 0x4 ADD PUSH2 0x788 SWAP1 PUSH2 0x3BE1 JUMP JUMPDEST PUSH1 0x40 MLOAD DUP1 SWAP2 SUB SWAP1 REVERT JUMPDEST PUSH0 PUSH1 0x5 PUSH1 0x2 PUSH2 0x100 EXP DUP2 SLOAD DUP2 PUSH1 0xFF MUL NOT AND SWAP1 DUP4 ISZERO ISZERO MUL OR SWAP1 SSTORE POP PUSH1 0x5 PUSH1 0x4 SWAP1 SLOAD SWAP1 PUSH2 0x100 EXP SWAP1 DIV PUSH1 0xFF AND PUSH1 0x5 DUP1 PUSH2 0x100 EXP DUP2 SLOAD DUP2 PUSH1 0xFF MUL NOT AND SWAP1 DUP4 PUSH1 0x8 DUP2 GT ISZERO PUSH2 0x7DE JUMPI PUSH2 0x7DD PUSH2 0x385B JUMP JUMPDEST JUMPDEST MUL OR SWAP1 SSTORE POP PUSH1 0x5 DUP1 PUSH1 0x4 PUSH2 0x100 EXP DUP2 SLOAD DUP2 PUSH1 0xFF MUL NOT AND SWAP1 DUP4 PUSH1 0x8 DUP2 GT ISZERO PUSH2 0x808 JUMPI PUSH2 0x807 PUSH2 0x385B JUMP JUMPDEST JUMPDEST MUL OR SWAP1 SSTORE POP PUSH32 0xA97A4EE45751E2ABF3E4FC8946939630B11B371EA8AE39CCDC3056E98F5CC3F PUSH1 0x5 DUP1 SLOAD SWAP1 PUSH2 0x100 EXP SWAP1 DIV PUSH1 0xFF AND PUSH1 0x5 PUSH1 0x4 SWAP1 SLOAD SWAP1 PUSH2 0x100 EXP SWAP1 DIV PUSH1 0xFF AND PUSH1 0x40 MLOAD PUSH2 0x85A SWAP3 SWAP2 SWAP1 PUSH2 0x3C45 JUMP JUMPDEST PUSH1 0x40 MLOAD DUP1 SWAP2 SUB SWAP1 LOG1 PUSH1 0x40 MLOAD DUP1 PUSH1 0x60 ADD PUSH1 0x40 MSTORE DUP1 PUSH1 0x28 DUP2 MSTORE PUSH1 0x20 ADD PUSH2 0x5C5A PUSH1 0x28 SWAP2 CODECOPY SWAP1 POP SWAP1 JUMP JUMPDEST PUSH1 0x60 PUSH1 0x1 ISZERO ISZERO PUSH1 0x2 PUSH0 CALLER PUSH20 0xFFFFFFFFFFFFFFFFFFFFFFFFFFFFFFFFFFFFFFFF AND PUSH20 0xFFFFFFFFFFFFFFFFFFFFFFFFFFFFFFFFFFFFFFFF AND DUP2 MSTORE PUSH1 0x20 ADD SWAP1 DUP2 MSTORE PUSH1 0x20 ADD PUSH0 KECCAK256 PUSH0 ADD PUSH0 SWAP1 SLOAD SWAP1 PUSH2 0x100 EXP SWAP1 DIV PUSH1 0xFF AND ISZERO ISZERO EQ PUSH2 0x914 JUMPI PUSH1 0x40 MLOAD PUSH32 0x8C379A000000000000000000000000000000000000000000000000000000000 DUP2 MSTORE PUSH1 0x4 ADD PUSH2 0x90B SWAP1 PUSH2 0x3CDC JUMP JUMPDEST PUSH1 0x40 MLOAD DUP1 SWAP2 SUB SWAP1 REVERT JUMPDEST PUSH1 0x4 PUSH1 0x8 DUP2 GT ISZERO PUSH2 0x928 JUMPI PUSH2 0x927 PUSH2 0x385B JUMP JUMPDEST JUMPDEST PUSH1 0x5 PUSH1 0x4 SWAP1 SLOAD SWAP1 PUSH2 0x100 EXP SWAP1 DIV PUSH1 0xFF AND PUSH1 0x8 DUP2 GT ISZERO PUSH2 0x94A JUMPI PUSH2 0x949 PUSH2 0x385B JUMP JUMPDEST JUMPDEST EQ PUSH2 0x98A JUMPI PUSH1 0x40 MLOAD PUSH32 0x8C379A000000000000000000000000000000000000000000000000000000000 DUP2 MSTORE PUSH1 0x4 ADD PUSH2 0x981 SWAP1 PUSH2 0x3D6A JUMP JUMPDEST PUSH1 0x40 MLOAD DUP1 SWAP2 SUB SWAP1 REVERT JUMPDEST PUSH0 PUSH1 0x40 MLOAD DUP1 PUSH1 0x60 ADD PUSH1 0x40 MSTORE DUP1 CALLER PUSH20 0xFFFFFFFFFFFFFFFFFFFFFFFFFFFFFFFFFFFFFFFF AND DUP2 MSTORE PUSH1 0x20 ADD DUP6 DUP6 DUP1 DUP1 PUSH1 0x1F ADD PUSH1 0x20 DUP1 SWAP2 DIV MUL PUSH1 0x20 ADD PUSH1 0x40 MLOAD SWAP1 DUP2 ADD PUSH1 0x40 MSTORE DUP1 SWAP4 SWAP3 SWAP2 SWAP1 DUP2 DUP2 MSTORE PUSH1 0x20 ADD DUP4 DUP4 DUP1 DUP3 DUP5 CALLDATACOPY PUSH0 DUP2 DUP5 ADD MSTORE PUSH1 0x1F NOT PUSH1 0x1F DUP3 ADD AND SWAP1 POP DUP1 DUP4 ADD SWAP3 POP POP POP POP POP POP POP DUP2 MSTORE PUSH1 0x20 ADD PUSH0 DUP2 MSTORE POP SWAP1 POP PUSH1 0x3 DUP2 SWAP1 DUP1 PUSH1 0x1 DUP2 SLOAD ADD DUP1 DUP3 SSTORE DUP1 SWAP2 POP POP PUSH1 0x1 SWAP1 SUB SWAP1 PUSH0 MSTORE PUSH1 0x20 PUSH0 KECCAK256 SWAP1 PUSH1 0x3 MUL ADD PUSH0 SWAP1 SWAP2 SWAP1 SWAP2 SWAP1 SWAP2 POP PUSH0 DUP3 ADD MLOAD DUP2 PUSH0 ADD PUSH0 PUSH2 0x100 EXP DUP2 SLOAD DUP2 PUSH20 0xFFFFFFFFFFFFFFFFFFFFFFFFFFFFFFFFFFFFFFFF MUL NOT AND SWAP1 DUP4 PUSH20 0xFFFFFFFFFFFFFFFFFFFFFFFFFFFFFFFFFFFFFFFF AND MUL OR SWAP1 SSTORE POP PUSH1 0x20 DUP3 ADD MLOAD DUP2 PUSH1 0x1 ADD SWAP1 DUP2 PUSH2 0xA83 SWAP2 SWAP1 PUSH2 0x3F82 JUMP JUMPDEST POP PUSH1 0x40 DUP3 ADD MLOAD DUP2 PUSH1 0x2 ADD SSTORE POP POP PUSH32 0x92E393E9B54E2F801D3EA4BEB0C5E71A21CC34A5D34B77D0FB8A3AA1650DC18F PUSH1 0x1 PUSH1 0x3 DUP1 SLOAD SWAP1 POP PUSH2 0xAC3 SWAP2 SWAP1 PUSH2 0x4051 JUMP JUMPDEST PUSH1 0x40 MLOAD PUSH2 0xAD0 SWAP2 SWAP1 PUSH2 0x4084 JUMP JUMPDEST PUSH1 0x40 MLOAD DUP1 SWAP2 SUB SWAP1 LOG1 PUSH1 0x40 MLOAD DUP1 PUSH1 0x40 ADD PUSH1 0x40 MSTORE DUP1 PUSH1 0x12 DUP2 MSTORE PUSH1 0x20 ADD PUSH32 0x50726F706F73616C207375626D69747465640000000000000000000000000000 DUP2 MSTORE POP SWAP2 POP POP SWAP3 SWAP2 POP POP JUMP JUMPDEST PUSH1 0x1 PUSH0 SWAP1 SLOAD SWAP1 PUSH2 0x100 EXP SWAP1 DIV PUSH20 0xFFFFFFFFFFFFFFFFFFFFFFFFFFFFFFFFFFFFFFFF AND PUSH20 0xFFFFFFFFFFFFFFFFFFFFFFFFFFFFFFFFFFFFFFFF AND CALLER PUSH20 0xFFFFFFFFFFFFFFFFFFFFFFFFFFFFFFFFFFFFFFFF AND EQ PUSH2 0xBA6 JUMPI PUSH1 0x40 MLOAD PUSH32 0x8C379A000000000000000000000000000000000000000000000000000000000 DUP2 MSTORE PUSH1 0x4 ADD PUSH2 0xB9D SWAP1 PUSH2 0x4133 JUMP JUMPDEST PUSH1 0x40 MLOAD DUP1 SWAP2 SUB SWAP1 REVERT JUMPDEST PUSH0 PUSH1 0x3 DUP1 SLOAD SWAP1 POP GT PUSH2 0xBED JUMPI PUSH1 0x40 MLOAD PUSH32 0x8C379A000000000000000000000000000000000000000000000000000000000 DUP2 MSTORE PUSH1 0x4 ADD PUSH2 0xBE4 SWAP1 PUSH2 0x41C1 JUMP JUMPDEST PUSH1 0x40 MLOAD DUP1 SWAP2 SUB SWAP1 REVERT JUMPDEST PUSH1 0x5 PUSH1 0x4 SWAP1 SLOAD SWAP1 PUSH2 0x100 EXP SWAP1 DIV PUSH1 0xFF AND PUSH1 0x5 DUP1 PUSH2 0x100 EXP DUP2 SLOAD DUP2 PUSH1 0xFF MUL NOT AND SWAP1 DUP4 PUSH1 0x8 DUP2 GT ISZERO PUSH2 0xC20 JUMPI PUSH2 0xC1F PUSH2 0x385B JUMP JUMPDEST JUMPDEST MUL OR SWAP1 SSTORE POP PUSH1 0x8 PUSH1 0x5 PUSH1 0x4 PUSH2 0x100 EXP DUP2 SLOAD DUP2 PUSH1 0xFF MUL NOT AND SWAP1 DUP4 PUSH1 0x8 DUP2 GT ISZERO PUSH2 0xC4B JUMPI PUSH2 0xC4A PUSH2 0x385B JUMP JUMPDEST JUMPDEST MUL OR SWAP1 SSTORE POP PUSH32 0xA97A4EE45751E2ABF3E4FC8946939630B11B371EA8AE39CCDC3056E98F5CC3F PUSH1 0x5 DUP1 SLOAD SWAP1 PUSH2 0x100 EXP SWAP1 DIV PUSH1 0xFF AND PUSH1 0x5 PUSH1 0x4 SWAP1 SLOAD SWAP1 PUSH2 0x100 EXP SWAP1 DIV PUSH1 0xFF AND PUSH1 0x40 MLOAD PUSH2 0xC9D SWAP3 SWAP2 SWAP1 PUSH2 0x3C45 JUMP JUMPDEST PUSH1 0x40 MLOAD DUP1 SWAP2 SUB SWAP1 LOG1 JUMP JUMPDEST PUSH1 0x60 DUP2 PUSH1 0x1 ISZERO ISZERO PUSH1 0x2 PUSH0 DUP4 PUSH20 0xFFFFFFFFFFFFFFFFFFFFFFFFFFFFFFFFFFFFFFFF AND PUSH20 0xFFFFFFFFFFFFFFFFFFFFFFFFFFFFFFFFFFFFFFFF AND DUP2 MSTORE PUSH1 0x20 ADD SWAP1 DUP2 MSTORE PUSH1 0x20 ADD PUSH0 KECCAK256 PUSH0 ADD PUSH0 SWAP1 SLOAD SWAP1 PUSH2 0x100 EXP SWAP1 DIV PUSH1 0xFF AND ISZERO ISZERO EQ ISZERO PUSH2 0xD07 DUP3 PUSH2 0x2CA9 JUMP JUMPDEST PUSH1 0x40 MLOAD PUSH1 0x20 ADD PUSH2 0xD17 SWAP2 SWAP1 PUSH2 0x4265 JUMP JUMPDEST PUSH1 0x40 MLOAD PUSH1 0x20 DUP2 DUP4 SUB SUB DUP2 MSTORE SWAP1 PUSH1 0x40 MSTORE SWAP1 PUSH2 0xD67 JUMPI PUSH1 0x40 MLOAD PUSH32 0x8C379A000000000000000000000000000000000000000000000000000000000 DUP2 MSTORE PUSH1 0x4 ADD PUSH2 0xD5E SWAP2 SWAP1 PUSH2 0x34C3 JUMP JUMPDEST PUSH1 0x40 MLOAD DUP1 SWAP2 SUB SWAP1 REVERT JUMPDEST POP PUSH1 0x1 PUSH0 SWAP1 SLOAD SWAP1 PUSH2 0x100 EXP SWAP1 DIV PUSH20 0xFFFFFFFFFFFFFFFFFFFFFFFFFFFFFFFFFFFFFFFF AND PUSH20 0xFFFFFFFFFFFFFFFFFFFFFFFFFFFFFFFFFFFFFFFF AND CALLER PUSH20 0xFFFFFFFFFFFFFFFFFFFFFFFFFFFFFFFFFFFFFFFF AND EQ PUSH2 0xDF7 JUMPI PUSH1 0x40 MLOAD PUSH32 0x8C379A000000000000000000000000000000000000000000000000000000000 DUP2 MSTORE PUSH1 0x4 ADD PUSH2 0xDEE SWAP1 PUSH2 0x4309 JUMP JUMPDEST PUSH1 0x40 MLOAD DUP1 SWAP2 SUB SWAP1 REVERT JUMPDEST PUSH1 0x1 ISZERO ISZERO PUSH1 0x5 PUSH0 SWAP1 SLOAD SWAP1 PUSH2 0x100 EXP SWAP1 DIV PUSH1 0xFF AND ISZERO ISZERO EQ PUSH2 0xE4C JUMPI PUSH1 0x40 MLOAD PUSH32 0x8C379A000000000000000000000000000000000000000000000000000000000 DUP2 MSTORE PUSH1 0x4 ADD PUSH2 0xE43 SWAP1 PUSH2 0x43BD JUMP JUMPDEST PUSH1 0x40 MLOAD DUP1 SWAP2 SUB SWAP1 REVERT JUMPDEST PUSH1 0x2 PUSH1 0x8 DUP2 GT ISZERO PUSH2 0xE60 JUMPI PUSH2 0xE5F PUSH2 0x385B JUMP JUMPDEST JUMPDEST PUSH1 0x5 PUSH1 0x4 SWAP1 SLOAD SWAP1 PUSH2 0x100 EXP SWAP1 DIV PUSH1 0xFF AND PUSH1 0x8 DUP2 GT ISZERO PUSH2 0xE82 JUMPI PUSH2 0xE81 PUSH2 0x385B JUMP JUMPDEST JUMPDEST EQ PUSH2 0xEC2 JUMPI PUSH1 0x40 MLOAD PUSH32 0x8C379A000000000000000000000000000000000000000000000000000000000 DUP2 MSTORE PUSH1 0x4 ADD PUSH2 0xEB9 SWAP1 PUSH2 0x4471 JUMP JUMPDEST PUSH1 0x40 MLOAD DUP1 SWAP2 SUB SWAP1 REVERT JUMPDEST PUSH1 0x1 PUSH1 0x2 PUSH0 DUP6 PUSH20 0xFFFFFFFFFFFFFFFFFFFFFFFFFFFFFFFFFFFFFFFF AND PUSH20 0xFFFFFFFFFFFFFFFFFFFFFFFFFFFFFFFFFFFFFFFF AND DUP2 MSTORE PUSH1 0x20 ADD SWAP1 DUP2 MSTORE PUSH1 0x20 ADD PUSH0 KECCAK256 PUSH0 ADD PUSH0 PUSH2 0x100 EXP DUP2 SLOAD DUP2 PUSH1 0xFF MUL NOT AND SWAP1 DUP4 ISZERO ISZERO MUL OR SWAP1 SSTORE POP PUSH0 PUSH1 0x2 PUSH0 DUP6 PUSH20 0xFFFFFFFFFFFFFFFFFFFFFFFFFFFFFFFFFFFFFFFF AND PUSH20 0xFFFFFFFFFFFFFFFFFFFFFFFFFFFFFFFFFFFFFFFF AND DUP2 MSTORE PUSH1 0x20 ADD SWAP1 DUP2 MSTORE PUSH1 0x20 ADD PUSH0 KECCAK256 PUSH0 ADD PUSH1 0x1 PUSH2 0x100 EXP DUP2 SLOAD DUP2 PUSH1 0xFF MUL NOT AND SWAP1 DUP4 ISZERO ISZERO MUL OR SWAP1 SSTORE POP PUSH1 0x4 DUP4 SWAP1 DUP1 PUSH1 0x1 DUP2 SLOAD ADD DUP1 DUP3 SSTORE DUP1 SWAP2 POP POP PUSH1 0x1 SWAP1 SUB SWAP1 PUSH0 MSTORE PUSH1 0x20 PUSH0 KECCAK256 ADD PUSH0 SWAP1 SWAP2 SWAP1 SWAP2 SWAP1 SWAP2 PUSH2 0x100 EXP DUP2 SLOAD DUP2 PUSH20 0xFFFFFFFFFFFFFFFFFFFFFFFFFFFFFFFFFFFFFFFF MUL NOT AND SWAP1 DUP4 PUSH20 0xFFFFFFFFFFFFFFFFFFFFFFFFFFFFFFFFFFFFFFFF AND MUL OR SWAP1 SSTORE POP PUSH32 0xB6BE2187D059CC2A55FE29E0E503B566E1E0F8C8780096E185429350ACFFD3DD DUP4 PUSH1 0x40 MLOAD PUSH2 0xFFF SWAP2 SWAP1 PUSH2 0x37A2 JUMP JUMPDEST PUSH1 0x40 MLOAD DUP1 SWAP2 SUB SWAP1 LOG1 PUSH1 0x40 MLOAD DUP1 PUSH1 0x40 ADD PUSH1 0x40 MSTORE DUP1 PUSH1 0x10 DUP2 MSTORE PUSH1 0x20 ADD PUSH32 0x566F746572207265676973746572656400000000000000000000000000000000 DUP2 MSTORE POP SWAP2 POP POP SWAP2 SWAP1 POP JUMP JUMPDEST PUSH1 0x1 PUSH0 SWAP1 SLOAD SWAP1 PUSH2 0x100 EXP SWAP1 DIV PUSH20 0xFFFFFFFFFFFFFFFFFFFFFFFFFFFFFFFFFFFFFFFF AND PUSH20 0xFFFFFFFFFFFFFFFFFFFFFFFFFFFFFFFFFFFFFFFF AND CALLER PUSH20 0xFFFFFFFFFFFFFFFFFFFFFFFFFFFFFFFFFFFFFFFF AND EQ PUSH2 0x10D4 JUMPI PUSH1 0x40 MLOAD PUSH32 0x8C379A000000000000000000000000000000000000000000000000000000000 DUP2 MSTORE PUSH1 0x4 ADD PUSH2 0x10CB SWAP1 PUSH2 0x44FF JUMP JUMPDEST PUSH1 0x40 MLOAD DUP1 SWAP2 SUB SWAP1 REVERT JUMPDEST PUSH1 0x1 ISZERO ISZERO PUSH1 0x5 PUSH0 SWAP1 SLOAD SWAP1 PUSH2 0x100 EXP SWAP1 DIV PUSH1 0xFF AND ISZERO ISZERO EQ DUP1 ISZERO PUSH2 0x1109 JUMPI POP PUSH1 0x1 ISZERO ISZERO PUSH1 0x5 PUSH1 0x3 SWAP1 SLOAD SWAP1 PUSH2 0x100 EXP SWAP1 DIV PUSH1 0xFF AND ISZERO ISZERO EQ JUMPDEST PUSH2 0x1148 JUMPI PUSH1 0x40 MLOAD PUSH32 0x8C379A000000000000000000000000000000000000000000000000000000000 DUP2 MSTORE PUSH1 0x4 ADD PUSH2 0x113F SWAP1 PUSH2 0x45B3 JUMP JUMPDEST PUSH1 0x40 MLOAD DUP1 SWAP2 SUB SWAP1 REVERT JUMPDEST PUSH0 DUP3 DUP3 PUSH1 0x40 MLOAD PUSH1 0x20 ADD PUSH2 0x115C SWAP3 SWAP2 SWAP1 PUSH2 0x4699 JUMP JUMPDEST PUSH1 0x40 MLOAD PUSH1 0x20 DUP2 DUP4 SUB SUB DUP2 MSTORE SWAP1 PUSH1 0x40 MSTORE SWAP1 POP PUSH32 0x8CC3686A72325C2385BAD54B271CB2F124E8AE1E52479BD8D6EDBCCD3817EEA7 DUP2 PUSH1 0x40 MLOAD PUSH2 0x119C SWAP2 SWAP1 PUSH2 0x34C3 JUMP JUMPDEST PUSH1 0x40 MLOAD DUP1 SWAP2 SUB SWAP1 LOG1 PUSH0 JUMPDEST PUSH1 0x4 DUP1 SLOAD SWAP1 POP DUP2 LT ISZERO PUSH2 0x1258 JUMPI PUSH0 PUSH1 0x2 PUSH0 PUSH1 0x4 DUP5 DUP2 SLOAD DUP2 LT PUSH2 0x11CB JUMPI PUSH2 0x11CA PUSH2 0x39E6 JUMP JUMPDEST JUMPDEST SWAP1 PUSH0 MSTORE PUSH1 0x20 PUSH0 KECCAK256 ADD PUSH0 SWAP1 SLOAD SWAP1 PUSH2 0x100 EXP SWAP1 DIV PUSH20 0xFFFFFFFFFFFFFFFFFFFFFFFFFFFFFFFFFFFFFFFF AND PUSH20 0xFFFFFFFFFFFFFFFFFFFFFFFFFFFFFFFFFFFFFFFF AND PUSH20 0xFFFFFFFFFFFFFFFFFFFFFFFFFFFFFFFFFFFFFFFF AND DUP2 MSTORE PUSH1 0x20 ADD SWAP1 DUP2 MSTORE PUSH1 0x20 ADD PUSH0 KECCAK256 PUSH0 ADD PUSH1 0x1 PUSH2 0x100 EXP DUP2 SLOAD DUP2 PUSH1 0xFF MUL NOT AND SWAP1 DUP4 ISZERO ISZERO MUL OR SWAP1 SSTORE POP DUP1 DUP1 PUSH2 0x1250 SWAP1 PUSH2 0x3A40 JUMP JUMPDEST SWAP2 POP POP PUSH2 0x11A6 JUMP JUMPDEST POP PUSH1 0x3 PUSH0 PUSH2 0x1266 SWAP2 SWAP1 PUSH2 0x32FF JUMP JUMPDEST PUSH2 0x126E PUSH2 0x127D JUMP JUMPDEST POP PUSH2 0x1277 PUSH2 0x2292 JUMP JUMPDEST POP POP POP POP JUMP JUMPDEST PUSH1 0x60 PUSH1 0x1 PUSH0 SWAP1 SLOAD SWAP1 PUSH2 0x100 EXP SWAP1 DIV PUSH20 0xFFFFFFFFFFFFFFFFFFFFFFFFFFFFFFFFFFFFFFFF AND PUSH20 0xFFFFFFFFFFFFFFFFFFFFFFFFFFFFFFFFFFFFFFFF AND CALLER PUSH20 0xFFFFFFFFFFFFFFFFFFFFFFFFFFFFFFFFFFFFFFFF AND EQ PUSH2 0x130E JUMPI PUSH1 0x40 MLOAD PUSH32 0x8C379A000000000000000000000000000000000000000000000000000000000 DUP2 MSTORE PUSH1 0x4 ADD PUSH2 0x1305 SWAP1 PUSH2 0x472C JUMP JUMPDEST PUSH1 0x40 MLOAD DUP1 SWAP2 SUB SWAP1 REVERT JUMPDEST PUSH1 0x1 ISZERO ISZERO PUSH1 0x5 PUSH1 0x3 SWAP1 SLOAD SWAP1 PUSH2 0x100 EXP SWAP1 DIV PUSH1 0xFF AND ISZERO ISZERO EQ PUSH2 0x1364 JUMPI PUSH1 0x40 MLOAD PUSH32 0x8C379A000000000000000000000000000000000000000000000000000000000 DUP2 MSTORE PUSH1 0x4 ADD PUSH2 0x135B SWAP1 PUSH2 0x47E0 JUMP JUMPDEST PUSH1 0x40 MLOAD DUP1 SWAP2 SUB SWAP1 REVERT JUMPDEST PUSH0 PUSH1 0x5 PUSH1 0x3 PUSH2 0x100 EXP DUP2 SLOAD DUP2 PUSH1 0xFF MUL NOT AND SWAP1 DUP4 ISZERO ISZERO MUL OR SWAP1 SSTORE POP PUSH1 0x5 PUSH1 0x4 SWAP1 SLOAD SWAP1 PUSH2 0x100 EXP SWAP1 DIV PUSH1 0xFF AND PUSH1 0x5 DUP1 PUSH2 0x100 EXP DUP2 SLOAD DUP2 PUSH1 0xFF MUL NOT AND SWAP1 DUP4 PUSH1 0x8 DUP2 GT ISZERO PUSH2 0x13B1 JUMPI PUSH2 0x13B0 PUSH2 0x385B JUMP JUMPDEST JUMPDEST MUL OR SWAP1 SSTORE POP PUSH1 0x7 PUSH1 0x5 PUSH1 0x4 PUSH2 0x100 EXP DUP2 SLOAD DUP2 PUSH1 0xFF MUL NOT AND SWAP1 DUP4 PUSH1 0x8 DUP2 GT ISZERO PUSH2 0x13DC JUMPI PUSH2 0x13DB PUSH2 0x385B JUMP JUMPDEST JUMPDEST MUL OR SWAP1 SSTORE POP PUSH32 0xA97A4EE45751E2ABF3E4FC8946939630B11B371EA8AE39CCDC3056E98F5CC3F PUSH1 0x5 DUP1 SLOAD SWAP1 PUSH2 0x100 EXP SWAP1 DIV PUSH1 0xFF AND PUSH1 0x5 PUSH1 0x4 SWAP1 SLOAD SWAP1 PUSH2 0x100 EXP SWAP1 DIV PUSH1 0xFF AND PUSH1 0x40 MLOAD PUSH2 0x142E SWAP3 SWAP2 SWAP1 PUSH2 0x3C45 JUMP JUMPDEST PUSH1 0x40 MLOAD DUP1 SWAP2 SUB SWAP1 LOG1 PUSH1 0x40 MLOAD DUP1 PUSH1 0x40 ADD PUSH1 0x40 MSTORE DUP1 PUSH1 0x20 DUP2 MSTORE PUSH1 0x20 ADD PUSH32 0x54686520766F74696E672073657373696F6E206973206E6F7720636C6F736564 DUP2 MSTORE POP SWAP1 POP SWAP1 JUMP JUMPDEST PUSH1 0x60 PUSH1 0x2 PUSH0 CALLER PUSH20 0xFFFFFFFFFFFFFFFFFFFFFFFFFFFFFFFFFFFFFFFF AND PUSH20 0xFFFFFFFFFFFFFFFFFFFFFFFFFFFFFFFFFFFFFFFF AND DUP2 MSTORE PUSH1 0x20 ADD SWAP1 DUP2 MSTORE PUSH1 0x20 ADD PUSH0 KECCAK256 PUSH0 ADD PUSH0 SWAP1 SLOAD SWAP1 PUSH2 0x100 EXP SWAP1 DIV PUSH1 0xFF AND PUSH2 0x14FE JUMPI PUSH1 0x40 MLOAD PUSH32 0x8C379A000000000000000000000000000000000000000000000000000000000 DUP2 MSTORE PUSH1 0x4 ADD PUSH2 0x14F5 SWAP1 PUSH2 0x4848 JUMP JUMPDEST PUSH1 0x40 MLOAD DUP1 SWAP2 SUB SWAP1 REVERT JUMPDEST PUSH1 0x1 ISZERO ISZERO PUSH1 0x5 PUSH0 SWAP1 SLOAD SWAP1 PUSH2 0x100 EXP SWAP1 DIV PUSH1 0xFF AND ISZERO ISZERO EQ DUP1 ISZERO PUSH2 0x1553 JUMPI POP PUSH1 0x6 PUSH1 0x8 DUP2 GT ISZERO PUSH2 0x152F JUMPI PUSH2 0x152E PUSH2 0x385B JUMP JUMPDEST JUMPDEST PUSH1 0x5 PUSH1 0x4 SWAP1 SLOAD SWAP1 PUSH2 0x100 EXP SWAP1 DIV PUSH1 0xFF AND PUSH1 0x8 DUP2 GT ISZERO PUSH2 0x1551 JUMPI PUSH2 0x1550 PUSH2 0x385B JUMP JUMPDEST JUMPDEST EQ JUMPDEST PUSH2 0x1592 JUMPI PUSH1 0x40 MLOAD PUSH32 0x8C379A000000000000000000000000000000000000000000000000000000000 DUP2 MSTORE PUSH1 0x4 ADD PUSH2 0x1589 SWAP1 PUSH2 0x48FC JUMP JUMPDEST PUSH1 0x40 MLOAD DUP1 SWAP2 SUB SWAP1 REVERT JUMPDEST PUSH1 0x1 ISZERO ISZERO PUSH1 0x2 PUSH0 DUP5 PUSH20 0xFFFFFFFFFFFFFFFFFFFFFFFFFFFFFFFFFFFFFFFF AND PUSH20 0xFFFFFFFFFFFFFFFFFFFFFFFFFFFFFFFFFFFFFFFF AND DUP2 MSTORE PUSH1 0x20 ADD SWAP1 DUP2 MSTORE PUSH1 0x20 ADD PUSH0 KECCAK256 PUSH0 ADD PUSH1 0x1 SWAP1 SLOAD SWAP1 PUSH2 0x100 EXP SWAP1 DIV PUSH1 0xFF AND ISZERO ISZERO EQ PUSH2 0x1625 JUMPI PUSH1 0x40 MLOAD PUSH32 0x8C379A000000000000000000000000000000000000000000000000000000000 DUP2 MSTORE PUSH1 0x4 ADD PUSH2 0x161C SWAP1 PUSH2 0x49B0 JUMP JUMPDEST PUSH1 0x40 MLOAD DUP1 SWAP2 SUB SWAP1 REVERT JUMPDEST PUSH0 PUSH1 0x2 PUSH0 DUP5 PUSH20 0xFFFFFFFFFFFFFFFFFFFFFFFFFFFFFFFFFFFFFFFF AND PUSH20 0xFFFFFFFFFFFFFFFFFFFFFFFFFFFFFFFFFFFFFFFF AND DUP2 MSTORE PUSH1 0x20 ADD SWAP1 DUP2 MSTORE PUSH1 0x20 ADD PUSH0 KECCAK256 PUSH1 0x1 ADD SLOAD SWAP1 POP PUSH0 PUSH1 0x3 DUP3 DUP2 SLOAD DUP2 LT PUSH2 0x167E JUMPI PUSH2 0x167D PUSH2 0x39E6 JUMP JUMPDEST JUMPDEST SWAP1 PUSH0 MSTORE PUSH1 0x20 PUSH0 KECCAK256 SWAP1 PUSH1 0x3 MUL ADD PUSH1 0x1 ADD SWAP1 POP PUSH2 0x1698 DUP5 PUSH2 0x2CA9 JUMP JUMPDEST PUSH2 0x16A1 DUP4 PUSH2 0x2CD6 JUMP JUMPDEST DUP3 PUSH1 0x40 MLOAD PUSH1 0x20 ADD PUSH2 0x16B4 SWAP4 SWAP3 SWAP2 SWAP1 PUSH2 0x4AAC JUMP JUMPDEST PUSH1 0x40 MLOAD PUSH1 0x20 DUP2 DUP4 SUB SUB DUP2 MSTORE SWAP1 PUSH1 0x40 MSTORE SWAP3 POP POP POP SWAP2 SWAP1 POP JUMP JUMPDEST PUSH1 0x60 PUSH1 0x1 PUSH0 SWAP1 SLOAD SWAP1 PUSH2 0x100 EXP SWAP1 DIV PUSH20 0xFFFFFFFFFFFFFFFFFFFFFFFFFFFFFFFFFFFFFFFF AND PUSH20 0xFFFFFFFFFFFFFFFFFFFFFFFFFFFFFFFFFFFFFFFF AND CALLER PUSH20 0xFFFFFFFFFFFFFFFFFFFFFFFFFFFFFFFFFFFFFFFF AND EQ PUSH2 0x175D JUMPI PUSH1 0x40 MLOAD PUSH32 0x8C379A000000000000000000000000000000000000000000000000000000000 DUP2 MSTORE PUSH1 0x4 ADD PUSH2 0x1754 SWAP1 PUSH2 0x4B79 JUMP JUMPDEST PUSH1 0x40 MLOAD DUP1 SWAP2 SUB SWAP1 REVERT JUMPDEST PUSH1 0x1 ISZERO ISZERO PUSH1 0x5 PUSH0 SWAP1 SLOAD SWAP1 PUSH2 0x100 EXP SWAP1 DIV PUSH1 0xFF AND ISZERO ISZERO EQ DUP1 ISZERO PUSH2 0x1783 JUMPI POP PUSH0 PUSH1 0x4 DUP1 SLOAD SWAP1 POP GT JUMPDEST PUSH2 0x17C2 JUMPI PUSH1 0x40 MLOAD PUSH32 0x8C379A000000000000000000000000000000000000000000000000000000000 DUP2 MSTORE PUSH1 0x4 ADD PUSH2 0x17B9 SWAP1 PUSH2 0x4C2D JUMP JUMPDEST PUSH1 0x40 MLOAD DUP1 SWAP2 SUB SWAP1 REVERT JUMPDEST PUSH0 JUMPDEST DUP3 MLOAD DUP2 LT ISZERO PUSH2 0x1804 JUMPI PUSH2 0x17F0 DUP4 DUP3 DUP2 MLOAD DUP2 LT PUSH2 0x17E3 JUMPI PUSH2 0x17E2 PUSH2 0x39E6 JUMP JUMPDEST JUMPDEST PUSH1 0x20 MUL PUSH1 0x20 ADD ADD MLOAD PUSH2 0x1D4D JUMP JUMPDEST POP DUP1 DUP1 PUSH2 0x17FC SWAP1 PUSH2 0x3A40 JUMP JUMPDEST SWAP2 POP POP PUSH2 0x17C4 JUMP JUMPDEST POP PUSH1 0x40 MLOAD DUP1 PUSH1 0x40 ADD PUSH1 0x40 MSTORE DUP1 PUSH1 0xE DUP2 MSTORE PUSH1 0x20 ADD PUSH32 0x566F746572732072656D6F766564000000000000000000000000000000000000 DUP2 MSTORE POP SWAP1 POP SWAP2 SWAP1 POP JUMP JUMPDEST PUSH1 0x60 PUSH1 0x1 PUSH0 SWAP1 SLOAD SWAP1 PUSH2 0x100 EXP SWAP1 DIV PUSH20 0xFFFFFFFFFFFFFFFFFFFFFFFFFFFFFFFFFFFFFFFF AND PUSH20 0xFFFFFFFFFFFFFFFFFFFFFFFFFFFFFFFFFFFFFFFF AND CALLER PUSH20 0xFFFFFFFFFFFFFFFFFFFFFFFFFFFFFFFFFFFFFFFF AND EQ PUSH2 0x18D3 JUMPI PUSH1 0x40 MLOAD PUSH32 0x8C379A000000000000000000000000000000000000000000000000000000000 DUP2 MSTORE PUSH1 0x4 ADD PUSH2 0x18CA SWAP1 PUSH2 0x4CBB JUMP JUMPDEST PUSH1 0x40 MLOAD DUP1 SWAP2 SUB SWAP1 REVERT JUMPDEST PUSH1 0x1 ISZERO ISZERO PUSH1 0x5 PUSH1 0x1 SWAP1 SLOAD SWAP1 PUSH2 0x100 EXP SWAP1 DIV PUSH1 0xFF AND ISZERO ISZERO EQ PUSH2 0x1929 JUMPI PUSH1 0x40 MLOAD PUSH32 0x8C379A000000000000000000000000000000000000000000000000000000000 DUP2 MSTORE PUSH1 0x4 ADD PUSH2 0x1920 SWAP1 PUSH2 0x4D6F JUMP JUMPDEST PUSH1 0x40 MLOAD DUP1 SWAP2 SUB SWAP1 REVERT JUMPDEST PUSH0 PUSH1 0x5 PUSH1 0x1 PUSH2 0x100 EXP DUP2 SLOAD DUP2 PUSH1 0xFF MUL NOT AND SWAP1 DUP4 ISZERO ISZERO MUL OR SWAP1 SSTORE POP PUSH1 0x5 PUSH1 0x4 SWAP1 SLOAD SWAP1 PUSH2 0x100 EXP SWAP1 DIV PUSH1 0xFF AND PUSH1 0x5 DUP1 PUSH2 0x100 EXP DUP2 SLOAD DUP2 PUSH1 0xFF MUL NOT AND SWAP1 DUP4 PUSH1 0x8 DUP2 GT ISZERO PUSH2 0x1976 JUMPI PUSH2 0x1975 PUSH2 0x385B JUMP JUMPDEST JUMPDEST MUL OR SWAP1 SSTORE POP PUSH1 0x3 PUSH1 0x5 PUSH1 0x4 PUSH2 0x100 EXP DUP2 SLOAD DUP2 PUSH1 0xFF MUL NOT AND SWAP1 DUP4 PUSH1 0x8 DUP2 GT ISZERO PUSH2 0x19A1 JUMPI PUSH2 0x19A0 PUSH2 0x385B JUMP JUMPDEST JUMPDEST MUL OR SWAP1 SSTORE POP PUSH32 0xA97A4EE45751E2ABF3E4FC8946939630B11B371EA8AE39CCDC3056E98F5CC3F PUSH1 0x5 DUP1 SLOAD SWAP1 PUSH2 0x100 EXP SWAP1 DIV PUSH1 0xFF AND PUSH1 0x5 PUSH1 0x4 SWAP1 SLOAD SWAP1 PUSH2 0x100 EXP SWAP1 DIV PUSH1 0xFF AND PUSH1 0x40 MLOAD PUSH2 0x19F3 SWAP3 SWAP2 SWAP1 PUSH2 0x3C45 JUMP JUMPDEST PUSH1 0x40 MLOAD DUP1 SWAP2 SUB SWAP1 LOG1 PUSH1 0x40 MLOAD DUP1 PUSH1 0x60 ADD PUSH1 0x40 MSTORE DUP1 PUSH1 0x25 DUP2 MSTORE PUSH1 0x20 ADD PUSH2 0x5CAA PUSH1 0x25 SWAP2 CODECOPY SWAP1 POP SWAP1 JUMP JUMPDEST PUSH1 0x60 PUSH1 0x2 PUSH0 CALLER PUSH20 0xFFFFFFFFFFFFFFFFFFFFFFFFFFFFFFFFFFFFFFFF AND PUSH20 0xFFFFFFFFFFFFFFFFFFFFFFFFFFFFFFFFFFFFFFFF AND DUP2 MSTORE PUSH1 0x20 ADD SWAP1 DUP2 MSTORE PUSH1 0x20 ADD PUSH0 KECCAK256 PUSH0 ADD PUSH0 SWAP1 SLOAD SWAP1 PUSH2 0x100 EXP SWAP1 DIV PUSH1 0xFF AND PUSH2 0x1AA6 JUMPI PUSH1 0x40 MLOAD PUSH32 0x8C379A000000000000000000000000000000000000000000000000000000000 DUP2 MSTORE PUSH1 0x4 ADD PUSH2 0x1A9D SWAP1 PUSH2 0x4DFD JUMP JUMPDEST PUSH1 0x40 MLOAD DUP1 SWAP2 SUB SWAP1 REVERT JUMPDEST PUSH0 PUSH1 0x3 DUP1 SLOAD SWAP1 POP GT PUSH2 0x1AED JUMPI PUSH1 0x40 MLOAD PUSH32 0x8C379A000000000000000000000000000000000000000000000000000000000 DUP2 MSTORE PUSH1 0x4 ADD PUSH2 0x1AE4 SWAP1 PUSH2 0x4E65 JUMP JUMPDEST PUSH1 0x40 MLOAD DUP1 SWAP2 SUB SWAP1 REVERT JUMPDEST PUSH0 JUMPDEST PUSH1 0x3 DUP1 SLOAD SWAP1 POP DUP2 LT ISZERO PUSH2 0x1B5F JUMPI DUP2 PUSH2 0x1B06 DUP3 PUSH2 0x2CD6 JUMP JUMPDEST PUSH1 0x3 DUP4 DUP2 SLOAD DUP2 LT PUSH2 0x1B1A JUMPI PUSH2 0x1B19 PUSH2 0x39E6 JUMP JUMPDEST JUMPDEST SWAP1 PUSH0 MSTORE PUSH1 0x20 PUSH0 KECCAK256 SWAP1 PUSH1 0x3 MUL ADD PUSH1 0x1 ADD PUSH1 0x40 MLOAD PUSH1 0x20 ADD PUSH2 0x1B3B SWAP4 SWAP3 SWAP2 SWAP1 PUSH2 0x4F75 JUMP JUMPDEST PUSH1 0x40 MLOAD PUSH1 0x20 DUP2 DUP4 SUB SUB DUP2 MSTORE SWAP1 PUSH1 0x40 MSTORE SWAP2 POP DUP1 DUP1 PUSH2 0x1B57 SWAP1 PUSH2 0x3A40 JUMP JUMPDEST SWAP2 POP POP PUSH2 0x1AEF JUMP JUMPDEST POP SWAP1 JUMP JUMPDEST PUSH2 0x1B6B PUSH2 0x2DA0 JUMP JUMPDEST PUSH2 0x1B74 PUSH0 PUSH2 0x2E27 JUMP JUMPDEST JUMP JUMPDEST PUSH1 0x60 PUSH1 0x1 PUSH0 SWAP1 SLOAD SWAP1 PUSH2 0x100 EXP SWAP1 DIV PUSH20 0xFFFFFFFFFFFFFFFFFFFFFFFFFFFFFFFFFFFFFFFF AND PUSH20 0xFFFFFFFFFFFFFFFFFFFFFFFFFFFFFFFFFFFFFFFF AND CALLER PUSH20 0xFFFFFFFFFFFFFFFFFFFFFFFFFFFFFFFFFFFFFFFF AND EQ PUSH2 0x1C07 JUMPI PUSH1 0x40 MLOAD PUSH32 0x8C379A000000000000000000000000000000000000000000000000000000000 DUP2 MSTORE PUSH1 0x4 ADD PUSH2 0x1BFE SWAP1 PUSH2 0x5042 JUMP JUMPDEST PUSH1 0x40 MLOAD DUP1 SWAP2 SUB SWAP1 REVERT JUMPDEST PUSH1 0x1 ISZERO ISZERO PUSH1 0x5 PUSH0 SWAP1 SLOAD SWAP1 PUSH2 0x100 EXP SWAP1 DIV PUSH1 0xFF AND ISZERO ISZERO EQ PUSH2 0x1C5C JUMPI PUSH1 0x40 MLOAD PUSH32 0x8C379A000000000000000000000000000000000000000000000000000000000 DUP2 MSTORE PUSH1 0x4 ADD PUSH2 0x1C53 SWAP1 PUSH2 0x50F6 JUMP JUMPDEST PUSH1 0x40 MLOAD DUP1 SWAP2 SUB SWAP1 REVERT JUMPDEST PUSH1 0x1 PUSH1 0x5 PUSH1 0x1 PUSH2 0x100 EXP DUP2 SLOAD DUP2 PUSH1 0xFF MUL NOT AND SWAP1 DUP4 ISZERO ISZERO MUL OR SWAP1 SSTORE POP PUSH1 0x5 PUSH1 0x4 SWAP1 SLOAD SWAP1 PUSH2 0x100 EXP SWAP1 DIV PUSH1 0xFF AND PUSH1 0x5 DUP1 PUSH2 0x100 EXP DUP2 SLOAD DUP2 PUSH1 0xFF MUL NOT AND SWAP1 DUP4 PUSH1 0x8 DUP2 GT ISZERO PUSH2 0x1CAA JUMPI PUSH2 0x1CA9 PUSH2 0x385B JUMP JUMPDEST JUMPDEST MUL OR SWAP1 SSTORE POP PUSH1 0x2 PUSH1 0x5 PUSH1 0x4 PUSH2 0x100 EXP DUP2 SLOAD DUP2 PUSH1 0xFF MUL NOT AND SWAP1 DUP4 PUSH1 0x8 DUP2 GT ISZERO PUSH2 0x1CD5 JUMPI PUSH2 0x1CD4 PUSH2 0x385B JUMP JUMPDEST JUMPDEST MUL OR SWAP1 SSTORE POP PUSH32 0xA97A4EE45751E2ABF3E4FC8946939630B11B371EA8AE39CCDC3056E98F5CC3F PUSH1 0x5 DUP1 SLOAD SWAP1 PUSH2 0x100 EXP SWAP1 DIV PUSH1 0xFF AND PUSH1 0x5 PUSH1 0x4 SWAP1 SLOAD SWAP1 PUSH2 0x100 EXP SWAP1 DIV PUSH1 0xFF AND PUSH1 0x40 MLOAD PUSH2 0x1D27 SWAP3 SWAP2 SWAP1 PUSH2 0x3C45 JUMP JUMPDEST PUSH1 0x40 MLOAD DUP1 SWAP2 SUB SWAP1 LOG1 PUSH1 0x40 MLOAD DUP1 PUSH1 0x60 ADD PUSH1 0x40 MSTORE DUP1 PUSH1 0x25 DUP2 MSTORE PUSH1 0x20 ADD PUSH2 0x5C35 PUSH1 0x25 SWAP2 CODECOPY SWAP1 POP SWAP1 JUMP JUMPDEST PUSH1 0x60 PUSH1 0x1 PUSH0 SWAP1 SLOAD SWAP1 PUSH2 0x100 EXP SWAP1 DIV PUSH20 0xFFFFFFFFFFFFFFFFFFFFFFFFFFFFFFFFFFFFFFFF AND PUSH20 0xFFFFFFFFFFFFFFFFFFFFFFFFFFFFFFFFFFFFFFFF AND CALLER PUSH20 0xFFFFFFFFFFFFFFFFFFFFFFFFFFFFFFFFFFFFFFFF AND EQ PUSH2 0x1DDE JUMPI PUSH1 0x40 MLOAD PUSH32 0x8C379A000000000000000000000000000000000000000000000000000000000 DUP2 MSTORE PUSH1 0x4 ADD PUSH2 0x1DD5 SWAP1 PUSH2 0x5184 JUMP JUMPDEST PUSH1 0x40 MLOAD DUP1 SWAP2 SUB SWAP1 REVERT JUMPDEST PUSH1 0x1 ISZERO ISZERO PUSH1 0x5 PUSH0 SWAP1 SLOAD SWAP1 PUSH2 0x100 EXP SWAP1 DIV PUSH1 0xFF AND ISZERO ISZERO EQ DUP1 ISZERO PUSH2 0x1E04 JUMPI POP PUSH0 PUSH1 0x4 DUP1 SLOAD SWAP1 POP GT JUMPDEST PUSH2 0x1E43 JUMPI PUSH1 0x40 MLOAD PUSH32 0x8C379A000000000000000000000000000000000000000000000000000000000 DUP2 MSTORE PUSH1 0x4 ADD PUSH2 0x1E3A SWAP1 PUSH2 0x5238 JUMP JUMPDEST PUSH1 0x40 MLOAD DUP1 SWAP2 SUB SWAP1 REVERT JUMPDEST PUSH1 0x2 PUSH0 DUP4 PUSH20 0xFFFFFFFFFFFFFFFFFFFFFFFFFFFFFFFFFFFFFFFF AND PUSH20 0xFFFFFFFFFFFFFFFFFFFFFFFFFFFFFFFFFFFFFFFF AND DUP2 MSTORE PUSH1 0x20 ADD SWAP1 DUP2 MSTORE PUSH1 0x20 ADD PUSH0 KECCAK256 PUSH0 DUP1 DUP3 ADD PUSH0 PUSH2 0x100 EXP DUP2 SLOAD SWAP1 PUSH1 0xFF MUL NOT AND SWAP1 SSTORE PUSH0 DUP3 ADD PUSH1 0x1 PUSH2 0x100 EXP DUP2 SLOAD SWAP1 PUSH1 0xFF MUL NOT AND SWAP1 SSTORE PUSH1 0x1 DUP3 ADD PUSH0 SWAP1 SSTORE POP POP PUSH32 0xA14A79AF012D1756818F9BD59CCFC9AD185A71DF86B9392D9059D9E6FAF6D644 DUP3 PUSH1 0x40 MLOAD PUSH2 0x1EDE SWAP2 SWAP1 PUSH2 0x37A2 JUMP JUMPDEST PUSH1 0x40 MLOAD DUP1 SWAP2 SUB SWAP1 LOG1 PUSH1 0x40 MLOAD DUP1 PUSH1 0x40 ADD PUSH1 0x40 MSTORE DUP1 PUSH1 0xE DUP2 MSTORE PUSH1 0x20 ADD PUSH32 0x566F746572732072656D6F766564000000000000000000000000000000000000 DUP2 MSTORE POP SWAP1 POP SWAP2 SWAP1 POP JUMP JUMPDEST PUSH0 DUP1 PUSH0 SWAP1 SLOAD SWAP1 PUSH2 0x100 EXP SWAP1 DIV PUSH20 0xFFFFFFFFFFFFFFFFFFFFFFFFFFFFFFFFFFFFFFFF AND SWAP1 POP SWAP1 JUMP JUMPDEST PUSH0 PUSH1 0x8 DUP1 DUP2 GT ISZERO PUSH2 0x1F5E JUMPI PUSH2 0x1F5D PUSH2 0x385B JUMP JUMPDEST JUMPDEST PUSH1 0x5 PUSH1 0x4 SWAP1 SLOAD SWAP1 PUSH2 0x100 EXP SWAP1 DIV PUSH1 0xFF AND PUSH1 0x8 DUP2 GT ISZERO PUSH2 0x1F80 JUMPI PUSH2 0x1F7F PUSH2 0x385B JUMP JUMPDEST JUMPDEST EQ PUSH2 0x1FC0 JUMPI PUSH1 0x40 MLOAD PUSH32 0x8C379A000000000000000000000000000000000000000000000000000000000 DUP2 MSTORE PUSH1 0x4 ADD PUSH2 0x1FB7 SWAP1 PUSH2 0x52C6 JUMP JUMPDEST PUSH1 0x40 MLOAD DUP1 SWAP2 SUB SWAP1 REVERT JUMPDEST PUSH1 0x3 PUSH2 0x1FCA PUSH2 0x2EE8 JUMP JUMPDEST DUP2 SLOAD DUP2 LT PUSH2 0x1FDB JUMPI PUSH2 0x1FDA PUSH2 0x39E6 JUMP JUMPDEST JUMPDEST SWAP1 PUSH0 MSTORE PUSH1 0x20 PUSH0 KECCAK256 SWAP1 PUSH1 0x3 MUL ADD PUSH0 ADD PUSH0 SWAP1 SLOAD SWAP1 PUSH2 0x100 EXP SWAP1 DIV PUSH20 0xFFFFFFFFFFFFFFFFFFFFFFFFFFFFFFFFFFFFFFFF AND SWAP1 POP SWAP1 JUMP JUMPDEST PUSH1 0x60 PUSH1 0x8 DUP1 DUP2 GT ISZERO PUSH2 0x2023 JUMPI PUSH2 0x2022 PUSH2 0x385B JUMP JUMPDEST JUMPDEST PUSH1 0x5 PUSH1 0x4 SWAP1 SLOAD SWAP1 PUSH2 0x100 EXP SWAP1 DIV PUSH1 0xFF AND PUSH1 0x8 DUP2 GT ISZERO PUSH2 0x2045 JUMPI PUSH2 0x2044 PUSH2 0x385B JUMP JUMPDEST JUMPDEST EQ PUSH2 0x2085 JUMPI PUSH1 0x40 MLOAD PUSH32 0x8C379A000000000000000000000000000000000000000000000000000000000 DUP2 MSTORE PUSH1 0x4 ADD PUSH2 0x207C SWAP1 PUSH2 0x537A JUMP JUMPDEST PUSH1 0x40 MLOAD DUP1 SWAP2 SUB SWAP1 REVERT JUMPDEST PUSH1 0x3 PUSH2 0x208F PUSH2 0x2EE8 JUMP JUMPDEST DUP2 SLOAD DUP2 LT PUSH2 0x20A0 JUMPI PUSH2 0x209F PUSH2 0x39E6 JUMP JUMPDEST JUMPDEST SWAP1 PUSH0 MSTORE PUSH1 0x20 PUSH0 KECCAK256 SWAP1 PUSH1 0x3 MUL ADD PUSH1 0x1 ADD DUP1 SLOAD PUSH2 0x20BA SWAP1 PUSH2 0x3DB5 JUMP JUMPDEST DUP1 PUSH1 0x1F ADD PUSH1 0x20 DUP1 SWAP2 DIV MUL PUSH1 0x20 ADD PUSH1 0x40 MLOAD SWAP1 DUP2 ADD PUSH1 0x40 MSTORE DUP1 SWAP3 SWAP2 SWAP1 DUP2 DUP2 MSTORE PUSH1 0x20 ADD DUP3 DUP1 SLOAD PUSH2 0x20E6 SWAP1 PUSH2 0x3DB5 JUMP JUMPDEST DUP1 ISZERO PUSH2 0x2131 JUMPI DUP1 PUSH1 0x1F LT PUSH2 0x2108 JUMPI PUSH2 0x100 DUP1 DUP4 SLOAD DIV MUL DUP4 MSTORE SWAP2 PUSH1 0x20 ADD SWAP2 PUSH2 0x2131 JUMP JUMPDEST DUP3 ADD SWAP2 SWAP1 PUSH0 MSTORE PUSH1 0x20 PUSH0 KECCAK256 SWAP1 JUMPDEST DUP2 SLOAD DUP2 MSTORE SWAP1 PUSH1 0x1 ADD SWAP1 PUSH1 0x20 ADD DUP1 DUP4 GT PUSH2 0x2114 JUMPI DUP3 SWAP1 SUB PUSH1 0x1F AND DUP3 ADD SWAP2 JUMPDEST POP POP POP POP POP SWAP1 POP SWAP1 JUMP JUMPDEST PUSH1 0x1 PUSH0 SWAP1 SLOAD SWAP1 PUSH2 0x100 EXP SWAP1 DIV PUSH20 0xFFFFFFFFFFFFFFFFFFFFFFFFFFFFFFFFFFFFFFFF AND PUSH20 0xFFFFFFFFFFFFFFFFFFFFFFFFFFFFFFFFFFFFFFFF AND CALLER PUSH20 0xFFFFFFFFFFFFFFFFFFFFFFFFFFFFFFFFFFFFFFFF AND EQ PUSH2 0x21CA JUMPI PUSH1 0x40 MLOAD PUSH32 0x8C379A000000000000000000000000000000000000000000000000000000000 DUP2 MSTORE PUSH1 0x4 ADD PUSH2 0x21C1 SWAP1 PUSH2 0x5408 JUMP JUMPDEST PUSH1 0x40 MLOAD DUP1 SWAP2 SUB SWAP1 REVERT JUMPDEST PUSH1 0x1 ISZERO ISZERO PUSH1 0x5 PUSH0 SWAP1 SLOAD SWAP1 PUSH2 0x100 EXP SWAP1 DIV PUSH1 0xFF AND ISZERO ISZERO EQ PUSH2 0x221F JUMPI PUSH1 0x40 MLOAD PUSH32 0x8C379A000000000000000000000000000000000000000000000000000000000 DUP2 MSTORE PUSH1 0x4 ADD PUSH2 0x2216 SWAP1 PUSH2 0x5496 JUMP JUMPDEST PUSH1 0x40 MLOAD DUP1 SWAP2 SUB SWAP1 REVERT JUMPDEST PUSH0 DUP3 DUP3 PUSH1 0x40 MLOAD PUSH1 0x20 ADD PUSH2 0x2233 SWAP3 SWAP2 SWAP1 PUSH2 0x5524 JUMP JUMPDEST PUSH1 0x40 MLOAD PUSH1 0x20 DUP2 DUP4 SUB SUB DUP2 MSTORE SWAP1 PUSH1 0x40 MSTORE SWAP1 POP PUSH32 0x4426482700B103B4D462340AE3EB71B1797FCB09A90C8E1C8F0C4EA8EFF0CB0F DUP2 PUSH1 0x40 MLOAD PUSH2 0x2273 SWAP2 SWAP1 PUSH2 0x34C3 JUMP JUMPDEST PUSH1 0x40 MLOAD DUP1 SWAP2 SUB SWAP1 LOG1 PUSH2 0x2283 PUSH2 0x2A3B JUMP JUMPDEST POP PUSH2 0x228C PUSH2 0x2292 JUMP JUMPDEST POP POP POP POP JUMP JUMPDEST PUSH1 0x60 PUSH1 0x1 PUSH0 SWAP1 SLOAD SWAP1 PUSH2 0x100 EXP SWAP1 DIV PUSH20 0xFFFFFFFFFFFFFFFFFFFFFFFFFFFFFFFFFFFFFFFF AND PUSH20 0xFFFFFFFFFFFFFFFFFFFFFFFFFFFFFFFFFFFFFFFF AND CALLER PUSH20 0xFFFFFFFFFFFFFFFFFFFFFFFFFFFFFFFFFFFFFFFF AND EQ PUSH2 0x2323 JUMPI PUSH1 0x40 MLOAD PUSH32 0x8C379A000000000000000000000000000000000000000000000000000000000 DUP2 MSTORE PUSH1 0x4 ADD PUSH2 0x231A SWAP1 PUSH2 0x55B7 JUMP JUMPDEST PUSH1 0x40 MLOAD DUP1 SWAP2 SUB SWAP1 REVERT JUMPDEST PUSH1 0x1 ISZERO ISZERO PUSH1 0x5 PUSH0 SWAP1 SLOAD SWAP1 PUSH2 0x100 EXP SWAP1 DIV PUSH1 0xFF AND ISZERO ISZERO EQ PUSH2 0x2378 JUMPI PUSH1 0x40 MLOAD PUSH32 0x8C379A000000000000000000000000000000000000000000000000000000000 DUP2 MSTORE PUSH1 0x4 ADD PUSH2 0x236F SWAP1 PUSH2 0x566B JUMP JUMPDEST PUSH1 0x40 MLOAD DUP1 SWAP2 SUB SWAP1 REVERT JUMPDEST PUSH1 0x1 PUSH1 0x5 PUSH1 0x2 PUSH2 0x100 EXP DUP2 SLOAD DUP2 PUSH1 0xFF MUL NOT AND SWAP1 DUP4 ISZERO ISZERO MUL OR SWAP1 SSTORE POP PUSH1 0x5 PUSH1 0x4 SWAP1 SLOAD SWAP1 PUSH2 0x100 EXP SWAP1 DIV PUSH1 0xFF AND PUSH1 0x5 DUP1 PUSH2 0x100 EXP DUP2 SLOAD DUP2 PUSH1 0xFF MUL NOT AND SWAP1 DUP4 PUSH1 0x8 DUP2 GT ISZERO PUSH2 0x23C6 JUMPI PUSH2 0x23C5 PUSH2 0x385B JUMP JUMPDEST JUMPDEST MUL OR SWAP1 SSTORE POP PUSH1 0x4 PUSH1 0x5 PUSH1 0x4 PUSH2 0x100 EXP DUP2 SLOAD DUP2 PUSH1 0xFF MUL NOT AND SWAP1 DUP4 PUSH1 0x8 DUP2 GT ISZERO PUSH2 0x23F1 JUMPI PUSH2 0x23F0 PUSH2 0x385B JUMP JUMPDEST JUMPDEST MUL OR SWAP1 SSTORE POP PUSH32 0xA97A4EE45751E2ABF3E4FC8946939630B11B371EA8AE39CCDC3056E98F5CC3F PUSH1 0x5 DUP1 SLOAD SWAP1 PUSH2 0x100 EXP SWAP1 DIV PUSH1 0xFF AND PUSH1 0x5 PUSH1 0x4 SWAP1 SLOAD SWAP1 PUSH2 0x100 EXP SWAP1 DIV PUSH1 0xFF AND PUSH1 0x40 MLOAD PUSH2 0x2443 SWAP3 SWAP2 SWAP1 PUSH2 0x3C45 JUMP JUMPDEST PUSH1 0x40 MLOAD DUP1 SWAP2 SUB SWAP1 LOG1 PUSH1 0x40 MLOAD DUP1 PUSH1 0x60 ADD PUSH1 0x40 MSTORE DUP1 PUSH1 0x28 DUP2 MSTORE PUSH1 0x20 ADD PUSH2 0x5C82 PUSH1 0x28 SWAP2 CODECOPY SWAP1 POP SWAP1 JUMP JUMPDEST PUSH1 0x60 PUSH1 0x1 PUSH0 SWAP1 SLOAD SWAP1 PUSH2 0x100 EXP SWAP1 DIV PUSH20 0xFFFFFFFFFFFFFFFFFFFFFFFFFFFFFFFFFFFFFFFF AND PUSH20 0xFFFFFFFFFFFFFFFFFFFFFFFFFFFFFFFFFFFFFFFF AND CALLER PUSH20 0xFFFFFFFFFFFFFFFFFFFFFFFFFFFFFFFFFFFFFFFF AND EQ PUSH2 0x24FA JUMPI PUSH1 0x40 MLOAD PUSH32 0x8C379A000000000000000000000000000000000000000000000000000000000 DUP2 MSTORE PUSH1 0x4 ADD PUSH2 0x24F1 SWAP1 PUSH2 0x56F9 JUMP JUMPDEST PUSH1 0x40 MLOAD DUP1 SWAP2 SUB SWAP1 REVERT JUMPDEST PUSH1 0x1 ISZERO ISZERO PUSH1 0x5 PUSH0 SWAP1 SLOAD SWAP1 PUSH2 0x100 EXP SWAP1 DIV PUSH1 0xFF AND ISZERO ISZERO EQ PUSH2 0x254F JUMPI PUSH1 0x40 MLOAD PUSH32 0x8C379A000000000000000000000000000000000000000000000000000000000 DUP2 MSTORE PUSH1 0x4 ADD PUSH2 0x2546 SWAP1 PUSH2 0x5787 JUMP JUMPDEST PUSH1 0x40 MLOAD DUP1 SWAP2 SUB SWAP1 REVERT JUMPDEST PUSH0 PUSH1 0x5 PUSH0 PUSH2 0x100 EXP DUP2 SLOAD DUP2 PUSH1 0xFF MUL NOT AND SWAP1 DUP4 ISZERO ISZERO MUL OR SWAP1 SSTORE POP PUSH1 0x5 PUSH1 0x4 SWAP1 SLOAD SWAP1 PUSH2 0x100 EXP SWAP1 DIV PUSH1 0xFF AND PUSH1 0x5 DUP1 PUSH2 0x100 EXP DUP2 SLOAD DUP2 PUSH1 0xFF MUL NOT AND SWAP1 DUP4 PUSH1 0x8 DUP2 GT ISZERO PUSH2 0x259B JUMPI PUSH2 0x259A PUSH2 0x385B JUMP JUMPDEST JUMPDEST MUL OR SWAP1 SSTORE POP PUSH1 0x1 PUSH1 0x5 PUSH1 0x4 PUSH2 0x100 EXP DUP2 SLOAD DUP2 PUSH1 0xFF MUL NOT AND SWAP1 DUP4 PUSH1 0x8 DUP2 GT ISZERO PUSH2 0x25C6 JUMPI PUSH2 0x25C5 PUSH2 0x385B JUMP JUMPDEST JUMPDEST MUL OR SWAP1 SSTORE POP PUSH32 0xA97A4EE45751E2ABF3E4FC8946939630B11B371EA8AE39CCDC3056E98F5CC3F PUSH1 0x5 DUP1 SLOAD SWAP1 PUSH2 0x100 EXP SWAP1 DIV PUSH1 0xFF AND PUSH1 0x5 PUSH1 0x4 SWAP1 SLOAD SWAP1 PUSH2 0x100 EXP SWAP1 DIV PUSH1 0xFF AND PUSH1 0x40 MLOAD PUSH2 0x2618 SWAP3 SWAP2 SWAP1 PUSH2 0x3C45 JUMP JUMPDEST PUSH1 0x40 MLOAD DUP1 SWAP2 SUB SWAP1 LOG1 PUSH1 0x40 MLOAD DUP1 PUSH1 0x40 ADD PUSH1 0x40 MSTORE DUP1 PUSH1 0x20 DUP2 MSTORE PUSH1 0x20 ADD PUSH32 0x54686520676C6F62616C2073657373696F6E206973206E6F7720636C6F736564 DUP2 MSTORE POP SWAP1 POP SWAP1 JUMP JUMPDEST PUSH1 0x60 PUSH1 0x1 PUSH0 SWAP1 SLOAD SWAP1 PUSH2 0x100 EXP SWAP1 DIV PUSH20 0xFFFFFFFFFFFFFFFFFFFFFFFFFFFFFFFFFFFFFFFF AND PUSH20 0xFFFFFFFFFFFFFFFFFFFFFFFFFFFFFFFFFFFFFFFF AND CALLER PUSH20 0xFFFFFFFFFFFFFFFFFFFFFFFFFFFFFFFFFFFFFFFF AND EQ PUSH2 0x26EC JUMPI PUSH1 0x40 MLOAD PUSH32 0x8C379A000000000000000000000000000000000000000000000000000000000 DUP2 MSTORE PUSH1 0x4 ADD PUSH2 0x26E3 SWAP1 PUSH2 0x5815 JUMP JUMPDEST PUSH1 0x40 MLOAD DUP1 SWAP2 SUB SWAP1 REVERT JUMPDEST PUSH1 0x1 ISZERO ISZERO PUSH1 0x5 PUSH0 SWAP1 SLOAD SWAP1 PUSH2 0x100 EXP SWAP1 DIV PUSH1 0xFF AND ISZERO ISZERO EQ PUSH2 0x2741 JUMPI PUSH1 0x40 MLOAD PUSH32 0x8C379A000000000000000000000000000000000000000000000000000000000 DUP2 MSTORE PUSH1 0x4 ADD PUSH2 0x2738 SWAP1 PUSH2 0x58C9 JUMP JUMPDEST PUSH1 0x40 MLOAD DUP1 SWAP2 SUB SWAP1 REVERT JUMPDEST PUSH1 0x2 PUSH1 0x8 DUP2 GT ISZERO PUSH2 0x2755 JUMPI PUSH2 0x2754 PUSH2 0x385B JUMP JUMPDEST JUMPDEST PUSH1 0x5 PUSH1 0x4 SWAP1 SLOAD SWAP1 PUSH2 0x100 EXP SWAP1 DIV PUSH1 0xFF AND PUSH1 0x8 DUP2 GT ISZERO PUSH2 0x2777 JUMPI PUSH2 0x2776 PUSH2 0x385B JUMP JUMPDEST JUMPDEST EQ PUSH2 0x27B7 JUMPI PUSH1 0x40 MLOAD PUSH32 0x8C379A000000000000000000000000000000000000000000000000000000000 DUP2 MSTORE PUSH1 0x4 ADD PUSH2 0x27AE SWAP1 PUSH2 0x597D JUMP JUMPDEST PUSH1 0x40 MLOAD DUP1 SWAP2 SUB SWAP1 REVERT JUMPDEST PUSH0 JUMPDEST DUP4 DUP4 SWAP1 POP DUP2 LT ISZERO PUSH2 0x2808 JUMPI PUSH2 0x27F4 DUP5 DUP5 DUP4 DUP2 DUP2 LT PUSH2 0x27DA JUMPI PUSH2 0x27D9 PUSH2 0x39E6 JUMP JUMPDEST JUMPDEST SWAP1 POP PUSH1 0x20 MUL ADD PUSH1 0x20 DUP2 ADD SWAP1 PUSH2 0x27EF SWAP2 SWAP1 PUSH2 0x35E9 JUMP JUMPDEST PUSH2 0xCA7 JUMP JUMPDEST POP DUP1 DUP1 PUSH2 0x2800 SWAP1 PUSH2 0x3A40 JUMP JUMPDEST SWAP2 POP POP PUSH2 0x27B9 JUMP JUMPDEST POP PUSH1 0x40 MLOAD DUP1 PUSH1 0x40 ADD PUSH1 0x40 MSTORE DUP1 PUSH1 0x11 DUP2 MSTORE PUSH1 0x20 ADD PUSH32 0x566F746572732072656769737465726564000000000000000000000000000000 DUP2 MSTORE POP SWAP1 POP SWAP3 SWAP2 POP POP JUMP JUMPDEST PUSH1 0x60 PUSH1 0x1 PUSH0 SWAP1 SLOAD SWAP1 PUSH2 0x100 EXP SWAP1 DIV PUSH20 0xFFFFFFFFFFFFFFFFFFFFFFFFFFFFFFFFFFFFFFFF AND PUSH20 0xFFFFFFFFFFFFFFFFFFFFFFFFFFFFFFFFFFFFFFFF AND CALLER PUSH20 0xFFFFFFFFFFFFFFFFFFFFFFFFFFFFFFFFFFFFFFFF AND EQ PUSH2 0x28D8 JUMPI PUSH1 0x40 MLOAD PUSH32 0x8C379A000000000000000000000000000000000000000000000000000000000 DUP2 MSTORE PUSH1 0x4 ADD PUSH2 0x28CF SWAP1 PUSH2 0x5A0B JUMP JUMPDEST PUSH1 0x40 MLOAD DUP1 SWAP2 SUB SWAP1 REVERT JUMPDEST PUSH1 0x1 ISZERO ISZERO PUSH1 0x5 PUSH0 SWAP1 SLOAD SWAP1 PUSH2 0x100 EXP SWAP1 DIV PUSH1 0xFF AND ISZERO ISZERO EQ PUSH2 0x292D JUMPI PUSH1 0x40 MLOAD PUSH32 0x8C379A000000000000000000000000000000000000000000000000000000000 DUP2 MSTORE PUSH1 0x4 ADD PUSH2 0x2924 SWAP1 PUSH2 0x5A99 JUMP JUMPDEST PUSH1 0x40 MLOAD DUP1 SWAP2 SUB SWAP1 REVERT JUMPDEST PUSH1 0x1 PUSH1 0x5 PUSH1 0x3 PUSH2 0x100 EXP DUP2 SLOAD DUP2 PUSH1 0xFF MUL NOT AND SWAP1 DUP4 ISZERO ISZERO MUL OR SWAP1 SSTORE POP PUSH1 0x5 PUSH1 0x4 SWAP1 SLOAD SWAP1 PUSH2 0x100 EXP SWAP1 DIV PUSH1 0xFF AND PUSH1 0x5 DUP1 PUSH2 0x100 EXP DUP2 SLOAD DUP2 PUSH1 0xFF MUL NOT AND SWAP1 DUP4 PUSH1 0x8 DUP2 GT ISZERO PUSH2 0x297B JUMPI PUSH2 0x297A PUSH2 0x385B JUMP JUMPDEST JUMPDEST MUL OR SWAP1 SSTORE POP PUSH1 0x6 PUSH1 0x5 PUSH1 0x4 PUSH2 0x100 EXP DUP2 SLOAD DUP2 PUSH1 0xFF MUL NOT AND SWAP1 DUP4 PUSH1 0x8 DUP2 GT ISZERO PUSH2 0x29A6 JUMPI PUSH2 0x29A5 PUSH2 0x385B JUMP JUMPDEST JUMPDEST MUL OR SWAP1 SSTORE POP PUSH32 0xA97A4EE45751E2ABF3E4FC8946939630B11B371EA8AE39CCDC3056E98F5CC3F PUSH1 0x5 DUP1 SLOAD SWAP1 PUSH2 0x100 EXP SWAP1 DIV PUSH1 0xFF AND PUSH1 0x5 PUSH1 0x4 SWAP1 SLOAD SWAP1 PUSH2 0x100 EXP SWAP1 DIV PUSH1 0xFF AND PUSH1 0x40 MLOAD PUSH2 0x29F8 SWAP3 SWAP2 SWAP1 PUSH2 0x3C45 JUMP JUMPDEST PUSH1 0x40 MLOAD DUP1 SWAP2 SUB SWAP1 LOG1 PUSH1 0x40 MLOAD DUP1 PUSH1 0x40 ADD PUSH1 0x40 MSTORE DUP1 PUSH1 0x20 DUP2 MSTORE PUSH1 0x20 ADD PUSH32 0x54686520766F74696E672073657373696F6E206973206E6F77206F70656E6564 DUP2 MSTORE POP SWAP1 POP SWAP1 JUMP JUMPDEST PUSH1 0x60 PUSH1 0x1 PUSH0 SWAP1 SLOAD SWAP1 PUSH2 0x100 EXP SWAP1 DIV PUSH20 0xFFFFFFFFFFFFFFFFFFFFFFFFFFFFFFFFFFFFFFFF AND PUSH20 0xFFFFFFFFFFFFFFFFFFFFFFFFFFFFFFFFFFFFFFFF AND CALLER PUSH20 0xFFFFFFFFFFFFFFFFFFFFFFFFFFFFFFFFFFFFFFFF AND EQ PUSH2 0x2ACC JUMPI PUSH1 0x40 MLOAD PUSH32 0x8C379A000000000000000000000000000000000000000000000000000000000 DUP2 MSTORE PUSH1 0x4 ADD PUSH2 0x2AC3 SWAP1 PUSH2 0x5B27 JUMP JUMPDEST PUSH1 0x40 MLOAD DUP1 SWAP2 SUB SWAP1 REVERT JUMPDEST PUSH0 PUSH1 0x5 PUSH1 0x1 PUSH2 0x100 EXP DUP2 SLOAD DUP2 PUSH1 0xFF MUL NOT AND SWAP1 DUP4 ISZERO ISZERO MUL OR SWAP1 SSTORE POP PUSH0 PUSH1 0x5 PUSH1 0x2 PUSH2 0x100 EXP DUP2 SLOAD DUP2 PUSH1 0xFF MUL NOT AND SWAP1 DUP4 ISZERO ISZERO MUL OR SWAP1 SSTORE POP PUSH0 PUSH1 0x5 PUSH1 0x3 PUSH2 0x100 EXP DUP2 SLOAD DUP2 PUSH1 0xFF MUL NOT AND SWAP1 DUP4 ISZERO ISZERO MUL OR SWAP1 SSTORE POP PUSH0 PUSH1 0x4 DUP1 SLOAD SWAP1 POP GT ISZERO PUSH2 0x2BB5 JUMPI PUSH2 0x2BB3 PUSH1 0x4 DUP1 SLOAD DUP1 PUSH1 0x20 MUL PUSH1 0x20 ADD PUSH1 0x40 MLOAD SWAP1 DUP2 ADD PUSH1 0x40 MSTORE DUP1 SWAP3 SWAP2 SWAP1 DUP2 DUP2 MSTORE PUSH1 0x20 ADD DUP3 DUP1 SLOAD DUP1 ISZERO PUSH2 0x2BA9 JUMPI PUSH1 0x20 MUL DUP3 ADD SWAP2 SWAP1 PUSH0 MSTORE PUSH1 0x20 PUSH0 KECCAK256 SWAP1 JUMPDEST DUP2 PUSH0 SWAP1 SLOAD SWAP1 PUSH2 0x100 EXP SWAP1 DIV PUSH20 0xFFFFFFFFFFFFFFFFFFFFFFFFFFFFFFFFFFFFFFFF AND PUSH20 0xFFFFFFFFFFFFFFFFFFFFFFFFFFFFFFFFFFFFFFFF AND DUP2 MSTORE PUSH1 0x20 ADD SWAP1 PUSH1 0x1 ADD SWAP1 DUP1 DUP4 GT PUSH2 0x2B60 JUMPI JUMPDEST POP POP POP POP POP PUSH2 0x16CC JUMP JUMPDEST POP JUMPDEST PUSH0 PUSH1 0x3 DUP1 SLOAD SWAP1 POP GT ISZERO PUSH2 0x2BD0 JUMPI PUSH1 0x3 PUSH0 PUSH2 0x2BCF SWAP2 SWAP1 PUSH2 0x32FF JUMP JUMPDEST JUMPDEST PUSH1 0x40 MLOAD DUP1 PUSH1 0x40 ADD PUSH1 0x40 MSTORE DUP1 PUSH1 0x1B DUP2 MSTORE PUSH1 0x20 ADD PUSH32 0x41206E65772073657373696F6E206973206E6F77206F70656E65640000000000 DUP2 MSTORE POP SWAP1 POP PUSH1 0x1 PUSH1 0x5 PUSH0 PUSH2 0x100 EXP DUP2 SLOAD DUP2 PUSH1 0xFF MUL NOT AND SWAP1 DUP4 ISZERO ISZERO MUL OR SWAP1 SSTORE POP SWAP1 JUMP JUMPDEST PUSH2 0x2C2D PUSH2 0x2DA0 JUMP JUMPDEST PUSH0 PUSH20 0xFFFFFFFFFFFFFFFFFFFFFFFFFFFFFFFFFFFFFFFF AND DUP2 PUSH20 0xFFFFFFFFFFFFFFFFFFFFFFFFFFFFFFFFFFFFFFFF AND SUB PUSH2 0x2C9D JUMPI PUSH0 PUSH1 0x40 MLOAD PUSH32 0x1E4FBDF700000000000000000000000000000000000000000000000000000000 DUP2 MSTORE PUSH1 0x4 ADD PUSH2 0x2C94 SWAP2 SWAP1 PUSH2 0x37A2 JUMP JUMPDEST PUSH1 0x40 MLOAD DUP1 SWAP2 SUB SWAP1 REVERT JUMPDEST PUSH2 0x2CA6 DUP2 PUSH2 0x2E27 JUMP JUMPDEST POP JUMP JUMPDEST PUSH1 0x60 PUSH2 0x2CCF DUP3 PUSH20 0xFFFFFFFFFFFFFFFFFFFFFFFFFFFFFFFFFFFFFFFF AND PUSH1 0x14 PUSH1 0xFF AND PUSH2 0x2F69 JUMP JUMPDEST SWAP1 POP SWAP2 SWAP1 POP JUMP JUMPDEST PUSH1 0x60 PUSH0 PUSH1 0x1 PUSH2 0x2CE4 DUP5 PUSH2 0x31A7 JUMP JUMPDEST ADD SWAP1 POP PUSH0 DUP2 PUSH8 0xFFFFFFFFFFFFFFFF DUP2 GT ISZERO PUSH2 0x2D02 JUMPI PUSH2 0x2D01 PUSH2 0x3614 JUMP JUMPDEST JUMPDEST PUSH1 0x40 MLOAD SWAP1 DUP1 DUP3 MSTORE DUP1 PUSH1 0x1F ADD PUSH1 0x1F NOT AND PUSH1 0x20 ADD DUP3 ADD PUSH1 0x40 MSTORE DUP1 ISZERO PUSH2 0x2D34 JUMPI DUP2 PUSH1 0x20 ADD PUSH1 0x1 DUP3 MUL DUP1 CALLDATASIZE DUP4 CALLDATACOPY DUP1 DUP3 ADD SWAP2 POP POP SWAP1 POP JUMPDEST POP SWAP1 POP PUSH0 DUP3 PUSH1 0x20 ADD DUP3 ADD SWAP1 POP JUMPDEST PUSH1 0x1 ISZERO PUSH2 0x2D95 JUMPI DUP1 DUP1 PUSH1 0x1 SWAP1 SUB SWAP2 POP POP PUSH32 0x3031323334353637383961626364656600000000000000000000000000000000 PUSH1 0xA DUP7 MOD BYTE DUP2 MSTORE8 PUSH1 0xA DUP6 DUP2 PUSH2 0x2D8A JUMPI PUSH2 0x2D89 PUSH2 0x5B45 JUMP JUMPDEST JUMPDEST DIV SWAP5 POP PUSH0 DUP6 SUB PUSH2 0x2D41 JUMPI JUMPDEST DUP2 SWAP4 POP POP POP POP SWAP2 SWAP1 POP JUMP JUMPDEST PUSH2 0x2DA8 PUSH2 0x32F8 JUMP JUMPDEST PUSH20 0xFFFFFFFFFFFFFFFFFFFFFFFFFFFFFFFFFFFFFFFF AND PUSH2 0x2DC6 PUSH2 0x1F23 JUMP JUMPDEST PUSH20 0xFFFFFFFFFFFFFFFFFFFFFFFFFFFFFFFFFFFFFFFF AND EQ PUSH2 0x2E25 JUMPI PUSH2 0x2DE9 PUSH2 0x32F8 JUMP JUMPDEST PUSH1 0x40 MLOAD PUSH32 0x118CDAA700000000000000000000000000000000000000000000000000000000 DUP2 MSTORE PUSH1 0x4 ADD PUSH2 0x2E1C SWAP2 SWAP1 PUSH2 0x37A2 JUMP JUMPDEST PUSH1 0x40 MLOAD DUP1 SWAP2 SUB SWAP1 REVERT JUMPDEST JUMP JUMPDEST PUSH0 DUP1 PUSH0 SWAP1 SLOAD SWAP1 PUSH2 0x100 EXP SWAP1 DIV PUSH20 0xFFFFFFFFFFFFFFFFFFFFFFFFFFFFFFFFFFFFFFFF AND SWAP1 POP DUP2 PUSH0 DUP1 PUSH2 0x100 EXP DUP2 SLOAD DUP2 PUSH20 0xFFFFFFFFFFFFFFFFFFFFFFFFFFFFFFFFFFFFFFFF MUL NOT AND SWAP1 DUP4 PUSH20 0xFFFFFFFFFFFFFFFFFFFFFFFFFFFFFFFFFFFFFFFF AND MUL OR SWAP1 SSTORE POP DUP2 PUSH20 0xFFFFFFFFFFFFFFFFFFFFFFFFFFFFFFFFFFFFFFFF AND DUP2 PUSH20 0xFFFFFFFFFFFFFFFFFFFFFFFFFFFFFFFFFFFFFFFF AND PUSH32 0x8BE0079C531659141344CD1FD0A4F28419497F9722A3DAAFE3B4186F6B6457E0 PUSH1 0x40 MLOAD PUSH1 0x40 MLOAD DUP1 SWAP2 SUB SWAP1 LOG3 POP POP JUMP JUMPDEST PUSH0 DUP1 PUSH0 SWAP1 POP PUSH0 JUMPDEST PUSH1 0x3 DUP1 SLOAD SWAP1 POP DUP2 LT ISZERO PUSH2 0x2F64 JUMPI DUP2 PUSH1 0x3 DUP3 DUP2 SLOAD DUP2 LT PUSH2 0x2F11 JUMPI PUSH2 0x2F10 PUSH2 0x39E6 JUMP JUMPDEST JUMPDEST SWAP1 PUSH0 MSTORE PUSH1 0x20 PUSH0 KECCAK256 SWAP1 PUSH1 0x3 MUL ADD PUSH1 0x2 ADD SLOAD GT ISZERO PUSH2 0x2F51 JUMPI PUSH1 0x3 DUP2 DUP2 SLOAD DUP2 LT PUSH2 0x2F3B JUMPI PUSH2 0x2F3A PUSH2 0x39E6 JUMP JUMPDEST JUMPDEST SWAP1 PUSH0 MSTORE PUSH1 0x20 PUSH0 KECCAK256 SWAP1 PUSH1 0x3 MUL ADD PUSH1 0x2 ADD SLOAD SWAP2 POP DUP1 SWAP3 POP JUMPDEST DUP1 DUP1 PUSH2 0x2F5C SWAP1 PUSH2 0x3A40 JUMP JUMPDEST SWAP2 POP POP PUSH2 0x2EEF JUMP JUMPDEST POP POP SWAP1 JUMP JUMPDEST PUSH1 0x60 PUSH0 DUP4 SWAP1 POP PUSH0 PUSH1 0x2 DUP5 PUSH1 0x2 PUSH2 0x2F7F SWAP2 SWAP1 PUSH2 0x5B72 JUMP JUMPDEST PUSH2 0x2F89 SWAP2 SWAP1 PUSH2 0x5BB3 JUMP JUMPDEST PUSH8 0xFFFFFFFFFFFFFFFF DUP2 GT ISZERO PUSH2 0x2FA2 JUMPI PUSH2 0x2FA1 PUSH2 0x3614 JUMP JUMPDEST JUMPDEST PUSH1 0x40 MLOAD SWAP1 DUP1 DUP3 MSTORE DUP1 PUSH1 0x1F ADD PUSH1 0x1F NOT AND PUSH1 0x20 ADD DUP3 ADD PUSH1 0x40 MSTORE DUP1 ISZERO PUSH2 0x2FD4 JUMPI DUP2 PUSH1 0x20 ADD PUSH1 0x1 DUP3 MUL DUP1 CALLDATASIZE DUP4 CALLDATACOPY DUP1 DUP3 ADD SWAP2 POP POP SWAP1 POP JUMPDEST POP SWAP1 POP PUSH32 0x3000000000000000000000000000000000000000000000000000000000000000 DUP2 PUSH0 DUP2 MLOAD DUP2 LT PUSH2 0x300B JUMPI PUSH2 0x300A PUSH2 0x39E6 JUMP JUMPDEST JUMPDEST PUSH1 0x20 ADD ADD SWAP1 PUSH31 0xFFFFFFFFFFFFFFFFFFFFFFFFFFFFFFFFFFFFFFFFFFFFFFFFFFFFFFFFFFFFFF NOT AND SWAP1 DUP2 PUSH0 BYTE SWAP1 MSTORE8 POP PUSH32 0x7800000000000000000000000000000000000000000000000000000000000000 DUP2 PUSH1 0x1 DUP2 MLOAD DUP2 LT PUSH2 0x306E JUMPI PUSH2 0x306D PUSH2 0x39E6 JUMP JUMPDEST JUMPDEST PUSH1 0x20 ADD ADD SWAP1 PUSH31 0xFFFFFFFFFFFFFFFFFFFFFFFFFFFFFFFFFFFFFFFFFFFFFFFFFFFFFFFFFFFFFF NOT AND SWAP1 DUP2 PUSH0 BYTE SWAP1 MSTORE8 POP PUSH0 PUSH1 0x1 DUP6 PUSH1 0x2 PUSH2 0x30AC SWAP2 SWAP1 PUSH2 0x5B72 JUMP JUMPDEST PUSH2 0x30B6 SWAP2 SWAP1 PUSH2 0x5BB3 JUMP JUMPDEST SWAP1 POP JUMPDEST PUSH1 0x1 DUP2 GT ISZERO PUSH2 0x3155 JUMPI PUSH32 0x3031323334353637383961626364656600000000000000000000000000000000 PUSH1 0xF DUP5 AND PUSH1 0x10 DUP2 LT PUSH2 0x30F8 JUMPI PUSH2 0x30F7 PUSH2 0x39E6 JUMP JUMPDEST JUMPDEST BYTE PUSH1 0xF8 SHL DUP3 DUP3 DUP2 MLOAD DUP2 LT PUSH2 0x310F JUMPI PUSH2 0x310E PUSH2 0x39E6 JUMP JUMPDEST JUMPDEST PUSH1 0x20 ADD ADD SWAP1 PUSH31 0xFFFFFFFFFFFFFFFFFFFFFFFFFFFFFFFFFFFFFFFFFFFFFFFFFFFFFFFFFFFFFF NOT AND SWAP1 DUP2 PUSH0 BYTE SWAP1 MSTORE8 POP PUSH1 0x4 DUP4 SWAP1 SHR SWAP3 POP DUP1 PUSH2 0x314E SWAP1 PUSH2 0x5BE6 JUMP JUMPDEST SWAP1 POP PUSH2 0x30B9 JUMP JUMPDEST POP PUSH0 DUP3 EQ PUSH2 0x319C JUMPI DUP5 DUP5 PUSH1 0x40 MLOAD PUSH32 0xE22E27EB00000000000000000000000000000000000000000000000000000000 DUP2 MSTORE PUSH1 0x4 ADD PUSH2 0x3193 SWAP3 SWAP2 SWAP1 PUSH2 0x5C0D JUMP JUMPDEST PUSH1 0x40 MLOAD DUP1 SWAP2 SUB SWAP1 REVERT JUMPDEST DUP1 SWAP3 POP POP POP SWAP3 SWAP2 POP POP JUMP JUMPDEST PUSH0 DUP1 PUSH0 SWAP1 POP PUSH27 0x184F03E93FF9F4DAA797ED6E38ED64BF6A1F010000000000000000 DUP4 LT PUSH2 0x3203 JUMPI PUSH27 0x184F03E93FF9F4DAA797ED6E38ED64BF6A1F010000000000000000 DUP4 DUP2 PUSH2 0x31F9 JUMPI PUSH2 0x31F8 PUSH2 0x5B45 JUMP JUMPDEST JUMPDEST DIV SWAP3 POP PUSH1 0x40 DUP2 ADD SWAP1 POP JUMPDEST PUSH14 0x4EE2D6D415B85ACEF8100000000 DUP4 LT PUSH2 0x3240 JUMPI PUSH14 0x4EE2D6D415B85ACEF8100000000 DUP4 DUP2 PUSH2 0x3236 JUMPI PUSH2 0x3235 PUSH2 0x5B45 JUMP JUMPDEST JUMPDEST DIV SWAP3 POP PUSH1 0x20 DUP2 ADD SWAP1 POP JUMPDEST PUSH7 0x2386F26FC10000 DUP4 LT PUSH2 0x326F JUMPI PUSH7 0x2386F26FC10000 DUP4 DUP2 PUSH2 0x3265 JUMPI PUSH2 0x3264 PUSH2 0x5B45 JUMP JUMPDEST JUMPDEST DIV SWAP3 POP PUSH1 0x10 DUP2 ADD SWAP1 POP JUMPDEST PUSH4 0x5F5E100 DUP4 LT PUSH2 0x3298 JUMPI PUSH4 0x5F5E100 DUP4 DUP2 PUSH2 0x328E JUMPI PUSH2 0x328D PUSH2 0x5B45 JUMP JUMPDEST JUMPDEST DIV SWAP3 POP PUSH1 0x8 DUP2 ADD SWAP1 POP JUMPDEST PUSH2 0x2710 DUP4 LT PUSH2 0x32BD JUMPI PUSH2 0x2710 DUP4 DUP2 PUSH2 0x32B3 JUMPI PUSH2 0x32B2 PUSH2 0x5B45 JUMP JUMPDEST JUMPDEST DIV SWAP3 POP PUSH1 0x4 DUP2 ADD SWAP1 POP JUMPDEST PUSH1 0x64 DUP4 LT PUSH2 0x32E0 JUMPI PUSH1 0x64 DUP4 DUP2 PUSH2 0x32D6 JUMPI PUSH2 0x32D5 PUSH2 0x5B45 JUMP JUMPDEST JUMPDEST DIV SWAP3 POP PUSH1 0x2 DUP2 ADD SWAP1 POP JUMPDEST PUSH1 0xA DUP4 LT PUSH2 0x32EF JUMPI PUSH1 0x1 DUP2 ADD SWAP1 POP JUMPDEST DUP1 SWAP2 POP POP SWAP2 SWAP1 POP JUMP JUMPDEST PUSH0 CALLER SWAP1 POP SWAP1 JUMP JUMPDEST POP DUP1 SLOAD PUSH0 DUP3 SSTORE PUSH1 0x3 MUL SWAP1 PUSH0 MSTORE PUSH1 0x20 PUSH0 KECCAK256 SWAP1 DUP2 ADD SWAP1 PUSH2 0x331D SWAP2 SWAP1 PUSH2 0x3320 JUMP JUMPDEST POP JUMP JUMPDEST JUMPDEST DUP1 DUP3 GT ISZERO PUSH2 0x336E JUMPI PUSH0 DUP1 DUP3 ADD PUSH0 PUSH2 0x100 EXP DUP2 SLOAD SWAP1 PUSH20 0xFFFFFFFFFFFFFFFFFFFFFFFFFFFFFFFFFFFFFFFF MUL NOT AND SWAP1 SSTORE PUSH1 0x1 DUP3 ADD PUSH0 PUSH2 0x335E SWAP2 SWAP1 PUSH2 0x3372 JUMP JUMPDEST PUSH1 0x2 DUP3 ADD PUSH0 SWAP1 SSTORE POP PUSH1 0x3 ADD PUSH2 0x3321 JUMP JUMPDEST POP SWAP1 JUMP JUMPDEST POP DUP1 SLOAD PUSH2 0x337E SWAP1 PUSH2 0x3DB5 JUMP JUMPDEST PUSH0 DUP3 SSTORE DUP1 PUSH1 0x1F LT PUSH2 0x338F JUMPI POP PUSH2 0x33AC JUMP JUMPDEST PUSH1 0x1F ADD PUSH1 0x20 SWAP1 DIV SWAP1 PUSH0 MSTORE PUSH1 0x20 PUSH0 KECCAK256 SWAP1 DUP2 ADD SWAP1 PUSH2 0x33AB SWAP2 SWAP1 PUSH2 0x33AF JUMP JUMPDEST JUMPDEST POP JUMP JUMPDEST JUMPDEST DUP1 DUP3 GT ISZERO PUSH2 0x33C6 JUMPI PUSH0 DUP2 PUSH0 SWAP1 SSTORE POP PUSH1 0x1 ADD PUSH2 0x33B0 JUMP JUMPDEST POP SWAP1 JUMP JUMPDEST PUSH0 PUSH1 0x40 MLOAD SWAP1 POP SWAP1 JUMP JUMPDEST PUSH0 DUP1 REVERT JUMPDEST PUSH0 DUP1 REVERT JUMPDEST PUSH0 DUP2 SWAP1 POP SWAP2 SWAP1 POP JUMP JUMPDEST PUSH2 0x33ED DUP2 PUSH2 0x33DB JUMP JUMPDEST DUP2 EQ PUSH2 0x33F7 JUMPI PUSH0 DUP1 REVERT JUMPDEST POP JUMP JUMPDEST PUSH0 DUP2 CALLDATALOAD SWAP1 POP PUSH2 0x3408 DUP2 PUSH2 0x33E4 JUMP JUMPDEST SWAP3 SWAP2 POP POP JUMP JUMPDEST PUSH0 PUSH1 0x20 DUP3 DUP5 SUB SLT ISZERO PUSH2 0x3423 JUMPI PUSH2 0x3422 PUSH2 0x33D3 JUMP JUMPDEST JUMPDEST PUSH0 PUSH2 0x3430 DUP5 DUP3 DUP6 ADD PUSH2 0x33FA JUMP JUMPDEST SWAP2 POP POP SWAP3 SWAP2 POP POP JUMP JUMPDEST PUSH0 DUP2 MLOAD SWAP1 POP SWAP2 SWAP1 POP JUMP JUMPDEST PUSH0 DUP3 DUP3 MSTORE PUSH1 0x20 DUP3 ADD SWAP1 POP SWAP3 SWAP2 POP POP JUMP JUMPDEST PUSH0 JUMPDEST DUP4 DUP2 LT ISZERO PUSH2 0x3470 JUMPI DUP1 DUP3 ADD MLOAD DUP2 DUP5 ADD MSTORE PUSH1 0x20 DUP2 ADD SWAP1 POP PUSH2 0x3455 JUMP JUMPDEST PUSH0 DUP5 DUP5 ADD MSTORE POP POP POP POP JUMP JUMPDEST PUSH0 PUSH1 0x1F NOT PUSH1 0x1F DUP4 ADD AND SWAP1 POP SWAP2 SWAP1 POP JUMP JUMPDEST PUSH0 PUSH2 0x3495 DUP3 PUSH2 0x3439 JUMP JUMPDEST PUSH2 0x349F DUP2 DUP6 PUSH2 0x3443 JUMP JUMPDEST SWAP4 POP PUSH2 0x34AF DUP2 DUP6 PUSH1 0x20 DUP7 ADD PUSH2 0x3453 JUMP JUMPDEST PUSH2 0x34B8 DUP2 PUSH2 0x347B JUMP JUMPDEST DUP5 ADD SWAP2 POP POP SWAP3 SWAP2 POP POP JUMP JUMPDEST PUSH0 PUSH1 0x20 DUP3 ADD SWAP1 POP DUP2 DUP2 SUB PUSH0 DUP4 ADD MSTORE PUSH2 0x34DB DUP2 DUP5 PUSH2 0x348B JUMP JUMPDEST SWAP1 POP SWAP3 SWAP2 POP POP JUMP JUMPDEST PUSH0 DUP1 REVERT JUMPDEST PUSH0 DUP1 REVERT JUMPDEST PUSH0 DUP1 REVERT JUMPDEST PUSH0 DUP1 DUP4 PUSH1 0x1F DUP5 ADD SLT PUSH2 0x3504 JUMPI PUSH2 0x3503 PUSH2 0x34E3 JUMP JUMPDEST JUMPDEST DUP3 CALLDATALOAD SWAP1 POP PUSH8 0xFFFFFFFFFFFFFFFF DUP2 GT ISZERO PUSH2 0x3521 JUMPI PUSH2 0x3520 PUSH2 0x34E7 JUMP JUMPDEST JUMPDEST PUSH1 0x20 DUP4 ADD SWAP2 POP DUP4 PUSH1 0x1 DUP3 MUL DUP4 ADD GT ISZERO PUSH2 0x353D JUMPI PUSH2 0x353C PUSH2 0x34EB JUMP JUMPDEST JUMPDEST SWAP3 POP SWAP3 SWAP1 POP JUMP JUMPDEST PUSH0 DUP1 PUSH1 0x20 DUP4 DUP6 SUB SLT ISZERO PUSH2 0x355A JUMPI PUSH2 0x3559 PUSH2 0x33D3 JUMP JUMPDEST JUMPDEST PUSH0 DUP4 ADD CALLDATALOAD PUSH8 0xFFFFFFFFFFFFFFFF DUP2 GT ISZERO PUSH2 0x3577 JUMPI PUSH2 0x3576 PUSH2 0x33D7 JUMP JUMPDEST JUMPDEST PUSH2 0x3583 DUP6 DUP3 DUP7 ADD PUSH2 0x34EF JUMP JUMPDEST SWAP3 POP SWAP3 POP POP SWAP3 POP SWAP3 SWAP1 POP JUMP JUMPDEST PUSH0 PUSH20 0xFFFFFFFFFFFFFFFFFFFFFFFFFFFFFFFFFFFFFFFF DUP3 AND SWAP1 POP SWAP2 SWAP1 POP JUMP JUMPDEST PUSH0 PUSH2 0x35B8 DUP3 PUSH2 0x358F JUMP JUMPDEST SWAP1 POP SWAP2 SWAP1 POP JUMP JUMPDEST PUSH2 0x35C8 DUP2 PUSH2 0x35AE JUMP JUMPDEST DUP2 EQ PUSH2 0x35D2 JUMPI PUSH0 DUP1 REVERT JUMPDEST POP JUMP JUMPDEST PUSH0 DUP2 CALLDATALOAD SWAP1 POP PUSH2 0x35E3 DUP2 PUSH2 0x35BF JUMP JUMPDEST SWAP3 SWAP2 POP POP JUMP JUMPDEST PUSH0 PUSH1 0x20 DUP3 DUP5 SUB SLT ISZERO PUSH2 0x35FE JUMPI PUSH2 0x35FD PUSH2 0x33D3 JUMP JUMPDEST JUMPDEST PUSH0 PUSH2 0x360B DUP5 DUP3 DUP6 ADD PUSH2 0x35D5 JUMP JUMPDEST SWAP2 POP POP SWAP3 SWAP2 POP POP JUMP JUMPDEST PUSH32 0x4E487B7100000000000000000000000000000000000000000000000000000000 PUSH0 MSTORE PUSH1 0x41 PUSH1 0x4 MSTORE PUSH1 0x24 PUSH0 REVERT JUMPDEST PUSH2 0x364A DUP3 PUSH2 0x347B JUMP JUMPDEST DUP2 ADD DUP2 DUP2 LT PUSH8 0xFFFFFFFFFFFFFFFF DUP3 GT OR ISZERO PUSH2 0x3669 JUMPI PUSH2 0x3668 PUSH2 0x3614 JUMP JUMPDEST JUMPDEST DUP1 PUSH1 0x40 MSTORE POP POP POP JUMP JUMPDEST PUSH0 PUSH2 0x367B PUSH2 0x33CA JUMP JUMPDEST SWAP1 POP PUSH2 0x3687 DUP3 DUP3 PUSH2 0x3641 JUMP JUMPDEST SWAP2 SWAP1 POP JUMP JUMPDEST PUSH0 PUSH8 0xFFFFFFFFFFFFFFFF DUP3 GT ISZERO PUSH2 0x36A6 JUMPI PUSH2 0x36A5 PUSH2 0x3614 JUMP JUMPDEST JUMPDEST PUSH1 0x20 DUP3 MUL SWAP1 POP PUSH1 0x20 DUP2 ADD SWAP1 POP SWAP2 SWAP1 POP JUMP JUMPDEST PUSH0 PUSH2 0x36C9 PUSH2 0x36C4 DUP5 PUSH2 0x368C JUMP JUMPDEST PUSH2 0x3672 JUMP JUMPDEST SWAP1 POP DUP1 DUP4 DUP3 MSTORE PUSH1 0x20 DUP3 ADD SWAP1 POP PUSH1 0x20 DUP5 MUL DUP4 ADD DUP6 DUP2 GT ISZERO PUSH2 0x36EC JUMPI PUSH2 0x36EB PUSH2 0x34EB JUMP JUMPDEST JUMPDEST DUP4 JUMPDEST DUP2 DUP2 LT ISZERO PUSH2 0x3715 JUMPI DUP1 PUSH2 0x3701 DUP9 DUP3 PUSH2 0x35D5 JUMP JUMPDEST DUP5 MSTORE PUSH1 0x20 DUP5 ADD SWAP4 POP POP PUSH1 0x20 DUP2 ADD SWAP1 POP PUSH2 0x36EE JUMP JUMPDEST POP POP POP SWAP4 SWAP3 POP POP POP JUMP JUMPDEST PUSH0 DUP3 PUSH1 0x1F DUP4 ADD SLT PUSH2 0x3733 JUMPI PUSH2 0x3732 PUSH2 0x34E3 JUMP JUMPDEST JUMPDEST DUP2 CALLDATALOAD PUSH2 0x3743 DUP5 DUP3 PUSH1 0x20 DUP7 ADD PUSH2 0x36B7 JUMP JUMPDEST SWAP2 POP POP SWAP3 SWAP2 POP POP JUMP JUMPDEST PUSH0 PUSH1 0x20 DUP3 DUP5 SUB SLT ISZERO PUSH2 0x3761 JUMPI PUSH2 0x3760 PUSH2 0x33D3 JUMP JUMPDEST JUMPDEST PUSH0 DUP3 ADD CALLDATALOAD PUSH8 0xFFFFFFFFFFFFFFFF DUP2 GT ISZERO PUSH2 0x377E JUMPI PUSH2 0x377D PUSH2 0x33D7 JUMP JUMPDEST JUMPDEST PUSH2 0x378A DUP5 DUP3 DUP6 ADD PUSH2 0x371F JUMP JUMPDEST SWAP2 POP POP SWAP3 SWAP2 POP POP JUMP JUMPDEST PUSH2 0x379C DUP2 PUSH2 0x35AE JUMP JUMPDEST DUP3 MSTORE POP POP JUMP JUMPDEST PUSH0 PUSH1 0x20 DUP3 ADD SWAP1 POP PUSH2 0x37B5 PUSH0 DUP4 ADD DUP5 PUSH2 0x3793 JUMP JUMPDEST SWAP3 SWAP2 POP POP JUMP JUMPDEST PUSH0 DUP1 DUP4 PUSH1 0x1F DUP5 ADD SLT PUSH2 0x37D0 JUMPI PUSH2 0x37CF PUSH2 0x34E3 JUMP JUMPDEST JUMPDEST DUP3 CALLDATALOAD SWAP1 POP PUSH8 0xFFFFFFFFFFFFFFFF DUP2 GT ISZERO PUSH2 0x37ED JUMPI PUSH2 0x37EC PUSH2 0x34E7 JUMP JUMPDEST JUMPDEST PUSH1 0x20 DUP4 ADD SWAP2 POP DUP4 PUSH1 0x20 DUP3 MUL DUP4 ADD GT ISZERO PUSH2 0x3809 JUMPI PUSH2 0x3808 PUSH2 0x34EB JUMP JUMPDEST JUMPDEST SWAP3 POP SWAP3 SWAP1 POP JUMP JUMPDEST PUSH0 DUP1 PUSH1 0x20 DUP4 DUP6 SUB SLT ISZERO PUSH2 0x3826 JUMPI PUSH2 0x3825 PUSH2 0x33D3 JUMP JUMPDEST JUMPDEST PUSH0 DUP4 ADD CALLDATALOAD PUSH8 0xFFFFFFFFFFFFFFFF DUP2 GT ISZERO PUSH2 0x3843 JUMPI PUSH2 0x3842 PUSH2 0x33D7 JUMP JUMPDEST JUMPDEST PUSH2 0x384F DUP6 DUP3 DUP7 ADD PUSH2 0x37BB JUMP JUMPDEST SWAP3 POP SWAP3 POP POP SWAP3 POP SWAP3 SWAP1 POP JUMP JUMPDEST PUSH32 0x4E487B7100000000000000000000000000000000000000000000000000000000 PUSH0 MSTORE PUSH1 0x21 PUSH1 0x4 MSTORE PUSH1 0x24 PUSH0 REVERT JUMPDEST PUSH32 0x54686520766F74696E672073657373696F6E206973206E6F74206F70656E6564 PUSH0 DUP3 ADD MSTORE PUSH32 0x2E00000000000000000000000000000000000000000000000000000000000000 PUSH1 0x20 DUP3 ADD MSTORE POP JUMP JUMPDEST PUSH0 PUSH2 0x38E2 PUSH1 0x21 DUP4 PUSH2 0x3443 JUMP JUMPDEST SWAP2 POP PUSH2 0x38ED DUP3 PUSH2 0x3888 JUMP JUMPDEST PUSH1 0x40 DUP3 ADD SWAP1 POP SWAP2 SWAP1 POP JUMP JUMPDEST PUSH0 PUSH1 0x20 DUP3 ADD SWAP1 POP DUP2 DUP2 SUB PUSH0 DUP4 ADD MSTORE PUSH2 0x390F DUP2 PUSH2 0x38D6 JUMP JUMPDEST SWAP1 POP SWAP2 SWAP1 POP JUMP JUMPDEST PUSH32 0x596F7520617265206E6F7420616C6C6F77656420746F20766F74652E00000000 PUSH0 DUP3 ADD MSTORE POP JUMP JUMPDEST PUSH0 PUSH2 0x394A PUSH1 0x1C DUP4 PUSH2 0x3443 JUMP JUMPDEST SWAP2 POP PUSH2 0x3955 DUP3 PUSH2 0x3916 JUMP JUMPDEST PUSH1 0x20 DUP3 ADD SWAP1 POP SWAP2 SWAP1 POP JUMP JUMPDEST PUSH0 PUSH1 0x20 DUP3 ADD SWAP1 POP DUP2 DUP2 SUB PUSH0 DUP4 ADD MSTORE PUSH2 0x3977 DUP2 PUSH2 0x393E JUMP JUMPDEST SWAP1 POP SWAP2 SWAP1 POP JUMP JUMPDEST PUSH32 0x416C726561647920766F7465642E000000000000000000000000000000000000 PUSH0 DUP3 ADD MSTORE POP JUMP JUMPDEST PUSH0 PUSH2 0x39B2 PUSH1 0xE DUP4 PUSH2 0x3443 JUMP JUMPDEST SWAP2 POP PUSH2 0x39BD DUP3 PUSH2 0x397E JUMP JUMPDEST PUSH1 0x20 DUP3 ADD SWAP1 POP SWAP2 SWAP1 POP JUMP JUMPDEST PUSH0 PUSH1 0x20 DUP3 ADD SWAP1 POP DUP2 DUP2 SUB PUSH0 DUP4 ADD MSTORE PUSH2 0x39DF DUP2 PUSH2 0x39A6 JUMP JUMPDEST SWAP1 POP SWAP2 SWAP1 POP JUMP JUMPDEST PUSH32 0x4E487B7100000000000000000000000000000000000000000000000000000000 PUSH0 MSTORE PUSH1 0x32 PUSH1 0x4 MSTORE PUSH1 0x24 PUSH0 REVERT JUMPDEST PUSH32 0x4E487B7100000000000000000000000000000000000000000000000000000000 PUSH0 MSTORE PUSH1 0x11 PUSH1 0x4 MSTORE PUSH1 0x24 PUSH0 REVERT JUMPDEST PUSH0 PUSH2 0x3A4A DUP3 PUSH2 0x33DB JUMP JUMPDEST SWAP2 POP PUSH32 0xFFFFFFFFFFFFFFFFFFFFFFFFFFFFFFFFFFFFFFFFFFFFFFFFFFFFFFFFFFFFFFFF DUP3 SUB PUSH2 0x3A7C JUMPI PUSH2 0x3A7B PUSH2 0x3A13 JUMP JUMPDEST JUMPDEST PUSH1 0x1 DUP3 ADD SWAP1 POP SWAP2 SWAP1 POP JUMP JUMPDEST PUSH2 0x3A90 DUP2 PUSH2 0x33DB JUMP JUMPDEST DUP3 MSTORE POP POP JUMP JUMPDEST PUSH0 PUSH1 0x40 DUP3 ADD SWAP1 POP PUSH2 0x3AA9 PUSH0 DUP4 ADD DUP6 PUSH2 0x3793 JUMP JUMPDEST PUSH2 0x3AB6 PUSH1 0x20 DUP4 ADD DUP5 PUSH2 0x3A87 JUMP JUMPDEST SWAP4 SWAP3 POP POP POP JUMP JUMPDEST PUSH32 0x4F6E6C792074686520636F6E74726163742773206F776E65722063616E20636C PUSH0 DUP3 ADD MSTORE PUSH32 0x6F7365207468652070726F706F73616C7320726567697374726174696F6E0000 PUSH1 0x20 DUP3 ADD MSTORE POP JUMP JUMPDEST PUSH0 PUSH2 0x3B17 PUSH1 0x3E DUP4 PUSH2 0x3443 JUMP JUMPDEST SWAP2 POP PUSH2 0x3B22 DUP3 PUSH2 0x3ABD JUMP JUMPDEST PUSH1 0x40 DUP3 ADD SWAP1 POP SWAP2 SWAP1 POP JUMP JUMPDEST PUSH0 PUSH1 0x20 DUP3 ADD SWAP1 POP DUP2 DUP2 SUB PUSH0 DUP4 ADD MSTORE PUSH2 0x3B44 DUP2 PUSH2 0x3B0B JUMP JUMPDEST SWAP1 POP SWAP2 SWAP1 POP JUMP JUMPDEST PUSH32 0x5468652070726F706F73616C7320726567697374726174696F6E207365737369 PUSH0 DUP3 ADD MSTORE PUSH32 0x6F6E206D757374206265206F70656E206265666F72652069742063616E206265 PUSH1 0x20 DUP3 ADD MSTORE PUSH32 0x20636C6F73656400000000000000000000000000000000000000000000000000 PUSH1 0x40 DUP3 ADD MSTORE POP JUMP JUMPDEST PUSH0 PUSH2 0x3BCB PUSH1 0x47 DUP4 PUSH2 0x3443 JUMP JUMPDEST SWAP2 POP PUSH2 0x3BD6 DUP3 PUSH2 0x3B4B JUMP JUMPDEST PUSH1 0x60 DUP3 ADD SWAP1 POP SWAP2 SWAP1 POP JUMP JUMPDEST PUSH0 PUSH1 0x20 DUP3 ADD SWAP1 POP DUP2 DUP2 SUB PUSH0 DUP4 ADD MSTORE PUSH2 0x3BF8 DUP2 PUSH2 0x3BBF JUMP JUMPDEST SWAP1 POP SWAP2 SWAP1 POP JUMP JUMPDEST PUSH1 0x9 DUP2 LT PUSH2 0x3C10 JUMPI PUSH2 0x3C0F PUSH2 0x385B JUMP JUMPDEST JUMPDEST POP JUMP JUMPDEST PUSH0 DUP2 SWAP1 POP PUSH2 0x3C20 DUP3 PUSH2 0x3BFF JUMP JUMPDEST SWAP2 SWAP1 POP JUMP JUMPDEST PUSH0 PUSH2 0x3C2F DUP3 PUSH2 0x3C13 JUMP JUMPDEST SWAP1 POP SWAP2 SWAP1 POP JUMP JUMPDEST PUSH2 0x3C3F DUP2 PUSH2 0x3C25 JUMP JUMPDEST DUP3 MSTORE POP POP JUMP JUMPDEST PUSH0 PUSH1 0x40 DUP3 ADD SWAP1 POP PUSH2 0x3C58 PUSH0 DUP4 ADD DUP6 PUSH2 0x3C36 JUMP JUMPDEST PUSH2 0x3C65 PUSH1 0x20 DUP4 ADD DUP5 PUSH2 0x3C36 JUMP JUMPDEST SWAP4 SWAP3 POP POP POP JUMP JUMPDEST PUSH32 0x596F7520617265206E6F7420616C6C6F77656420746F207375626D6974207072 PUSH0 DUP3 ADD MSTORE PUSH32 0x6F706F73616C732E000000000000000000000000000000000000000000000000 PUSH1 0x20 DUP3 ADD MSTORE POP JUMP JUMPDEST PUSH0 PUSH2 0x3CC6 PUSH1 0x28 DUP4 PUSH2 0x3443 JUMP JUMPDEST SWAP2 POP PUSH2 0x3CD1 DUP3 PUSH2 0x3C6C JUMP JUMPDEST PUSH1 0x40 DUP3 ADD SWAP1 POP SWAP2 SWAP1 POP JUMP JUMPDEST PUSH0 PUSH1 0x20 DUP3 ADD SWAP1 POP DUP2 DUP2 SUB PUSH0 DUP4 ADD MSTORE PUSH2 0x3CF3 DUP2 PUSH2 0x3CBA JUMP JUMPDEST SWAP1 POP SWAP2 SWAP1 POP JUMP JUMPDEST PUSH32 0x5468652073657373696F6E20666F72207375626D697474696E672070726F706F PUSH0 DUP3 ADD MSTORE PUSH32 0x73616C73206973206E6F74206F70656E65642E00000000000000000000000000 PUSH1 0x20 DUP3 ADD MSTORE POP JUMP JUMPDEST PUSH0 PUSH2 0x3D54 PUSH1 0x33 DUP4 PUSH2 0x3443 JUMP JUMPDEST SWAP2 POP PUSH2 0x3D5F DUP3 PUSH2 0x3CFA JUMP JUMPDEST PUSH1 0x40 DUP3 ADD SWAP1 POP SWAP2 SWAP1 POP JUMP JUMPDEST PUSH0 PUSH1 0x20 DUP3 ADD SWAP1 POP DUP2 DUP2 SUB PUSH0 DUP4 ADD MSTORE PUSH2 0x3D81 DUP2 PUSH2 0x3D48 JUMP JUMPDEST SWAP1 POP SWAP2 SWAP1 POP JUMP JUMPDEST PUSH32 0x4E487B7100000000000000000000000000000000000000000000000000000000 PUSH0 MSTORE PUSH1 0x22 PUSH1 0x4 MSTORE PUSH1 0x24 PUSH0 REVERT JUMPDEST PUSH0 PUSH1 0x2 DUP3 DIV SWAP1 POP PUSH1 0x1 DUP3 AND DUP1 PUSH2 0x3DCC JUMPI PUSH1 0x7F DUP3 AND SWAP2 POP JUMPDEST PUSH1 0x20 DUP3 LT DUP2 SUB PUSH2 0x3DDF JUMPI PUSH2 0x3DDE PUSH2 0x3D88 JUMP JUMPDEST JUMPDEST POP SWAP2 SWAP1 POP JUMP JUMPDEST PUSH0 DUP2 SWAP1 POP DUP2 PUSH0 MSTORE PUSH1 0x20 PUSH0 KECCAK256 SWAP1 POP SWAP2 SWAP1 POP JUMP JUMPDEST PUSH0 PUSH1 0x20 PUSH1 0x1F DUP4 ADD DIV SWAP1 POP SWAP2 SWAP1 POP JUMP JUMPDEST PUSH0 DUP3 DUP3 SHL SWAP1 POP SWAP3 SWAP2 POP POP JUMP JUMPDEST PUSH0 PUSH1 0x8 DUP4 MUL PUSH2 0x3E41 PUSH32 0xFFFFFFFFFFFFFFFFFFFFFFFFFFFFFFFFFFFFFFFFFFFFFFFFFFFFFFFFFFFFFFFF DUP3 PUSH2 0x3E06 JUMP JUMPDEST PUSH2 0x3E4B DUP7 DUP4 PUSH2 0x3E06 JUMP JUMPDEST SWAP6 POP DUP1 NOT DUP5 AND SWAP4 POP DUP1 DUP7 AND DUP5 OR SWAP3 POP POP POP SWAP4 SWAP3 POP POP POP JUMP JUMPDEST PUSH0 DUP2 SWAP1 POP SWAP2 SWAP1 POP JUMP JUMPDEST PUSH0 PUSH2 0x3E86 PUSH2 0x3E81 PUSH2 0x3E7C DUP5 PUSH2 0x33DB JUMP JUMPDEST PUSH2 0x3E63 JUMP JUMPDEST PUSH2 0x33DB JUMP JUMPDEST SWAP1 POP SWAP2 SWAP1 POP JUMP JUMPDEST PUSH0 DUP2 SWAP1 POP SWAP2 SWAP1 POP JUMP JUMPDEST PUSH2 0x3E9F DUP4 PUSH2 0x3E6C JUMP JUMPDEST PUSH2 0x3EB3 PUSH2 0x3EAB DUP3 PUSH2 0x3E8D JUMP JUMPDEST DUP5 DUP5 SLOAD PUSH2 0x3E12 JUMP JUMPDEST DUP3 SSTORE POP POP POP POP JUMP JUMPDEST PUSH0 SWAP1 JUMP JUMPDEST PUSH2 0x3EC7 PUSH2 0x3EBB JUMP JUMPDEST PUSH2 0x3ED2 DUP2 DUP5 DUP5 PUSH2 0x3E96 JUMP JUMPDEST POP POP POP JUMP JUMPDEST JUMPDEST DUP2 DUP2 LT ISZERO PUSH2 0x3EF5 JUMPI PUSH2 0x3EEA PUSH0 DUP3 PUSH2 0x3EBF JUMP JUMPDEST PUSH1 0x1 DUP2 ADD SWAP1 POP PUSH2 0x3ED8 JUMP JUMPDEST POP POP JUMP JUMPDEST PUSH1 0x1F DUP3 GT ISZERO PUSH2 0x3F3A JUMPI PUSH2 0x3F0B DUP2 PUSH2 0x3DE5 JUMP JUMPDEST PUSH2 0x3F14 DUP5 PUSH2 0x3DF7 JUMP JUMPDEST DUP2 ADD PUSH1 0x20 DUP6 LT ISZERO PUSH2 0x3F23 JUMPI DUP2 SWAP1 POP JUMPDEST PUSH2 0x3F37 PUSH2 0x3F2F DUP6 PUSH2 0x3DF7 JUMP JUMPDEST DUP4 ADD DUP3 PUSH2 0x3ED7 JUMP JUMPDEST POP POP JUMPDEST POP POP POP JUMP JUMPDEST PUSH0 DUP3 DUP3 SHR SWAP1 POP SWAP3 SWAP2 POP POP JUMP JUMPDEST PUSH0 PUSH2 0x3F5A PUSH0 NOT DUP5 PUSH1 0x8 MUL PUSH2 0x3F3F JUMP JUMPDEST NOT DUP1 DUP4 AND SWAP2 POP POP SWAP3 SWAP2 POP POP JUMP JUMPDEST PUSH0 PUSH2 0x3F72 DUP4 DUP4 PUSH2 0x3F4B JUMP JUMPDEST SWAP2 POP DUP3 PUSH1 0x2 MUL DUP3 OR SWAP1 POP SWAP3 SWAP2 POP POP JUMP JUMPDEST PUSH2 0x3F8B DUP3 PUSH2 0x3439 JUMP JUMPDEST PUSH8 0xFFFFFFFFFFFFFFFF DUP2 GT ISZERO PUSH2 0x3FA4 JUMPI PUSH2 0x3FA3 PUSH2 0x3614 JUMP JUMPDEST JUMPDEST PUSH2 0x3FAE DUP3 SLOAD PUSH2 0x3DB5 JUMP JUMPDEST PUSH2 0x3FB9 DUP3 DUP3 DUP6 PUSH2 0x3EF9 JUMP JUMPDEST PUSH0 PUSH1 0x20 SWAP1 POP PUSH1 0x1F DUP4 GT PUSH1 0x1 DUP2 EQ PUSH2 0x3FEA JUMPI PUSH0 DUP5 ISZERO PUSH2 0x3FD8 JUMPI DUP3 DUP8 ADD MLOAD SWAP1 POP JUMPDEST PUSH2 0x3FE2 DUP6 DUP3 PUSH2 0x3F67 JUMP JUMPDEST DUP7 SSTORE POP PUSH2 0x4049 JUMP JUMPDEST PUSH1 0x1F NOT DUP5 AND PUSH2 0x3FF8 DUP7 PUSH2 0x3DE5 JUMP JUMPDEST PUSH0 JUMPDEST DUP3 DUP2 LT ISZERO PUSH2 0x401F JUMPI DUP5 DUP10 ADD MLOAD DUP3 SSTORE PUSH1 0x1 DUP3 ADD SWAP2 POP PUSH1 0x20 DUP6 ADD SWAP5 POP PUSH1 0x20 DUP2 ADD SWAP1 POP PUSH2 0x3FFA JUMP JUMPDEST DUP7 DUP4 LT ISZERO PUSH2 0x403C JUMPI DUP5 DUP10 ADD MLOAD PUSH2 0x4038 PUSH1 0x1F DUP10 AND DUP3 PUSH2 0x3F4B JUMP JUMPDEST DUP4 SSTORE POP JUMPDEST PUSH1 0x1 PUSH1 0x2 DUP9 MUL ADD DUP9 SSTORE POP POP POP JUMPDEST POP POP POP POP POP POP JUMP JUMPDEST PUSH0 PUSH2 0x405B DUP3 PUSH2 0x33DB JUMP JUMPDEST SWAP2 POP PUSH2 0x4066 DUP4 PUSH2 0x33DB JUMP JUMPDEST SWAP3 POP DUP3 DUP3 SUB SWAP1 POP DUP2 DUP2 GT ISZERO PUSH2 0x407E JUMPI PUSH2 0x407D PUSH2 0x3A13 JUMP JUMPDEST JUMPDEST SWAP3 SWAP2 POP POP JUMP JUMPDEST PUSH0 PUSH1 0x20 DUP3 ADD SWAP1 POP PUSH2 0x4097 PUSH0 DUP4 ADD DUP5 PUSH2 0x3A87 JUMP JUMPDEST SWAP3 SWAP2 POP POP JUMP JUMPDEST PUSH32 0x4F6E6C792074686520636F6E74726163742773206F776E65722063616E20636F PUSH0 DUP3 ADD MSTORE PUSH32 0x756E742074686520766F74657320616E6420616E6E6F756E6365207468652077 PUSH1 0x20 DUP3 ADD MSTORE PUSH32 0x696E6E65722E0000000000000000000000000000000000000000000000000000 PUSH1 0x40 DUP3 ADD MSTORE POP JUMP JUMPDEST PUSH0 PUSH2 0x411D PUSH1 0x46 DUP4 PUSH2 0x3443 JUMP JUMPDEST SWAP2 POP PUSH2 0x4128 DUP3 PUSH2 0x409D JUMP JUMPDEST PUSH1 0x60 DUP3 ADD SWAP1 POP SWAP2 SWAP1 POP JUMP JUMPDEST PUSH0 PUSH1 0x20 DUP3 ADD SWAP1 POP DUP2 DUP2 SUB PUSH0 DUP4 ADD MSTORE PUSH2 0x414A DUP2 PUSH2 0x4111 JUMP JUMPDEST SWAP1 POP SWAP2 SWAP1 POP JUMP JUMPDEST PUSH32 0x5468657265206D757374206265206174206C6561737420312070726F706F7361 PUSH0 DUP3 ADD MSTORE PUSH32 0x6C20746F2074616C6C792074686520766F746573000000000000000000000000 PUSH1 0x20 DUP3 ADD MSTORE POP JUMP JUMPDEST PUSH0 PUSH2 0x41AB PUSH1 0x34 DUP4 PUSH2 0x3443 JUMP JUMPDEST SWAP2 POP PUSH2 0x41B6 DUP3 PUSH2 0x4151 JUMP JUMPDEST PUSH1 0x40 DUP3 ADD SWAP1 POP SWAP2 SWAP1 POP JUMP JUMPDEST PUSH0 PUSH1 0x20 DUP3 ADD SWAP1 POP DUP2 DUP2 SUB PUSH0 DUP4 ADD MSTORE PUSH2 0x41D8 DUP2 PUSH2 0x419F JUMP JUMPDEST SWAP1 POP SWAP2 SWAP1 POP JUMP JUMPDEST PUSH32 0x566F746572200000000000000000000000000000000000000000000000000000 DUP2 MSTORE POP JUMP JUMPDEST PUSH0 DUP2 SWAP1 POP SWAP3 SWAP2 POP POP JUMP JUMPDEST PUSH0 PUSH2 0x4219 DUP3 PUSH2 0x3439 JUMP JUMPDEST PUSH2 0x4223 DUP2 DUP6 PUSH2 0x4205 JUMP JUMPDEST SWAP4 POP PUSH2 0x4233 DUP2 DUP6 PUSH1 0x20 DUP7 ADD PUSH2 0x3453 JUMP JUMPDEST DUP1 DUP5 ADD SWAP2 POP POP SWAP3 SWAP2 POP POP JUMP JUMPDEST PUSH32 0x20697320616C7265616479207265676973746572656400000000000000000000 DUP2 MSTORE POP JUMP JUMPDEST PUSH0 PUSH2 0x426F DUP3 PUSH2 0x41DF JUMP JUMPDEST PUSH1 0x6 DUP3 ADD SWAP2 POP PUSH2 0x427F DUP3 DUP5 PUSH2 0x420F JUMP JUMPDEST SWAP2 POP PUSH2 0x428A DUP3 PUSH2 0x423F JUMP JUMPDEST PUSH1 0x16 DUP3 ADD SWAP2 POP DUP2 SWAP1 POP SWAP3 SWAP2 POP POP JUMP JUMPDEST PUSH32 0x4F6E6C792074686520636F6E74726163742773206F776E65722063616E206164 PUSH0 DUP3 ADD MSTORE PUSH32 0x6420766F74657200000000000000000000000000000000000000000000000000 PUSH1 0x20 DUP3 ADD MSTORE POP JUMP JUMPDEST PUSH0 PUSH2 0x42F3 PUSH1 0x27 DUP4 PUSH2 0x3443 JUMP JUMPDEST SWAP2 POP PUSH2 0x42FE DUP3 PUSH2 0x4299 JUMP JUMPDEST PUSH1 0x40 DUP3 ADD SWAP1 POP SWAP2 SWAP1 POP JUMP JUMPDEST PUSH0 PUSH1 0x20 DUP3 ADD SWAP1 POP DUP2 DUP2 SUB PUSH0 DUP4 ADD MSTORE PUSH2 0x4320 DUP2 PUSH2 0x42E7 JUMP JUMPDEST SWAP1 POP SWAP2 SWAP1 POP JUMP JUMPDEST PUSH32 0x54686520676C6F62616C2073657373696F6E206D757374206265206F70656E65 PUSH0 DUP3 ADD MSTORE PUSH32 0x6420746F206F70656E20726567697374726174696F6E206F66206120766F7465 PUSH1 0x20 DUP3 ADD MSTORE PUSH32 0x7200000000000000000000000000000000000000000000000000000000000000 PUSH1 0x40 DUP3 ADD MSTORE POP JUMP JUMPDEST PUSH0 PUSH2 0x43A7 PUSH1 0x41 DUP4 PUSH2 0x3443 JUMP JUMPDEST SWAP2 POP PUSH2 0x43B2 DUP3 PUSH2 0x4327 JUMP JUMPDEST PUSH1 0x60 DUP3 ADD SWAP1 POP SWAP2 SWAP1 POP JUMP JUMPDEST PUSH0 PUSH1 0x20 DUP3 ADD SWAP1 POP DUP2 DUP2 SUB PUSH0 DUP4 ADD MSTORE PUSH2 0x43D4 DUP2 PUSH2 0x439B JUMP JUMPDEST SWAP1 POP SWAP2 SWAP1 POP JUMP JUMPDEST PUSH32 0x54686520766F7465727320726567697374726174696F6E2073657373696F6E20 PUSH0 DUP3 ADD MSTORE PUSH32 0x697320636C6F7365642E20596F752063616E6E6F7420616464206E657720766F PUSH1 0x20 DUP3 ADD MSTORE PUSH32 0x7465727300000000000000000000000000000000000000000000000000000000 PUSH1 0x40 DUP3 ADD MSTORE POP JUMP JUMPDEST PUSH0 PUSH2 0x445B PUSH1 0x44 DUP4 PUSH2 0x3443 JUMP JUMPDEST SWAP2 POP PUSH2 0x4466 DUP3 PUSH2 0x43DB JUMP JUMPDEST PUSH1 0x60 DUP3 ADD SWAP1 POP SWAP2 SWAP1 POP JUMP JUMPDEST PUSH0 PUSH1 0x20 DUP3 ADD SWAP1 POP DUP2 DUP2 SUB PUSH0 DUP4 ADD MSTORE PUSH2 0x4488 DUP2 PUSH2 0x444F JUMP JUMPDEST SWAP1 POP SWAP2 SWAP1 POP JUMP JUMPDEST PUSH32 0x4F6E6C792074686520636F6E74726163742773206F776E65722063616E207265 PUSH0 DUP3 ADD MSTORE PUSH32 0x7365742074686520766F74696E672073657373696F6E00000000000000000000 PUSH1 0x20 DUP3 ADD MSTORE POP JUMP JUMPDEST PUSH0 PUSH2 0x44E9 PUSH1 0x36 DUP4 PUSH2 0x3443 JUMP JUMPDEST SWAP2 POP PUSH2 0x44F4 DUP3 PUSH2 0x448F JUMP JUMPDEST PUSH1 0x40 DUP3 ADD SWAP1 POP SWAP2 SWAP1 POP JUMP JUMPDEST PUSH0 PUSH1 0x20 DUP3 ADD SWAP1 POP DUP2 DUP2 SUB PUSH0 DUP4 ADD MSTORE PUSH2 0x4516 DUP2 PUSH2 0x44DD JUMP JUMPDEST SWAP1 POP SWAP2 SWAP1 POP JUMP JUMPDEST PUSH32 0x54686520676C6F62616C2073657373696F6E202620766F74696E672073657373 PUSH0 DUP3 ADD MSTORE PUSH32 0x696F6E206D757374206265206F70656E656420746F2072657365742074686520 PUSH1 0x20 DUP3 ADD MSTORE PUSH32 0x766F74696E672073657373696F6E000000000000000000000000000000000000 PUSH1 0x40 DUP3 ADD MSTORE POP JUMP JUMPDEST PUSH0 PUSH2 0x459D PUSH1 0x4E DUP4 PUSH2 0x3443 JUMP JUMPDEST SWAP2 POP PUSH2 0x45A8 DUP3 PUSH2 0x451D JUMP JUMPDEST PUSH1 0x60 DUP3 ADD SWAP1 POP SWAP2 SWAP1 POP JUMP JUMPDEST PUSH0 PUSH1 0x20 DUP3 ADD SWAP1 POP DUP2 DUP2 SUB PUSH0 DUP4 ADD MSTORE PUSH2 0x45CA DUP2 PUSH2 0x4591 JUMP JUMPDEST SWAP1 POP SWAP2 SWAP1 POP JUMP JUMPDEST PUSH32 0x5468652073657373696F6E20686173206265656E20726573657420746F207468 PUSH0 DUP3 ADD MSTORE PUSH32 0x652070726F706F73616C73207375626D697373696F6E2073657373696F6E2066 PUSH1 0x20 DUP3 ADD MSTORE PUSH32 0x6F722074686520666F6C6C6F77696E6720726561736F6E287329203A20000000 PUSH1 0x40 DUP3 ADD MSTORE POP JUMP JUMPDEST PUSH0 PUSH2 0x4651 PUSH1 0x5D DUP4 PUSH2 0x4205 JUMP JUMPDEST SWAP2 POP PUSH2 0x465C DUP3 PUSH2 0x45D1 JUMP JUMPDEST PUSH1 0x5D DUP3 ADD SWAP1 POP SWAP2 SWAP1 POP JUMP JUMPDEST DUP3 DUP2 DUP4 CALLDATACOPY PUSH0 DUP4 DUP4 ADD MSTORE POP POP POP JUMP JUMPDEST PUSH0 PUSH2 0x4680 DUP4 DUP6 PUSH2 0x4205 JUMP JUMPDEST SWAP4 POP PUSH2 0x468D DUP4 DUP6 DUP5 PUSH2 0x4667 JUMP JUMPDEST DUP3 DUP5 ADD SWAP1 POP SWAP4 SWAP3 POP POP POP JUMP JUMPDEST PUSH0 PUSH2 0x46A3 DUP3 PUSH2 0x4645 JUMP JUMPDEST SWAP2 POP PUSH2 0x46B0 DUP3 DUP5 DUP7 PUSH2 0x4675 JUMP JUMPDEST SWAP2 POP DUP2 SWAP1 POP SWAP4 SWAP3 POP POP POP JUMP JUMPDEST PUSH32 0x4F6E6C792074686520636F6E74726163742773206F776E65722063616E20636C PUSH0 DUP3 ADD MSTORE PUSH32 0x6F73652074686520766F74696E672073657373696F6E00000000000000000000 PUSH1 0x20 DUP3 ADD MSTORE POP JUMP JUMPDEST PUSH0 PUSH2 0x4716 PUSH1 0x36 DUP4 PUSH2 0x3443 JUMP JUMPDEST SWAP2 POP PUSH2 0x4721 DUP3 PUSH2 0x46BC JUMP JUMPDEST PUSH1 0x40 DUP3 ADD SWAP1 POP SWAP2 SWAP1 POP JUMP JUMPDEST PUSH0 PUSH1 0x20 DUP3 ADD SWAP1 POP DUP2 DUP2 SUB PUSH0 DUP4 ADD MSTORE PUSH2 0x4743 DUP2 PUSH2 0x470A JUMP JUMPDEST SWAP1 POP SWAP2 SWAP1 POP JUMP JUMPDEST PUSH32 0x54686520766F74696E6720726567697374726174696F6E2073657373696F6E20 PUSH0 DUP3 ADD MSTORE PUSH32 0x6D757374206265206F70656E206265666F72652069742063616E20626520636C PUSH1 0x20 DUP3 ADD MSTORE PUSH32 0x6F73656400000000000000000000000000000000000000000000000000000000 PUSH1 0x40 DUP3 ADD MSTORE POP JUMP JUMPDEST PUSH0 PUSH2 0x47CA PUSH1 0x44 DUP4 PUSH2 0x3443 JUMP JUMPDEST SWAP2 POP PUSH2 0x47D5 DUP3 PUSH2 0x474A JUMP JUMPDEST PUSH1 0x60 DUP3 ADD SWAP1 POP SWAP2 SWAP1 POP JUMP JUMPDEST PUSH0 PUSH1 0x20 DUP3 ADD SWAP1 POP DUP2 DUP2 SUB PUSH0 DUP4 ADD MSTORE PUSH2 0x47F7 DUP2 PUSH2 0x47BE JUMP JUMPDEST SWAP1 POP SWAP2 SWAP1 POP JUMP JUMPDEST PUSH32 0x566F74657220756E6B6E6F776E00000000000000000000000000000000000000 PUSH0 DUP3 ADD MSTORE POP JUMP JUMPDEST PUSH0 PUSH2 0x4832 PUSH1 0xD DUP4 PUSH2 0x3443 JUMP JUMPDEST SWAP2 POP PUSH2 0x483D DUP3 PUSH2 0x47FE JUMP JUMPDEST PUSH1 0x20 DUP3 ADD SWAP1 POP SWAP2 SWAP1 POP JUMP JUMPDEST PUSH0 PUSH1 0x20 DUP3 ADD SWAP1 POP DUP2 DUP2 SUB PUSH0 DUP4 ADD MSTORE PUSH2 0x485F DUP2 PUSH2 0x4826 JUMP JUMPDEST SWAP1 POP SWAP2 SWAP1 POP JUMP JUMPDEST PUSH32 0x54686520676C6F62616C2073657373696F6E202620766F74696E672073657373 PUSH0 DUP3 ADD MSTORE PUSH32 0x696F6E206D757374206265206F70656E656420746F20636F6E73756C74207468 PUSH1 0x20 DUP3 ADD MSTORE PUSH32 0x6520766F7465206F6620616E6F7468657220766F746572000000000000000000 PUSH1 0x40 DUP3 ADD MSTORE POP JUMP JUMPDEST PUSH0 PUSH2 0x48E6 PUSH1 0x57 DUP4 PUSH2 0x3443 JUMP JUMPDEST SWAP2 POP PUSH2 0x48F1 DUP3 PUSH2 0x4866 JUMP JUMPDEST PUSH1 0x60 DUP3 ADD SWAP1 POP SWAP2 SWAP1 POP JUMP JUMPDEST PUSH0 PUSH1 0x20 DUP3 ADD SWAP1 POP DUP2 DUP2 SUB PUSH0 DUP4 ADD MSTORE PUSH2 0x4913 DUP2 PUSH2 0x48DA JUMP JUMPDEST SWAP1 POP SWAP2 SWAP1 POP JUMP JUMPDEST PUSH32 0x596F752063616E6E6F7420636F6E73756C74207468697320766F746572277320 PUSH0 DUP3 ADD MSTORE PUSH32 0x766F74652062656361757365207468697320766F74657220686173206E6F7420 PUSH1 0x20 DUP3 ADD MSTORE PUSH32 0x766F746564207965740000000000000000000000000000000000000000000000 PUSH1 0x40 DUP3 ADD MSTORE POP JUMP JUMPDEST PUSH0 PUSH2 0x499A PUSH1 0x49 DUP4 PUSH2 0x3443 JUMP JUMPDEST SWAP2 POP PUSH2 0x49A5 DUP3 PUSH2 0x491A JUMP JUMPDEST PUSH1 0x60 DUP3 ADD SWAP1 POP SWAP2 SWAP1 POP JUMP JUMPDEST PUSH0 PUSH1 0x20 DUP3 ADD SWAP1 POP DUP2 DUP2 SUB PUSH0 DUP4 ADD MSTORE PUSH2 0x49C7 DUP2 PUSH2 0x498E JUMP JUMPDEST SWAP1 POP SWAP2 SWAP1 POP JUMP JUMPDEST PUSH32 0x2068617320766F74656420666F722070726F706F73616C202300000000000000 DUP2 MSTORE POP JUMP JUMPDEST PUSH32 0x203A200000000000000000000000000000000000000000000000000000000000 DUP2 MSTORE POP JUMP JUMPDEST PUSH0 DUP2 SWAP1 POP DUP2 PUSH0 MSTORE PUSH1 0x20 PUSH0 KECCAK256 SWAP1 POP SWAP2 SWAP1 POP JUMP JUMPDEST PUSH0 DUP2 SLOAD PUSH2 0x4A38 DUP2 PUSH2 0x3DB5 JUMP JUMPDEST PUSH2 0x4A42 DUP2 DUP7 PUSH2 0x4205 JUMP JUMPDEST SWAP5 POP PUSH1 0x1 DUP3 AND PUSH0 DUP2 EQ PUSH2 0x4A5C JUMPI PUSH1 0x1 DUP2 EQ PUSH2 0x4A71 JUMPI PUSH2 0x4AA3 JUMP JUMPDEST PUSH1 0xFF NOT DUP4 AND DUP7 MSTORE DUP2 ISZERO ISZERO DUP3 MUL DUP7 ADD SWAP4 POP PUSH2 0x4AA3 JUMP JUMPDEST PUSH2 0x4A7A DUP6 PUSH2 0x4A1A JUMP JUMPDEST PUSH0 JUMPDEST DUP4 DUP2 LT ISZERO PUSH2 0x4A9B JUMPI DUP2 SLOAD DUP2 DUP10 ADD MSTORE PUSH1 0x1 DUP3 ADD SWAP2 POP PUSH1 0x20 DUP2 ADD SWAP1 POP PUSH2 0x4A7C JUMP JUMPDEST DUP4 DUP9 ADD SWAP6 POP POP POP JUMPDEST POP POP POP SWAP3 SWAP2 POP POP JUMP JUMPDEST PUSH0 PUSH2 0x4AB6 DUP3 PUSH2 0x41DF JUMP JUMPDEST PUSH1 0x6 DUP3 ADD SWAP2 POP PUSH2 0x4AC6 DUP3 DUP7 PUSH2 0x420F JUMP JUMPDEST SWAP2 POP PUSH2 0x4AD1 DUP3 PUSH2 0x49CE JUMP JUMPDEST PUSH1 0x19 DUP3 ADD SWAP2 POP PUSH2 0x4AE1 DUP3 DUP6 PUSH2 0x420F JUMP JUMPDEST SWAP2 POP PUSH2 0x4AEC DUP3 PUSH2 0x49F4 JUMP JUMPDEST PUSH1 0x3 DUP3 ADD SWAP2 POP PUSH2 0x4AFC DUP3 DUP5 PUSH2 0x4A2C JUMP JUMPDEST SWAP2 POP DUP2 SWAP1 POP SWAP5 SWAP4 POP POP POP POP JUMP JUMPDEST PUSH32 0x4F6E6C792074686520636F6E74726163742773206F776E65722063616E207265 PUSH0 DUP3 ADD MSTORE PUSH32 0x6D6F766520766F74657273000000000000000000000000000000000000000000 PUSH1 0x20 DUP3 ADD MSTORE POP JUMP JUMPDEST PUSH0 PUSH2 0x4B63 PUSH1 0x2B DUP4 PUSH2 0x3443 JUMP JUMPDEST SWAP2 POP PUSH2 0x4B6E DUP3 PUSH2 0x4B09 JUMP JUMPDEST PUSH1 0x40 DUP3 ADD SWAP1 POP SWAP2 SWAP1 POP JUMP JUMPDEST PUSH0 PUSH1 0x20 DUP3 ADD SWAP1 POP DUP2 DUP2 SUB PUSH0 DUP4 ADD MSTORE PUSH2 0x4B90 DUP2 PUSH2 0x4B57 JUMP JUMPDEST SWAP1 POP SWAP2 SWAP1 POP JUMP JUMPDEST PUSH32 0x54686520676C6F62616C2073657373696F6E206D757374206265206F70656E65 PUSH0 DUP3 ADD MSTORE PUSH32 0x64202620746865206E756D626572206F6620766F74657273206D757374206265 PUSH1 0x20 DUP3 ADD MSTORE PUSH32 0x203E203020746F2072656D6F766520766F746572730000000000000000000000 PUSH1 0x40 DUP3 ADD MSTORE POP JUMP JUMPDEST PUSH0 PUSH2 0x4C17 PUSH1 0x55 DUP4 PUSH2 0x3443 JUMP JUMPDEST SWAP2 POP PUSH2 0x4C22 DUP3 PUSH2 0x4B97 JUMP JUMPDEST PUSH1 0x60 DUP3 ADD SWAP1 POP SWAP2 SWAP1 POP JUMP JUMPDEST PUSH0 PUSH1 0x20 DUP3 ADD SWAP1 POP DUP2 DUP2 SUB PUSH0 DUP4 ADD MSTORE PUSH2 0x4C44 DUP2 PUSH2 0x4C0B JUMP JUMPDEST SWAP1 POP SWAP2 SWAP1 POP JUMP JUMPDEST PUSH32 0x4F6E6C792074686520636F6E74726163742773206F776E65722063616E20636C PUSH0 DUP3 ADD MSTORE PUSH32 0x6F73652074686520766F7465727320726567697374726174696F6E0000000000 PUSH1 0x20 DUP3 ADD MSTORE POP JUMP JUMPDEST PUSH0 PUSH2 0x4CA5 PUSH1 0x3B DUP4 PUSH2 0x3443 JUMP JUMPDEST SWAP2 POP PUSH2 0x4CB0 DUP3 PUSH2 0x4C4B JUMP JUMPDEST PUSH1 0x40 DUP3 ADD SWAP1 POP SWAP2 SWAP1 POP JUMP JUMPDEST PUSH0 PUSH1 0x20 DUP3 ADD SWAP1 POP DUP2 DUP2 SUB PUSH0 DUP4 ADD MSTORE PUSH2 0x4CD2 DUP2 PUSH2 0x4C99 JUMP JUMPDEST SWAP1 POP SWAP2 SWAP1 POP JUMP JUMPDEST PUSH32 0x54686520766F7465727320726567697374726174696F6E2073657373696F6E20 PUSH0 DUP3 ADD MSTORE PUSH32 0x6D757374206265206F70656E206265666F72652069742063616E20626520636C PUSH1 0x20 DUP3 ADD MSTORE PUSH32 0x6F73656400000000000000000000000000000000000000000000000000000000 PUSH1 0x40 DUP3 ADD MSTORE POP JUMP JUMPDEST PUSH0 PUSH2 0x4D59 PUSH1 0x44 DUP4 PUSH2 0x3443 JUMP JUMPDEST SWAP2 POP PUSH2 0x4D64 DUP3 PUSH2 0x4CD9 JUMP JUMPDEST PUSH1 0x60 DUP3 ADD SWAP1 POP SWAP2 SWAP1 POP JUMP JUMPDEST PUSH0 PUSH1 0x20 DUP3 ADD SWAP1 POP DUP2 DUP2 SUB PUSH0 DUP4 ADD MSTORE PUSH2 0x4D86 DUP2 PUSH2 0x4D4D JUMP JUMPDEST SWAP1 POP SWAP2 SWAP1 POP JUMP JUMPDEST PUSH32 0x596F7520617265206E6F7420616C6C6F77656420746F20636F6E73756C742074 PUSH0 DUP3 ADD MSTORE PUSH32 0x68652070726F706F73616C73206C6973742E0000000000000000000000000000 PUSH1 0x20 DUP3 ADD MSTORE POP JUMP JUMPDEST PUSH0 PUSH2 0x4DE7 PUSH1 0x32 DUP4 PUSH2 0x3443 JUMP JUMPDEST SWAP2 POP PUSH2 0x4DF2 DUP3 PUSH2 0x4D8D JUMP JUMPDEST PUSH1 0x40 DUP3 ADD SWAP1 POP SWAP2 SWAP1 POP JUMP JUMPDEST PUSH0 PUSH1 0x20 DUP3 ADD SWAP1 POP DUP2 DUP2 SUB PUSH0 DUP4 ADD MSTORE PUSH2 0x4E14 DUP2 PUSH2 0x4DDB JUMP JUMPDEST SWAP1 POP SWAP2 SWAP1 POP JUMP JUMPDEST PUSH32 0x4E6F2070726F706F73616C207375626D697474656420736F206661722E000000 PUSH0 DUP3 ADD MSTORE POP JUMP JUMPDEST PUSH0 PUSH2 0x4E4F PUSH1 0x1D DUP4 PUSH2 0x3443 JUMP JUMPDEST SWAP2 POP PUSH2 0x4E5A DUP3 PUSH2 0x4E1B JUMP JUMPDEST PUSH1 0x20 DUP3 ADD SWAP1 POP SWAP2 SWAP1 POP JUMP JUMPDEST PUSH0 PUSH1 0x20 DUP3 ADD SWAP1 POP DUP2 DUP2 SUB PUSH0 DUP4 ADD MSTORE PUSH2 0x4E7C DUP2 PUSH2 0x4E43 JUMP JUMPDEST SWAP1 POP SWAP2 SWAP1 POP JUMP JUMPDEST PUSH32 0x2D20230000000000000000000000000000000000000000000000000000000000 DUP2 MSTORE POP JUMP JUMPDEST PUSH32 0x202D200000000000000000000000000000000000000000000000000000000000 DUP2 MSTORE POP JUMP JUMPDEST PUSH0 DUP2 SLOAD PUSH2 0x4EDB DUP2 PUSH2 0x3DB5 JUMP JUMPDEST PUSH2 0x4EE5 DUP2 DUP7 PUSH2 0x4205 JUMP JUMPDEST SWAP5 POP PUSH1 0x1 DUP3 AND PUSH0 DUP2 EQ PUSH2 0x4EFF JUMPI PUSH1 0x1 DUP2 EQ PUSH2 0x4F14 JUMPI PUSH2 0x4F46 JUMP JUMPDEST PUSH1 0xFF NOT DUP4 AND DUP7 MSTORE DUP2 ISZERO ISZERO DUP3 MUL DUP7 ADD SWAP4 POP PUSH2 0x4F46 JUMP JUMPDEST PUSH2 0x4F1D DUP6 PUSH2 0x3DE5 JUMP JUMPDEST PUSH0 JUMPDEST DUP4 DUP2 LT ISZERO PUSH2 0x4F3E JUMPI DUP2 SLOAD DUP2 DUP10 ADD MSTORE PUSH1 0x1 DUP3 ADD SWAP2 POP PUSH1 0x20 DUP2 ADD SWAP1 POP PUSH2 0x4F1F JUMP JUMPDEST DUP4 DUP9 ADD SWAP6 POP POP POP JUMPDEST POP POP POP SWAP3 SWAP2 POP POP JUMP JUMPDEST PUSH32 0xA00000000000000000000000000000000000000000000000000000000000000 DUP2 MSTORE POP JUMP JUMPDEST PUSH0 PUSH2 0x4F80 DUP3 DUP7 PUSH2 0x420F JUMP JUMPDEST SWAP2 POP PUSH2 0x4F8B DUP3 PUSH2 0x4E83 JUMP JUMPDEST PUSH1 0x3 DUP3 ADD SWAP2 POP PUSH2 0x4F9B DUP3 DUP6 PUSH2 0x420F JUMP JUMPDEST SWAP2 POP PUSH2 0x4FA6 DUP3 PUSH2 0x4EA9 JUMP JUMPDEST PUSH1 0x3 DUP3 ADD SWAP2 POP PUSH2 0x4FB6 DUP3 DUP5 PUSH2 0x4ECF JUMP JUMPDEST SWAP2 POP PUSH2 0x4FC1 DUP3 PUSH2 0x4F4F JUMP JUMPDEST PUSH1 0x1 DUP3 ADD SWAP2 POP DUP2 SWAP1 POP SWAP5 SWAP4 POP POP POP POP JUMP JUMPDEST PUSH32 0x4F6E6C792074686520636F6E74726163742773206F776E65722063616E206F70 PUSH0 DUP3 ADD MSTORE PUSH32 0x656E2074686520766F7465727320726567697374726174696F6E000000000000 PUSH1 0x20 DUP3 ADD MSTORE POP JUMP JUMPDEST PUSH0 PUSH2 0x502C PUSH1 0x3A DUP4 PUSH2 0x3443 JUMP JUMPDEST SWAP2 POP PUSH2 0x5037 DUP3 PUSH2 0x4FD2 JUMP JUMPDEST PUSH1 0x40 DUP3 ADD SWAP1 POP SWAP2 SWAP1 POP JUMP JUMPDEST PUSH0 PUSH1 0x20 DUP3 ADD SWAP1 POP DUP2 DUP2 SUB PUSH0 DUP4 ADD MSTORE PUSH2 0x5059 DUP2 PUSH2 0x5020 JUMP JUMPDEST SWAP1 POP SWAP2 SWAP1 POP JUMP JUMPDEST PUSH32 0x54686520676C6F62616C2073657373696F6E206D757374206265206F70656E65 PUSH0 DUP3 ADD MSTORE PUSH32 0x6420746F206F70656E2074686520766F7465727320726567697374726174696F PUSH1 0x20 DUP3 ADD MSTORE PUSH32 0x6E00000000000000000000000000000000000000000000000000000000000000 PUSH1 0x40 DUP3 ADD MSTORE POP JUMP JUMPDEST PUSH0 PUSH2 0x50E0 PUSH1 0x41 DUP4 PUSH2 0x3443 JUMP JUMPDEST SWAP2 POP PUSH2 0x50EB DUP3 PUSH2 0x5060 JUMP JUMPDEST PUSH1 0x60 DUP3 ADD SWAP1 POP SWAP2 SWAP1 POP JUMP JUMPDEST PUSH0 PUSH1 0x20 DUP3 ADD SWAP1 POP DUP2 DUP2 SUB PUSH0 DUP4 ADD MSTORE PUSH2 0x510D DUP2 PUSH2 0x50D4 JUMP JUMPDEST SWAP1 POP SWAP2 SWAP1 POP JUMP JUMPDEST PUSH32 0x4F6E6C792074686520636F6E74726163742773206F776E65722063616E207265 PUSH0 DUP3 ADD MSTORE PUSH32 0x6D6F766520766F74657200000000000000000000000000000000000000000000 PUSH1 0x20 DUP3 ADD MSTORE POP JUMP JUMPDEST PUSH0 PUSH2 0x516E PUSH1 0x2A DUP4 PUSH2 0x3443 JUMP JUMPDEST SWAP2 POP PUSH2 0x5179 DUP3 PUSH2 0x5114 JUMP JUMPDEST PUSH1 0x40 DUP3 ADD SWAP1 POP SWAP2 SWAP1 POP JUMP JUMPDEST PUSH0 PUSH1 0x20 DUP3 ADD SWAP1 POP DUP2 DUP2 SUB PUSH0 DUP4 ADD MSTORE PUSH2 0x519B DUP2 PUSH2 0x5162 JUMP JUMPDEST SWAP1 POP SWAP2 SWAP1 POP JUMP JUMPDEST PUSH32 0x54686520676C6F62616C2073657373696F6E206D757374206265206F70656E65 PUSH0 DUP3 ADD MSTORE PUSH32 0x64202620746865206E756D626572206F6620766F74657273206D757374206265 PUSH1 0x20 DUP3 ADD MSTORE PUSH32 0x203E203020746F2072656D6F7665206120766F74657200000000000000000000 PUSH1 0x40 DUP3 ADD MSTORE POP JUMP JUMPDEST PUSH0 PUSH2 0x5222 PUSH1 0x56 DUP4 PUSH2 0x3443 JUMP JUMPDEST SWAP2 POP PUSH2 0x522D DUP3 PUSH2 0x51A2 JUMP JUMPDEST PUSH1 0x60 DUP3 ADD SWAP1 POP SWAP2 SWAP1 POP JUMP JUMPDEST PUSH0 PUSH1 0x20 DUP3 ADD SWAP1 POP DUP2 DUP2 SUB PUSH0 DUP4 ADD MSTORE PUSH2 0x524F DUP2 PUSH2 0x5216 JUMP JUMPDEST SWAP1 POP SWAP2 SWAP1 POP JUMP JUMPDEST PUSH32 0x54686520766F746573206D7573742068617665206265656E207461696C6C6564 PUSH0 DUP3 ADD MSTORE PUSH32 0x20746F2064657465726D696E65207468652077696E6E65720000000000000000 PUSH1 0x20 DUP3 ADD MSTORE POP JUMP JUMPDEST PUSH0 PUSH2 0x52B0 PUSH1 0x38 DUP4 PUSH2 0x3443 JUMP JUMPDEST SWAP2 POP PUSH2 0x52BB DUP3 PUSH2 0x5256 JUMP JUMPDEST PUSH1 0x40 DUP3 ADD SWAP1 POP SWAP2 SWAP1 POP JUMP JUMPDEST PUSH0 PUSH1 0x20 DUP3 ADD SWAP1 POP DUP2 DUP2 SUB PUSH0 DUP4 ADD MSTORE PUSH2 0x52DD DUP2 PUSH2 0x52A4 JUMP JUMPDEST SWAP1 POP SWAP2 SWAP1 POP JUMP JUMPDEST PUSH32 0x54686520766F746573206D7573742068617665206265656E207461696C6C6564 PUSH0 DUP3 ADD MSTORE PUSH32 0x20746F2064657465726D696E65207468652077696E6E696E672070726F706F73 PUSH1 0x20 DUP3 ADD MSTORE PUSH32 0x616C000000000000000000000000000000000000000000000000000000000000 PUSH1 0x40 DUP3 ADD MSTORE POP JUMP JUMPDEST PUSH0 PUSH2 0x5364 PUSH1 0x42 DUP4 PUSH2 0x3443 JUMP JUMPDEST SWAP2 POP PUSH2 0x536F DUP3 PUSH2 0x52E4 JUMP JUMPDEST PUSH1 0x60 DUP3 ADD SWAP1 POP SWAP2 SWAP1 POP JUMP JUMPDEST PUSH0 PUSH1 0x20 DUP3 ADD SWAP1 POP DUP2 DUP2 SUB PUSH0 DUP4 ADD MSTORE PUSH2 0x5391 DUP2 PUSH2 0x5358 JUMP JUMPDEST SWAP1 POP SWAP2 SWAP1 POP JUMP JUMPDEST PUSH32 0x4F6E6C792074686520636F6E74726163742773206F776E65722063616E207265 PUSH0 DUP3 ADD MSTORE PUSH32 0x7365742074686520676C6F62616C2073657373696F6E00000000000000000000 PUSH1 0x20 DUP3 ADD MSTORE POP JUMP JUMPDEST PUSH0 PUSH2 0x53F2 PUSH1 0x36 DUP4 PUSH2 0x3443 JUMP JUMPDEST SWAP2 POP PUSH2 0x53FD DUP3 PUSH2 0x5398 JUMP JUMPDEST PUSH1 0x40 DUP3 ADD SWAP1 POP SWAP2 SWAP1 POP JUMP JUMPDEST PUSH0 PUSH1 0x20 DUP3 ADD SWAP1 POP DUP2 DUP2 SUB PUSH0 DUP4 ADD MSTORE PUSH2 0x541F DUP2 PUSH2 0x53E6 JUMP JUMPDEST SWAP1 POP SWAP2 SWAP1 POP JUMP JUMPDEST PUSH32 0x54686520676C6F62616C2073657373696F6E206D757374206265206F70656E65 PUSH0 DUP3 ADD MSTORE PUSH32 0x6420746F20626520726573657400000000000000000000000000000000000000 PUSH1 0x20 DUP3 ADD MSTORE POP JUMP JUMPDEST PUSH0 PUSH2 0x5480 PUSH1 0x2D DUP4 PUSH2 0x3443 JUMP JUMPDEST SWAP2 POP PUSH2 0x548B DUP3 PUSH2 0x5426 JUMP JUMPDEST PUSH1 0x40 DUP3 ADD SWAP1 POP SWAP2 SWAP1 POP JUMP JUMPDEST PUSH0 PUSH1 0x20 DUP3 ADD SWAP1 POP DUP2 DUP2 SUB PUSH0 DUP4 ADD MSTORE PUSH2 0x54AD DUP2 PUSH2 0x5474 JUMP JUMPDEST SWAP1 POP SWAP2 SWAP1 POP JUMP JUMPDEST PUSH32 0x5468652073657373696F6E20686173206265656E2066756C6C79207265736574 PUSH0 DUP3 ADD MSTORE PUSH32 0x20666F722074686520666F6C6C6F77696E6720726561736F6E287329203A2000 PUSH1 0x20 DUP3 ADD MSTORE POP JUMP JUMPDEST PUSH0 PUSH2 0x550E PUSH1 0x3F DUP4 PUSH2 0x4205 JUMP JUMPDEST SWAP2 POP PUSH2 0x5519 DUP3 PUSH2 0x54B4 JUMP JUMPDEST PUSH1 0x3F DUP3 ADD SWAP1 POP SWAP2 SWAP1 POP JUMP JUMPDEST PUSH0 PUSH2 0x552E DUP3 PUSH2 0x5502 JUMP JUMPDEST SWAP2 POP PUSH2 0x553B DUP3 DUP5 DUP7 PUSH2 0x4675 JUMP JUMPDEST SWAP2 POP DUP2 SWAP1 POP SWAP4 SWAP3 POP POP POP JUMP JUMPDEST PUSH32 0x4F6E6C792074686520636F6E74726163742773206F776E65722063616E206F70 PUSH0 DUP3 ADD MSTORE PUSH32 0x656E207468652070726F706F73616C7320726567697374726174696F6E000000 PUSH1 0x20 DUP3 ADD MSTORE POP JUMP JUMPDEST PUSH0 PUSH2 0x55A1 PUSH1 0x3D DUP4 PUSH2 0x3443 JUMP JUMPDEST SWAP2 POP PUSH2 0x55AC DUP3 PUSH2 0x5547 JUMP JUMPDEST PUSH1 0x40 DUP3 ADD SWAP1 POP SWAP2 SWAP1 POP JUMP JUMPDEST PUSH0 PUSH1 0x20 DUP3 ADD SWAP1 POP DUP2 DUP2 SUB PUSH0 DUP4 ADD MSTORE PUSH2 0x55CE DUP2 PUSH2 0x5595 JUMP JUMPDEST SWAP1 POP SWAP2 SWAP1 POP JUMP JUMPDEST PUSH32 0x54686520676C6F62616C2073657373696F6E206D757374206265206F70656E65 PUSH0 DUP3 ADD MSTORE PUSH32 0x6420746F206F70656E207468652070726F706F73616C73207265676973747261 PUSH1 0x20 DUP3 ADD MSTORE PUSH32 0x74696F6E00000000000000000000000000000000000000000000000000000000 PUSH1 0x40 DUP3 ADD MSTORE POP JUMP JUMPDEST PUSH0 PUSH2 0x5655 PUSH1 0x44 DUP4 PUSH2 0x3443 JUMP JUMPDEST SWAP2 POP PUSH2 0x5660 DUP3 PUSH2 0x55D5 JUMP JUMPDEST PUSH1 0x60 DUP3 ADD SWAP1 POP SWAP2 SWAP1 POP JUMP JUMPDEST PUSH0 PUSH1 0x20 DUP3 ADD SWAP1 POP DUP2 DUP2 SUB PUSH0 DUP4 ADD MSTORE PUSH2 0x5682 DUP2 PUSH2 0x5649 JUMP JUMPDEST SWAP1 POP SWAP2 SWAP1 POP JUMP JUMPDEST PUSH32 0x4F6E6C792074686520636F6E74726163742773206F776E65722063616E20636C PUSH0 DUP3 ADD MSTORE PUSH32 0x6F73652074686520676C6F62616C2073657373696F6E00000000000000000000 PUSH1 0x20 DUP3 ADD MSTORE POP JUMP JUMPDEST PUSH0 PUSH2 0x56E3 PUSH1 0x36 DUP4 PUSH2 0x3443 JUMP JUMPDEST SWAP2 POP PUSH2 0x56EE DUP3 PUSH2 0x5689 JUMP JUMPDEST PUSH1 0x40 DUP3 ADD SWAP1 POP SWAP2 SWAP1 POP JUMP JUMPDEST PUSH0 PUSH1 0x20 DUP3 ADD SWAP1 POP DUP2 DUP2 SUB PUSH0 DUP4 ADD MSTORE PUSH2 0x5710 DUP2 PUSH2 0x56D7 JUMP JUMPDEST SWAP1 POP SWAP2 SWAP1 POP JUMP JUMPDEST PUSH32 0x54686520676C6F62616C2073657373696F6E206D757374206265206F70656E20 PUSH0 DUP3 ADD MSTORE PUSH32 0x6265666F72652069742063616E20626520636C6F736564000000000000000000 PUSH1 0x20 DUP3 ADD MSTORE POP JUMP JUMPDEST PUSH0 PUSH2 0x5771 PUSH1 0x37 DUP4 PUSH2 0x3443 JUMP JUMPDEST SWAP2 POP PUSH2 0x577C DUP3 PUSH2 0x5717 JUMP JUMPDEST PUSH1 0x40 DUP3 ADD SWAP1 POP SWAP2 SWAP1 POP JUMP JUMPDEST PUSH0 PUSH1 0x20 DUP3 ADD SWAP1 POP DUP2 DUP2 SUB PUSH0 DUP4 ADD MSTORE PUSH2 0x579E DUP2 PUSH2 0x5765 JUMP JUMPDEST SWAP1 POP SWAP2 SWAP1 POP JUMP JUMPDEST PUSH32 0x4F6E6C792074686520636F6E74726163742773206F776E65722063616E206164 PUSH0 DUP3 ADD MSTORE PUSH32 0x6420766F74657273000000000000000000000000000000000000000000000000 PUSH1 0x20 DUP3 ADD MSTORE POP JUMP JUMPDEST PUSH0 PUSH2 0x57FF PUSH1 0x28 DUP4 PUSH2 0x3443 JUMP JUMPDEST SWAP2 POP PUSH2 0x580A DUP3 PUSH2 0x57A5 JUMP JUMPDEST PUSH1 0x40 DUP3 ADD SWAP1 POP SWAP2 SWAP1 POP JUMP JUMPDEST PUSH0 PUSH1 0x20 DUP3 ADD SWAP1 POP DUP2 DUP2 SUB PUSH0 DUP4 ADD MSTORE PUSH2 0x582C DUP2 PUSH2 0x57F3 JUMP JUMPDEST SWAP1 POP SWAP2 SWAP1 POP JUMP JUMPDEST PUSH32 0x54686520676C6F62616C2073657373696F6E206D757374206265206F70656E65 PUSH0 DUP3 ADD MSTORE PUSH32 0x6420746F206F70656E2074686520726567697374726174696F6E206F6620766F PUSH1 0x20 DUP3 ADD MSTORE PUSH32 0x7465727300000000000000000000000000000000000000000000000000000000 PUSH1 0x40 DUP3 ADD MSTORE POP JUMP JUMPDEST PUSH0 PUSH2 0x58B3 PUSH1 0x44 DUP4 PUSH2 0x3443 JUMP JUMPDEST SWAP2 POP PUSH2 0x58BE DUP3 PUSH2 0x5833 JUMP JUMPDEST PUSH1 0x60 DUP3 ADD SWAP1 POP SWAP2 SWAP1 POP JUMP JUMPDEST PUSH0 PUSH1 0x20 DUP3 ADD SWAP1 POP DUP2 DUP2 SUB PUSH0 DUP4 ADD MSTORE PUSH2 0x58E0 DUP2 PUSH2 0x58A7 JUMP JUMPDEST SWAP1 POP SWAP2 SWAP1 POP JUMP JUMPDEST PUSH32 0x54686520766F7465727320726567697374726174696F6E2073657373696F6E20 PUSH0 DUP3 ADD MSTORE PUSH32 0x697320636C6F7365642E20596F752063616E6E6F74206164642061206E657720 PUSH1 0x20 DUP3 ADD MSTORE PUSH32 0x766F746572000000000000000000000000000000000000000000000000000000 PUSH1 0x40 DUP3 ADD MSTORE POP JUMP JUMPDEST PUSH0 PUSH2 0x5967 PUSH1 0x45 DUP4 PUSH2 0x3443 JUMP JUMPDEST SWAP2 POP PUSH2 0x5972 DUP3 PUSH2 0x58E7 JUMP JUMPDEST PUSH1 0x60 DUP3 ADD SWAP1 POP SWAP2 SWAP1 POP JUMP JUMPDEST PUSH0 PUSH1 0x20 DUP3 ADD SWAP1 POP DUP2 DUP2 SUB PUSH0 DUP4 ADD MSTORE PUSH2 0x5994 DUP2 PUSH2 0x595B JUMP JUMPDEST SWAP1 POP SWAP2 SWAP1 POP JUMP JUMPDEST PUSH32 0x4F6E6C792074686520636F6E74726163742773206F776E65722063616E206F70 PUSH0 DUP3 ADD MSTORE PUSH32 0x656E2074686520766F74696E672073657373696F6E0000000000000000000000 PUSH1 0x20 DUP3 ADD MSTORE POP JUMP JUMPDEST PUSH0 PUSH2 0x59F5 PUSH1 0x35 DUP4 PUSH2 0x3443 JUMP JUMPDEST SWAP2 POP PUSH2 0x5A00 DUP3 PUSH2 0x599B JUMP JUMPDEST PUSH1 0x40 DUP3 ADD SWAP1 POP SWAP2 SWAP1 POP JUMP JUMPDEST PUSH0 PUSH1 0x20 DUP3 ADD SWAP1 POP DUP2 DUP2 SUB PUSH0 DUP4 ADD MSTORE PUSH2 0x5A22 DUP2 PUSH2 0x59E9 JUMP JUMPDEST SWAP1 POP SWAP2 SWAP1 POP JUMP JUMPDEST PUSH32 0x54686520676C6F62616C2073657373696F6E206D757374206265206F70656E65 PUSH0 DUP3 ADD MSTORE PUSH32 0x6420746F206F70656E2074686520766F74657320726567697374726174696F6E PUSH1 0x20 DUP3 ADD MSTORE POP JUMP JUMPDEST PUSH0 PUSH2 0x5A83 PUSH1 0x40 DUP4 PUSH2 0x3443 JUMP JUMPDEST SWAP2 POP PUSH2 0x5A8E DUP3 PUSH2 0x5A29 JUMP JUMPDEST PUSH1 0x40 DUP3 ADD SWAP1 POP SWAP2 SWAP1 POP JUMP JUMPDEST PUSH0 PUSH1 0x20 DUP3 ADD SWAP1 POP DUP2 DUP2 SUB PUSH0 DUP4 ADD MSTORE PUSH2 0x5AB0 DUP2 PUSH2 0x5A77 JUMP JUMPDEST SWAP1 POP SWAP2 SWAP1 POP JUMP JUMPDEST PUSH32 0x4F6E6C792074686520636F6E74726163742773206F776E65722063616E206F70 PUSH0 DUP3 ADD MSTORE PUSH32 0x656E2061206E65772073657373696F6E00000000000000000000000000000000 PUSH1 0x20 DUP3 ADD MSTORE POP JUMP JUMPDEST PUSH0 PUSH2 0x5B11 PUSH1 0x30 DUP4 PUSH2 0x3443 JUMP JUMPDEST SWAP2 POP PUSH2 0x5B1C DUP3 PUSH2 0x5AB7 JUMP JUMPDEST PUSH1 0x40 DUP3 ADD SWAP1 POP SWAP2 SWAP1 POP JUMP JUMPDEST PUSH0 PUSH1 0x20 DUP3 ADD SWAP1 POP DUP2 DUP2 SUB PUSH0 DUP4 ADD MSTORE PUSH2 0x5B3E DUP2 PUSH2 0x5B05 JUMP JUMPDEST SWAP1 POP SWAP2 SWAP1 POP JUMP JUMPDEST PUSH32 0x4E487B7100000000000000000000000000000000000000000000000000000000 PUSH0 MSTORE PUSH1 0x12 PUSH1 0x4 MSTORE PUSH1 0x24 PUSH0 REVERT JUMPDEST PUSH0 PUSH2 0x5B7C DUP3 PUSH2 0x33DB JUMP JUMPDEST SWAP2 POP PUSH2 0x5B87 DUP4 PUSH2 0x33DB JUMP JUMPDEST SWAP3 POP DUP3 DUP3 MUL PUSH2 0x5B95 DUP2 PUSH2 0x33DB JUMP JUMPDEST SWAP2 POP DUP3 DUP3 DIV DUP5 EQ DUP4 ISZERO OR PUSH2 0x5BAC JUMPI PUSH2 0x5BAB PUSH2 0x3A13 JUMP JUMPDEST JUMPDEST POP SWAP3 SWAP2 POP POP JUMP JUMPDEST PUSH0 PUSH2 0x5BBD DUP3 PUSH2 0x33DB JUMP JUMPDEST SWAP2 POP PUSH2 0x5BC8 DUP4 PUSH2 0x33DB JUMP JUMPDEST SWAP3 POP DUP3 DUP3 ADD SWAP1 POP DUP1 DUP3 GT ISZERO PUSH2 0x5BE0 JUMPI PUSH2 0x5BDF PUSH2 0x3A13 JUMP JUMPDEST JUMPDEST SWAP3 SWAP2 POP POP JUMP JUMPDEST PUSH0 PUSH2 0x5BF0 DUP3 PUSH2 0x33DB JUMP JUMPDEST SWAP2 POP PUSH0 DUP3 SUB PUSH2 0x5C02 JUMPI PUSH2 0x5C01 PUSH2 0x3A13 JUMP JUMPDEST JUMPDEST PUSH1 0x1 DUP3 SUB SWAP1 POP SWAP2 SWAP1 POP JUMP JUMPDEST PUSH0 PUSH1 0x40 DUP3 ADD SWAP1 POP PUSH2 0x5C20 PUSH0 DUP4 ADD DUP6 PUSH2 0x3A87 JUMP JUMPDEST PUSH2 0x5C2D PUSH1 0x20 DUP4 ADD DUP5 PUSH2 0x3A87 JUMP JUMPDEST SWAP4 SWAP3 POP POP POP JUMP INVALID SLOAD PUSH9 0x6520766F7465727320 PUSH19 0x6567697374726174696F6E206973206E6F7720 PUSH16 0x70656E65645468652070726F706F7361 PUSH13 0x7320726567697374726174696F PUSH15 0x206973206E6F7720636C6F73656454 PUSH9 0x652070726F706F7361 PUSH13 0x7320726567697374726174696F PUSH15 0x206973206E6F77206F70656E656454 PUSH9 0x6520766F7465727320 PUSH19 0x6567697374726174696F6E206973206E6F7720 PUSH4 0x6C6F7365 PUSH5 0xA264697066 PUSH20 0x58221220C61923A787C9A201815A6F7F14ADF64D 0x4E 0xCF 0xD1 0xF9 PUSH30 0x9B420050EB8F09056398C864736F6C634300081500330000000000000000 "
		},
		"gasEstimates": {
			"creation": {
				"codeDepositCost": "4762400",
				"executionCost": "infinite",
				"totalCost": "infinite"
			},
			"external": {
				"closeGlobalSession()": "infinite",
				"closeProposalRegistration()": "infinite",
				"closeVotersRegistration()": "infinite",
				"closeVotingSession()": "infinite",
				"consultVote(address)": "infinite",
				"displayProposals()": "infinite",
				"getWinner()": "infinite",
				"getWinningProposal()": "infinite",
				"openNewSession()": "infinite",
				"openProposalRegistration()": "infinite",
				"openVotersRegistration()": "infinite",
				"openVotingSession()": "infinite",
				"owner()": "2582",
				"registerVoter(address)": "infinite",
				"registerVoters(address[])": "infinite",
				"removeVoter(address)": "infinite",
				"removeVoters(address[])": "infinite",
				"renounceOwnership()": "infinite",
				"resetGlobalSession(string)": "infinite",
				"resetVotingSession(string)": "infinite",
				"submitProposal(string)": "infinite",
				"tallyVotes()": "infinite",
				"transferOwnership(address)": "infinite",
				"vote(uint256)": "infinite"
			},
			"internal": {
				"winningProposal()": "infinite"
			}
		},
		"methodIdentifiers": {
			"closeGlobalSession()": "bcee5b2a",
			"closeProposalRegistration()": "07fa315f",
			"closeVotersRegistration()": "582aa4dd",
			"closeVotingSession()": "4de17bca",
			"consultVote(address)": "55880949",
			"displayProposals()": "67469356",
			"getWinner()": "8e7ea5b2",
			"getWinningProposal()": "a5134620",
			"openNewSession()": "ee53e778",
			"openProposalRegistration()": "b2c63487",
			"openVotersRegistration()": "798c0f7e",
			"openVotingSession()": "eaa37999",
			"owner()": "8da5cb5b",
			"registerVoter(address)": "38db6dd3",
			"registerVoters(address[])": "d55ec9c1",
			"removeVoter(address)": "86c1ff68",
			"removeVoters(address[])": "56643ca5",
			"renounceOwnership()": "715018a6",
			"resetGlobalSession(string)": "a941b099",
			"resetVotingSession(string)": "4500f689",
			"submitProposal(string)": "373d6d5e",
			"tallyVotes()": "378a2178",
			"transferOwnership(address)": "f2fde38b",
			"vote(uint256)": "0121b93f"
		}
	},
	"abi": [
		{
			"inputs": [
				{
					"internalType": "address",
					"name": "_contractOwner",
					"type": "address"
				}
			],
			"stateMutability": "nonpayable",
			"type": "constructor"
		},
		{
			"inputs": [
				{
					"internalType": "address",
					"name": "owner",
					"type": "address"
				}
			],
			"name": "OwnableInvalidOwner",
			"type": "error"
		},
		{
			"inputs": [
				{
					"internalType": "address",
					"name": "account",
					"type": "address"
				}
			],
			"name": "OwnableUnauthorizedAccount",
			"type": "error"
		},
		{
			"inputs": [
				{
					"internalType": "uint256",
					"name": "value",
					"type": "uint256"
				},
				{
					"internalType": "uint256",
					"name": "length",
					"type": "uint256"
				}
			],
			"name": "StringsInsufficientHexLength",
			"type": "error"
		},
		{
			"anonymous": false,
			"inputs": [
				{
					"indexed": true,
					"internalType": "address",
					"name": "previousOwner",
					"type": "address"
				},
				{
					"indexed": true,
					"internalType": "address",
					"name": "newOwner",
					"type": "address"
				}
			],
			"name": "OwnershipTransferred",
			"type": "event"
		},
		{
			"anonymous": false,
			"inputs": [
				{
					"indexed": false,
					"internalType": "uint256",
					"name": "proposalId",
					"type": "uint256"
				}
			],
			"name": "ProposalRegistered",
			"type": "event"
		},
		{
			"anonymous": false,
			"inputs": [
				{
					"indexed": false,
					"internalType": "string",
					"name": "SessionResetMessage",
					"type": "string"
				}
			],
			"name": "SessionReset",
			"type": "event"
		},
		{
			"anonymous": false,
			"inputs": [
				{
					"indexed": false,
					"internalType": "address",
					"name": "voter",
					"type": "address"
				},
				{
					"indexed": false,
					"internalType": "uint256",
					"name": "proposalId",
					"type": "uint256"
				}
			],
			"name": "Voted",
			"type": "event"
		},
		{
			"anonymous": false,
			"inputs": [
				{
					"indexed": false,
					"internalType": "address",
					"name": "voterAddress",
					"type": "address"
				}
			],
			"name": "VoterRegistered",
			"type": "event"
		},
		{
			"anonymous": false,
			"inputs": [
				{
					"indexed": false,
					"internalType": "address",
					"name": "voterAddress",
					"type": "address"
				}
			],
			"name": "VoterRemoved",
			"type": "event"
		},
		{
			"anonymous": false,
			"inputs": [
				{
					"indexed": false,
					"internalType": "string",
					"name": "VotingSessionResetMessage",
					"type": "string"
				}
			],
			"name": "VotingSessionReset",
			"type": "event"
		},
		{
			"anonymous": false,
			"inputs": [
				{
					"indexed": false,
					"internalType": "enum Voting.WorkflowStatus",
					"name": "previousStatus",
					"type": "uint8"
				},
				{
					"indexed": false,
					"internalType": "enum Voting.WorkflowStatus",
					"name": "newStatus",
					"type": "uint8"
				}
			],
			"name": "WorkflowStatusChange",
			"type": "event"
		},
		{
			"inputs": [],
			"name": "closeGlobalSession",
			"outputs": [
				{
					"internalType": "string",
					"name": "confirmation",
					"type": "string"
				}
			],
			"stateMutability": "nonpayable",
			"type": "function"
		},
		{
			"inputs": [],
			"name": "closeProposalRegistration",
			"outputs": [
				{
					"internalType": "string",
					"name": "confirmation",
					"type": "string"
				}
			],
			"stateMutability": "nonpayable",
			"type": "function"
		},
		{
			"inputs": [],
			"name": "closeVotersRegistration",
			"outputs": [
				{
					"internalType": "string",
					"name": "confirmation",
					"type": "string"
				}
			],
			"stateMutability": "nonpayable",
			"type": "function"
		},
		{
			"inputs": [],
			"name": "closeVotingSession",
			"outputs": [
				{
					"internalType": "string",
					"name": "confirmation",
					"type": "string"
				}
			],
			"stateMutability": "nonpayable",
			"type": "function"
		},
		{
			"inputs": [
				{
					"internalType": "address",
					"name": "voterToConsult",
					"type": "address"
				}
			],
			"name": "consultVote",
			"outputs": [
				{
					"internalType": "string",
					"name": "voteToDisplay",
					"type": "string"
				}
			],
			"stateMutability": "view",
			"type": "function"
		},
		{
			"inputs": [],
			"name": "displayProposals",
			"outputs": [
				{
					"internalType": "string",
					"name": "proposalsToString",
					"type": "string"
				}
			],
			"stateMutability": "view",
			"type": "function"
		},
		{
			"inputs": [],
			"name": "getWinner",
			"outputs": [
				{
					"internalType": "address",
					"name": "winnerID",
					"type": "address"
				}
			],
			"stateMutability": "view",
			"type": "function"
		},
		{
			"inputs": [],
			"name": "getWinningProposal",
			"outputs": [
				{
					"internalType": "string",
					"name": "winningProp",
					"type": "string"
				}
			],
			"stateMutability": "view",
			"type": "function"
		},
		{
			"inputs": [],
			"name": "openNewSession",
			"outputs": [
				{
					"internalType": "string",
					"name": "confirmation",
					"type": "string"
				}
			],
			"stateMutability": "nonpayable",
			"type": "function"
		},
		{
			"inputs": [],
			"name": "openProposalRegistration",
			"outputs": [
				{
					"internalType": "string",
					"name": "confirmation",
					"type": "string"
				}
			],
			"stateMutability": "nonpayable",
			"type": "function"
		},
		{
			"inputs": [],
			"name": "openVotersRegistration",
			"outputs": [
				{
					"internalType": "string",
					"name": "confirmation",
					"type": "string"
				}
			],
			"stateMutability": "nonpayable",
			"type": "function"
		},
		{
			"inputs": [],
			"name": "openVotingSession",
			"outputs": [
				{
					"internalType": "string",
					"name": "confirmation",
					"type": "string"
				}
			],
			"stateMutability": "nonpayable",
			"type": "function"
		},
		{
			"inputs": [],
			"name": "owner",
			"outputs": [
				{
					"internalType": "address",
					"name": "",
					"type": "address"
				}
			],
			"stateMutability": "view",
			"type": "function"
		},
		{
			"inputs": [
				{
					"internalType": "address",
					"name": "voterToAdd",
					"type": "address"
				}
			],
			"name": "registerVoter",
			"outputs": [
				{
					"internalType": "string",
					"name": "confirmation",
					"type": "string"
				}
			],
			"stateMutability": "nonpayable",
			"type": "function"
		},
		{
			"inputs": [
				{
					"internalType": "address[]",
					"name": "votersToAdd",
					"type": "address[]"
				}
			],
			"name": "registerVoters",
			"outputs": [
				{
					"internalType": "string",
					"name": "confirmation",
					"type": "string"
				}
			],
			"stateMutability": "nonpayable",
			"type": "function"
		},
		{
			"inputs": [
				{
					"internalType": "address",
					"name": "voterToRemove",
					"type": "address"
				}
			],
			"name": "removeVoter",
			"outputs": [
				{
					"internalType": "string",
					"name": "confirmation",
					"type": "string"
				}
			],
			"stateMutability": "nonpayable",
			"type": "function"
		},
		{
			"inputs": [
				{
					"internalType": "address[]",
					"name": "votersToRemove",
					"type": "address[]"
				}
			],
			"name": "removeVoters",
			"outputs": [
				{
					"internalType": "string",
					"name": "confirmation",
					"type": "string"
				}
			],
			"stateMutability": "nonpayable",
			"type": "function"
		},
		{
			"inputs": [],
			"name": "renounceOwnership",
			"outputs": [],
			"stateMutability": "nonpayable",
			"type": "function"
		},
		{
			"inputs": [
				{
					"internalType": "string",
					"name": "message",
					"type": "string"
				}
			],
			"name": "resetGlobalSession",
			"outputs": [],
			"stateMutability": "nonpayable",
			"type": "function"
		},
		{
			"inputs": [
				{
					"internalType": "string",
					"name": "message",
					"type": "string"
				}
			],
			"name": "resetVotingSession",
			"outputs": [],
			"stateMutability": "nonpayable",
			"type": "function"
		},
		{
			"inputs": [
				{
					"internalType": "string",
					"name": "descritpion",
					"type": "string"
				}
			],
			"name": "submitProposal",
			"outputs": [
				{
					"internalType": "string",
					"name": "confirmation",
					"type": "string"
				}
			],
			"stateMutability": "nonpayable",
			"type": "function"
		},
		{
			"inputs": [],
			"name": "tallyVotes",
			"outputs": [],
			"stateMutability": "nonpayable",
			"type": "function"
		},
		{
			"inputs": [
				{
					"internalType": "address",
					"name": "newOwner",
					"type": "address"
				}
			],
			"name": "transferOwnership",
			"outputs": [],
			"stateMutability": "nonpayable",
			"type": "function"
		},
		{
			"inputs": [
				{
					"internalType": "uint256",
					"name": "proposalId",
					"type": "uint256"
				}
			],
			"name": "vote",
			"outputs": [
				{
					"internalType": "string",
					"name": "confirmation",
					"type": "string"
				}
			],
			"stateMutability": "nonpayable",
			"type": "function"
		}
	]
}